:020000040800F2
:1000000000C00020E1060008B9060008BB06000891
:10001000BD060008BF060008C10600080000000079
:10002000000000000000000000000000412C00085B
:10003000C306000800000000D12C0008152D0008A0
:1000400029070008290700082907000829070008D0
:1000500029070008290700082907000829070008C0
:1000600029070008290700082907000829070008B0
:1000700029070008290700082907000829070008A0
:100080002907000829070008290700082907000890
:100090002907000829070008290700082907000880
:1000A0002907000829070008290700082907000870
:1000B00029070008C50600082907000829070008C5
:1000C0002907000829070008290700082907000850
:1000D00029070008D1060008290700082907000899
:1000E0002907000829070008290700082907000830
:1000F0002907000829070008290700082907000820
:10010000290700082907000829070008290700080F
:1001100029070008290700082907000829070008FF
:1001200029070008290700082907000829070008EF
:1001300000000000000000000000000000000000BF
:1001400000000000000000000000000000000000AF
:10015000000000000000000000000000000000009F
:10016000000000000000000000000000000000008F
:10017000000000000000000000000000000000007F
:10018000000000000000000000000000000000006F
:10019000000000000000000000000000000000005F
:1001A000000000000000000000000000000000004F
:1001B000000000000000000000000000000000003F
:1001C000000000000000000000000000000000002F
:1001D000000000000000000000000000000000001F
:0401E0005FF8E0F1F3
:1001F00010B5054C237833B9044B13B10448AFF361
:1002000000800123237010BD1000002000000000BA
:10021000D430000808B5034B1BB103490348AFF3C2
:10022000008008BD0000000014000020D430000849
:10023000034613F8012B002AFBD1181A0138704726
:10024000034B0360034B0B6080231360704700BFB8
:100250002C0200202C00002008B5044C4FF47A70CA
:1002600001F02BFB206801F0A4FBF7E790020020CF
:1002700008B5094E094D0A4C4FF0FF31306801F0C6
:1002800073FB28464FF4807100F081FC0421204666
:1002900000F07DFCF0E700BF900200200008014064
:1002A0000014014008B50F4D0F4C4FF0FF31286886
:1002B00001F05AFB0D49204602F004FF2046FFF7EB
:1002C000B7FF4FF0FF3382B22146094801F012F91F
:1002D0004FF4FA7000F04EFA064B186801F069FB13
:1002E000E3E700BF94020020E00200207E31000816
:1002F0009C0200209802002008B50F4D0F4C4FF0D3
:10030000FF31286801F030FB0D49204602F0DAFE8B
:100310002046FFF78DFF4FF0FF3382B22146094898
:1003200001F0E8F84FF4FA7000F024FA064B186870
:1003300001F03FFBE3E700BF98020020E00200204D
:10034000963100089C0200209402002010B590B065
:100350001422002108A802F0ADFE1422002101A8F9
:1003600002F0A8FE02244FF480330122CDE90D43B0
:10037000CDE906234FF4E01306A80A920F9300F08C
:100380000FFC08B172B6FEE70F23CDE901344FF43C
:1003900080630390CDE90430214601A800F0D6FD2A
:1003A00008B172B6FEE710B010BD000080B5A4B071
:1003B00000F0BCF9FFF7CAFF102200211DA802F0CF
:1003C00079FE4E4B4FF480719A694D4842F02002FD
:1003D0009A619A69002402F020020092009A9A69B8
:1003E000022542F004029A619B69012203F0040392
:1003F0000193019B00F0C6FB01220421414800F05B
:10040000C1FB01274FF4807304263D481DA9CDE9A7
:100410001D37CDE91F4500F0CDFA3A481DA9CDE9B9
:100420001F45CDE91D6700F0C5FA4FF4E1333648AA
:10043000364AC0E90244C0E900230C230461C0E944
:100440000534C46101F028F8054608B172B6FEE72C
:100450003946CDE9020002A801F05AFA2C4B314688
:10046000186004A8CDE9045501F052FA294B314631
:10047000186006A8CDE9065501F04AFA264C274B2C
:1004800008AE18600FCC0FC694E8070086E8070096
:10049000294608A801F0E9F9214B04F10C070FAE39
:1004A00018600FCF0FC697E8070086E807002946B7
:1004B0000FA801F0DAF91B4B04F1280716AE1860FB
:1004C0000FCF0FC697E8070086E80700294616A851
:1004D00001F0CBF9144B1DAE443418600FCC0FC69D
:1004E00094E8070086E8070029461DA801F0BDF939
:1004F0000E4B186001F0B4F9FEE700BF0010024097
:1005000000080140001401409C0200200038014016
:100510009002002094020020EC3000089802002095
:1005200088020020840200208C020020800200202B
:100530000268034B9A4201D100F00AB9704700BF2C
:1005400000040040114B07B59A690F2142F00102E7
:100550009A619A696FF0010002F001020092009A1C
:10056000DA6942F08052DA61DB69002203F08053DD
:100570000193019B00F022F9054A536823F0E063E0
:1005800043F00073536003B05DF804FB00100240B9
:100590000000014010B5044686B01022002102A8D8
:1005A00002F088FD22681B4B9A4230D103F5584374
:1005B0009A69194842F480429A619A6902A902F440
:1005C00080420092009A9A69002442F004029A61E3
:1005D0009B694FF4007203F004030193019B022313
:1005E000CDE902230323059300F0E4F94FF480637F
:1005F000094802A9CDE90234049400F0DBF9252072
:100600002246052100F0DAF8252000F009F906B0AD
:1006100010BD00BF0038014000080140214B70B5FB
:10062000DA6988B042F00202DA61DB69054603F05C
:100630000203029301A903A8029B00F043FD069B5D
:100640004BBB00F01FFD184E184B336040F2E733F0
:10065000F360174BB0FBF3F3013B736000233046AC
:100660003361B360B36100F071FE044680B9304677
:1006700000F048FD044658B91D2000F0D1F80F2DB8
:100680000DD8224629461D2000F098F8094B1D6020
:10069000204608B070BD00F0F5FC4000D3E701240F
:1006A000F6E700BF001002404403002000040040B1
:1006B00040420F0008000020FEE7FEE7FEE7FEE7ED
:1006C000FEE77047014800F053BD00BF440300201F
:1006D000014800F0BDBF00BF9C0200207047000031
:1006E0000C480D490D4A002302E0D458C45004338D
:1006F000C4188C42F9D30A4A0A4C002301E0136063
:100700000432A242FBD3FFF7E9FF02F0A1FCFFF79E
:100710004DFE70470000002010000020E43100086A
:1007200010000020D8140020FEE70000074A08B59A
:100730001368032043F01003136000F02DF80F201E
:10074000FFF76CFFFFF7FEFE002008BD002002400F
:10075000034A044B11681B780B441360704700BFB9
:100760008C03002004000020014B1868704700BF74
:100770008C03002038B50446FFF7F6FF0546631CDE
:100780001EBF044B1B78E418FFF7EEFF431BA34288
:10079000FAD338BD0400002007490302CA6803F4F5
:1007A000E06322F4E0621204120C134343F0BF63CF
:1007B00043F40033CB60704700ED00E0164B30B5DA
:1007C000DC68C4F30224C4F10703251D042B28BFF1
:1007D0000423062D4FF0FF3598BF002405FA03F3DC
:1007E00088BF033C21EA0303A34005FA04F422EA8C
:1007F0000402002843EA0203ACBF00F16040074A4C
:100800004FEA0313DBB2ABBF00F5614000F00F000D
:1008100080F80033135430BD00ED00E014ED00E02B
:10082000002808DB0123420900F01F0003FA00F052
:10083000014B43F82200704700E100E090F82130BE
:10084000022B06D004238363002380F8203001208C
:10085000704703681A6822F00E021A601A6822F0C4
:1008600001021A600123D0E90F218B4053604FF43D
:10087000807303840020704708B590F82130022B64
:1008800003D004238363012008BD036843491A6829
:1008900022F00E021A601A6822F001021A60404A21
:1008A000934241D98B4238D014318B4237D0143126
:1008B0008B4236D014318B4223D014318B4223D05B
:1008C00014318B4223D0934224D002F562729342BA
:1008D00023D01432934222D01432934221D01432C6
:1008E000934214BF4FF480334FF480532D4A53602A
:1008F0004FF480730384436B002B4DD09847002046
:10090000C2E74FF48053F1E74FF48033EEE74FF442
:100910008013EBE74FF08073E8E70123E6E710234D
:10092000E4E74FF48073E1E78B422ED01E498B42FF
:100930002DD014318B422CD014318B4219D014316C
:100940008B4219D014318B4219D093421AD0174AD6
:1009500093421AD01432934219D01432934218D0D1
:100960001432934214BF4FF480334FF48053104A33
:10097000BDE74FF48053FAE74FF48033F7E74FF4C5
:100980008013F4E74FF08073F1E70123EFE71023C2
:10099000EDE74FF48073EAE7184675E70800024078
:1009A00080000240000402401C0002400804024093
:1009B000000002402DE9F74F002216466A4F6B4BAC
:1009C000DFF8ACC1DFF8ACE10C6834FA06F502D10F
:1009D00003B0BDE8F08F4FF0010808FA06F804EA0A
:1009E000080538EA040440F081804C68032C07D8DD
:1009F000013C022C00F28C80DFE804F09DA2A800EC
:100A0000122C00F0A08073D8112C00F09680FF2DDE
:100A100098BF82464FF00F0988BF00F1040A4FEAE1
:100A20008604DAF8008088BF203C09FA04FB28EA33
:100A30000B0802FA04F448EA0404CAF80040D1F8AA
:100A400004A01AF0805F51D0BC6926F0030844F07E
:100A50000104BC61BC6908F1804804F00104019400
:100A600008F5803806F0030B019C4FEA8B0BD8F891
:100A7000084009FA0BF924EA09093F4CA04269D061
:100A800004F58064A04267D004F58064A04265D07C
:100A900004F58064A04263D004F58064A04261D074
:100AA00060450CBF0524062404FA0BF444EA09044B
:100AB000C8F808401C681AF4803F14BF2C43AC43AC
:100AC0001C605C681AF4003F14BF2C43AC435C60AC
:100AD0009C681AF4801F14BF2C43AC439C60DC68F4
:100AE0001AF4001F14BF2C43AC43DC6001366BE7E3
:100AF00074450DD018D8DFF884904C4508D009F51E
:100B000070294C4504D0A9F580194C457FF47FAF7E
:100B10008A68EAB1012A08BFC0F810804FF00802C5
:100B200018BFC0F8148072E7DFF854904C45EFD03E
:100B300009F58039E9E7CA6869E7CA68043266E7F7
:100B4000CA68083263E7CA680C3260E700225EE7D1
:100B500004225CE70024A7E70124A5E70224A3E719
:100B60000324A1E704249FE7001002400004014091
:100B7000001C01400000221000080140000012107B
:100B8000000031100AB1016170470904FBE7C36836
:100B900001EA030221EA030141EA024101617047CF
:100BA0002DE9F341054638B30368DB0710D42B6801
:100BB0009F075ED42B68190700F195802B685A07B0
:100BC00000F1C180E869002840F02C81002029E074
:100BD000904C636803F00C03042B07D0636803F0A8
:100BE0000C03082B0AD16368DE0307D523689C0336
:100BF000DDD56B68002BDAD1012013E06B68B3F50B
:100C0000803F12D1236843F480332360FFF7ACFDAB
:100C1000064623689803CAD4FFF7A6FD801B642804
:100C2000F7D9032002B0BDE8F0819BB9236823F413
:100C300080332360236823F480232360FFF794FD2F
:100C4000064623689903B2D5FFF78EFD801B642802
:100C5000F7D9E6E7B3F5A02F236803D143F4802347
:100C60002360CFE723F480332360236823F48023B9
:100C7000CBE7684C636813F00C0F07D0636803F090
:100C80000C03082B10D16368DA030DD423689B078B
:100C900002D52B69012BAFD123686A6923F0F803D1
:100CA00043EAC203236085E72A695B4B6AB10122EC
:100CB0001A60FFF759FD064623689F07ECD4FFF73B
:100CC00053FD801B0228F7D9ABE71A60FFF74CFDF4
:100CD0000646236898077FF56DAFFFF745FD801B3B
:100CE0000228F6D99DE7AA694A4E4B4BE2B1012290
:100CF000C3F88024FFF738FD0446736A9B070DD5BF
:100D00004FF4FA52454B1B68B3FBF2F3019300BF5B
:100D1000019B5A1E0192002BF9D14FE7FFF724FDEA
:100D2000001B0228E9D97CE7C3F88024FFF71CFDEB
:100D30000446736A9F077FF541AFFFF715FD001B5F
:100D40000228F6D96DE7334CE369D80024D4012793
:100D5000E36943F08053E361E36903F08053009358
:100D6000009B2F4E3368D90518D5EB68012B26D18F
:100D7000236A43F001032362FFF7F6FC41F288384F
:100D80000646236A9B073FD5002F3FF41BAFE3695C
:100D900023F08053E36115E70027E2E7336843F46B
:100DA00080733360FFF7E0FC80463368DA05DCD4FB
:100DB000FFF7DAFCA0EB08006428F6D931E7ABB9FD
:100DC000236A41F2883823F001032362236A23F067
:100DD00004032362FFF7C8FC0646236A9807D3D5AD
:100DE000FFF7C2FC801B4045F7D91AE7052B236AA1
:100DF00003D143F004032362BAE723F00103236223
:100E0000236A23F00403B6E7FFF7AEFC801B4045DE
:100E1000B7D906E70010024000004242000000205F
:100E2000007000402A4C636803F00C03082B3ED08E
:100E30000022284B02281A662CD1FFF795FC0646A3
:100E40002368990120D42B6AB3F5803F05D16268ED
:100E5000A96822F400320A436260696A62680B433F
:100E600022F474121343012263601A4B1A66FFF7CF
:100E70007BFC054623689A013FF5A8AEFFF774FC9A
:100E8000401B0228F6D9CCE6FFF76EFC801B022837
:100E9000D6D9C6E6FFF768FC054623689B017FF5B7
:100EA00095AEFFF761FC401B0228F6D9B9E6012890
:100EB0003FF4B8AE63682A6A03F4803191427FF44C
:100EC0009BAE6A6A03F4701393423FF47FAE93E6DD
:100ED000001002400000424230B5184B87B002AC0F
:100EE00003F11005224618685968083303C2AB4263
:100EF0001446F7D140F201231149ADF804304B6894
:100F000003F00C02082A17D1C3F3834218326A4453
:100F1000DB0312F8100C0CD54B680A4AC3F34043AC
:100F2000504318336B4413F8143CB0FBF3F007B094
:100F300030BD054B5843FAE70248F8E7C6310008D0
:100F40000010024000127A0000093D002DE9F04136
:100F50000D46044610B90120BDE8F081444A1368EB
:100F600003F007038B4228D321688E0730D4CA07C9
:100F700043D43F4A136803F00703AB4265D82268A5
:100F80003C4D12F0040F6CD1130706D56B68226933
:100F900023F4605343EAC2036B60FFF79DFF6B6865
:100FA000354AC3F30313D35CD840344B1860344B39
:100FB0001868FFF733FB0020CEE7136823F0070320
:100FC0000B431360136803F007038B42C3D1CBE7D5
:100FD000284B11F0040F1EBF5A6842F4E0625A60B9
:100FE000080742BF5A6842F460525A605A68A068C3
:100FF00022F0F00202435A60B9E762681D4E012AEE
:1010000033681AD113F4003FA5D0736841F28838D1
:1010100023F0030313437360FFF7A6FB07467368CF
:10102000626803F00C03B3EB820FA2D0FFF79CFBC6
:10103000C01B4045F3D903208EE7022A02D113F0EA
:10104000007FE1E713F0020FDEE7136823F00703E8
:101050002B431360136803F00703AB427FF47BAFAD
:101060008DE76B68E16823F4E0630B436B608BE70B
:101070000020024000100240AE31000800000020B5
:1010800008000020044B054A5B68C3F30223D35CCD
:10109000034A1068D840704700100240BE31000873
:1010A00000000020044B054A5B68C3F3C223D35CF5
:1010B000034A1068D840704700100240BE31000853
:1010C000000000200F2303600B4B5A6802F003025C
:1010D00042605A6802F0F00282605A6802F4E062EC
:1010E000C2605B68DB0803F4E0630361034B1B68C9
:1010F00003F007030B60704700100240002002401D
:101100007047000090F83D30012B28D1022380F871
:101110003D300368DA6842F00102DA60114A934216
:1011200012D002F5006293420ED0B3F1804F0BD083
:10113000A2F59832934207D002F58062934203D021
:1011400002F58062934204D19A6802F00702062AEF
:1011500003D01A6842F001021A6000207047012093
:10116000704700BF002C01407047704770477047C0
:10117000036810B51A69044691070ED5DA6892071C
:101180000BD56FF002021A61012202779B699B075F
:1011900077D0FFF7EAFF0023237723681A69500707
:1011A00010D5DA6851070DD56FF004021A610222DA
:1011B00022779B69204613F4407F68D0FFF7D5FF64
:1011C0000023237723681A6912070FD5DA681007FE
:1011D0000CD56FF008021A6104222277DB692046E1
:1011E00099075AD0FFF7C1FF0023237723681A69B4
:1011F000D20610D5DA68D0060DD56FF010021A614C
:1012000008222277DB69204613F4407F4BD0FFF79A
:10121000ACFF0023237723681A69D10708D5DA6861
:10122000D20705D56FF0010220461A61FFF780F959
:1012300023681A69100608D5DA68110605D56FF01B
:10124000800220461A6100F0AEF823681A6952063F
:1012500008D5DA68500605D56FF0400220461A61BD
:10126000FFF785FF23681A69910622D5DA6892068E
:101270001FD56FF020022046BDE810401A6100F033
:1012800091B8FFF771FF2046FFF770FF83E7FFF784
:101290006BFF2046FFF76AFF92E7FFF765FF2046E6
:1012A000FFF764FFA0E7FFF75FFF2046FFF75EFF51
:1012B000AFE710BD244A0368904212D002F50062E5
:1012C00090420ED0B0F1804F0BD0A2F598329042F0
:1012D00007D002F58062904203D002F5806290420E
:1012E0001DD14A6823F070031343174A904212D06D
:1012F00002F5006290420ED0B0F1804F0BD0A2F503
:101300009832904207D002F58062904203D002F5F5
:101310008062904203D1CA6823F4407313434A6940
:1013200023F08003134303608B68C3620B688362FE
:10133000054B984203D003F50063984201D10B6935
:101340000363012343617047002C014010B504463C
:1013500030B390F83D3003F0FF021BB980F83C2019
:10136000FFF7CEFE0223206884F83D30211DFFF7F1
:10137000A1FF0123002084F8463084F83E3084F831
:101380003F3084F8403084F8413084F8423084F8AB
:10139000433084F8443084F8453084F83D3010BD43
:1013A0000120FCE7704770470368DA6822F4907206
:1013B000DA605A6922F001025A61026B012A02BF07
:1013C000DA6822F01002DA60202380F83E30002331
:1013D0000363704710B504460368C1681A6922F4B4
:1013E00040520A431A6182680069D9680243606901
:1013F00021F4B05121F00C0102430A43DA605A692A
:10140000A16922F440720A435A610E4A934215D1EF
:10141000FFF748FE19234343626820689200B3FB3C
:10142000F2F36422B3FBF2F102FB11331B013233FE
:10143000B3FBF2F303EB0113836010BDFFF722FE51
:10144000E8E700BF00380140F8B504460E461746ED
:101450001D462268136836EA030301D1002014E018
:101460006B1CF7D095B923680320DA6822F4D07298
:10147000DA605A6922F001025A61202384F83D3073
:1014800084F83E30002384F83C30F8BDFFF76CF957
:10149000C01B8542DDD2E6E710B5044640B390F8A4
:1014A0003D3003F0FF021BB980F83C20FFF772F8D3
:1014B0002423226884F83D30D368204623F4005367
:1014C000D360FFF787FF236800201A6922F4904257
:1014D0001A615A6922F02A025A61DA6842F400520B
:1014E000DA602023206484F83D3084F83E3010BD5B
:1014F0000120FCE72DE9F843994690F83D30044679
:10150000202B0E46174648D1002944D0002A42D04D
:1015100090F83C30012B40D00123002580F83C306E
:101520002123056480F83D30FFF71EF9A36880464B
:10153000B3F5805FA784E78403D123690BB93546EF
:101540001E46002384F83C30E38C9BB253B94B46D3
:10155000424640212046FFF777FF50B9202384F808
:101560003D3007E04B46424680212046FFF76CFFA6
:1015700010B10320BDE8F88322684EB935F8023B6C
:10158000C3F308035360E18C013989B2E184DBE7DE
:1015900016F8013BF6E70120ECE70220EAE7704786
:1015A0007047704708B50023406AC385C384FFF7BE
:1015B000F8FF08BD704707B58168836AB1F5805FA1
:1015C000026834D10169002934D15268C2F308029B
:1015D00023F8022BC28D8362013A92B2C2851ABBF4
:1015E0000368D96821F02001D960D96821F480719D
:1015F000D960596921F001015961202180F83E101C
:10160000016B012920D10263D96821F01001D96052
:101610001968C90605D501921A6801925B680193A1
:10162000019B818DFFF7C6FF03B05DF804FB39B95C
:10163000016929B95268D2B21A70836A0133C9E7C5
:10164000526802F07F02F7E7FFF7AAFFECE700001D
:10165000036837B51A68044612F00F0FD9685D6940
:101660000CD1950667D58D0665D590F83E30222BB6
:101670005BD103B0BDE83040FFF79DBF05F001002E
:1016800001F49075054356D0D50705D5CB0542BF6B
:10169000236C43F001032364550704D518B1236C70
:1016A00043F002032364930704D518B1236C43F07D
:1016B00004032364150707D501F0200303431EBF6D
:1016C000236C43F008032364236C73B3920608D59C
:1016D0008B0606D594F83E30222B02D12046FFF728
:1016E0006AFF236820465B69256C03F0400305F020
:1016F00008051D431BD0FFF757FE23685A6955069E
:1017000010D55A69A06B22F040025A6150B1534B78
:101710004363FFF7B1F840B1A06B436B03B0BDE882
:10172000304018472046FFF73CFF03B030BDFFF7BD
:1017300038FF2564F9E7206B012855D1D00653D531
:10174000CD0651D5002101911A6801925A68019283
:10175000019A5A6912F040022AD0A06B02685268BE
:1017600092B2002AE1D0A58D9542DED9E285826948
:10177000202A15D0DA6822F48072DA605A6922F0E1
:1017800001025A615A6922F040025A61202284F80B
:101790003E202163DA6822F01002DA60FFF74EF88B
:1017A000E38DA18DC91A89B22046FFF703FFBCE77C
:1017B000E18D88B2E18D89B20029B6D0A18D091AD8
:1017C00089B20029B1D0D86820F49070D8605869E7
:1017D00020F001005861202084F83E002263DA687E
:1017E00022F01002DA60DFE7100626D50D0624D5B8
:1017F00094F83D20212A98D1A168226AB1F5805F32
:1018000016D12169A1B932F8021BC1F30801596050
:101810002262E28C013A92B2E284002A85D1DA682F
:1018200022F08002DA60DA6842F04002DA607CE797
:10183000511C216212785A60EBE750067FF575AFB4
:101840004A067FF572AFDA68204622F04002DA607D
:10185000202384F83D30FFF7A2FE66E7A5150008B7
:1018600008B500F041FE002008BD70B50546466988
:101870000B46D0E900102A69B5F9084086B076B168
:10188000AD6965B1842C0CBF00240334CDE901653A
:10189000009400F0C4FD0590059806B070BD842C3E
:1018A0000CBF0024033405ADCDE9004592B200F031
:1018B000EDFD0128F0D00020EFE708B5012838BF82
:1018C000012000F059FF002008BD13B50024019449
:1018D000EFF30583A3B101A900F0D9FA012815D1CE
:1018E000019B13B9002002B010BD4FF0E0234FF070
:1018F0008052C3F8042DBFF34F8FBFF36F8FF1E712
:101900001A46194600F010FA0128EBD0FF20EAE74A
:10191000034637B55D68084695B101290AD103230E
:101920000022009311462B4600F051F90446204650
:1019300003B030BD2A4603B0BDE8304000F0B4B972
:1019400001290CD10322294600F08AF90446002817
:10195000EDD02B462A46294600F0E6F9E7E703B02A
:10196000BDE8304000F0C2B913B500240194F0B1D5
:10197000EFF30583ABB1214601AA00F09FFB0128DC
:1019800013D1019B13B9002002B010BD4FF0E0232A
:101990004FF08052C3F8042DBFF34F8FBFF36F8F0A
:1019A000F1E700F0C8FA0128EDD0FF20ECE7802035
:1019B000EAE7FFF78ABF4FF0FF3200F10803C0E902
:1019C0000223436003610023036070470023036127
:1019D000704743689A684B608A609A685160996062
:1019E0000368086101330360704730B50C68631CFD
:1019F0000AD103695A684A6091608B605960036834
:101A000008610133036030BD00F1080213465268DB
:101A10001568A542FAD9EDE70369D0E901128A6099
:101A200051605968814208BF5A60002202611A68F9
:101A3000013A1A601868704710B5044601F012F9AF
:101A4000A46B01F02FF9B4FA84F0400910BDF8B589
:101A50001546026C0446866B52B9076847BB40685E
:101A600000F0F4FF0546676001362846A663F8BD1E
:101A700065B9806801F010FBA368226C13446268AA
:101A8000A3609342F0D32368A360EDE7C06801F040
:101A900003FB226CE36851429B1A2268E360934285
:101AA0003EBF63685B18E360022D01D116B1013EB1
:101AB0000025D9E73546D7E703461A6C084610B427
:101AC00062B1DC68596814448C4228BF1968DC6034
:101AD00028BFD960D96810BC01F0DEBA10BC7047CD
:101AE00070B5044601F0BEF894F8455004F12406A0
:101AF0006DB2002D14DCFF2384F8453001F0D2F8DC
:101B000001F0B0F894F8445004F110066DB2002DC5
:101B100012DCFF2384F84430BDE8704001F0C2B805
:101B2000636A002BE7D0304600F09EFE08B100F05B
:101B300025FF013D6DB2DCE72369002BE9D030467B
:101B400000F092FE08B100F019FF013D6DB2DEE732
:101B500038B50D46044640B94FF0500383F3118861
:101B6000BFF36F8FBFF34F8FFEE701F07BF8D4E92F
:101B70000F314B432268D0185B1A13446060E36056
:101B80000020FF23A063A26084F8443084F845302D
:101B9000A5B9236973B104F1100000F065FE48B1E6
:101BA0004FF0E0234FF08052C3F8042DBFF34F8F66
:101BB000BFF36F8F01F076F8012038BD04F11000FB
:101BC000FFF7F9FE04F12400FFF7F5FEF2E737B561
:101BD0000D461C4640B94FF0500383F31188BFF304
:101BE0006F8FBFF34F8FFEE743B94FF0500383F37E
:101BF0001188BFF36F8FBFF34F8FFEE74AB191B9E2
:101C00004FF0500383F31188BFF36F8FBFF34F8FF3
:101C1000FEE741B14FF0500383F31188BFF36F8F9C
:101C2000BFF34F8FFEE748230193019B482B08D059
:101C30004FF0500383F31188BFF36F8FBFF34F8FC3
:101C4000FEE70121002D08BF2246C4E90F0584F8F4
:101C5000461020462260FFF77BFF204603B030BDD0
:101C600070B50D46064640B94FF0500383F3118816
:101C7000BFF36F8FBFF34F8FFEE74843483001F04B
:101C80001FF9044660B1002380F8463055B100F1D9
:101C9000480301212046C4E90F652360FFF758FF80
:101CA000204670BD0346F4E713B513460C4640B911
:101CB0004FF0500383F31188BFF36F8FBFF34F8F43
:101CC000FEE7884208D24FF0500383F31188BFF338
:101CD0006F8FBFF34F8FFEE7022200920022114662
:101CE000FFF775FF00B1846302B010BD10B50C465C
:101CF00040B94FF0500383F31188BFF36F8FBFF3E8
:101D00004F8FFEE7884208D24FF0500383F31188CB
:101D1000BFF36F8FBFF34F8FFEE702220021FFF763
:101D20009FFF00B1846310BD2DE9F04385B0884664
:101D30001F460446019240B94FF0500383F31188C7
:101D4000BFF36F8FBFF34F8FFEE751B9036C43B101
:101D50004FF0500383F31188BFF36F8FBFF34F8FA2
:101D6000FEE7022F0BD1E36B012B08D04FF050039D
:101D700083F31188BFF36F8FBFF34F8FFEE700F03F
:101D800003FE064650B9019B4BB14FF0500383F35D
:101D90001188BFF36F8FBFF34F8FFEE700264FF020
:101DA000000937E0019D1DB900F07CFF002052E0E2
:101DB00016B902A800F09AFD00F074FF00F0CCFB09
:101DC00000F050FF94F84430FF2B08BF84F8449093
:101DD00094F84530FF2B08BF84F8459000F062FF6F
:101DE00001A902A800F08EFD00284AD100F03AFFB8
:101DF000A26BE36B9A4231D100F054FF019904F1D8
:101E0000100000F017FD2046FFF76AFE00F03EFCD0
:101E100060B3012600F026FFA26BE36B9A4201D368
:101E2000022FBFD13A4641462046FFF710FE636AB3
:101E30001BB104F1240000F017FD48B14FF0E0237E
:101E40004FF08052C3F8042DBFF34F8FBFF36F8F55
:101E500000F028FF012005B0BDE8F08300F022FF6C
:101E60002046FFF73DFE00F011FCD2E74FF0E023E3
:101E70004FF08052C3F8042DBFF34F8FBFF36F8F25
:101E8000C7E72046FFF72CFE00F000FC8EE770B598
:101E90000D46044640B94FF0500383F31188BFF359
:101EA0006F8FBFF34F8FFEE7036C43B14FF05003CA
:101EB00083F31188BFF36F8FBFF34F8FFEE7036883
:101EC00053B9436843B14FF0500383F31188BFF314
:101ED0006F8FBFF34F8FFEE700F0A0FFEFF3118687
:101EE0004FF0500383F31188BFF36F8FBFF34F8F11
:101EF000A26BE36B93421CD994F845100132FF2981
:101F00004BB2A26310D1636A0BB9012009E004F15E
:101F1000240000F0A9FC0028F7D0002DF5D0012006
:101F2000286086F3118870BD01335BB284F84530B8
:101F3000EBE70020F5E7F0B585B00446019140B924
:101F40004FF0500383F31188BFF36F8FBFF34F8FB0
:101F5000FEE7056C45B14FF0500383F31188BFF3E2
:101F60006F8FBFF34F8FFEE700F00EFD064650B9AE
:101F7000019B5BB14FF0500383F31188BFF36F8F68
:101F8000BFF34F8FFEE72E46002753E00546FBE7E1
:101F9000019B63B945B14FF0500383F31188BFF340
:101FA0006F8FBFF34F8FFEE700F07CFE62E016B943
:101FB00002A800F09BFC00F075FE00F0CDFA00F0E6
:101FC00051FE94F84430FF2B08BF84F8447094F815
:101FD0004530FF2B08BF84F8457000F063FE01A96F
:101FE00002A800F08FFC00284DD12046FFF724FD09
:101FF000002842D023683BB900F034FE606800F04E
:10200000D3FC054600F04EFE019904F1240000F0D7
:1020100011FC2046FFF764FD00F038FB48B94FF093
:10202000E0234FF08052C3F8042DBFF34F8FBFF36E
:102030006F8F012600F016FEA36B002BA8D0013B8A
:10204000A363236813B900F0A9FD6060236973B12D
:1020500004F1100000F008FC48B14FF0E0234FF00D
:102060008052C3F8042DBFF34F8FBFF36F8F00F082
:1020700019FE0125284605B0F0BD2046FFF730FDCA
:1020800000F004FBD5E72046FFF72AFD00F0FEFA3A
:102090002046FFF7D1FC0028CBD0002DEAD000F07D
:1020A000E1FD616A19B1236B1968C1F1070160682C
:1020B00000F01CFD002500F0F5FDDBE72DE9F843FD
:1020C00089469046054640B94FF0500383F3118886
:1020D000BFF36F8FBFF34F8FFEE751B9036C43B16E
:1020E0004FF0500383F31188BFF36F8FBFF34F8F0F
:1020F000FEE700F093FEEFF311874FF0500383F3F8
:102100001188BFF36F8FBFF34F8FAC6B1CB395F883
:1021100044604946284676B2FFF7CEFC013C731C6A
:10212000AC6313D12B690BB901200BE005F1100052
:1021300000F09AFB0028F7D0B8F1000FF4D001208E
:10214000C8F8000087F31188BDE8F883013676B23D
:1021500085F84460E8E72046F4E700002DE9F04107
:10216000044600F07FFD2F4B2F4E1A682F4F01328F
:102170001A603568002D4AD134601B68012B1FD1CD
:10218000B84640460135FFF716FC072D08F1140844
:10219000F7D1DFF89C80274D4046FFF70CFC28461E
:1021A000FFF709FC2448FFF706FC2448FFF703FC6F
:1021B0002348FFF700FC234BC3F80080224B1D602F
:1021C000224A234913680868013313600123E26A35
:1021D0009340034314200B6000FB0270211DFFF7A6
:1021E000F8FB00F05FFD1B4B1B6873B13368DA6AC4
:1021F000E36A9A4209D24FF0E0234FF08052C3F8CD
:10220000042DBFF34F8FBFF36F8FBDE8F081114BEB
:102210001B68002BD4D13368DA6AE36A9A4298BF0C
:102220003460CDE728040020900300209C030020A8
:102230004004002054040020700400209C0400206E
:102240008804002094030020980300203804002014
:102250003C04002084040020F8B51A4B1A4D0646B1
:102260001C6828680F460430FFF7D6FB40B92A687F
:102270001649D06A01220B68824023EA02030B60F0
:10228000731C07D137B1296811480431BDE8F84003
:10229000FFF79FBB2B68A4195C6007D30D4B186830
:1022A0002968BDE8F8400431FFF79FBB0A4B186866
:1022B00029680431FFF799FB084B1A68A24288BFCE
:1022C0001C60F8BDB0040020900300203C040020F6
:1022D0008804002098030020940300206804002054
:1022E000064A13681968064B19B94FF0FF321A6095
:1022F00070471268D268D2685268F8E794030020E9
:102300006804002010B590F8513004463BB9006BCA
:1023100000F066FE2046BDE8104000F061BE012BD3
:10232000F9D0022B08D04FF0500383F31188BFF38C
:102330006F8FBFF34F8FFEE710BD000080B5134CC9
:10234000134F144D236873B9134B1B68012BF8D935
:102350004FF0E0234FF08052C3F8042DBFF34F8FAE
:10236000BFF36F8FEDE700F07DFCFB68DE68301D8A
:10237000FFF752FB2B68013B2B602368013B236076
:1023800000F090FC3046FFF7BDFFDBE72C04002097
:102390009C040020280400209C0300202DE9F04725
:1023A0000746DDE9098402F18040266B013806EB1F
:1023B0008006994626F007064B1E04F134020F31C1
:1023C00013F8010F02F8010B08B18B42F8D1089DF8
:1023D0004FF0000A062D28BF0625201DC4E9115A1A
:1023E000E56284F843A0FFF7F1FAC5F1070504F1AF
:1023F0001800FFF7EBFAC4F84CA04A4639463046BD
:102400002461A561646284F850A000F003FC2060A0
:10241000B8F1000F01D0C8F80040BDE8F08770B5F2
:1024200086B0DDE90B5445B94FF0500383F31188B2
:10243000BFF36F8FBFF34F8FFEE744B94FF05003E8
:1024400083F31188BFF36F8FBFF34F8FFEE75426DE
:102450000596059E542E08D04FF0500383F3118843
:10246000BFF36F8FBFF34F8FFEE72563022584F81C
:10247000515004AD01950A9D02940095FFF78EFF1F
:102480002046FFF76BFE049806B070BD2DE9F043BF
:10249000074685B0900088461646994600F010FD24
:1024A0000546E8B1542000F00BFD0446A8B1002316
:1024B00080F851300D9B056301930C9B32464146D9
:1024C0000290009338464B46FFF768FF2046FFF71F
:1024D00045FE012005B0BDE8F083284600F080FDF0
:1024E0004FF0FF30F6E7000010B5002488B007AACF
:1024F00006A905A8CDE90544FDF7A2FE059B079AAC
:102500000293069B0F49CDE900430F482346FFF78E
:1025100086FFA8B14FF0500383F31188BFF36F8F8C
:10252000BFF34F8F4FF0FF32084B1A600122084B68
:102530001A60084B1C6008B0BDE8104000F012BCE7
:1025400008B010BDD73100083D2300086804002002
:1025500084040020B0040020024A13680133136091
:10256000704700BF340400202DE9F84F3C4B1B6836
:10257000002B6ED13B4B1D6801351D60BDB93A4B38
:102580001A68126842B14FF0500383F31188BFF309
:102590006F8FBFF34F8FFEE7344A196810681860D9
:1025A0001160334A136801331360FFF799FE314E0F
:1025B00000243368304FAB4210D914222F4B1B68D4
:1025C000DB6A5343FB58022B28BF01242C4B1B68AA
:1025D000002B0CBF20460120BDE8F88FDFF888A053
:1025E000DFF8A090DAF800301B681BB94FF0FF331A
:1025F0003360E2E7DAF80030DB68D3F80CB0DBF8E0
:102600000420954201D23260D7E70BF1040840461E
:10261000FFF702FADBF828201AB10BF11800FFF7D8
:10262000FBF90122DBF82C00D9F8003082401A4374
:10263000C9F800201422414602FB0070FFF7C9F9D7
:102640000E4BDBF82C201968CB6A9A4228BF012474
:10265000C8E70D4A0024136801331360B6E700BFD2
:1026600034040020B00400209403002098030020CC
:102670006C040020680400209C03002090030020CC
:10268000B40400203C040020300400202DE9F8436D
:10269000314C236843B94FF0500383F31188BFF3E3
:1026A0006F8FBFF34F8FFEE700F0DCFA2368013B2A
:1026B000236024682CB1002400F0F4FA2046BDE821
:1026C000F883264B1B68002BF5D0254D254EDFF8EF
:1026D00098801FE0EB680127DC6804F1040904F12D
:1026E0001800FFF799F94846FFF796F91420E26AB7
:1026F000316807FA02F30B4300FB0280494633605E
:10270000FFF767F9194BE26A1B68DB6A9A4201D34B
:10271000174B1F602B68002BDCD10CB1FFF7E0FDDD
:10272000144D2C6844B10127114EFFF71DFF00B175
:102730003760013CF9D12C600D4B1B68002BBAD0DF
:102740004FF0E0234FF08052C3F8042DBFF34F8FBA
:10275000BFF36F8F0124AFE734040020280400206A
:10276000700400203C0400209C0300209003002003
:10277000B40400203004002008B550B94FF0E02325
:102780004FF08052C3F8042DBFF34F8FBFF36F8F0C
:1027900008BD0A4B196841B14FF0500383F311880B
:1027A000BFF36F8FBFF34F8FFEE7FFF7D5FEFFF745
:1027B00053FDFFF76BFF0028E0D0E9E73404002069
:1027C000174B10B51A68174B12B101221A6010BDD1
:1027D0001A60154B1A68B2FA82F21423D2B2C2F10F
:1027E0001F0253431149CC58C81844B94FF0500345
:1027F00083F31188BFF36F8FBFF34F8FFEE74468F9
:10280000083364680B449C4208BF6368446008BF97
:102810004360142303FB02125368DA68044BD5E7C4
:1028200034040020B40400203C0400209C03002059
:102830009003002010B50C4640B94FF0500383F3CD
:102840001188BFF36F8FBFF34F8FFEE7054B1968F9
:102850001831FFF7CAF82046BDE810400121FFF704
:10286000FBBC00BF9003002038B5C368DC6844B9E6
:102870004FF0500383F31188BFF36F8FBFF34F8F77
:10288000FEE704F118052846FFF7C6F8114B1B6850
:10289000E3B9251D2846FFF7BFF801230E49E26A78
:1028A00008689340034314200B6029460B4B00FB40
:1028B0000230FFF78EF80A4BE26A1B68DB6A9A4225
:1028C00085BF0120074B0020186038BD2946064807
:1028D000EFE700BF340400203C0400209C030020EC
:1028E00090030020B404002070040020034B1B68F8
:1028F0000360034B1B684360704700BF6C040020FB
:10290000B004002070B50C46054640B94FF05003A6
:1029100083F31188BFF36F8FBFF34F8FFEE741B989
:102920004FF0500383F31188BFF36F8FBFF34F8FC6
:10293000FEE700F097F90F4B196823685A1C10D076
:102940000D482E6800686A68864201D08A420FD915
:10295000881A83420AD95B1A134428462360FFF77A
:10296000C5FF002400F09EF9204670BD00232360BF
:102970000124F7E7B00400206C0400200122014B81
:102980001A607047B4040020054B1B6833B1054B37
:102990001B68002B0CBF02200020704701207047ED
:1029A00084040020340400202DE9F041044658B38B
:1029B000234DC36A2A68D26A934239D214268269A7
:1029C000204F002AA8BF2A6806FB0373A2BFD26A61
:1029D000C2F10702826142699A4217D100F10408EC
:1029E0004046FFF719F8184BB0B12A681968D26A47
:1029F000E262012404FA02F0084318601420414600
:102A000000FB0270FEF7E5FF204603E02B68DB6A5F
:102A1000C3620120BDE8F081E06A4643BA59002A4A
:102A2000E3D101211A68814022EA01021A60DCE741
:102A30002B68406CDC6AA0422CBF00200120E9E733
:102A4000900300209C0300203C040020F8B50446BD
:102A500008B90020F8BD224B1B68834208D04FF014
:102A6000500383F31188BFF36F8FBFF34F8FFEE7DF
:102A70009B6C43B94FF0500383F31188BFF36F8F02
:102A8000BFF34F8FFEE7C16A426C013B9142836402
:102A9000DFD0002BDDD1061D3046FEF7BDFF114F04
:102AA000114A50B91421E06A41437B582BB90125E2
:102AB0001368854023EA05031360636C1420C3F197
:102AC0000701A161E3620124116804FA03F500FB28
:102AD00003700D4331461560FEF77BFF2046B9E7D2
:102AE000900300209C0300203C040020F8B504461D
:102AF00000284BD0826C42B94FF0500383F3118809
:102B0000BFF36F8FBFF34F8FFEE7436C994238BF1F
:102B10001946C36A8B4239D0012A37D11C4A126840
:102B2000824208D14FF0500383F31188BFF36F8FB7
:102B3000BFF34F8FFEE71425164E826905FB036332
:102B4000002A4269C162A4BFC1F1070181619A42B2
:102B50001CD1071D3846FEF75FFFE26A0E4C40B9F4
:102B6000554373592BB901212368914023EA01038E
:102B7000236001231420216893400B4300FB026073
:102B800039462360BDE8F840FEF723BFF8BD00BF1B
:102B9000900300209C0300203C040020044B1A6892
:102BA0001AB119688A6C01328A641868704700BFCC
:102BB0009003002006480068006880F3088862B629
:102BC00061B6BFF34F8FBFF36F8F00DF00BF000010
:102BD00008ED00E0002382B001930D4B1B68013328
:102BE00008D04FF0500383F31188BFF36F8FBFF30A
:102BF0004F8FFEE74FF0500383F31188BFF36F8FC1
:102C0000BFF34F8F019B002BFCD002B0704700BF79
:102C10000C0000204FF0807340F8043C054B21F07D
:102C2000010140F8081C40F80C3C40F8202C4038CA
:102C3000704700BFD52B0008000000000000000016
:102C4000074B19680868B0E8F00F80F30988BFF3F4
:102C50006F8F4FF0000080F311884EF00D0E70471B
:102C6000900300204FF0500383F31188BFF36F8F60
:102C7000BFF34F8F0A4A13680133012B13600ED143
:102C80004FF0E023D3F8043DDBB243B14FF05003E3
:102C900083F31188BFF36F8FBFF34F8FFEE7704749
:102CA0000C000020084A136843B94FF0500383F327
:102CB0001188BFF36F8FBFF34F8FFEE7013B1360A7
:102CC0000BB983F3118870470C000020000000004E
:102CD000EFF30980BFF36F8F0D4B1A6820E9F00FF7
:102CE00010602DE908404FF0500080F31188FFF785
:102CF00067FD4FF0000080F31188BDE808401968B7
:102D00000868B0E8F00F80F30988BFF36F8F704751
:102D10009003002008B54FF0500383F31188BFF3F0
:102D20006F8FBFF34F8FFFF71FFC28B14FF0E023E9
:102D30004FF08052C3F8042D002383F3118808BD9F
:102D40004FF0E02200234FF47A7113619361044B3A
:102D50001B68B3FBF1F3013B536107231361704719
:102D60000000002013B5294B00211A78D2B201923D
:102D7000FF221A701B78264ADBB28DF803309DF8CB
:102D8000033003F0500313700723224A13609DF8A9
:102D900003005C1E00060CD411B1032B136011D08C
:102DA0004FF0500383F31188BFF36F8FBFF34F8F42
:102DB000FEE79DF8033001215B00DBB28DF80330A4
:102DC0002346E4E74FF440731360019B0F4ADBB2E4
:102DD00013704FF0E0230024D3F8202D42F470024A
:102DE000C3F8202DD3F8202D42F07042C3F8202DD7
:102DF000FFF7A6FF084B1C60FFF7DCFEFFF7E0FCC7
:102E00002046FFF7E7FE02B010BD00BF00E400E07F
:102E1000B8040020BC0400200C000020EFF3058360
:102E20000F2B0ED9114A9B5C114A12789A4208D98D
:102E30004FF0500383F31188BFF36F8FBFF34F8FB1
:102E4000FEE74FF0E0230B4AD3F80C3D126803F481
:102E5000E063934208D94FF0500383F31188BFF326
:102E60006F8FBFF34F8FFEE7704700BFF0E300E0C6
:102E7000B8040020BC04002010B50F4B1A461B6894
:102E80008342FBD354681119884201BF4168104640
:102E900009195160446801198B4207D10749096833
:102EA0008B421FBF59681B6809194160904203603B
:102EB00018BF106010BD00BFD0140020C004002057
:102EC0002DE9F0410446FFF747FB3F483F4D0368BB
:102ED0000BBB3F494E071DBFCB1D23F0070301F578
:102EE00080524FF480521CBF1946D21A00230A4464
:102EF000384E083A22F0070273603160C2E90033AD
:102F0000531AC1E900230260334A1360334A136045
:102F10004FF000432B602F68274250D1002C41D046
:102F200004F1080361071CBF23F007030833002BDB
:102F300045D02A4C26689E4241D3264A15686968C6
:102F4000994204D2D5F800C0BCF1000F15D1006839
:102F5000A84234D02868C91A1029D2F8008010601D
:102F600012D9E81842070BD04FF0500383F31188B1
:102F7000BFF36F8FBFF34F8FFEE72A466546DEE74C
:102F800041606B60FFF778FF6B681349F61A1F43C7
:102F9000002308682660864238BF0E6008F10804E6
:102FA0006F602B60FFF772FB63070AD04FF050038E
:102FB00083F31188BFF36F8FBFF34F8FFEE70024B9
:102FC000F0E72046BDE8F081C0040020C4140020D2
:102FD000C4040020D0140020CC140020C814002009
:102FE00010B5044670B3184A50F8043C12681342F6
:102FF00008D14FF0500383F31188BFF36F8FBFF3F5
:103000004F8FFEE750F8081C41B14FF0500383F397
:103010001188BFF36F8FBFF34F8FFEE723EA0203E0
:1030200040F8043CFFF798FA084A54F8043C116849
:10303000A4F108000B441360FFF71EFFBDE8104029
:10304000FFF724BB10BD00BFC4140020C81400202B
:1030500070B500260C4D0D4C641BA410A64209D17E
:1030600000F038F800260A4D0A4C641BA410A64252
:1030700005D170BD55F8043B98470136EEE755F889
:10308000043B98470136F2E7DC310008DC310008E8
:10309000DC310008E03100080A44914200F1FF33BE
:1030A00000D1704710B511F8014B914203F8014F60
:1030B000F9D110BD03460244934200D1704703F892
:1030C000011BF9E7034611F8012B03F8012B002A35
:1030D000F9D17047F8B500BFF8BC08BC9E467047F0
:0C30E000F8B500BFF8BC08BC9E46704765
:1030EC005C310008590200080000000000000000DC
:1030FC0080000000000000000000000065310008A6
:10310C0071020008000000000000000080000000B8
:10311C0000000000000000006C310008A50200084F
:10312C000000000000000000800000000000000013
:10313C000000000075310008F9020008FFFF0000D4
:10314C0000000000800000000000000000000000F3
:10315C00506572696F6469630048616E646C6500E8
:10316C0050726F647563657200436F6E73756D6535
:10317C00720050726F64756365722070726F647543
:10318C00636520646174610D0A00436F6E73756D25
:10319C00657220636F6E73756D6520646174610D6B
:1031AC000A000000000000000000010203040607F2
:1031BC0008090000000001020304020304050607CD
:1031CC0008090A0B0C0D0E0F10100049444C450059
:0431DC0015020008D0
:0431E000F1010008F1
:1031E4000024F4000100000010000000AAAAAAAA0A
:04000005080006E108
:00000001FF
