:020000040800F2
:1000000000C00020BD0500084D0500084F05000890
:1000100051050008530500085505000800000000C0
:10002000000000000000000000000000570500086C
:1000300059050008000000005B0500085D05000888
:100040006105000805060008050600080506000809
:100050000506000805060008050600080506000854
:100060000506000805060008050600080506000844
:100070000506000805060008050600080506000834
:100080000506000805060008050600080506000824
:100090000506000805060008050600080506000814
:1000A0000506000805060008050600080506000804
:1000B000050600086D05000805060008050600088D
:1000C00005060008050600080506000805060008E4
:1000D00005060008050600080506000805060008D4
:1000E00005060008050600080506000805060008C4
:1000F00005060008050600080506000805060008B4
:1001000005060008050600080506000805060008A3
:100110000506000805060008050600080506000893
:100120000506000805060008050600080506000883
:1001300000000000000000000000000000000000BF
:1001400000000000000000000000000000000000AF
:10015000000000000000000000000000000000009F
:10016000000000000000000000000000000000008F
:10017000000000000000000000000000000000007F
:10018000000000000000000000000000000000006F
:10019000000000000000000000000000000000005F
:1001A000000000000000000000000000000000004F
:1001B000000000000000000000000000000000003F
:1001C000000000000000000000000000000000002F
:1001D000000000000000000000000000000000001F
:0401E0005FF8E0F1F3
:1001E40010B5054C237833B9044B13B10448AFF36D
:1001F40000800123237010BD700000200000000067
:100204003C1E000808B5034B1BB103490348AFF378
:10021400008008BD00000000740000203C1E00089F
:10022400034613F8012B002AFBD1181A0138704732
:1002340010B590B01422002108A801F07BF9142213
:10024400002101A801F076F902244FF48033012241
:10025400CDE90D43CDE906234FF4E01306A80A9235
:100264000F9300F077FB08B172B6FEE70F23CDE9D8
:1002740001344FF480630390CDE90430214601A892
:1002840000F03EFD08B172B6FEE710B010BD0000EC
:1002940070B500254FF400469EB000F0D7F9FFF783
:1002A400C7FF4A4B08959A69494842F020029A616F
:1002B4009A6905A902F020020192019A9A69454CB3
:1002C40042F004029A619B6903F004030293029BC7
:1002D400414BCDE905630123079300F053FA4FF432
:1002E400E133DFF8F8C02046C4E900C30C23C4E9B5
:1002F4000255C4E905352561E56101F045F8034679
:1003040008B172B6FEE74FF4C072354835495F252F
:10031400C0E900127F220361C0E9025201F0B7F87C
:10032400064608B172B6FEE71022014605A801F0A0
:1003340001F940F267132C4D2C4A2846C5E90023E5
:1003440042F20F73CDE90366C5E90336AE60AE61D0
:1003540000F0B6FE08B172B6FEE74FF480532846AB
:1003640005A9059300F0E2FE08B172B6FEE7CDE9F7
:10037400030003A9284600F06DFF064608B172B6D3
:10038400FEE76FF001022B6828461A6100F074FD45
:100394004FF0FF3309222046154901F023F8354672
:1003A400144E01352A46314605A801F0CBF805A8BC
:1003B400FFF736FF4FF0FF3382B205A9204601F064
:1003C40011F84FF47A7000F065F9EAE70010024082
:1003D40000080140D4000020000011100038014042
:1003E40018010020002C00408C0000200004004074
:1003F400541E00085E1E0008014801F05CB800BFEE
:1004040018010020104B07B59A69052042F001023B
:100414009A619A6902F001020092009ADA6942F044
:100424008052DA61DB6903F080530193019B00F091
:1004340043F9064A536823F0E06343F000735360C2
:1004440003B05DF804FB00BF00100240000001404F
:1004540007B50E4B02689A4215D103F50333DA69E6
:10046400012142F00202DA61DB69002203F0020397
:1004740001931D20019B00F031F91D2003B05DF8AC
:1004840004EB00F05DB903B05DF804FB0004004028
:1004940010B5044686B01022002102A801F04AF8E3
:1004A4002268174B9A4228D103F558439A69154894
:1004B40042F480429A619A6902A902F4804200924D
:1004C400009A9A6942F004029A619B694FF400729F
:1004D40003F004030193019B0223CDE902230323C8
:1004E400059300F04FF94FF4806100230548CDE9EE
:1004F400021302A9049300F045F906B010BD00BF31
:10050400003801400008014007B50E4B02689A42CA
:1005140015D103F5F233DA69012142F40062DA619C
:100524000022DB69104603F400630193019B00F091
:10053400D5F8002003B05DF804EB00F001B903B076
:100544005DF804FB002C0040FEE7FEE7FEE7FEE753
:10055400FEE770477047704700F08AB8014800F022
:10056400B0BF00BF18010020014800F0BBBC00BFB1
:100574008C0000200B4A0346116810B509B90A49DA
:100584001160106809490A4C0344091B8B4206D9BF
:1005940000F0A6FF0C2303604FF0FF3010BD136082
:1005A400FCE700BF2C0100204801002000C000200F
:1005B40000040000704700000C480D490D4A002358
:1005C40002E0D458C4500433C4188C42F9D30A4A04
:1005D4000A4C002301E013600432A242FBD3FFF76C
:1005E400E9FF00F083FFFFF753FE7047000000208F
:1005F40070000020CC1E0008700000204401002080
:10060400FEE7000038B50E4B054618784FF47A73B0
:10061400B3FBF0F30B4A1068B0FBF3F000F09EF864
:10062400044658B90F2D09D8024629464FF0FF3029
:1006340000F054F82046044B1D6038BD0120FCE74F
:10064400040000200000002008000020074A08B52C
:100654001368032043F01003136000F02DF800200A
:10066400FFF7D0FFFFF7CEFE002008BD00200240B8
:10067400034A044B11681B780B441360704700BF96
:100684003001002004000020014B1868704700BFAF
:100694003001002038B50446FFF7F6FF0546631C19
:1006A4001EBF044B1B78E418FFF7EEFF431BA34265
:1006B400FAD338BD0400002007490302CA6803F4D2
:1006C400E06322F4E0621204120C134343F0BF63AC
:1006D40043F40033CB60704700ED00E0164B30B5B7
:1006E400DC68C4F30224C4F10703251D042B28BFCE
:1006F4000423062D4FF0FF3598BF002405FA03F3B9
:1007040088BF033C21EA0303A34005FA04F422EA68
:100714000402002843EA0203ACBF00F16040074A28
:100724004FEA0313DBB2ABBF00F5614000F00F00EA
:1007340080F80033135430BD00ED00E014ED00E008
:10074400002808DB0123420900F01F0003FA00F02F
:10075400014B43F82200704700E100E00138B0F19A
:10076400807F0BD24FF0E023F021054A586182F8D4
:1007740023100020072298611A61704701207047F6
:1007840000ED00E02DE9F74F002216466A4F6B4B4F
:10079400DFF8ACC1DFF8ACE10C6834FA06F502D13D
:1007A40003B0BDE8F08F4FF0010808FA06F804EA38
:1007B400080538EA040440F081804C68032C07D80B
:1007C400013C022C00F28C80DFE804F09DA2A8001A
:1007D400122C00F0A08073D8112C00F09680FF2D0D
:1007E40098BF82464FF00F0988BF00F1040A4FEA10
:1007F4008604DAF8008088BF203C09FA04FB28EA62
:100804000B0802FA04F448EA0404CAF80040D1F8D8
:1008140004A01AF0805F51D0BC6926F0030844F0AC
:100824000104BC61BC6908F1804804F0010401942E
:1008340008F5803806F0030B019C4FEA8B0BD8F8BF
:10084400084009FA0BF924EA09093F4CA04269D08F
:1008540004F58064A04267D004F58064A04265D0AA
:1008640004F58064A04263D004F58064A04261D0A2
:1008740060450CBF0524062404FA0BF444EA090479
:10088400C8F808401C681AF4803F14BF2C43AC43DA
:100894001C605C681AF4003F14BF2C43AC435C60DA
:1008A4009C681AF4801F14BF2C43AC439C60DC6822
:1008B4001AF4001F14BF2C43AC43DC6001366BE711
:1008C40074450DD018D8DFF884904C4508D009F54C
:1008D40070294C4504D0A9F580194C457FF47FAFAD
:1008E4008A68EAB1012A08BFC0F810804FF00802F4
:1008F40018BFC0F8148072E7DFF854904C45EFD06D
:1009040009F58039E9E7CA6869E7CA68043266E725
:10091400CA68083263E7CA680C3260E700225EE7FF
:1009240004225CE70024A7E70124A5E70224A3E747
:100934000324A1E704249FE70010024000040140BF
:10094400001C0140000022100008014000001210A9
:10095400000031102DE9F341054638B30368DB0785
:1009640010D42B689F075ED42B68190700F195807B
:100974002B685A0700F1C180E869002840F02C81F7
:10098400002029E0904C636803F00C03042B07D08B
:10099400636803F00C03082B0AD16368DE0307D5F0
:1009A40023689C03DDD56B68002BDAD1012013E0AA
:1009B4006B68B3F5803F12D1236843F4803323601E
:1009C400FFF762FE064623689803CAD4FFF75CFE6D
:1009D400801B6428F7D9032002B0BDE8F0819BB9DD
:1009E400236823F480332360236823F48023236063
:1009F400FFF74AFE064623689903B2D5FFF744FE83
:100A0400801B6428F7D9E6E7B3F5A02F236803D148
:100A140043F480232360CFE723F4803323602368E7
:100A240023F48023CBE7684C636813F00C0F07D0E2
:100A3400636803F00C03082B10D16368DA030DD448
:100A440023689B0702D52B69012BAFD123686A6900
:100A540023F0F80343EAC203236085E72A695B4B6A
:100A64006AB101221A60FFF70FFE064623689F074A
:100A7400ECD4FFF709FE801B0228F7D9ABE71A6014
:100A8400FFF702FE0646236898077FF56DAFFFF770
:100A9400FBFD801B0228F6D99DE7AA694A4E4B4B01
:100AA400E2B10122C3F88024FFF7EEFD0446736A25
:100AB4009B070DD54FF4FA52454B1B68B3FBF2F379
:100AC400019300BF019B5A1E0192002BF9D14FE7FD
:100AD400FFF7DAFD001B0228E9D97CE7C3F880247C
:100AE400FFF7D2FD0446736A9F077FF541AFFFF716
:100AF400CBFD001B0228F6D96DE7334CE369D8001F
:100B040024D40127E36943F08053E361E36903F0EC
:100B140080530093009B2F4E3368D90518D5EB689A
:100B2400012B26D1236A43F001032362FFF7ACFDB6
:100B340041F288380646236A9B073FD5002F3FF4CD
:100B44001BAFE36923F08053E36115E70027E2E775
:100B5400336843F480733360FFF796FD804633684F
:100B6400DA05DCD4FFF790FDA0EB08006428F6D981
:100B740031E7ABB9236A41F2883823F001032362D9
:100B8400236A23F004032362FFF77EFD0646236AEB
:100B94009807D3D5FFF778FD801B4045F7D91AE7AE
:100BA400052B236A03D143F004032362BAE723F03D
:100BB40001032362236A23F00403B6E7FFF764FD0D
:100BC400801B4045B7D906E70010024000004242AE
:100BD40000000020007000402A4C636803F00C03FE
:100BE400082B3ED00022284B02281A662CD1FFF78E
:100BF4004BFD06462368990120D42B6AB3F5803F48
:100C040005D16268A96822F400320A436260696A05
:100C140062680B4322F474121343012263601A4B7B
:100C24001A66FFF731FD054623689A013FF5A8AE21
:100C3400FFF72AFD401B0228F6D9CCE6FFF724FD76
:100C4400801B0228D6D9C6E6FFF71EFD0546236899
:100C54009B017FF595AEFFF717FD401B0228F6D9DF
:100C6400B9E601283FF4B8AE63682A6A03F4803118
:100C740091427FF49BAE6A6A03F4701393423FF48B
:100C84007FAE93E6001002400000424230B5184B9C
:100C940087B002AC03F1100522461868596808337E
:100CA40003C2AB421446F7D140F201231149ADF817
:100CB40004304B6803F00C02082A17D1C3F38342B3
:100CC40018326A44DB0312F8100C0CD54B680A4A3C
:100CD400C3F34043504318336B4413F8143CB0FB44
:100CE400F3F007B030BD054B5843FAE70248F8E784
:100CF4007F1E00080010024000127A0000093D0027
:100D04002DE9F0410D46044610B90120BDE8F081FB
:100D1400444A136803F007038B4228D321688E07E3
:100D240030D4CA0743D43F4A136803F00703AB42E5
:100D340065D822683C4D12F0040F6CD1130706D518
:100D44006B68226923F4605343EAC2036B60FFF7C4
:100D54009DFF6B68354AC3F30313D35CD840344B0F
:100D64001860344B1868FFF74DFC0020CEE7136879
:100D740023F007030B431360136803F007038B424C
:100D8400C3D1CBE7284B11F0040F1EBF5A6842F4BD
:100D9400E0625A60080742BF5A6842F460525A60DF
:100DA4005A68A06822F0F00202435A60B9E7626808
:100DB4001D4E012A33681AD113F4003FA5D073687D
:100DC40041F2883823F0030313437360FFF75CFC9C
:100DD40007467368626803F00C03B3EB820FA2D07A
:100DE400FFF752FCC01B4045F3D903208EE7022ACB
:100DF40002D113F0007FE1E713F0020FDEE713687E
:100E040023F007032B431360136803F00703AB427B
:100E14007FF47BAF8DE76B68E16823F4E0630B43F9
:100E24006B608BE70020024000100240671E000840
:100E34000000002008000020044B054A5B68C3F34F
:100E44000223D35C034A1068D84070470010024064
:100E5400771E000800000020044B054A5B68C3F3BA
:100E6400C223D35C034A1068D84070470010024084
:100E7400771E00080000002090F83D30012B28D197
:100E8400022380F83D300368DA6842F00102DA6038
:100E9400114A934212D002F5006293420ED0B3F18C
:100EA400804F0BD0A2F59832934207D002F58062AE
:100EB400934203D002F58062934204D19A6802F00F
:100EC4000702062A03D01A6842F001021A600020C1
:100ED40070470120704700BF002C014070477047E5
:100EE40070477047036810B51A69044691070ED518
:100EF400DA6892070BD56FF002021A6101220277B9
:100F04009B699B0777D0FFF7EAFF002323772368C9
:100F14001A69500710D5DA6851070DD56FF004022D
:100F24001A61022222779B69204613F4407F68D01D
:100F3400FFF7D5FF0023237723681A6912070FD51B
:100F4400DA6810070CD56FF008021A6104222277C0
:100F5400DB69204699075AD0FFF7C1FF00232377A6
:100F640023681A69D20610D5DA68D0060DD56FF059
:100F740010021A6108222277DB69204613F4407FAD
:100F84004BD0FFF7ACFF0023237723681A69D107FE
:100F940008D5DA68D20705D56FF0010220461A6138
:100FA400FFF72AFA23681A69100608D5DA681106C9
:100FB40005D56FF0800220461A6100F082F923689B
:100FC4001A69520608D5DA68500605D56FF0400252
:100FD40020461A61FFF785FF23681A69910622D516
:100FE400DA6892061FD56FF020022046BDE8104053
:100FF4001A6100F065B9FFF771FF2046FFF770FF33
:1010040083E7FFF76BFF2046FFF76AFF92E7FFF7DE
:1010140065FF2046FFF764FFA0E7FFF75FFF204668
:10102400FFF75EFFAFE710BD244A0368904212D079
:1010340002F5006290420ED0B0F1804F0BD0A2F5C1
:101044009832904207D002F58062904203D002F5B4
:10105400806290421DD14A6823F070031343174AFB
:10106400904212D002F5006290420ED0B0F1804F4F
:101074000BD0A2F59832904207D002F580629042DC
:1010840003D002F58062904203D1CA6823F440730E
:1010940013434A6923F08003134303608B68C362DC
:1010A4000B688362054B984203D003F500639842B2
:1010B40001D10B690363012343617047002C014094
:1010C40010B5044630B390F83D3003F0FF021BB96D
:1010D40080F83C20FFF7BCF90223206884F83D30F7
:1010E400211DFFF7A1FF0123002084F8463084F876
:1010F4003E3084F83F3084F8403084F8413084F83E
:10110400423084F8433084F8443084F8453084F81D
:101114003D3010BD0120FCE710B584680A4324F477
:101124007F4442EA03222243826010BD70B590F8E6
:101134003C300446012B4FF0020027D0012384F8F1
:101144003D00206884F83C30836823F47F4323F017
:10115400770383600B68602B4DD032D8402B62D06C
:1011640015D8202B03D009D833F0100208D1826897
:1011740022F07002134343F0070320E0302BF6D033
:101184000123002084F83D3084F83C0070BD502BCE
:10119400F6D14A68CE68016A056A21F00A0125F091
:1011A4000105056283690A4323F0F00343EA061349
:1011B40083610262836823F0700343F05703836002
:1011C400DEE7702B0CD0B3F5005FD9D1CB68D1E941
:1011D4000121FFF7A1FF2268936843F4804308E0EC
:1011E400CB68D1E90121FFF797FF2268936843F0A8
:1011F40077039360C4E74D68CE68016A21F010015B
:1012040001628269036A22F4704223F0A00343EA74
:10121400051342EA063282610362836823F0700395
:1012240043F06703CBE74A68CE68016A056A21F098
:101234000A0125F00105056283690A4323F0F003DE
:1012440043EA061383610262836823F0700343F068
:101254004703B4E730B590F83C300246012B4FF019
:1012640002002AD0136882F83D005C680D6824F0FF
:1012740070042C4398685C60104CA34212D004F5AF
:101284000064A3420ED0B3F1804F0BD0A4F5983480
:10129400A34207D004F58064A34203D004F580641C
:1012A400A34204D1496820F08000014399600123DE
:1012B400002082F83D3082F83C0030BD002C014013
:1012C4007047704710B504460368C1681A6922F470
:1012D40040520A431A6182680069D968024360690E
:1012E40021F4B05121F00C0102430A43DA605A6937
:1012F400A16922F440720A435A610E4A934215D1FD
:10130400FFF7AAFD19234343626820689200B3FBE8
:10131400F2F36422B3FBF2F102FB11331B0132330B
:10132400B3FBF2F303EB0113836010BDFFF784FDFD
:10133400E8E700BF00380140F8B504460E461746FA
:101344001D462268136836EA030301D1002014E025
:101354006B1CF7D095B923680320DA6822F4D072A5
:10136400DA605A6922F001025A61202384F83D3080
:1013740084F83E30002384F83C30F8BDFFF784F94C
:10138400C01B8542DDD2E6E710B5044640B390F8B1
:101394003D3003F0FF021BB980F83C20FFF778F8DA
:1013A4002423226884F83D30D368204623F4005374
:1013B400D360FFF787FF236800201A6922F4904264
:1013C4001A615A6922F02A025A61DA6842F4005218
:1013D400DA602023206484F83D3084F83E3010BD68
:1013E4000120FCE72DE9F843994690F83D30044686
:1013F400202B0E46174648D1002944D0002A42D05B
:1014040090F83C30012B40D00123002580F83C307B
:101414002123056480F83D30FFF736F9A368804640
:10142400B3F5805FA784E78403D123690BB93546FC
:101434001E46002384F83C30E38C9BB253B94B46E0
:10144400424640212046FFF777FF50B9202384F815
:101454003D3007E04B46424680212046FFF76CFFB3
:1014640010B10320BDE8F88322684EB935F8023B79
:10147400C3F308035360E18C013989B2E184DBE7EB
:1014840016F8013BF6E70120ECE70220EAE710B585
:10149400044670B1FFF738F80020E368226843F08F
:1014A40080036168136023690B43A1680B43536095
:1014B40010BD0120FCE70368C26800201A60704771
:1014C400704708B503685A68910507D59A68D2072A
:1014D40004D56FF001029A60FFF7F2FF08BD000027
:1014E400014B1868704700BF0C00002070B500263F
:1014F4000C4D0D4C641BA410A64209D100F09CFCB9
:1015040000260A4D0A4C641BA410A64205D170BDE6
:1015140055F8043B98470136EEE755F8043B9847E5
:101524000136F2E7C41E0008C41E0008C41E0008E9
:10153400C81E000803460244934200D1704703F8D2
:10154400011BF9E70EB46FF0004100B59CB01DAB70
:1015540002900690079104910848094953F8042B16
:101564000591006802A9019300F068F80022029B2B
:101574001A701CB05DF804EB03B070470C00002037
:101584000802FFFF2DE9F0478E6882469E420C4612
:1015940090461F4638D88A8912F4906F32D0256855
:1015A40009690133A5EB010965694B4405EB450560
:1015B40005EBD5756D109D4238BF1D46530531D5D9
:1015C400294600F06FFB064650B90C234FF0FF305C
:1015D400CAF80030A38943F04003A381BDE8F08733
:1015E4004A46216900F0CEFAA38923F4906343F0BC
:1015F4008003A38126614E4426603E466561A5EBC7
:101604000905A560BE4200D93E46324641462068DF
:1016140000F0C6FAA36800209B1BA3602368334430
:101624002360DBE72A4600F0B1FB06460028E1D13F
:101634005046216900F0CEFAC7E700002DE9F04FCB
:1016440098468B8907461B060D4614469DB00ED559
:101654000B6963B9402100F025FB2860286120B99B
:101664000C233B604FF0FF30D1E040236B6100233B
:10167400099320238DF8293030234FF00109CDF848
:101684000C80DFF8A4818DF82A3023469A4613F89B
:10169400012B0AB1252AF9D1BAEB040B0BD05B4616
:1016A400224629463846FFF76DFF013000F0AA8034
:1016B400099A5A4409929AF80030002B00F0A2804B
:1016C40000234FF0FF32CDE905230AF1010A049308
:1016D40007938DF853301A935446052214F8011BCE
:1016E400514800F041FA049AD8B9D00644BF2023E7
:1016F4008DF85330110744BF2B238DF853309AF8DB
:1017040000302A2B15D0544600204FF00A0C079ABB
:10171400214611F8013B303B092B4ED9B0B1079259
:1017240014E0A0EB080309FA03F31343A24604935D
:10173400D2E7039B191D1B680391002BBBBF5B42BF
:1017440042F0020207930793B8BF049223782E2B2A
:101754000CD163782A2B35D1039B02341A1D1B68E4
:101764000392002BB8BF4FF0FF330593DFF8BCA002
:1017740003225046217800F0F7F940B14023A0EB52
:101784000A0003FA00F0049B01340343049314F8A1
:10179400011B062226488DF8281000F0E5F90028E0
:1017A40038D0244B1BBB039B073323F007030833B8
:1017B4000393099B3344099367E70C4601200CFB10
:1017C4000232A5E700234FF00A0C194601340593B1
:1017D400204610F8012B303A092A03D9002BC5D032
:1017E4000591C3E7044601230CFB0121F0E703AB99
:1017F40000932A463846104B04A9AFF30080421CDC
:101804000646D6D1AB895B063FF52CAF09981DB0CF
:10181400BDE8F08F03AB00932A463846064B04A973
:1018240000F07CF8EBE700BF901E0008961E00084D
:101834009A1E000800000000891500082DE9F047F1
:10184400164699468A680B6907469342B8BF134601
:10185400336091F843200C46DDF820800AB101334F
:1018640033602368990642BF3368023333602568C6
:1018740015F0060506D104F1190AE36832689B1ACB
:10188400AB4228DC94F84320131E226818BF0123BE
:1018940092062DD44946384604F14302C04701302C
:1018A40020D02368E56803F00603042B18BF002545
:1018B40032684FF00006A36808BFAD1A226908BF5A
:1018C40025EAE5759342C4BF9B1AED181A34B54254
:1018D4001AD1002008E00123524649463846C04741
:1018E400013003D14FF0FF30BDE8F0870135C4E784
:1018F4003020E11881F843005A1C94F84510224422
:10190400023382F84310C5E701232246494638468C
:10191400C0470130E6D00136D9E700002DE9FF4782
:101924000F7E9146782F80460C469A460C9D01F115
:10193400430207D8622F0AD8002F00F0D980582F0D
:1019440000F0A48004F1420584F842703AE0A7F163
:101954006303152BF6D801A151F823F0B919000837
:10196400CD19000849190008491900084919000847
:1019740049190008CD190008491900084919000837
:101984004919000849190008DB1A0008FD19000864
:10199400BD1A00084919000849190008FD1A000871
:1019A40049190008FD1900084919000849190008D7
:1019B400C51A00082B681A1D1B682A6004F1420529
:1019C40084F842300123A4E020682968060601F166
:1019D40004030AD50E682B60002E03DA2D23764209
:1019E40084F843300A235E4819E00E6810F0400F73
:1019F4002B6018BF36B2EFE72B682068191D2960E9
:101A0400010601D51E6802E04606FBD51E886F2F2D
:101A14000CBF08230A235248002184F84310656848
:101A2400002DA8BF2168A560A4BF21F00401216096
:101A34000EB9002D4DD01546B6FBF3F103FB11672B
:101A4400C75D05F8017D3746BB420E46F4D9082B25
:101A54000BD12368DE0708D5236961689942DEBF8C
:101A6400302305F8013C05F1FF35521B22614B463A
:101A740021464046CDF800A003AAFFF7DFFE01305F
:101A84004CD14FF0FF3004B0BDE8F087344881F802
:101A940045702968236851F8046B29601D0614D524
:101AA400DF0744BF43F0200323601EB9236823F0FB
:101AB400200323601023AFE7236843F0200323604F
:101AC4007823284884F84530E3E7590648BFB6B27E
:101AD400E6E71546BBE72B682668181D6169286090
:101AE40035061B6801D5196002E07006FBD5198024
:101AF400002315462361BAE72B6800211A1D2A60CA
:101B04001D686268284600F02FF808B1401B606029
:101B140063682361002384F84330A8E72A464946D2
:101B240040462369D0470130ABD023689B0713D4C8
:101B3400E068039B9842B8BF1846A4E701233246E5
:101B440049464046D04701309BD00135E3680399AC
:101B54005B1AAB42F2DCEBE7002504F11906F5E76A
:101B6400A11E0008B21E0008034610B5C9B2024403
:101B74009342184601D1002003E0047801338C42DB
:101B8400F6D110BD0A44914200F1FF3300D17047F1
:101B940010B511F8014B914203F8014FF9D110BD72
:101BA400884210B501EB020402D98442234607D8C7
:101BB400431EA14208D011F8012B03F8012FF8E7C6
:101BC400014602448A4200D110BD13F8014D02F8C7
:101BD400014DF7E738B50546002940D051F8043CDB
:101BE4000C1F002BB8BFE41800F010F91C4A13684E
:101BF40033B9636014602846BDE8384000F00CB97E
:101C0400A34208D9206821188B4201BF19685B6878
:101C140009182160EDE71A465B680BB1A342FAD9B3
:101C240011685018A0420BD1206801445018834217
:101C34001160E0D118685B68014411605360DAE711
:101C440002D90C232B60D6E7206821188B4201BFF0
:101C540019685B680918216063605460CBE738BD7C
:101C64003401002070B50E4E0C463168054611B99A
:101C740000F0BCF830602146284600F0B7F8431C59
:101C84000AD0C41C24F00304A04207D0211A284619
:101C940000F0ACF8013001D14FF0FF34204670BDA4
:101CA400380100202DE9F041CD1C25F0030508354D
:101CB4000C2D38BF0C25002D074601DBA94205D9A0
:101CC4000C2300263B603046BDE8F0812E4E00F028
:101CD4009DF833681C4634BB29463846FFF7C2FFDB
:101CE400431C04464DD134682646002E40D1236857
:101CF4003146384604EB030800F078F880453AD1C1
:101D0400216803356D1A25F0030508350C2D38BFFD
:101D14000C2538462946FFF7A5FF01302BD0236850
:101D24002B4423600EE02268521B1ED40B2A16D9C2
:101D34006119A342256018BF5960636808BF316008
:101D440062514B60384604F10B0600F065F826F04A
:101D54000706231DF21AB6D09B1BA350B3E7626893
:101D6400A3420CBF32605A60ECE723466468B2E7D2
:101D740034467668B9E70C2338463B6000F04CF8EB
:101D8400A1E72560DEE700BF340100202DE9F04122
:101D9400804614460E4621B91146BDE8F041FFF7CE
:101DA40081BF2AB9FFF716FF25462846BDE8F08112
:101DB40000F038F88442074602D8B4EB500F12D82A
:101DC40021464046FFF76EFF05460028EDD0BC4291
:101DD4002246314628BF3A46FFF7D4FE31464046F4
:101DE400FFF7F8FEE1E73546DFE7000038B50023EA
:101DF400054D044608462B60FEF7BCFB431C02D18C
:101E04002B6803B1236038BD3C010020014800F079
:101E140011B800BF40010020014800F00CB800BF19
:101E24004001002051F8043C181F002BBCBF0B5884
:101E3400C018704770477047F8B500BFF8BC08BCBD
:101E44009E467047F8B500BFF8BC08BC9E46704774
:101E5400526573746172740D0A0069203D20256413
:101E64000D0A000000000000000000010203040647
:101E74000708090000000001020304020304050628
:101E84000708090A0B0C0D0E0F101000232D302B20
:101E94002000686C4C006566674546470030313267
:101EA40033343536373839414243444546003031BE
:101EB400323334353637383961626364656600001D
:041EC4000902000807
:041EC800E501000828
:101ECC000024F400010000001000000010000020AD
:101EDC0000000000000000000000000000000000F6
:101EEC0000000000000000000000000000000000E6
:101EFC0000000000000000000000000000000000D6
:101F0C0000000000000000000000000000000000C5
:101F1C0000000000000000000000000000000000B5
:101F2C0000000000000000000000000000000000A5
:04000005080005BD2D
:00000001FF
