:020000040800F2
:1000000000C00020E9060008790600087B06000809
:100010007D0600087F060008810600080000000039
:1000200000000000000000000000000001210008A6
:10003000830600080000000091210008D521000877
:1000400031070008310700083107000831070008B0
:1000500031070008310700083107000831070008A0
:100060003107000831070008310700083107000890
:100070003107000831070008310700083107000880
:100080003107000831070008310700083107000870
:100090003107000831070008310700083107000860
:1000A0003107000831070008310700083107000850
:1000B00031070008850600083107000831070008ED
:1000C0003107000831070008310700083107000830
:1000D00031070008910600083107000831070008C1
:1000E0009D060008310700083107000831070008A5
:1000F0003107000831070008310700083107000800
:1001000031070008310700083107000831070008EF
:1001100031070008310700083107000831070008DF
:1001200031070008310700083107000831070008CF
:1001300000000000000000000000000000000000BF
:1001400000000000000000000000000000000000AF
:10015000000000000000000000000000000000009F
:10016000000000000000000000000000000000008F
:10017000000000000000000000000000000000007F
:10018000000000000000000000000000000000006F
:10019000000000000000000000000000000000005F
:1001A000000000000000000000000000000000004F
:1001B000000000000000000000000000000000003F
:1001C000000000000000000000000000000000002F
:1001D000000000000000000000000000000000001F
:0401E0005FF8E0F1F3
:1001F00010B5054C237833B9044B13B10448AFF361
:1002000000800123237010BD740000200000000056
:10021000F02E000808B5034B1BB103490348AFF3A8
:10022000008008BD0000000078000020F02E0008CB
:10023000034613F8012B002AFBD1181A0138704726
:10024000034B0360034B0B6080231360704700BFB8
:10025000900200209000002008B5054C20464FF485
:10026000807100F08CFC4FF4FA7001F02AFBF5E786
:100270000008014008B5054C2046042100F07FFC31
:100280004FF4FA7001F01DFBF6E700BF00140140C7
:10029000F7B50024174E184F184D4FF461613C20FC
:1002A000B4FBF1F1B4FBF0F306FB014200FB134396
:1002B00092FBF0F2B1B982B94BB92846104902F06D
:1002C00069FA4FF47A7001F0FCFA0134E5E71A4656
:1002D00028460C4902F03EFAF3E728460A4902F0A4
:1002E00039FAEEE70093284613460A46394602F0EB
:1002F00031FAE6E7F0F1FFFFF22F00089403002047
:10030000772F0008A02F0008C92F000810B590B063
:100310001422002108A802F007F91422002101A8E4
:1003200002F002F902244FF480330122CDE90D439B
:10033000CDE906234FF4E01306A80A920F9300F0CC
:1003400033FC08B172B6FEE70F23CDE901344FF458
:1003500080630390CDE90430214601A800F0FAFD46
:1003600008B172B6FEE710B010BD000080B598B0BD
:1003700000F0E0F9FFF7CAFF1022002111A802F0F7
:10038000D3F8434B4FF480719A69424842F02002FF
:100390009A619A69002402F020020192019A9A69F6
:1003A000012542F004029A619B69012203F00403D3
:1003B0000293029B00F0DEFB01220421364800F08C
:1003C000D9FB02264FF48073324811A9CDE91135CB
:1003D000CDE9134600F0E0FA4FF400422F4B2D48D0
:1003E00011A9CDE91123139500F0D6FA04232A4868
:1003F00011A9CDE91135CDE9134600F0CDFA224619
:100400000521282000F0CCF9282000F0FBF94FF45A
:10041000E13323482349C0E90244C0E900130C2317
:100420000461C0E90534C46101F03AF8074608B137
:1004300072B6FEE71C4C03AD0FCC0FC594E8070065
:1004400085E80700394603A801F013FA174B04F1B9
:100450000C060AAD18600FCE0FC596E8070085E8B8
:10046000070039460AA801F004FA114B11AD2834EF
:1004700018600FCC0FC594E8070085E807003946DF
:1004800011A801F0F6F90B4B186001F0EDF9FEE749
:10049000001002400008014000140140000011104B
:1004A0005003002000380140082F000848030020B6
:1004B0004C03002044030020B0F5004F014610B566
:1004C0000FD1084800F050FB58B90748FFF7B0FEBD
:1004D000BDE8104082B24FF0FF330349034801F0FA
:1004E0000DB810BD00080140940300205003002007
:1004F0000268034B9A4201D100F02EB9704700BF49
:1005000000040040114B07B59A690F2142F0010227
:100510009A619A696FF0010002F001020092009A5C
:10052000DA6942F08052DA61DB69002203F080531D
:100530000193019B00F034F9054A536823F0E0630E
:1005400043F00073536003B05DF804FB00100240F9
:100550000000014010B5044686B01022002102A818
:1005600001F0E2FF22681B4B9A4230D103F5584359
:100570009A69194842F480429A619A6902A902F480
:1005800080420092009A9A69002442F004029A6123
:100590009B694FF4007203F004030193019B022353
:1005A000CDE902230323059300F0F6F94FF48063AD
:1005B000094802A9CDE90234049400F0EDF92520A0
:1005C0002246052100F0ECF8252000F01BF906B0CA
:1005D00010BD00BF0038014000080140214B70B53C
:1005E000DA6988B042F00202DA61DB69054603F09D
:1005F0000203029301A903A8029B00F067FD069B7A
:100600004BBB00F043FD184E184B336040F2E7330C
:10061000F360174BB0FBF3F3013B736000233046EC
:100620003361B360B36100F095FE044680B9304693
:1006300000F06CFD044658B91D2000F0E3F80F2DC2
:100640000DD8224629461D2000F0AAF8094B1D604E
:10065000204608B070BD00F019FD4000D3E701242A
:10066000F6E700BF00100240F8030020000400403D
:1006700040420F0008000020FEE7FEE7FEE7FEE72D
:10068000FEE77047014800F077BD00BFF803002087
:10069000014800F0E1BF00BF500300204FF40040CC
:1006A00000F076BA0B4A0346116810B509B90A4939
:1006B0001160106809490A4C0344091B8B4206D992
:1006C00001F0F8FE0C2303604FF0FF3010BD136003
:1006D000FCE700BF40040020A011002000C0002063
:1006E00000040000704700000C480D490D4A00232B
:1006F00002E0D458C4500433C4188C42F9D30A4AD7
:100700000A4C002301E013600432A242FBD3FFF73E
:10071000E9FF01F0D5FEFFF729FE70470000002039
:1007200074000020E830000874000020A0110020B0
:10073000FEE70000074A08B51368032043F01003E2
:10074000136000F01BF80F20FFF748FFFFF7DAFEF9
:10075000002008BD00200240034A044B11681B78AA
:100760000B441360704700BF4404002004000020C5
:10077000014B1868704700BF44040020074903027A
:10078000CA6803F4E06322F4E0621204120C13431B
:1007900043F0BF6343F40033CB60704700ED00E0EB
:1007A000164B30B5DC68C4F30224C4F10703251DE1
:1007B000042B28BF0423062D4FF0FF3598BF0024DB
:1007C00005FA03F388BF033C21EA0303A34005FABB
:1007D00004F422EA0402002843EA0203ACBF00F159
:1007E0006040074A4FEA0313DBB2ABBF00F561403C
:1007F00000F00F0080F80033135430BD00ED00E02E
:1008000014ED00E0002808DB0123420900F01F007E
:1008100003FA00F0014B43F82200704700E100E0CA
:1008200090F82130022B06D004238363002380F844
:1008300020300120704703681A6822F00E021A6007
:100840001A6822F001021A600123D0E90F218B40BF
:1008500053604FF4807303840020704708B590F80C
:100860002130022B03D004238363012008BD0368D9
:1008700043491A6822F00E021A601A6822F0010237
:100880001A60404A934241D98B4238D014318B428E
:1008900037D014318B4236D014318B4223D01431EF
:1008A0008B4223D014318B4223D0934224D002F5C3
:1008B0006272934223D01432934222D01432934274
:1008C00021D01432934214BF4FF480334FF480533D
:1008D0002D4A53604FF480730384436B002B4DD03B
:1008E00098470020C2E74FF48053F1E74FF480337C
:1008F000EEE74FF48013EBE74FF08073E8E7012356
:10090000E6E71023E4E74FF48073E1E78B422ED053
:100910001E498B422DD014318B422CD014318B4286
:1009200019D014318B4219D014318B4219D0934213
:100930001AD0174A93421AD01432934219D0143263
:10094000934218D01432934214BF4FF480334FF4C3
:100950008053104ABDE74FF48053FAE74FF48033D9
:10096000F7E74FF48013F4E74FF08073F1E70123CA
:10097000EFE71023EDE74FF48073EAE7184675E7D9
:100980000800024080000240000402401C000240B7
:1009900008040240000002402DE9F74F00221646ED
:1009A0006A4F6B4BDFF8ACC1DFF8ACE10C6834FA8E
:1009B00006F502D103B0BDE8F08F4FF0010808FA48
:1009C00006F804EA080538EA040440F081804C681F
:1009D000032C07D8013C022C00F28C80DFE804F0E5
:1009E0009DA2A800122C00F0A08073D8112C00F05A
:1009F0009680FF2D98BF82464FF00F0988BF00F107
:100A0000040A4FEA8604DAF8008088BF203C09FA1D
:100A100004FB28EA0B0802FA04F448EA0404CAF8C2
:100A20000040D1F804A01AF0805F51D0BC6926F0D4
:100A3000030844F00104BC61BC6908F1804804F07B
:100A40000104019408F5803806F0030B019C4FEA7D
:100A50008B0BD8F8084009FA0BF924EA09093F4C36
:100A6000A04269D004F58064A04267D004F5806498
:100A7000A04265D004F58064A04263D004F5806490
:100A8000A04261D060450CBF0524062404FA0BF493
:100A900044EA0904C8F808401C681AF4803F14BFEF
:100AA0002C43AC431C605C681AF4003F14BF2C4319
:100AB000AC435C609C681AF4801F14BF2C43AC43A9
:100AC0009C60DC681AF4001F14BF2C43AC43DC604C
:100AD00001366BE774450DD018D8DFF884904C458B
:100AE00008D009F570294C4504D0A9F580194C456A
:100AF0007FF47FAF8A68EAB1012A08BFC0F810808E
:100B00004FF0080218BFC0F8148072E7DFF8549065
:100B10004C45EFD009F58039E9E7CA6869E7CA684A
:100B2000043266E7CA68083263E7CA680C3260E7D5
:100B300000225EE704225CE70024A7E70124A5E782
:100B40000224A3E70324A1E704249FE70010024046
:100B500000040140001C0140000022100008014078
:100B600000001210000031108368194214BF0120E8
:100B7000002070470AB1016170470904FBE7C368B0
:100B800001EA030221EA030141EA024101617047DF
:100B9000044A08B55169014202D05061FFF78CFC4C
:100BA00008BD00BF000401402DE9F341054638B3FC
:100BB0000368DB0710D42B689F075ED42B681907E6
:100BC00000F195802B685A0700F1C180E869002880
:100BD00040F02C81002029E0904C636803F00C0366
:100BE000042B07D0636803F00C03082B0AD1636859
:100BF000DE0307D523689C03DDD56B68002BDAD1B3
:100C0000012013E06B68B3F5803F12D1236843F4F1
:100C100080332360FFF7ACFD064623689803CAD4EF
:100C2000FFF7A6FD801B6428F7D9032002B0BDE8BA
:100C3000F0819BB9236823F480332360236823F475
:100C400080232360FFF794FD064623689903B2D5FD
:100C5000FFF78EFD801B6428F7D9E6E7B3F5A02FD8
:100C6000236803D143F480232360CFE723F4803348
:100C70002360236823F48023CBE7684C636813F078
:100C80000C0F07D0636803F00C03082B10D16368C6
:100C9000DA030DD423689B0702D52B69012BAFD152
:100CA00023686A6923F0F80343EAC203236085E7F7
:100CB0002A695B4B6AB101221A60FFF759FD0646AB
:100CC00023689F07ECD4FFF753FD801B0228F7D958
:100CD000ABE71A60FFF74CFD0646236898077FF5DF
:100CE0006DAFFFF745FD801B0228F6D99DE7AA6985
:100CF0004A4E4B4BE2B10122C3F88024FFF738FD86
:100D00000446736A9B070DD54FF4FA52454B1B6896
:100D1000B3FBF2F3019300BF019B5A1E0192002B1B
:100D2000F9D14FE7FFF724FD001B0228E9D97CE742
:100D3000C3F88024FFF71CFD0446736A9F077FF504
:100D400041AFFFF715FD001B0228F6D96DE7334CC4
:100D5000E369D80024D40127E36943F08053E361B9
:100D6000E36903F080530093009B2F4E3368D9054D
:100D700018D5EB68012B26D1236A43F001032362C7
:100D8000FFF7F6FC41F288380646236A9B073FD5F9
:100D9000002F3FF41BAFE36923F08053E36115E7B5
:100DA0000027E2E7336843F480733360FFF7E0FC29
:100DB00080463368DA05DCD4FFF7DAFCA0EB0800E4
:100DC0006428F6D931E7ABB9236A41F2883823F0B9
:100DD00001032362236A23F004032362FFF7C8FCA4
:100DE0000646236A9807D3D5FFF7C2FC801B40450F
:100DF000F7D91AE7052B236A03D143F004032362D2
:100E0000BAE723F001032362236A23F00403B6E761
:100E1000FFF7AEFC801B4045B7D906E70010024043
:100E20000000424200000020007000402A4C63682D
:100E300003F00C03082B3ED00022284B02281A6630
:100E40002CD1FFF795FC06462368990120D42B6A24
:100E5000B3F5803F05D16268A96822F400320A43E5
:100E60006260696A62680B4322F4741213430122C0
:100E700063601A4B1A66FFF77BFC054623689A01EC
:100E80003FF5A8AEFFF774FC401B0228F6D9CCE66C
:100E9000FFF76EFC801B0228D6D9C6E6FFF768FC78
:100EA000054623689B017FF595AEFFF761FC401B6B
:100EB0000228F6D9B9E601283FF4B8AE63682A6A79
:100EC00003F4803191427FF49BAE6A6A03F470139D
:100ED00093423FF47FAE93E600100240000042428E
:100EE00030B5184B87B002AC03F1100522461868E4
:100EF0005968083303C2AB421446F7D140F20123CC
:100F00001149ADF804304B6803F00C02082A17D1E0
:100F1000C3F3834218326A44DB0312F8100C0CD579
:100F20004B680A4AC3F34043504318336B4413F8E9
:100F3000143CB0FBF3F007B030BD054B5843FAE763
:100F40000248F8E7333000080010024000127A002F
:100F500000093D002DE9F0410D46044610B901207D
:100F6000BDE8F081444A136803F007038B4228D39D
:100F700021688E0730D4CA0743D43F4A136803F070
:100F80000703AB4265D822683C4D12F0040F6CD1C8
:100F9000130706D56B68226923F4605343EAC20342
:100FA0006B60FFF79DFF6B68354AC3F30313D35C97
:100FB000D840344B1860344B1868FFF70FFB002003
:100FC000CEE7136823F007030B431360136803F0A5
:100FD00007038B42C3D1CBE7284B11F0040F1EBF90
:100FE0005A6842F4E0625A60080742BF5A6842F405
:100FF00060525A605A68A06822F0F00202435A60B8
:10100000B9E762681D4E012A33681AD113F4003F14
:10101000A5D0736841F2883823F00303134373604B
:10102000FFF7A6FB07467368626803F00C03B3EB97
:10103000820FA2D0FFF79CFBC01B4045F3D90320D1
:101040008EE7022A02D113F0007FE1E713F0020FCE
:10105000DEE7136823F007032B431360136803F0E4
:101060000703AB427FF47BAF8DE76B68E16823F445
:10107000E0630B436B608BE70020024000100240EE
:101080001B3000080000002008000020044B054A27
:101090005B68C3F30223D35C034A1068D8407047EF
:1010A000001002402B30000800000020044B054ACD
:1010B0005B68C3F3C223D35C034A1068D84070470F
:1010C000001002402B300008000000200F230360B6
:1010D0000B4B5A6802F0030242605A6802F0F002B9
:1010E00082605A6802F4E062C2605B68DB0803F465
:1010F000E0630361034B1B6803F007030B60704759
:1011000000100240002002407047000090F83D307F
:10111000012B28D1022380F83D300368DA6842F0C1
:101120000102DA60114A934212D002F50062934242
:101130000ED0B3F1804F0BD0A2F59832934207D076
:1011400002F58062934203D002F58062934204D19B
:101150009A6802F00702062A03D01A6842F00102D8
:101160001A60002070470120704700BF002C01402A
:101170007047704770477047036810B51A69044696
:1011800091070ED5DA6892070BD56FF002021A614B
:10119000012202779B699B0777D0FFF7EAFF0023C4
:1011A000237723681A69500710D5DA6851070DD5DF
:1011B0006FF004021A61022222779B69204613F421
:1011C000407F68D0FFF7D5FF0023237723681A6993
:1011D00012070FD5DA6810070CD56FF008021A61F4
:1011E00004222277DB69204699075AD0FFF7C1FF16
:1011F0000023237723681A69D20610D5DA68D0064F
:101200000DD56FF010021A6108222277DB692046A3
:1012100013F4407F4BD0FFF7ACFF00232377236804
:101220001A69D10708D5DA68D20705D56FF001022F
:1012300020461A61FFF75CF923681A69100608D581
:10124000DA68110605D56FF0800220461A6100F0B9
:10125000AEF823681A69520608D5DA68500605D533
:101260006FF0400220461A61FFF785FF23681A6974
:10127000910622D5DA6892061FD56FF0200220462B
:10128000BDE810401A6100F091B8FFF771FF2046E9
:10129000FFF770FF83E7FFF76BFF2046FFF76AFF5A
:1012A00092E7FFF765FF2046FFF764FFA0E7FFF72F
:1012B0005FFF2046FFF75EFFAFE710BD244A0368DB
:1012C000904212D002F5006290420ED0B0F1804FF1
:1012D0000BD0A2F59832904207D002F5806290427E
:1012E00003D002F5806290421DD14A6823F070035A
:1012F0001343174A904212D002F5006290420ED07A
:10130000B0F1804F0BD0A2F59832904207D002F591
:101310008062904203D002F58062904203D1CA6895
:1013200023F4407313434A6923F08003134303609B
:101330008B68C3620B688362054B984203D003F548
:101340000063984201D10B69036301234361704735
:10135000002C014010B5044630B390F83D3003F046
:10136000FF021BB980F83C20FFF7CEFE0223206865
:1013700084F83D30211DFFF7A1FF0123002084F8F0
:10138000463084F83E3084F83F3084F8403084F8AA
:10139000413084F8423084F8433084F8443084F893
:1013A000453084F83D3010BD0120FCE770477047A0
:1013B0000368DA6822F49072DA605A6922F0010256
:1013C0005A61026B012A02BFDA6822F01002DA6069
:1013D000202380F83E3000230363704710B5044695
:1013E0000368C1681A6922F440520A431A6182688C
:1013F0000069D9680243606921F4B05121F00C0101
:1014000002430A43DA605A69A16922F440720A432E
:101410005A610E4A934215D1FFF748FE1923434300
:10142000626820689200B3FBF2F36422B3FBF2F12E
:1014300002FB11331B013233B3FBF2F303EB011355
:10144000836010BDFFF722FEE8E700BF00380140CF
:10145000F8B504460E4617461D462268136836EA5C
:10146000030301D1002014E06B1CF7D095B9236869
:101470000320DA6822F4D072DA605A6922F001029D
:101480005A61202384F83D3084F83E30002384F8EC
:101490003C30F8BDFFF76CF9C01B8542DDD2E6E7B2
:1014A00010B5044640B390F83D3003F0FF021BB97D
:1014B00080F83C20FFF74EF82423226884F83D3062
:1014C000D368204623F40053D360FFF787FF2368D7
:1014D00000201A6922F490421A615A6922F02A0205
:1014E0005A61DA6842F40052DA602023206484F8FA
:1014F0003D3084F83E3010BD0120FCE72DE9F84373
:10150000994690F83D300446202B0E46174648D1A8
:10151000002944D0002A42D090F83C30012B40D022
:101520000123002580F83C302123056480F83D30FC
:10153000FFF71EF9A3688046B3F5805FA784E784B0
:1015400003D123690BB935461E46002384F83C308D
:10155000E38C9BB253B94B46424640212046FFF7ED
:1015600077FF50B9202384F83D3007E04B464246D0
:1015700080212046FFF76CFF10B10320BDE8F883FF
:1015800022684EB935F8023BC3F308035360E18C7F
:10159000013989B2E184DBE716F8013BF6E7012067
:1015A000ECE70220EAE770477047704708B5002370
:1015B000406AC385C384FFF7F8FF08BD704707B5CD
:1015C0008168836AB1F5805F026834D101690029BE
:1015D00034D15268C2F3080223F8022BC28D836211
:1015E000013A92B2C2851ABB0368D96821F0200182
:1015F000D960D96821F48071D960596921F001015D
:101600005961202180F83E10016B012920D102632D
:10161000D96821F01001D9601968C90605D5019271
:101620001A6801925B680193019B818DFFF7C6FFE9
:1016300003B05DF804FB39B9016929B95268D2B227
:101640001A70836A0133C9E7526802F07F02F7E734
:10165000FFF7AAFFECE70000036837B51A680446F5
:1016600012F00F0FD9685D690CD1950667D58D060C
:1016700065D590F83E30222B5BD103B0BDE83040F9
:10168000FFF79DBF05F0010001F49075054356D0AA
:10169000D50705D5CB0542BF236C43F00103236476
:1016A000550704D518B1236C43F002032364930754
:1016B00004D518B1236C43F004032364150707D540
:1016C00001F0200303431EBF236C43F0080323648F
:1016D000236C73B3920608D58B0606D594F83E307A
:1016E000222B02D12046FFF76AFF236820465B6960
:1016F000256C03F0400305F008051D431BD0FFF7E0
:1017000057FE23685A69550610D55A69A06B22F016
:1017100040025A6150B1534B4363FFF79FF840B109
:10172000A06B436B03B0BDE8304018472046FFF77D
:101730003CFF03B030BDFFF738FF2564F9E7206BAD
:10174000012855D1D00653D5CD0651D500210191A0
:101750001A6801925A680192019A5A6912F040027D
:101760002AD0A06B0268526892B2002AE1D0A58DFF
:101770009542DED9E2858269202A15D0DA6822F402
:101780008072DA605A6922F001025A615A6922F0C5
:1017900040025A61202284F83E202163DA6822F058
:1017A0001002DA60FFF73CF8E38DA18DC91A89B207
:1017B0002046FFF703FFBCE7E18D88B2E18D89B2D7
:1017C0000029B6D0A18D091A89B20029B1D0D868F4
:1017D00020F49070D860586920F0010058612020F2
:1017E00084F83E002263DA6822F01002DA60DFE754
:1017F000100626D50D0624D594F83D20212A98D12F
:10180000A168226AB1F5805F16D12169A1B932F8C9
:10181000021BC1F3080159602262E28C013A92B2C4
:10182000E284002A85D1DA6822F08002DA60DA6880
:1018300042F04002DA607CE7511C216212785A6063
:10184000EBE750067FF575AF4A067FF572AFDA68B1
:10185000204622F04002DA60202384F83D30FFF772
:10186000A2FE66E7AD15000808B500F04DFA0020AD
:1018700008BD70B5054646690B46D0E900102A69D7
:10188000B5F9084086B076B1AD6965B1842C0CBF5E
:1018900000240334CDE90165009400F0D1F90590EE
:1018A000059806B070BD842C0CBF0024033405AD30
:1018B000CDE9004592B200F0FAF90128F0D00020FD
:1018C000EFE708B5012838BF012000F06FFB0020CA
:1018D00008BD4FF0FF3200F10803C0E90223436066
:1018E000036100230360704700230361704743686E
:1018F0009A684B608A609A685160996003680861D1
:1019000001330360704730B50C68631C0AD103696A
:101910005A684A6091608B605960036808610133BE
:10192000036030BD00F10802134652681568A542F5
:10193000FAD9EDE70369D0E901128A60516059686C
:10194000814208BF5A60002202611A68013A1A6097
:10195000186870472DE9F041044600F0E3FB2F4B77
:101960002F4E1A682F4F01321A603568002D4AD168
:1019700034601B68012B1FD1B84640460135FFF784
:10198000A8FF072D08F11408F7D1DFF89C80274D38
:101990004046FFF79EFF2846FFF79BFF2448FFF7CE
:1019A00098FF2448FFF795FF2348FFF792FF234B4A
:1019B000C3F80080224B1D60224A2349136808683F
:1019C000013313600123E26A9340034314200B6048
:1019D00000FB0270211DFFF78AFF00F0C3FB1B4BC9
:1019E0001B6873B13368DA6AE36A9A4209D24FF02E
:1019F000E0234FF08052C3F8042DBFF34F8FBFF3A5
:101A00006F8FBDE8F081114B1B68002BD4D1336878
:101A1000DA6AE36A9A4298BF3460CDE7E0040020B6
:101A20004804002054040020F80400200C05002085
:101A30002805002054050020400500204C0400200B
:101A400050040020F0040020F40400203C05002095
:101A5000F8B51A4B1A4D06461C6828680F46043024
:101A6000FFF768FF40B92A681649D06A01220B685F
:101A7000824023EA02030B60731C07D137B1296847
:101A800011480431BDE8F840FFF731BF2B68A419B5
:101A90005C6007D30D4B18682968BDE8F840043135
:101AA000FFF731BF0A4B186829680431FFF72BFF95
:101AB000084B1A68A24288BF1C60F8BD6805002068
:101AC00048040020F40400204005002050040020B9
:101AD0004C04002020050020064A13681968064BB4
:101AE00019B94FF0FF321A6070471268D268D26895
:101AF0005268F8E74C0400202005002010B5044689
:101B00004C3000F0BBFD94F8B1303BB9206B00F0D5
:101B100099FC2046BDE8104000F094BC012BF8D0A1
:101B2000022B08D04FF0500383F31188BFF36F8F5F
:101B3000BFF34F8FFEE710BD80B5134C134F144D0C
:101B4000236873B9134B1B68012BF8D94FF0E023BE
:101B50004FF08052C3F8042DBFF34F8FBFF36F8F48
:101B6000EDE700F0DFFAFB68DE68301DFFF7E2FE0C
:101B70002B68013B2B602368013B236000F0F2FAE5
:101B80003046FFF7BBFFDBE7E404002054050020EC
:101B9000E0040020540400202DE9F0470746DDE969
:101BA000098402F18042266B013A06EB82069946CF
:101BB00026F007064B1E04F134020F3113F8010F13
:101BC00002F8010B08B18B42F8D1089D4FF0000AD2
:101BD000062D28BF0625201DC4E9115AE56284F8A8
:101BE00043A0FFF781FEC5F1070504F11800FFF7D8
:101BF0007BFE60225146C4F8ACA02461A5616462FA
:101C000084F8B0A004F14C0000F08EFC094B4A4669
:101C10002365094B39466365084B3046A36500F0E0
:101C20005BFA2060B8F1000F01D0C8F80040BDE8B1
:101C3000F08700BF6C3000088C3000084C30000882
:101C400070B586B0DDE90B5445B94FF0500383F30E
:101C50001188BFF36F8FBFF34F8FFEE744B94FF08A
:101C6000500383F31188BFF36F8FBFF34F8FFEE7ED
:101C7000B4260596059EB42E08D04FF0500383F38A
:101C80001188BFF36F8FBFF34F8FFEE725630225E7
:101C900084F8B15004AD01950A9D02940095FFF7B8
:101CA0007BFF2046FFF756FE049806B070BD2DE975
:101CB000F043074685B0900088461646994600F0E6
:101CC00031FB0546E8B1B42000F02CFB0446A8B176
:101CD000002380F8B1300D9B056301930C9B3246C5
:101CE00041460290009338464B46FFF755FF204689
:101CF000FFF730FE012005B0BDE8F083284600F074
:101D0000A1FB4FF0FF30F6E710B5002488B007AA1A
:101D100006A905A8CDE90544FEF792FA059B079AA6
:101D20000293069B1249CDE9004312482346FFF770
:101D300087FFD0B14FF0500383F31188BFF36F8F4B
:101D4000BFF34F8F0C4B0D4A1B684C3313604FF0A1
:101D5000FF320B4B1A6001220A4B1A600A4B1C60BF
:101D600008B0BDE8104000F05DBA08B010BD00BF7B
:101D700044300008391B00084804002010000020EF
:101D8000200500203C05002068050020024A136859
:101D900001331360704700BFEC0400202DE9F84FB9
:101DA0003C4B1B68002B6ED13B4B1D6801351D6001
:101DB000BDB93A4B1A68126842B14FF0500383F331
:101DC0001188BFF36F8FBFF34F8FFEE7344A196856
:101DD000106818601160334A136801331360FFF70D
:101DE0007BFE314E00243368304FAB4210D91422B1
:101DF0002F4B1B68DB6A5343FB58022B28BF01247F
:101E00002C4B1B68002B0CBF20460120BDE8F88F2F
:101E1000DFF888A0DFF8A090DAF800301B681BB963
:101E20004FF0FF333360E2E7DAF80030DB68D3F8D5
:101E30000CB0DBF80420954201D23260D7E70BF1F9
:101E400004084046FFF776FDDBF828201AB10BF1B5
:101E50001800FFF76FFD0122DBF82C00D9F80030E5
:101E600082401A43C9F800201422414602FB007048
:101E7000FFF73DFD0E4BDBF82C201968CB6A9A4228
:101E800028BF0124C8E70D4A0024136801331360FA
:101E9000B6E700BFEC040020680500204C040020D9
:101EA00050040020240500202005002054040020B8
:101EB000480400206C050020F4040020E804002001
:101EC0002DE9F843314C236843B94FF0500383F3B5
:101ED0001188BFF36F8FBFF34F8FFEE700F022F939
:101EE0002368013B236024682CB1002400F03AF9F8
:101EF0002046BDE8F883264B1B68002BF5D0254D06
:101F0000254EDFF898801FE0EB680127DC6804F1BC
:101F1000040904F11800FFF70DFD4846FFF70AFD1C
:101F20001420E26A316807FA02F30B4300FB0280D7
:101F300049463360FFF7DBFC194BE26A1B68DB6A3A
:101F40009A4201D3174B1F602B68002BDCD10CB1D8
:101F5000FFF7C2FD144D2C6844B10127114EFFF765
:101F60001DFF00B13760013CF9D12C600D4B1B689F
:101F7000002BBAD04FF0E0234FF08052C3F8042D6D
:101F8000BFF34F8FBFF36F8F0124AFE7EC04002046
:101F9000E004002028050020F40400205404002060
:101FA000480400206C050020E804002008B550B962
:101FB0004FF0E0234FF08052C3F8042DBFF34F8F52
:101FC000BFF36F8F08BD0A4B196841B14FF0500342
:101FD00083F31188BFF36F8FBFF34F8FFEE7FFF7D7
:101FE000D5FEFFF735FDFFF76BFF0028E0D0E9E7EE
:101FF000EC0400201A4B10B51A681A4B12B10122DA
:102000001A6010BD1A60184B1A68B2FA82F21423D3
:10201000D2B2C2F11F0253431449CC58C81844B974
:102020004FF0500383F31188BFF36F8FBFF34F8FCF
:10203000FEE74468083364680B449C4208BF636849
:10204000446008BF4360142303FB02125368DA683C
:10205000074B1A601B68074A4C331360D1E700BF77
:10206000EC0400206C050020F4040020540400203F
:10207000480400201000002006480068006880F333
:10208000088862B661B6BFF34F8FBFF36F8F00DF72
:1020900000BF000008ED00E0002382B001930D4B6B
:1020A0001B68013308D04FF0500383F31188BFF34E
:1020B0006F8FBFF34F8FFEE74FF0500383F311880C
:1020C000BFF36F8FBFF34F8F019B002BFCD002B08B
:1020D000704700BF0C0000204FF0807340F8043CB4
:1020E000054B21F0010140F8081C40F80C3C40F879
:1020F000202C4038704700BF9920000800000000E5
:10210000074B19680868B0E8F00F80F30988BFF33F
:102110006F8F4FF0000080F311884EF00D0E704766
:10212000480400204FF0500383F31188BFF36F8FF2
:10213000BFF34F8F0A4A13680133012B13600ED18E
:102140004FF0E023D3F8043DDBB243B14FF050032E
:1021500083F31188BFF36F8FBFF34F8FFEE7704794
:102160000C000020084A136843B94FF0500383F372
:102170001188BFF36F8FBFF34F8FFEE7013B1360F2
:102180000BB983F3118870470C0000200000000099
:10219000EFF30980BFF36F8F0D4B1A6820E9F00F42
:1021A00010602DE908404FF0500080F31188FFF7D0
:1021B00021FF4FF0000080F31188BDE80840196846
:1021C0000868B0E8F00F80F30988BFF36F8F70479D
:1021D0004804002008B54FF0500383F31188BFF383
:1021E0006F8FBFF34F8FFFF7D9FD28B14FF0E0237A
:1021F0004FF08052C3F8042D002383F3118808BDEB
:102200004FF0E02200234FF47A7113619361044B85
:102210001B68B3FBF1F3013B536107231361704764
:102220000000002013B5294B00211A78D2B2019288
:10223000FF221A701B78264ADBB28DF803309DF816
:10224000033003F0500313700723224A13609DF8F4
:1022500003005C1E00060CD411B1032B136011D0D7
:102260004FF0500383F31188BFF36F8FBFF34F8F8D
:10227000FEE79DF8033001215B00DBB28DF80330EF
:102280002346E4E74FF440731360019B0F4ADBB22F
:1022900013704FF0E0230024D3F8202D42F4700295
:1022A000C3F8202DD3F8202D42F07042C3F8202D22
:1022B000FFF7A6FF084B1C60FFF7DEFEFFF79AFE54
:1022C0002046FFF7E9FE02B010BD00BF00E400E0C9
:1022D00070050020740500200C00002010B50F4B85
:1022E0001A461B688342FBD354681119884201BF08
:1022F0004168104609195160446801198B4207D1A1
:10230000074909688B421FBF59681B68091941605A
:102310009042036018BF106010BD00BF88110020FC
:10232000780500202DE9F0410446FFF72FFD3F48D6
:102330003F4D03680BBB3F494E071DBFCB1D23F02C
:10234000070301F540624FF440621CBF1946D21AE0
:1023500000230A44384E083A22F0070273603160C5
:10236000C2E90033531AC1E900230260334A136003
:10237000334A13604FF000432B602F68274250D13F
:10238000002C41D004F1080361071CBF23F00703B0
:102390000833002B45D02A4C26689E4241D3264A5A
:1023A00015686968994204D2D5F800C0BCF1000FE5
:1023B00015D10068A84234D02868C91A1029D2F86B
:1023C0000080106012D9E81842070BD04FF050037C
:1023D00083F31188BFF36F8FBFF34F8FFEE72A4659
:1023E0006546DEE741606B60FFF778FF6B68134975
:1023F000F61A1F43002308682660864238BF0E6025
:1024000008F108046F602B60FFF75AFD63070AD0DC
:102410004FF0500383F31188BFF36F8FBFF34F8FDB
:10242000FEE70024F0E72046BDE8F08178050020B3
:102430007C1100207C0500208811002084110020E0
:102440008011002010B5044670B3184A50F8043CBF
:102450001268134208D14FF0500383F31188BFF381
:102460006F8FBFF34F8FFEE750F8081C41B14FF05C
:10247000500383F31188BFF36F8FBFF34F8FFEE7D5
:1024800023EA020340F8043CFFF780FC084A54F8B2
:10249000043C1168A4F108000B441360FFF71EFF11
:1024A000BDE81040FFF70CBD10BD00BF7C1100203F
:1024B00080110020014B1868704700BF10000020F9
:1024C00070B500260C4D0D4C641BA410A64209D11A
:1024D00000F00EFD00260A4D0A4C641BA410A64213
:1024E00005D170BD55F8043B98470136EEE755F825
:1024F000043B98470136F2E7E0300008E03000087E
:10250000E0300008E4300008704770470A44914208
:1025100000F1FF3300D1704710B511F8014B914223
:1025200003F8014FF9D110BD03460244934200D194
:10253000704703F8011BF9E770B50E4E0C46316881
:10254000054611B900F0F6F830602146284600F043
:10255000F1F8431C0AD0C41C24F00304A04207D0A5
:10256000211A284600F0E6F8013001D14FF0FF347F
:10257000204670BD981100202DE9F041CD1C25F0BA
:10258000030508350C2D38BF0C25002D074601DB4F
:10259000A94205D90C2300263B603046BDE8F081F6
:1025A0002E4E00F0FFF833681C4634BB29463846EF
:1025B000FFF7C2FF431C04464DD134682646002E67
:1025C00040D123683146384604EB030800F0B2F8E6
:1025D00080453AD1216803356D1A25F00305083589
:1025E0000C2D38BF0C2538462946FFF7A5FF0130D2
:1025F0002BD023682B4423600EE02268521B1ED48C
:102600000B2A16D96119A342256018BF5960636867
:1026100008BF316062514B60384604F10B0600F090
:10262000C7F826F00706231DF21AB6D09B1BA3504D
:10263000B3E76268A3420CBF32605A60ECE72346FE
:102640006468B2E734467668B9E70C2338463B60E5
:1026500000F0AEF8A1E72560DEE700BF941100208E
:1026600038B50C460968054609B1FFF7F9FF214660
:102670002846BDE8384000F0A1B800002C4B70B5EA
:102680001B680446834251D0436A43B1DB68002B88
:102690004AD1636A196811B1204600F08FF8616968
:1026A00011B1204600F08AF8616A11B1204600F0AD
:1026B00085F8A16B11B1204600F080F8E16B11B1F3
:1026C000204600F07BF8216C11B1204600F076F82E
:1026D000E16D11B1204600F071F8A16D11B12046F5
:1026E00000F06CF8616B11B1204600F067F8A36947
:1026F000E3B12046A36A9847A16CB9B12046BDE872
:102700007040FFF7ADBF495941B90435636A802D68
:10271000D968F8D1204600F051F8BAE70E68204693
:1027200000F04CF83146EFE70025EFE770BD00BF41
:102730001000002038B50023054D044608462B60E4
:10274000FDF7B0FF431C02D12B6803B1236038BDF5
:102750009C1100200EB46FF0004100B59CB01DAB81
:1027600002900690079104910848094953F8042BF8
:102770000591006802A9019300F0C4F80022029BB1
:102780001A701CB05DF804EB03B070471000002015
:102790000802FFFF034611F8012B03F8012B002A62
:1027A000F9D170470148FFF7AFBE00BF901100207C
:1027B0000148FFF7AABE00BF9011002038B50546BA
:1027C000002940D051F8043C0C1F002BB8BFE4187E
:1027D000FFF7E8FF1C4A136833B9636014602846AA
:1027E000BDE83840FFF7E4BFA34208D920682118AC
:1027F0008B4201BF19685B6809182160EDE71A4632
:102800005B680BB1A342FAD911685018A0420BD1F2
:1028100020680144501883421160E0D118685B6859
:10282000014411605360DAE702D90C232B60D6E72C
:10283000206821188B4201BF19685B680918216064
:1028400063605460CBE738BD941100202DE9F04758
:102850008E6882469E420C4690461F4638D88A892A
:1028600012F4906F32D0256809690133A5EB010994
:1028700065694B4405EB450505EBD5756D109D422B
:1028800038BF1D46530531D52946FFF775FE06466C
:1028900050B90C234FF0FF30CAF80030A38943F041
:1028A0004003A381BDE8F0874A462169FFF72EFE69
:1028B000A38923F4906343F08003A38126614E44EF
:1028C00026603E466561A5EB0905A560BE4200D9BC
:1028D0003E4632464146206800F0B8FAA368002020
:1028E0009B1BA360236833442360DBE72A4600F088
:1028F000C7FA06460028E1D150462169FFF75EFF7E
:10290000C7E700002DE9F04F98468B8907461B0664
:102910000D4614469DB00ED50B6963B94021FFF7F3
:102920002BFE2860286120B90C233B604FF0FF305C
:10293000D1E040236B610023099320238DF82930D7
:1029400030234FF00109CDF80C80DFF8A4818DF819
:102950002A3023469A4613F8012B0AB1252AF9D1C9
:10296000BAEB040B0BD05B46224629463846FFF7EC
:102970006DFF013000F0AA80099A5A4409929AF832
:102980000030002B00F0A28000234FF0FF32CDE991
:1029900005230AF1010A049307938DF853301A9323
:1029A0005446052214F8011B514800F041FA049ADC
:1029B000D8B9D00644BF20238DF85330110744BF47
:1029C0002B238DF853309AF800302A2B15D054461B
:1029D00000204FF00A0C079A214611F8013B303BCA
:1029E000092B4ED9B0B1079214E0A0EB080309FA05
:1029F00003F31343A2460493D2E7039B191D1B68FC
:102A00000391002BBBBF5B4242F002020793079386
:102A1000B8BF049223782E2B0CD163782A2B35D1A2
:102A2000039B02341A1D1B680392002BB8BF4FF0A2
:102A3000FF330593DFF8BCA003225046217800F055
:102A4000F7F940B14023A0EB0A0003FA00F0049B21
:102A500001340343049314F8011B062226488DF821
:102A6000281000F0E5F9002838D0244B1BBB039B4D
:102A7000073323F0070308330393099B3344099377
:102A800067E70C4601200CFB0232A5E700234FF05C
:102A90000A0C194601340593204610F8012B303AF0
:102AA000092A03D9002BC5D00591C3E704460123A9
:102AB0000CFB0121F0E703AB00932A463846104B8C
:102AC00004A9AFF30080421C0646D6D1AB895B0651
:102AD0003FF52CAF09981DB0BDE8F08F03AB009314
:102AE0002A463846064B04A900F07CF8EBE700BF05
:102AF000AC300008B2300008B6300008000000001A
:102B00004D2800082DE9F047164699468A680B695A
:102B100007469342B8BF1346336091F843200C46F2
:102B2000DDF820800AB1013333602368990642BF83
:102B3000336802333360256815F0060506D104F1C9
:102B4000190AE36832689B1AAB4228DC94F84320E8
:102B5000131E226818BF012392062DD44946384619
:102B600004F14302C047013020D02368E56803F038
:102B70000603042B18BF002532684FF00006A36837
:102B800008BFAD1A226908BF25EAE5759342C4BFA4
:102B90009B1AED181A34B5421AD1002008E001231F
:102BA000524649463846C047013003D14FF0FF3006
:102BB000BDE8F0870135C4E73020E11881F8430013
:102BC0005A1C94F845102244023382F84310C5E79A
:102BD0000123224649463846C0470130E6D0013637
:102BE000D9E700002DE9FF470F7E9146782F8046F8
:102BF0000C469A460C9D01F1430207D8622F0AD871
:102C0000002F00F0D980582F00F0A48004F1420575
:102C100084F842703AE0A7F16303152BF6D801A1BE
:102C200051F823F07D2C0008912C00080D2C000891
:102C30000D2C00080D2C00080D2C0008912C00080C
:102C40000D2C00080D2C00080D2C00080D2C000880
:102C50009F2D0008C12C0008812D00080D2C0008B4
:102C60000D2C0008C12D00080D2C0008C12C0008F7
:102C70000D2C00080D2C0008892D00082B681A1D4A
:102C80001B682A6004F1420584F842300123A4E065
:102C900020682968060601F104030AD50E682B6036
:102CA000002E03DA2D23764284F843300A235E484F
:102CB00019E00E6810F0400F2B6018BF36B2EFE736
:102CC0002B682068191D2960010601D51E6802E0E5
:102CD0004606FBD51E886F2F0CBF08230A235248D7
:102CE000002184F843106568002DA8BF2168A56005
:102CF000A4BF21F0040121600EB9002D4DD015466E
:102D0000B6FBF3F103FB1167C75D05F8017D37469C
:102D1000BB420E46F4D9082B0BD12368DE0708D539
:102D2000236961689942DEBF302305F8013C05F153
:102D3000FF35521B22614B4621464046CDF800A08C
:102D400003AAFFF7DFFE01304CD14FF0FF3004B093
:102D5000BDE8F087344881F845702968236851F848
:102D6000046B29601D0614D5DF0744BF43F0200320
:102D700023601EB9236823F0200323601023AFE7EC
:102D8000236843F0200323607823284884F84530E3
:102D9000E3E7590648BFB6B2E6E71546BBE72B683E
:102DA0002668181D6169286035061B6801D5196001
:102DB00002E07006FBD51980002315462361BAE7AF
:102DC0002B6800211A1D2A601D686268284600F0E1
:102DD0002FF808B1401B606063682361002384F80A
:102DE0004330A8E72A46494640462369D047013088
:102DF000ABD023689B0713D4E068039B9842B8BF0D
:102E00001846A4E70123324649464046D0470130E0
:102E10009BD00135E36803995B1AAB42F2DCEBE728
:102E2000002504F11906F5E7BD300008CE30000892
:102E3000034610B5C9B202449342184601D100209E
:102E400003E0047801338C42F6D110BD884210B5FE
:102E500001EB020402D98442234607D8431EA14253
:102E600008D011F8012B03F8012FF8E701460244BE
:102E70008A4200D110BD13F8014D02F8014DF7E769
:102E80002DE9F041804614460E4621B91146BDE8B1
:102E9000F041FFF771BB2AB9FFF790FC25462846A1
:102EA000BDE8F08100F01BF88442074602D8B4EB7D
:102EB000500F12D821464046FFF75EFB054600281A
:102EC000EDD0BC422246314628BF3A46FFF71EFBF2
:102ED00031464046FFF772FCE1E73546DFE751F83F
:102EE000043C181F002BBCBF0B58C01870470000D3
:102EF000F8B500BFF8BC08BC9E467047F8B500BFE7
:082F0000F8BC08BC9E467047B6
:102F08005C2F0008590200080000000000000000C3
:102F1800800000000000000000000000662F00088C
:102F2800750200080000000000000000800000009A
:102F38000000000000000000702F00089102000847
:102F480000000000000000008000000000000000F9
:102F5800000000005461736B5F4C454430005461BD
:102F6800736B5F4C454431005461736B3033004DD3
:102F7800696E6953544D3332206861732062656508
:102F88006E2072756E6E696E672030306820303042
:102F98006D203030730D0A004D696E6953544D33FE
:102FA8003220686173206265656E2072756E6E6985
:102FB8006E67203030682030306D202564730D0A2C
:102FC800004D696E6953544D333220686173206235
:102FD80065656E2072756E6E696E67203030682088
:102FE80025646D202564730D0A004D696E6953547C
:102FF8004D333220686173206265656E2072756E8C
:103008006E696E67202564682025646D20256473C9
:103018000D0A000000000000000000010203040681
:103028000708090000000001020304020304050662
:103038000708090A0B0C0D0E0F10100049444C45E7
:103048000000000000000000000000000000000078
:103058000000000000000000000000000000000068
:103068000000000000000000000000000000000058
:103078000000000000000000000000000000000048
:103088000000000000000000000000000000000038
:103098000000000000000000000000000000000028
:1030A80000000000232D302B2000686C4C00656662
:1030B8006745464700303132333435363738394181
:1030C8004243444546003031323334353637383997
:0830D80061626364656600009B
:0430E00015020008CD
:0430E400F1010008EE
:1030E8000024F4000100000010000000AAAAAAAA07
:1030F80014000020000000006C3000088C3000082C
:103108004C30000800000000000000000000000033
:1031180000000000000000000000000000000000A7
:103128000000000000000000000000000000000097
:103138000000000000000000000000000000000087
:103148000000000000000000000000000000000077
:043158000000000073
:04000005080006E900
:00000001FF
