:020000040800F2
:1000000000C00020950300087D0300087F0300085E
:100010008103000883030008850300080000000036
:10002000000000000000000000000000870300083E
:1000300089030008000000008B0300088D030008FE
:10004000DD030008DD030008DD030008DD03000810
:10005000DD030008DD030008DD030008DD03000800
:10006000DD030008DD030008DD030008DD030008F0
:10007000DD030008DD030008DD030008DD030008E0
:10008000DD030008DD030008DD030008DD030008D0
:10009000DD030008DD030008DD030008DD030008C0
:1000A000DD030008DD030008DD030008DD030008B0
:1000B000DD030008DD030008DD030008DD030008A0
:1000C000DD030008DD030008DD030008DD03000890
:1000D000DD030008DD030008DD030008DD03000880
:1000E000DD030008DD030008DD030008DD03000870
:1000F000DD030008DD030008DD030008DD03000860
:10010000DD030008DD030008DD030008DD0300084F
:10011000DD030008DD030008DD030008DD0300083F
:10012000DD030008DD030008DD030008DD0300082F
:1001300000000000000000000000000000000000BF
:1001400000000000000000000000000000000000AF
:10015000000000000000000000000000000000009F
:10016000000000000000000000000000000000008F
:10017000000000000000000000000000000000007F
:10018000000000000000000000000000000000006F
:10019000000000000000000000000000000000005F
:1001A000000000000000000000000000000000004F
:1001B000000000000000000000000000000000003F
:1001C000000000000000000000000000000000002F
:1001D000000000000000000000000000000000001F
:0401E0005FF8E0F1F3
:1001E40010B5054C237833B9044B13B10448AFF36D
:1001F40000800123237010BD0C00002000000000CB
:10020400300A000808B5034B1BB103490348AFF398
:10021400008008BD0000000010000020300A000823
:100224000A4B82B09A6942F020029A619A6902F0FC
:1002340020020092009A9A6942F004029A619B6932
:1002440003F004030193019B02B0704700100240C5
:10025400074B82B01B6858434FF47A73B0FBF3F03A
:100264000190019B5A1E0192002BFAD102B07047F3
:100274000000002010B590B01422002108A800F05E
:10028400A9FB1422002101A800F0A4FB02244FF4CE
:1002940080330122CDE90D43CDE906234FF4E01369
:1002A40006A80A920F9300F037F908B172B6FEE778
:1002B4000F23CDE901344FF480630390CDE904307A
:1002C400214601A800F0EAFA08B172B6FEE710B0C0
:1002D40010BD00004FF0807508B500F0A3F8FFF7DB
:1002E400C9FFFFF79DFF0F4A0F4993690F4C43F075
:1002F400FC0393610E4B4B6003F5800301332360D1
:10030400E36843F02003E360A3689B0607D4CB684B
:10031400642083F48073CB60FFF79AFFF4E70D61E8
:10032400F2E700BF00100240000801400010014045
:10033400434444440E4B82B09A6942F001029A61EC
:100344009A6902F001020092009ADA6942F080523E
:10035400DA61DB69074A03F080530193019B536818
:1003640023F0E06343F00073536002B0704700BFB2
:100374000010024000000140FEE7FEE7FEE7FEE752
:10038400FEE770477047704700F05EB870470000A2
:10039400FFF7FCFF0B480C490C4A002302E0D45839
:1003A400C4500433C4188C42F9D3094A094C0023BD
:1003B40001E013600432A242FBD300F013FBFFF709
:1003C40089FF7047000000200C000020740A000818
:1003D4000C0000202C000020FEE7000038B50E4B76
:1003E40005461A784FF47A73B3FBF2F30B4A10689C
:1003F400B0FBF3F000F07CF8044658B90F2D09D88F
:10040400024629464FF0FF3000F042F82046044BE4
:100414001D6038BD0120FCE704000020000000201E
:1004240008000020074A08B51368032043F01003AE
:10043400136000F01BF80F20FFF7D0FFFFF77AFFDF
:10044400002008BD00200240034A044B11681B78B9
:100454000B441360704700BF2800002004000020F4
:10046400014B1868704700BF2800002007490302A9
:10047400CA6803F4E06322F4E0621204120C13432A
:1004840043F0BF6343F40033CB60704700ED00E0FA
:10049400154B30B5DC68C4F30224C4F10703251DF1
:1004A400042B28BF0423062D4FF0FF3594BF0024EE
:1004B400033C05FA03F321EA0303A54022EA0502FB
:1004C400A340002843EA0203ACBF00F16040074A9E
:1004D4004FEA0313DBB2ABBF00F5614000F00F003D
:1004E40080F80033135430BD00ED00E014ED00E05B
:1004F4000138B0F1807F0BD24FF0E023F021054AA0
:10050400586182F823100020072298611A6170470D
:100514000120704700ED00E02DE9F341054638B3B2
:100524000368DB0710D42B689F075ED42B68190778
:1005340000F195802B685A0700F1C180E869002812
:1005440040F02C81002029E0904C636803F00C03F8
:10055400042B07D0636803F00C03082B0AD16368EB
:10056400DE0307D523689C03DDD56B68002BDAD145
:10057400012013E06B68B3F5803F12D1236843F484
:1005840080332360FFF76CFF064623689803CAD4C0
:10059400FFF766FF801B6428F7D9032002B0BDE88B
:1005A400F0819BB9236823F480332360236823F408
:1005B40080232360FFF754FF064623689903B2D5CE
:1005C400FFF74EFF801B6428F7D9E6E7B3F5A02FA9
:1005D400236803D143F480232360CFE723F48033DB
:1005E4002360236823F48023CBE7684C636813F00B
:1005F4000C0F07D0636803F00C03082B10D1636859
:10060400DA030DD423689B0702D52B69012BAFD1E4
:1006140023686A6923F0F80343EAC203236085E789
:100624002A695B4B6AB101221A60FFF719FF06467B
:1006340023689F07ECD4FFF713FF801B0228F7D928
:10064400ABE71A60FFF70CFF0646236898077FF5AF
:100654006DAFFFF705FF801B0228F6D99DE7AA6955
:100664004A4E4B4BE2B10122C3F88024FFF7F8FE57
:100674000446736A9B070DD54FF4FA52454B1B6829
:10068400B3FBF2F3019300BF019B5A1E0192002BAE
:10069400F9D14FE7FFF7E4FE001B0228E9D97CE714
:1006A400C3F88024FFF7DCFE0446736A9F077FF5D6
:1006B40041AFFFF7D5FE001B0228F6D96DE7334C96
:1006C400E369D80024D40127E36943F08053E3614C
:1006D400E36903F080530093009B2F4E3368D905E0
:1006E40018D5EB68012B26D1236A43F0010323625A
:1006F400FFF7B6FE41F288380646236A9B073FD5CA
:10070400002F3FF41BAFE36923F08053E36115E747
:100714000027E2E7336843F480733360FFF7A0FEF9
:1007240080463368DA05DCD4FFF79AFEA0EB0800B4
:100734006428F6D931E7ABB9236A41F2883823F04B
:1007440001032362236A23F004032362FFF788FE74
:100754000646236A9807D3D5FFF782FE801B4045DF
:10076400F7D91AE7052B236A03D143F00403236264
:10077400BAE723F001032362236A23F00403B6E7F4
:10078400FFF76EFE801B4045B7D906E70010024014
:100794000000424200000020007000402A4C6368C0
:1007A40003F00C03082B3ED00022284B02281A66C3
:1007B4002CD1FFF755FE06462368990120D42B6AF5
:1007C400B3F5803F05D16268A96822F400320A4378
:1007D4006260696A62680B4322F474121343012253
:1007E40063601A4B1A66FFF73BFE054623689A01BD
:1007F4003FF5A8AEFFF734FE401B0228F6D9CCE63D
:10080400FFF72EFE801B0228D6D9C6E6FFF728FE86
:10081400054623689B017FF595AEFFF721FE401B3B
:100824000228F6D9B9E601283FF4B8AE63682A6A0B
:1008340003F4803191427FF49BAE6A6A03F470132F
:1008440093423FF47FAE93E6001002400000424220
:100854000D4A536803F00C01082912D10B48C3F365
:100864008341DB03405C09D55368094AC3F3404321
:100874005043084AD35CB0FBF3F07047064B58432F
:1008840070470348704700BF00100240580A000830
:1008940000127A00680A000800093D002DE9F041C1
:1008A4000D46044610B90120BDE8F081444A13689E
:1008B40003F007038B4228D321688E0730D4CA077C
:1008C40043D43F4A136803F00703AB4265D8226858
:1008D4003C4D12F0040F6CD1130706D56B682269E6
:1008E40023F4605343EAC2036B60FFF7B1FF6B6804
:1008F400354AC3F30313D35CD840344B1860344BEC
:100904001868FFF76BFD0020CEE7136823F0070398
:100914000B431360136803F007038B42C3D1CBE787
:10092400284B11F0040F1EBF5A6842F4E0625A606B
:10093400080742BF5A6842F460525A605A68A06875
:1009440022F0F00202435A60B9E762681D4E012AA0
:1009540033681AD113F4003FA5D0736841F2883884
:1009640023F0030313437360FFF77AFD07467368AC
:10097400626803F00C03B3EB820FA2D0FFF770FDA3
:10098400C01B4045F3D903208EE7022A02D113F09D
:10099400007FE1E713F0020FDEE7136823F007039B
:1009A4002B431360136803F00703AB427FF47BAF60
:1009B4008DE76B68E16823F4E0630B436B608BE7BE
:1009C4000020024000100240480A000800000020F5
:1009D4000800002003460244934200D1704703F804
:1009E400011BF9E770B500260C4D0D4C641BA410D7
:1009F400A64209D100F01AF800260A4D0A4C641BDD
:100A0400A410A64205D170BD55F8043B98470136A1
:100A1400EEE755F8043B98470136F2E76C0A000804
:100A24006C0A00086C0A0008700A0008F8B500BFD8
:100A3400F8BC08BC9E467047F8B500BFF8BC08BCBB
:040A44009E46704713
:100A48000000000000000000010203040607080976
:100A580002030405060708090A0B0C0D0E0F1010F7
:040A68000102000087
:040A6C000902000873
:040A7000E501000894
:0C0A74000024F40001000000100000004D
:040000050800039557
:00000001FF
