:020000040800F2
:1000000000C0002079040008F9030008FB03000881
:10001000FD030008FF0300080104000800000000C1
:1000200000000000000000000000000003040008C1
:100030000504000800000000070400080904000887
:10004000C1040008C1040008C1040008C10400087C
:10005000C1040008C1040008C1040008C10400086C
:10006000C1040008C1040008C1040008C10400085C
:10007000C1040008C1040008C1040008C10400084C
:10008000C1040008C1040008C1040008C10400083C
:10009000C1040008C1040008C1040008C10400082C
:1000A000C1040008C1040008C1040008C10400081C
:1000B000C1040008C1040008C1040008C10400080C
:1000C000C1040008C1040008C1040008C1040008FC
:1000D000C10400080D040008C1040008C1040008A0
:1000E000C1040008C1040008C1040008C1040008DC
:1000F000C1040008C1040008C1040008C1040008CC
:10010000C1040008C1040008C1040008C1040008BB
:10011000C1040008C1040008C1040008C1040008AB
:10012000C1040008C1040008C1040008C10400089B
:1001300000000000000000000000000000000000BF
:1001400000000000000000000000000000000000AF
:10015000000000000000000000000000000000009F
:10016000000000000000000000000000000000008F
:10017000000000000000000000000000000000007F
:10018000000000000000000000000000000000006F
:10019000000000000000000000000000000000005F
:1001A000000000000000000000000000000000004F
:1001B000000000000000000000000000000000003F
:1001C000000000000000000000000000000000002F
:1001D000000000000000000000000000000000001F
:0401E0005FF8E0F1F3
:1001E40010B5054C237833B9044B13B10448AFF36D
:1001F40000800123237010BD0C00002000000000CB
:100204000814000808B5034B1BB103490348AFF3B6
:10021400008008BD00000000100000200814000841
:1002240010B590B01422002108A801F0E3F81422BC
:10023400002101A801F0DEF802244FF480330122EA
:10024400CDE90D43CDE906234FF4E01306A80A9245
:100254000F9300F08DFB08B172B6FEE70F23CDE9D2
:1002640001344FF480630390CDE90430214601A8A2
:1002740000F054FD08B172B6FEE710B010BD0000E6
:100284007FB500F041F9FFF7CBFF1022002102A84F
:1002940001F0B0F81F4B4FF480719A691E4842F088
:1002A40020029A619A69012602F020020092009AC3
:1002B4009A69002542F004029A619B69002203F0C6
:1002C40004030193019B00F04DFB4FF48073CDE9CF
:1002D40002360223104802A9CDE9045300F05AFA69
:1002E4004FF4E1330D4C0E4A2046C4E900230C239D
:1002F400C4E90255C4E905352561E56100F042FE13
:1003040008B172B6FEE732462046064901F035F8D8
:10031400FEE700BF00100240000801402800002052
:10032400003801406C0000200E4B82B09A6942F004
:1003340001029A619A6902F001020092009ADA6954
:1003440042F08052DA61DB69074A03F0805301937B
:10035400019B536823F0E06343F00073536002B0E1
:10036400704700BF001002400000014010B5044671
:1003740086B01022002102A801F03CF822681B4B31
:100384009A4230D103F558439A69194842F480429D
:100394009A619A6902A902F480420092009A9A69C9
:1003A400002442F004029A619B694FF4007203F046
:1003B40004030193019B0223CDE902230323059344
:1003C40000F0E8F94FF48063094802A9CDE902344A
:1003D400049400F0DFF925202246012100F0CAF838
:1003E400252000F0F9F806B010BD00BF0038014028
:1003F40000080140FEE7FEE7FEE7FEE7FEE7704780
:100404007047704700F092B810B5054C204600F0D4
:1004140093FE2046BDE810400122024900F0ADBF22
:10042400280000206C00002002680C4B10B59A4292
:100434000DD10B4B0B4C1B7822780A2B08D14FF6AD
:10044400FF730949094800F0CBFD0023237010BD58
:1004540005498B5401322270F9E700BF003801408E
:100464006C00002080000020810000202800002073
:10047400704700000C480D490D4A002302E0D4588F
:10048400C4500433C4188C42F9D30A4A0A4C0023DA
:1004940001E013600432A242FBD3FFF7E9FF00F04E
:1004A40085FFFFF7EDFE7047000000200C000020E0
:1004B400541400080C00002088040020FEE700000B
:1004C40038B50E4B054618784FF47A73B3FBF0F346
:1004D4000B4A1068B0FBF3F000F08CF8044658B9EE
:1004E4000F2D09D8024629464FF0FF3000F042F89C
:1004F4002046044B1D6038BD0120FCE704000020A9
:100504000000002008000020074A08B513680320F3
:1005140043F01003136000F01BF80020FFF7D0FF36
:10052400FFF702FF002008BD00200240034A044BED
:1005340011681B780B441360704700BF84040020CB
:1005440004000020014B1868704700BF8404002099
:1005540007490302CA6803F4E06322F4E062120468
:10056400120C134343F0BF6343F40033CB60704772
:1005740000ED00E0164B30B5DC68C4F30224C4F18E
:100584000703251D042B28BF0423062D4FF0FF3538
:1005940098BF002405FA03F388BF033C21EA030350
:1005A400A34005FA04F422EA0402002843EA020301
:1005B400ACBF00F16040074A4FEA0313DBB2ABBFA4
:1005C40000F5614000F00F0080F80033135430BD93
:1005D40000ED00E014ED00E0002808DB01234209EF
:1005E40000F01F0003FA00F0014B43F822007047AB
:1005F40000E100E00138B0F1807F0BD24FF0E0233E
:10060400F021054A586182F82310002007229861DE
:100614001A6170470120704700ED00E090F8213026
:10062400022B06D004238363002380F820300120AA
:10063400704703681A6822F00E021A601A6822F0E2
:1006440001021A600123D0E90F218B4053604FF45B
:10065400807303840020704708B590F82130022B82
:1006640003D004238363012008BD036843491A6847
:1006740022F00E021A601A6822F001021A60404A3F
:10068400934241D98B4238D014318B4237D0143144
:100694008B4236D014318B4223D014318B4223D079
:1006A40014318B4223D0934224D002F562729342D8
:1006B40023D01432934222D01432934221D01432E4
:1006C400934214BF4FF480334FF480532D4A536048
:1006D4004FF480730384436B002B4DD09847002064
:1006E400C2E74FF48053F1E74FF48033EEE74FF461
:1006F4008013EBE74FF08073E8E70123E6E710236C
:10070400E4E74FF48073E1E78B422ED01E498B421D
:100714002DD014318B422CD014318B4219D014318A
:100724008B4219D014318B4219D093421AD0174AF4
:1007340093421AD01432934219D01432934218D0EF
:100744001432934214BF4FF480334FF48053104A51
:10075400BDE74FF48053FAE74FF48033F7E74FF4E3
:100764008013F4E74FF08073F1E70123EFE71023E0
:10077400EDE74FF48073EAE7184675E70800024096
:1007840080000240000402401C00024008040240B1
:10079400000002402DE9F74F002216466A4F6B4BCA
:1007A400DFF8ACC1DFF8ACE10C6834FA06F502D12D
:1007B40003B0BDE8F08F4FF0010808FA06F804EA28
:1007C400080538EA040440F081804C68032C07D8FB
:1007D400013C022C00F28C80DFE804F09DA2A8000A
:1007E400122C00F0A08073D8112C00F09680FF2DFD
:1007F40098BF82464FF00F0988BF00F1040A4FEA00
:100804008604DAF8008088BF203C09FA04FB28EA51
:100814000B0802FA04F448EA0404CAF80040D1F8C8
:1008240004A01AF0805F51D0BC6926F0030844F09C
:100834000104BC61BC6908F1804804F0010401941E
:1008440008F5803806F0030B019C4FEA8B0BD8F8AF
:10085400084009FA0BF924EA09093F4CA04269D07F
:1008640004F58064A04267D004F58064A04265D09A
:1008740004F58064A04263D004F58064A04261D092
:1008840060450CBF0524062404FA0BF444EA090469
:10089400C8F808401C681AF4803F14BF2C43AC43CA
:1008A4001C605C681AF4003F14BF2C43AC435C60CA
:1008B4009C681AF4801F14BF2C43AC439C60DC6812
:1008C4001AF4001F14BF2C43AC43DC6001366BE701
:1008D40074450DD018D8DFF884904C4508D009F53C
:1008E40070294C4504D0A9F580194C457FF47FAF9D
:1008F4008A68EAB1012A08BFC0F810804FF00802E4
:1009040018BFC0F8148072E7DFF854904C45EFD05C
:1009140009F58039E9E7CA6869E7CA68043266E715
:10092400CA68083263E7CA680C3260E700225EE7EF
:1009340004225CE70024A7E70124A5E70224A3E737
:100944000324A1E704249FE70010024000040140AF
:10095400001C014000002210000801400000121099
:10096400000031100AB1016170470904FBE700007F
:100974002DE9F341054638B30368DB0710D42B682F
:100984009F075ED42B68190700F195802B685A07DE
:1009940000F1C180E869002840F02C81002029E0A2
:1009A400904C636803F00C03042B07D0636803F0D6
:1009B4000C03082B0AD16368DE0307D523689C0364
:1009C400DDD56B68002BDAD1012013E06B68B3F539
:1009D400803F12D1236843F480332360FFF7B2FDD4
:1009E400064623689803CAD4FFF7ACFD801B64282D
:1009F400F7D9032002B0BDE8F0819BB9236823F442
:100A040080332360236823F480232360FFF79AFD57
:100A1400064623689903B2D5FFF794FD801B64282A
:100A2400F7D9E6E7B3F5A02F236803D143F4802375
:100A34002360CFE723F480332360236823F48023E7
:100A4400CBE7684C636813F00C0F07D0636803F0BE
:100A54000C03082B10D16368DA030DD423689B07B9
:100A640002D52B69012BAFD123686A6923F0F803FF
:100A740043EAC203236085E72A695B4B6AB101221A
:100A84001A60FFF75FFD064623689F07ECD4FFF763
:100A940059FD801B0228F7D9ABE71A60FFF752FD16
:100AA4000646236898077FF56DAFFFF74BFD801B63
:100AB4000228F6D99DE7AA694A4E4B4BE2B10122BE
:100AC400C3F88024FFF73EFD0446736A9B070DD5E7
:100AD4004FF4FA52454B1B68B3FBF2F3019300BF8A
:100AE400019B5A1E0192002BF9D14FE7FFF72AFD13
:100AF400001B0228E9D97CE7C3F88024FFF722FD14
:100B04000446736A9F077FF541AFFFF71BFD001B87
:100B14000228F6D96DE7334CE369D80024D40127C1
:100B2400E36943F08053E361E36903F08053009386
:100B3400009B2F4E3368D90518D5EB68012B26D1BD
:100B4400236A43F001032362FFF7FCFC41F2883877
:100B54000646236A9B073FD5002F3FF41BAFE3698A
:100B640023F08053E36115E70027E2E7336843F499
:100B740080733360FFF7E6FC80463368DA05DCD423
:100B8400FFF7E0FCA0EB08006428F6D931E7ABB925
:100B9400236A41F2883823F001032362236A23F095
:100BA40004032362FFF7CEFC0646236A9807D3D5D5
:100BB400FFF7C8FC801B4045F7D91AE7052B236AC9
:100BC40003D143F004032362BAE723F00103236251
:100BD400236A23F00403B6E7FFF7B4FC801B404507
:100BE400B7D906E70010024000004242000000208E
:100BF400007000402A4C636803F00C03082B3ED0BD
:100C04000022284B02281A662CD1FFF79BFC0646CB
:100C14002368990120D42B6AB3F5803F05D162681B
:100C2400A96822F400320A436260696A62680B436D
:100C340022F474121343012263601A4B1A66FFF7FD
:100C440081FC054623689A013FF5A8AEFFF77AFCBC
:100C5400401B0228F6D9CCE6FFF774FC801B02285F
:100C6400D6D9C6E6FFF76EFC054623689B017FF5DF
:100C740095AEFFF767FC401B0228F6D9B9E60128B8
:100C84003FF4B8AE63682A6A03F4803191427FF47A
:100C94009BAE6A6A03F4701393423FF47FAE93E60B
:100CA400001002400000424230B5184B87B002AC3D
:100CB40003F11005224618685968083303C2AB4291
:100CC4001446F7D140F201231149ADF804304B68C2
:100CD40003F00C02082A17D1C3F3834218326A4482
:100CE400DB0312F8100C0CD54B680A4AC3F34043DB
:100CF400504318336B4413F8143CB0FBF3F007B0C3
:100D040030BD054B5843FAE70248F8E738140008A9
:100D14000010024000127A0000093D002DE9F04164
:100D24000D46044610B90120BDE8F081444A136819
:100D340003F007038B4228D321688E0730D4CA07F7
:100D440043D43F4A136803F00703AB4265D82268D3
:100D54003C4D12F0040F6CD1130706D56B68226961
:100D640023F4605343EAC2036B60FFF79DFF6B6893
:100D7400354AC3F30313D35CD840344B1860344B67
:100D84001868FFF79DFB0020CEE7136823F00703E4
:100D94000B431360136803F007038B42C3D1CBE703
:100DA400284B11F0040F1EBF5A6842F4E0625A60E7
:100DB400080742BF5A6842F460525A605A68A068F1
:100DC40022F0F00202435A60B9E762681D4E012A1C
:100DD40033681AD113F4003FA5D0736841F2883800
:100DE40023F0030313437360FFF7ACFB07467368F8
:100DF400626803F00C03B3EB820FA2D0FFF7A2FBEF
:100E0400C01B4045F3D903208EE7022A02D113F018
:100E1400007FE1E713F0020FDEE7136823F0070316
:100E24002B431360136803F00703AB427FF47BAFDB
:100E34008DE76B68E16823F4E0630B436B608BE739
:100E4400002002400010024020140008000000208E
:100E540008000020044B054A5B68C3F30223D35CFB
:100E6400034A1068D840704700100240301400084C
:100E740000000020044B054A5B68C3F3C223D35C23
:100E8400034A1068D840704700100240301400082C
:100E9400000000200368DA6822F49072DA605A696C
:100EA40022F001025A61026B012A02BFDA6822F0C1
:100EB4001002DA60202380F83E3000230363704779
:100EC40010B504460368C1681A6922F440520A4303
:100ED4001A6182680069D9680243606921F4B051DB
:100EE40021F00C0102430A43DA605A69A16922F431
:100EF40040720A435A610E4A934215D1FFF7BAFF72
:100F040019234343626820689200B3FBF2F364221E
:100F1400B3FBF2F102FB11331B013233B3FBF2F3E7
:100F240003EB0113836010BDFFF794FFE8E700BFF4
:100F340000380140F8B504460E4617461D4622689F
:100F4400136836EA030301D1002014E06B1CF7D0C8
:100F540095B923680320DA6822F4D072DA605A69FA
:100F640022F001025A61202384F83D3084F83E3097
:100F7400002384F83C30F8BDFFF7E4FAC01B854237
:100F8400DDD2E6E710B5044640B390F83D3003F0F7
:100F9400FF021BB980F83C20FFF7E8F924232268FC
:100FA40084F83D30D368204623F40053D360FFF720
:100FB40087FF236800201A6922F490421A615A6953
:100FC40022F02A025A61DA6842F40052DA602023DD
:100FD400206484F83D3084F83E3010BD0120FCE7E5
:100FE4002DE9F843994690F83D300446202B0E46EF
:100FF400174648D1002944D0002A42D090F83C300A
:10100400012B40D00123002580F83C3021230564C6
:1010140080F83D30FFF796FAA3688046B3F5805F09
:10102400A784E78403D123690BB935461E46002300
:1010340084F83C30E38C9BB253B94B464246402182
:101044002046FFF777FF50B9202384F83D3007E0AE
:101054004B46424680212046FFF76CFF10B1032027
:10106400BDE8F88322684EB935F8023BC3F30803A0
:101074005360E18C013989B2E184DBE716F8013B66
:10108400F6E70120ECE70220EAE77047704708B56D
:101094000023406AC385C384FFF7F8FF08BD704787
:1010A40007B58168836AB1F5805F026834D101694C
:1010B400002934D15268C2F3080223F8022BC28DEE
:1010C4008362013A92B2C2851ABB0368D96821F0DF
:1010D4002001D960D96821F48071D960596921F05F
:1010E40001015961202180F83E10016B012920D1B2
:1010F4000263D96821F01001D9601968C90605D5C1
:1011040001921A6801925B680193019B818DFFF73C
:10111400C6FF03B05DF804FB39B9016929B9526807
:10112400D2B21A70836A0133C9E7526802F07F02AF
:10113400F7E7FFF779F9ECE7036837B51A6804466F
:1011440012F00F0FD9685D690CD1950667D58D062D
:1011540065D590F83E30222B5BD103B0BDE830401A
:10116400FFF79EBF05F0010001F49075054356D0CA
:10117400D50705D5CB0542BF236C43F00103236497
:10118400550704D518B1236C43F002032364930775
:1011940004D518B1236C43F004032364150707D561
:1011A40001F0200303431EBF236C43F008032364B0
:1011B400236C73B3920608D58B0606D594F83E309B
:1011C400222B02D12046FFF76BFF236820465B6980
:1011D400256C03F0400305F008051D431BD0FFF701
:1011E40059FE23685A69550610D55A69A06B22F036
:1011F40040025A6150B1534B4363FFF72DFA40B19B
:10120400A06B436B03B0BDE8304018472046FFF79E
:101214003DFF03B030BDFFF739FF2564F9E7206BCC
:10122400012855D1D00653D5CD0651D500210191C1
:101234001A6801925A680192019A5A6912F040029E
:101244002AD0A06B0268526892B2002AE1D0A58D20
:101254009542DED9E2858269202A15D0DA6822F423
:101264008072DA605A6922F001025A615A6922F0E6
:1012740040025A61202284F83E202163DA6822F079
:101284001002DA60FFF7CAF9E38DA18DC91A89B299
:101294002046FFF704FFBCE7E18D88B2E18D89B2F7
:1012A4000029B6D0A18D091A89B20029B1D0D86815
:1012B40020F49070D860586920F001005861202013
:1012C40084F83E002263DA6822F01002DA60DFE775
:1012D400100626D50D0624D594F83D20212A98D150
:1012E400A168226AB1F5805F16D12169A1B932F8EB
:1012F400021BC1F3080159602262E28C013A92B2E6
:10130400E284002A85D1DA6822F08002DA60DA68A1
:1013140042F04002DA607CE7511C216212785A6084
:10132400EBE750067FF575AF4A067FF572AFDA68D2
:10133400204622F04002DA60202384F83D30FFF793
:10134400A4FE66E793100008C28582858162034685
:1013540022220020186483F83C0083F83E201B6896
:10136400DA6842F48072DA605A6942F001025A6122
:10137400DA6842F02002DA60704770B490F83E6098
:10138400202E10D161B15AB190F83C40012C0AD002
:10139400012480F83C400024046370BCFFF7D4BFF0
:1013A400012070BC70470220FBE7000070B50026E6
:1013B4000C4D0D4C641BA410A64209D100F022F878
:1013C40000260A4D0A4C641BA410A64205D170BD28
:1013D40055F8043B98470136EEE755F8043B984727
:1013E4000136F2E74C1400084C1400084C140008B1
:1013F4005014000803460244934200D1704703F896
:10140400011BF9E7F8B500BFF8BC08BC9E4670475D
:0C141400F8B500BFF8BC08BC9E4670474D
:101420000000000000000000010203040607080994
:101430000000000001020304020304050607080976
:0C1440000A0B0C0D0E0F10100000000035
:04144C000902000889
:04145000E5010008AA
:0C1454000024F400010000001000000063
:040000050800047972
:00000001FF
