:020000040800F2
:1000000000C00020AD220008FD030008FF03000827
:1000100001040008030400080504000800000000B3
:1000200000000000000000000000000007040008BD
:1000300009040008000000000B0400080D0400087B
:10004000F5220008F5220008F5220008F522000834
:10005000F5220008F522000811040008F522000826
:10006000F5220008F5220008F5220008F522000814
:10007000F5220008F5220008F5220008F522000804
:10008000F5220008F5220008F5220008F5220008F4
:10009000F5220008F5220008F522000817040008E0
:1000A000F5220008F5220008F5220008F5220008D4
:1000B000F5220008F5220008F5220008F5220008C4
:1000C000F5220008F5220008F5220008F5220008B4
:1000D000F52200081D040008F5220008F52200089A
:1000E0003D040008F5220008F5220008F52200086A
:1000F000F5220008F5220008F5220008F522000884
:10010000F5220008F5220008F5220008F522000873
:10011000F5220008F5220008F5220008F522000863
:10012000F5220008F5220008F5220008F522000853
:1001300000000000000000000000000000000000BF
:1001400000000000000000000000000000000000AF
:10015000000000000000000000000000000000009F
:10016000000000000000000000000000000000008F
:10017000000000000000000000000000000000007F
:10018000000000000000000000000000000000006F
:10019000000000000000000000000000000000005F
:1001A000000000000000000000000000000000004F
:1001B000000000000000000000000000000000003F
:1001C000000000000000000000000000000000002F
:1001D000000000000000000000000000000000001F
:0401E0005FF8E0F1F3
:1001E40010B5054C237833B9044B13B10448AFF36D
:1001F40000800123237010BD0C00002000000000CB
:10020400B032000808B5034B1BB103490348AFF3F0
:10021400008008BD0000000010000020B03200087B
:1002240010222DE9F0430124022589B00DEB0200D0
:10023400002103F033F8394B394E9A69DFF8E48032
:1002440042F020029A619A69304602F0200201923B
:10025400019A9A694FF4807142F004029A619A6992
:10026400314F02F004020292029A9A694FF0000997
:1002740042F010029A619B69012203F01003039378
:10028400039B02F0A1FA01224046042102F09CFAE9
:10029400304604A9CDE90447069502F0A7F92023C6
:1002A40004A92248CDE90437069402F09FF94FF4DB
:1002B4008073304604A9CDE90434CDE9069502F0F3
:1002C40095F94FF40043304604A9CDE90437069468
:1002D40002F08CF90423404604A9CDE90434CDE9A5
:1002E400069502F083F922462146062002F06EF8B4
:1002F400062002F09DF82A462146172002F066F8EF
:10030400172002F095F803222146282002F05EF817
:10031400282002F08DF809B0BDE8F08300100240F7
:1003240000080140001401400000111000100140B9
:1003340000B591B02422002107A802F0AFFF1422D7
:10034400002101A802F0AAFF022301210693102331
:1003540006A8CDE90A1302F051FA014608B172B6B3
:10036400FEE70F23CDE90300CDE90130059001A894
:1003740002F01AFC08B172B6FEE711B05DF804FB96
:1003840008B501F0DBFFFFF7D3FFFFF749FF01F0EA
:100394002BFF01220249034802F035FFFEE700BFAC
:1003A400340000203814002072B6FEE7104B07B565
:1003B4009A69052042F001029A619A6902F00102E9
:1003C4000092009ADA6942F08052DA61DB6903F044
:1003D40080530193019B01F0E7FF064A536823F021
:1003E400E06343F00073536003B05DF804FB00BFA7
:1003F4000010024000000140FEE7FEE7FEE7FEE7D2
:10040400FEE770477047704701F0AABF012002F071
:10041400E9B9202002F0E6B910B5054C204602F0F7
:10042400D1FD2046BDE810400122024902F0EBBE96
:1004340038140020340000204FF4004002F0D2B9F8
:100444002DE9F74FBD4B02689A4241F0FD82002628
:10045400BB4BBC4F1978DFF8F0820A293E60C8F81C
:10046400006041F0A283B94BDFF8E4921D68002DCF
:1004740041F06082B74B1B78022B40F05985B64C93
:100484002378312B39D10123452289F80030B34B2D
:100494001A706E225A7063229A706F22DA70642284
:1004A4001A7165222021997153215A71DA723A2204
:1004B400D971612074211A730D22197258729972BC
:1004C400A74B1A7001224FF48071A648A44C02F085
:1004D4007BF901220421A44802F076F94FF6FF7358
:1004E40022789E49A14802F0C1FC0023994A237056
:1004F40013709F4A137001F0A7BA302B0DD16321FA
:10050400964B442299706F211A70D9706522642128
:1005140089F800505A701971C4E799F80060012EE7
:1005240040F0978132464FF480718E4802F04CF9C6
:10053400324604218C4802F047F9A146DFF820B284
:10054400DFF82082834B1B78013B9D42BADA19F80D
:10055400011B3E68A1F141009BF800307F4C721CE6
:10056400192800F2A080DFE800F00D21282E33398D
:10057400444E5154585E6365696C71777B7D7F8509
:100584008C9094982E21A1552D21A1542F21A2198C
:1005940091700333DFF8D0A18BF800309BF8003062
:1005A4009E42C0F2A7803B600135CBE72D21A155C7
:1005B4002E21A154A219917016E02D202E21A055B0
:1005C400A154A2190FE02D21A1552E21A15428E0F8
:1005D4002E21A1552F210233A154DBE72E212D20FA
:1005E400A155A154A2199070D1702F210533117116
:1005F400D0E72D21A155A1542E21A21991702F21AC
:100604000433D170C6E72E21A155D2E72E21A1557E
:10061400BBE72E21A1552D21CBE72D212E20A1555D
:10062400A054A219EAE72E212D20A155A054C1E718
:100634002D21ECE72D21A1552E21A6E72D21A15531
:10064400C4E72E212D20A155A054BAE72D212E2038
:10065400A155A154A219C6E72E212D20A155DFE7EB
:100664002E21ECE72D21B4E72E21A155A1542D21F3
:10067400A219C3E72E21A155A154A21991702D21CD
:10068400B2E72E21A1552D21A0E72D212E20A15521
:10069400DAE72D212E20A155C8E72D21A155A1541B
:1006A4002E21A21987E74FF0450C6E2004F806C0EE
:1006B400A0546320A2199070642082F807C01071BE
:1006C4004FF0720C65204FF06F0E507182F808C025
:1006D400202082F809C082F80BC04FF03A0C82F84F
:1006E40003E0907182F80AE082F80CC050739173B1
:1006F4000F334FE7A25D2E2A13D14FF48071404689
:1007040002F067F84FF4FA7001F03CFE4FF4807188
:10071400404602F05EF84FF4FA7001F033FE013601
:100724003CE72D2A26D10421504602F052F84FF41A
:10073400FA7001F027FE04215046EAE70038014030
:10074400340000202C00002028000020300000206D
:100754003708002034040020370400203808002023
:100764003504002000080140001401403814002022
:10077400360400202F2A2ED14FF48071404602F017
:1007840028F80421504602F024F8FA2001F0FAFD7A
:100794004FF48071404602F01CF80421504602F0E8
:1007A40018F8FA2001F0EEFD4FF48071404602F093
:1007B40010F80421504602F00CF8FA2001F0E2FD92
:1007C4004FF48071404602F004F85046042102F0D0
:1007D40000F8FA20A1E7452AA1D14FF480714046E0
:1007E400009301F0F6FF0421504601F0F2FFA62029
:1007F40001F0C8FD4FF48071404601F0EAFFA720E4
:1008040001F0C0FD4FF48071404601F0E2FFA620E4
:1008140001F0B8FD4FF48071404601F0DAFFA720E3
:1008240001F0B0FD4FF48071404601F0D2FFA620E4
:1008340001F0A8FD4FF48071404601F0CAFF042185
:10084400504601F0C6FFA82001F09CFD009B1E4607
:1008540065E7002E7FF436AE01224FF48071AF4875
:1008640001F0B2FF01220421AD4801F0ADFFA3461F
:10087400DFF8A892AB4CAC4B1B78013B9D42BFF612
:1008840021AE1BF8013B2F2B5FD13E68A7493346AD
:100894009D4266DCA91B042917DCD8F800202378C4
:1008A40040F0A180A149885D2E2867D1881990F86D
:1008B40001C0BCF12E0F5AD180782D2840F0B881A8
:1008C4008819C0782D2840F0B3814FF0640A65215F
:1008D400974B98481A784FF0630C831800F802A0DD
:1008E400597059714521D971722119725972D9728D
:1008F4003A214FF06F0E83F802C04FF0200C1973A9
:100904008A4983F803E083F804A083F806C083F8D7
:100914000AE083F80DC002F10E03AA1BB542B8BF6A
:10092400002218443144009302F0AAFC009B804A40
:100934009B1B2B4413706B1C7F4A3B60D8F8003020
:1009440002F803A0237801332370D8F80060DFF89D
:10095400E8A123789E42C0F25782C8F800300135DE
:1009640089E75A5C2D3A012AAFD8013390E7BCF1EC
:100974002D0F40F05D8180782E289FE72D2849D1E6
:10098400881990F801C0BCF12D0F10D190F802C065
:10099400BCF12D0F02D1C0782E2896D0881990F87A
:1009A40002C0BCF12D0F02D1C0782D288DD0314466
:1009B40091F801C0BCF12E0F40F0F78188782E2801
:1009C40040F0D381C9782E2940F0C3814FF0420E04
:1009D400574EDFF860C130780CF800E00130307019
:1009E4002D265548B3E1012920D15049885D2E2890
:1009F40013D14FF0450E4E4EDFF838C131780CF864
:100A040001E0013131704C49023388540A442F21EA
:100A1400517023706B1C3B6097E72D28FAD1444E2C
:100A24004FF0540E3178DFF80CC1E8E7022944D1C5
:100A34003E49885D2E2828D1314449782E290DD18C
:100A44004FF0490E3A4EDFF8ECC030780CF800E075
:100A54000130307038488154024411E02D29D9D135
:100A64004FF0410ADFF8C8C0DFF8C8E09CF8006026
:100A74000EF806A001368CF800602F4EB0543244B4
:100A840051702F2103339170C3E72D28C2D1314413
:100A940049782E2908D1DFF898C04FF04E0A9CF807
:100AA4000060DFF890E0E3E72D29B3D1204E4FF04A
:100AB4004D0E3078DFF87CC0C8E70329AAD11B4962
:100AC400885D2E2864D1314448782E2836D1887820
:100AD4002E280CD14FF0530E154EDFF858C0317844
:100AE4000CF801E001313170134988544DE02D2890
:100AF40090D14FF0550C0E480E4E017806F801C007
:100B0400013101702E200C4988540A442D21507063
:100B140091702F210433D1707BE700BF000801409E
:100B2400001401403604002034040020370400205F
:100B34003504002038080020380C00202D287FF4CC
:100B440069AF88782E2810D14FF0520CC148C24E9C
:100B5400017806F801C0013101702E20BF49885484
:100B64000A442D2151709070D3E72D287FF452AFA1
:100B74004FF0570EB74EDFF8E0C231780CF801E0C1
:100B8400013131702E26B5498E540A445070EAE77B
:100B94002D287FF43FAF01EB060C9CF801002E28B2
:100BA40025D19CF802002E280FD14FF0440CA948FF
:100BB400A94E017806F801C0013101702D20A74922
:100BC40088540A442E215170A2E72D287FF422AFC5
:100BD4004FF04B0E9F4EDFF880C231780CF801E0E5
:100BE400013131709D4988540A442E21BAE72D28D9
:100BF4007FF410AF314488782E280FD14FF0470E80
:100C0400944EDFF854C231780CF801E001313170B0
:100C14002D2692498E540A445670A4E72D287FF459
:100C2400F9AE8C4E4FF04F0E3178DFF82CC257E7F7
:100C3400314491F801C0BCF12E0F48D188782E2898
:100C44002CD1C9782E290FD14FF0480E814EDFF8F0
:100C540008C230780CF800E0013030707F488154CD
:100C640002445170917014E02D297FF4D3AE4FF0FB
:100C7400560ADFF8E0C1DFF8E0E19CF800600EF806
:100C840006A001368CF80060744EB05432445070A3
:100C94009070D1702F2105331171BAE62D287FF49D
:100CA400B9AEC9782E297FF4B5AE4FF0460ADFF805
:100CB400A4C1DFF8A4E19CF800600EF806A0013698
:100CC4008CF80060654EB15432445170E0E7BCF1D9
:100CD4002D0F7FF49FAE88782E2813D1C9782E2942
:100CE4007FF498AE4FF04C0A5A4EDFF86CE130783E
:100CF4000EF800A00130307058488154024482F844
:100D040001C0AFE72D287FF485AEC9782E290FD115
:100D14004FF0500ADFF83CC1DFF83CE19CF800607A
:100D24000EF806A001368CF800604C4EB154ADE7C5
:100D34002D297FF46FAE4FF04A0E464EDFF818C1EE
:100D440030780CF800E0013030702E264348865489
:100D540086E72D297FF45EAEDFF8F8C04FF0580A1D
:100D64009CF80060DFF8F0E0DAE72D287FF452AE5B
:100D7400C9782E290FD14FF0430ADFF8D8C0DFF825
:100D8400D8E09CF800600EF806A001368CF80060EC
:100D9400324EB05498E72D297FF43CAE2D4E4FF0DF
:100DA400590A3078DFF8B0E0A2E7BCF12D0F7FF4E8
:100DB40031AE91F802E0BEF12E0F7FF42BAEC9786C
:100DC4002E290DD14FF05A0A224EDFF88CE03078EC
:100DD4000EF800A001303070204800F802C08DE702
:100DE4002D297FF417AE4FF0510A1A4EDFF868C070
:100DF40030780CF800A00130307018488154024457
:100E0400517082F802E044E716F80A302E2B13D111
:100E14004FF48071484601F0DCFC4FF4FA7001F0A5
:100E2400B1FA4FF48071484601F0D3FC4FF4FA70E4
:100E340001F0A8FA01368CE52D2B13D104210848C2
:100E440001F0C7FC4FF4FA7001F09CFA0421044845
:100E5400EAE700BF3504002038080020380C0020E1
:100E6400001401402F2B2ED14FF48071484601F01D
:100E7400B0FC0421B84801F0ACFCFA2001F082FA7D
:100E84004FF48071484601F0A4FC0421B24801F0FB
:100E9400A0FCFA2001F076FA4FF48071484601F084
:100EA40098FC0421AC4801F094FCFA2001F06AFAA1
:100EB4004FF48071484601F08CFCA748042101F0EE
:100EC40088FCFA20B4E7642BB4D10421A24801F0D1
:100ED40080FC4FF48071484601F07BFCA62001F0B1
:100EE40051FA04219C4801F074FCA72001F04AFA4D
:100EF4000421994801F06DFCA62001F043FA042175
:100F0400954801F066FCA72001F03CFA04219248C0
:100F140001F05FFCA62001F035FA04218E4801F0AF
:100F240058FC48464FF4807101F053FCA8207FE739
:100F340099F80040012C40F08A8122464FF48071D8
:100F4400864801F041FC22460421834801F03CFC20
:100F5400DFF80C92DFF80CB2DFF80082824B1B78CA
:100F6400013B9D42BFF6AEAA19F8011B3E68A1F1F0
:100F740041009BF800307D4C721C192800F2A080BF
:100F8400DFE800F00D21282E3339444E5154585EC9
:100F94006365696C71777B7D7F858C9094982E2135
:100FA400A1552D21A1542F21A21991700333DFF8EB
:100FB400A8A18BF800309BF800309E42C0F2A780B5
:100FC4003B600135CAE72D21A1552E21A154A21958
:100FD400917016E02D202E21A055A154A2190FE0E6
:100FE4002D21A1552E21A15428E02E21A1552F21D8
:100FF4000233A154DBE72E212D20A155A154A219BF
:101004009070D1702F2105331171D0E72D21A15596
:10101400A1542E21A21991702F210433D170C6E757
:101024002E21A155D2E72E21A155BBE72E21A15592
:101034002D21CBE72D212E20A155A054A219EAE79A
:101044002E212D20A155A054C1E72D21ECE72D21FF
:10105400A1552E21A6E72D21A155C4E72E212D202F
:10106400A155A054BAE72D212E20A155A154A219AF
:10107400C6E72E212D20A155DFE72E21ECE72D21F7
:10108400B4E72E21A155A1542D21A219C3E72E2185
:10109400A155A154A21991702D21B2E72E21A15579
:1010A4002D21A0E72D212E20A155DAE72D212E2078
:1010B400A155C8E72D21A155A1542E21A21987E7D6
:1010C4004FF0450C6E2004F806C0A0546320A2190A
:1010D4009070642082F807C010714FF0720C652084
:1010E4004FF06F0E507182F808C0202082F809C0BA
:1010F40082F80BC04FF03A0C82F803E0907182F84A
:101104000AE082F80CC0507391730F334FE7A25D6D
:101114002E2A13D14FF48071404601F05AFB4FF44C
:10112400FA7001F02FF94FF48071404601F051FB41
:101134004FF4FA7001F026F901363CE72D2A17D155
:101144000421504601F045FB4FF4FA7001F01AF9FE
:1011540004215046EAE700BF0014014000080140A2
:10116400370400203504002034040020380800200F
:101174002F2A2ED14FF48071404601F02AFB04211E
:10118400504601F026FBFA2001F0FCF84FF4807180
:10119400404601F01EFB0421504601F01AFBFA20E0
:1011A40001F0F0F84FF48071404601F012FB042185
:1011B400504601F00EFBFA2001F0E4F84FF4807180
:1011C400404601F006FB5046042101F002FBFA20E0
:1011D400B0E7452AB0D14FF480714046009301F046
:1011E400F8FA0421504601F0F4FAA62001F0CAF8F6
:1011F4004FF48071404601F0ECFAA72001F0C2F8E8
:101204004FF48071404601F0E4FAA62001F0BAF8E8
:101214004FF48071404601F0DCFAA72001F0B2F8E7
:101224004FF48071404601F0D4FAA62001F0AAF8E8
:101234004FF48071404601F0CCFA0421504601F08D
:10124400C8FAA82001F09EF8009B1E4674E7002C03
:101254007FF438A901224FF48071B14801F0B4FA47
:1012640001220421AF4801F0AFFAAF4BAF4CDFF8D5
:10127400B0920093AE4B1B78013B9D42BFF622A96E
:10128400009A12F8013B2F2B009261D13E68A649C7
:1012940033469D4268DCA91B042917DCD8F80020DA
:1012A400237840F0A380A049885D2E2869D188194D
:1012B40090F801C0BCF12E0F5CD180782D2840F04D
:1012C400B9818819C0782D2840F0B4814FF0640AA0
:1012D4006521DFF860B298489BF800204FF0630C5A
:1012E400831800F802A0597059714521D9717221EF
:1012F40019725972D9723A214FF06F0E83F802C0F5
:101304004FF0200C1973884983F803E083F804A094
:1013140083F806C083F80AE083F80DC002F10E03D7
:10132400AA1BB542B8BF002218443144019301F00E
:10133400A7FF019B814A9B1B2B448BF800306B1C3D
:101344003B60D8F8003002F803A0237801332370FF
:10135400D8F80060DFF8E4A123789E42C0F25682F8
:10136400C8F80030013585E75A5C2D3A012AADD81A
:1013740001338EE7BCF12D0F40F05C8180782E287C
:101384009DE72D2849D1881990F801C0BCF12D0F93
:1013940010D190F802C0BCF12D0F02D1C0782E28D4
:1013A40094D0881990F802C0BCF12D0F02D1C078F6
:1013B4002D288BD0314491F801C0BCF12E0F40F0A0
:1013C400F68188782E2840F0D281C9782E2940F001
:1013D400C2814FF0420E574EDFF85CC130780CF8F2
:1013E40000E0013030702D265448B2E1012920D1AB
:1013F4004D49885D2E2813D14FF0450E4D4EDFF830
:1014040038C131780CF801E0013131704B490233B5
:1014140088540A442F21517023706B1C3B6097E75A
:101424002D28FAD1434E4FF0540E3178DFF808C11D
:10143400E8E7022944D13C49885D2E2828D131446B
:1014440049782E290DD14FF0490E3A4EDFF8E8C005
:1014540030780CF800E00130307038488154024490
:1014640011E02D29D9D14FF0410ADFF8C8C0DFF8C7
:10147400C8E09CF800600EF806A001368CF8006005
:101484002E4EB054324451702F2103339170C3E770
:101494002D28C2D1314449782E2908D1DFF894C0CF
:1014A4004FF04E0A9CF80060DFF88CE0E3E72D294A
:1014B400B3D1204E4FF04D0E3078DFF87CC0C8E732
:1014C4000329AAD11849885D2E2863D1314448786C
:1014D4002E2835D188782E280CD14FF0530E154E76
:1014E400DFF854C031780CF801E001313170134950
:1014F40088544CE02D2890D14FF0550C0D480E4ED9
:10150400017806F801C0013101702E200B4988547E
:101514000A442D21507091702F210433D1707BE740
:101524000008014000140140370400203604002064
:10153400340400203504002038080020380C002032
:101544002D287FF46AAF88782E2810D14FF0520CE2
:10155400C148C24E017806F801C0013101702E2045
:10156400BF4988540A442D2151709070D4E72D2826
:101574007FF453AF4FF0570EB74EDFF8E0C2317827
:101584000CF801E0013131702E26B5498E540A441D
:101594005070EAE72D287FF440AF01EB060C9CF86D
:1015A40001002E2825D19CF802002E280FD14FF0DF
:1015B400440CA948A94E017806F801C00131017014
:1015C4002D20A74988540A442E215170A3E72D28C1
:1015D4007FF423AF4FF04B0E9F4EDFF880C231787B
:1015E4000CF801E0013131709D4988540A442E21E0
:1015F400BAE72D287FF411AF314488782E280FD113
:101604004FF0470E944EDFF854C231780CF801E0E5
:10161400013131702D2692498E540A445670A4E744
:101624002D287FF4FAAE8C4E4FF04F0E3178DFF850
:101634002CC258E7314491F801C0BCF12E0F48D1B7
:1016440088782E282CD1C9782E290FD14FF0480E36
:10165400814EDFF808C230780CF800E001303070B9
:101664007F48815402445170917014E02D297FF415
:10167400D4AE4FF0560ADFF8E0C1DFF8E0E19CF8A1
:1016840000600EF806A001368CF80060744EB05469
:10169400324450709070D1702F2105331171BBE624
:1016A4002D287FF4BAAEC9782E297FF4B6AE4FF058
:1016B400460ADFF8A4C1DFF8A4E19CF800600EF844
:1016C40006A001368CF80060654EB1543244517066
:1016D400E0E7BCF12D0F7FF4A0AE88782E2813D15B
:1016E400C9782E297FF499AE4FF04C0A5A4EDFF890
:1016F4006CE130780EF800A0013030705848815405
:10170400024482F801C0AFE72D287FF486AEC97881
:101714002E290FD14FF0500ADFF83CC1DFF83CE12D
:101724009CF800600EF806A001368CF800604C4E60
:10173400B154ADE72D297FF470AE4FF04A0E464EFA
:10174400DFF818C130780CF800E0013030702E2634
:101754004348865486E72D297FF45FAEDFF8F8C04E
:101764004FF0580A9CF80060DFF8F0E0DAE72D2823
:101774007FF453AEC9782E290FD14FF0430ADFF816
:10178400D8C0DFF8D8E09CF800600EF806A0013657
:101794008CF80060324EB05498E72D297FF43DAEAA
:1017A4002D4E4FF0590A3078DFF8B0E0A2E7BCF1D3
:1017B4002D0F7FF432AE91F802E0BEF12E0F7FF4CC
:1017C4002CAEC9782E290DD14FF05A0A224EDFF8DB
:1017D4008CE030780EF800A001303070204800F81A
:1017E40002C08DE72D297FF418AE4FF0510A1A4E2E
:1017F400DFF868C030780CF800A001303070184869
:1018040081540244517082F802E044E716F80A3029
:101814002E2B13D14FF48071484600F0DAFF4FF4B9
:10182400FA7000F0AFFD4FF48071484600F0D1FF2C
:101834004FF4FA7000F0A6FD01368DE52D2B13D17F
:101844000421084800F0C5FF4FF4FA7000F09AFD37
:1018540004210448EAE700BF3504002038080020CA
:10186400380C0020001401402F2B2ED14FF480712E
:10187400484600F0AEFF0421CF4800F0AAFFFA204A
:1018840000F080FD4FF48071484600F0A2FF04216F
:10189400C94800F09EFFFA2000F074FD4FF48071F7
:1018A400484600F096FF0421C34800F092FFFA2056
:1018B40000F068FD4FF48071484600F08AFFBE488E
:1018C400042100F086FFFA20B4E7642BB4D104218C
:1018D400B94800F07EFF4FF48071484600F079FF6C
:1018E400A62000F04FFD0421B34800F072FFA720AA
:1018F40000F048FD0421B04800F06BFFA62000F082
:1019040041FD0421AC4800F064FFA72000F03AFD3B
:101914000421A94800F05DFFA62000F033FD042156
:10192400A54800F056FF48464FF4807100F051FF7F
:10193400A8207FE701224FF48071A04800F044FF03
:10194400012204219C4800F03FFF99F800909C4F2D
:10195400B9F1010F7BD16E229A4D45236A7063223F
:10196400AA7064222B702A71EB71652272236F2195
:101974006A712B7220226B72EB723A23DFF8488271
:101984002B7398F80040E970AA71A9726A738F49A1
:10199400224605F10E0001F073FC04F10E028C4C9A
:1019A400D2B229468B48227001F06AFC4FF4807150
:1019B400824800F00EFF04217F4800F00AFFA620B1
:1019C40000F0E0FC4FF480717C4800F002FFA72097
:1019D40000F0D8FC4FF48071784800F0FAFEA6209D
:1019E40000F0D0FC4FF48071744800F0F2FEA720A0
:1019F40000F0C8FC4FF48071704800F0EAFEA620A5
:101A040000F0C0FC4FF480716C4800F0E2FE042149
:101A1400694800F0DEFEA82000F0B4FC4A464FF40A
:101A24008071664800F0D0FE4A460421624800F006
:101A3400CBFE4FF6FF7322786649674801F016FA29
:101A440088F8006026703E7003B0BDE8F08FC8F8D7
:101A540000603546DFF88481574C584E3B789D42F0
:101A640018DB01224FF480715448594C00F0ACFE4D
:101A740001220421504800F0A7FE4FF6FF7322789C
:101A84005449554801F0F2F900234F4A237013706A
:101A94003B70D9E718F8013B2E2B13D14FF480711A
:101AA400304600F096FE4FF4FA7000F06BFC4FF4F1
:101AB4008071304600F08DFE4FF4FA7000F062FC45
:101AC4000135CBE72D2B0AD10421204600F081FEFD
:101AD4004FF4FA7000F056FC04212046EAE72F2B5D
:101AE4002ED14FF48071304600F073FE042120465D
:101AF40000F06FFEFA2000F045FC4FF48071304690
:101B040000F067FE0421204600F063FEFA2000F096
:101B140039FC4FF48071304600F05BFE042120460E
:101B240000F057FEFA2000F02DFC4FF4807130468F
:101B340000F04FFE2046042100F04BFEFA20BDE7E2
:101B4400642BBDD10421204600F043FE4FF4807184
:101B5400304600F03EFEA62000F014FC042120468E
:101B640000F037FEA72000F00DFC0421204600F011
:101B740030FEA62000F006FC0421204600F029FED9
:101B8400A72000F0FFFB0421204600F022FEA6203F
:101B940000F0F8FB0421204600F01BFE30464FF411
:101BA400807100F016FEA82088E7074A07481378DA
:101BB400C1540133FEF79EBC0014014000080140EB
:101BC400360400203810002034040020370400209C
:101BD400350400203808002038140020380C002078
:101BE4002DE9F04F044601224FF48071A0488BB0D8
:101BF40000F0EAFD012204219E4800F0E5FD202CBE
:101C040000F08D80B4F5004F00F0AD80012C40F061
:101C1400A7802146964800F0D1FD0128044640F0F3
:101C24009F804FF48071924800F0D3FD04219148C5
:101C340000F0CFFDFA2000F0A5FB4FF480718C4832
:101C440000F0C7FD04218B4800F0C3FDFA2000F02A
:101C540099FB4FF48071864800F0BBFD0421854850
:101C640000F0B7FDFA2000F08DFB4FF4807180483E
:101C740000F0AFFD04217F4800F0ABFDFA2000F036
:101C840081FB2F217C4A7D4E1378DFF8F481F154D7
:101C94000133DBB2079313707A4B08961C607A4BBE
:101CA4001B68029301330593029B02330093774B25
:101CB4001F68774B07F101091C78764B07F1020A7C
:101CC4001D78029B07F1030B033303933B1D019320
:101CD4009DF808300993029B5B420493002306930A
:101CE400DDE906128A4259DC694F6A4E0BB13C7039
:101CF400357001224FF480715D4800F065FD0122CA
:101D040004215C4800F060FD6348FEF799FB002362
:101D1400594A3B7013705B4A3370136020E02146CC
:101D24005E4800F04BFDD8B900F180404FF480715B
:101D340000F5843000F04DFD4FF4FA7000F022FB02
:101D44004FF480714A4800F044FD4FF4FA7000F0FB
:101D540019FB2E20484A49491378C854013313709B
:101D64000BB0BDE8F08F2146414800F027FD002864
:101D7400F6D104213F4800F02CFD4FF4FA7000F036
:101D840001FB04213B4800F024FD4FF4FA7000F0FD
:101D9400F9FA394A2D2013783849DEE7089911F801
:101DA400012B2F2A08914FD1029A0699914252DCB5
:101DB400049A042A13DC40F0A280029AB25C2E2A10
:101DC40070D1059AB25C2E2A4BD1009AB25C2D2AAE
:101DD40040F06181039AB25C2D2A40F05C81642357
:101DE400652108EB040208F8043051705171452153
:101DF4006320D17172214FF06F0C9070117220200A
:101E04005172D1723A2113719071069B1173507300
:101E1400029982F803C082F80AC0049A04F10E0001
:101E24008B42B8BF00224044711801F029FA099B83
:101E34000135C3F10E02069B14441C446423184A62
:101E4400E4B2D3550123EDB2069A01320692049A04
:101E54000132049244E7B15C2D390129BFD8013223
:101E6400A3E72D2A40F01781009AB25C2E2AAFE72F
:101E7400000801400014014034040020370400200D
:101E840038080020300000202C000020280000200A
:101E940035040020360400203814002000100140CE
:101EA400380C00202D2ACFD1059AB25C2D2A0FD1EF
:101EB400009AB25C2D2A03D1039AB25C2E2A8ED0EA
:101EC400009AB25C2D2A03D1039AB25C2D2A86D0E3
:101ED400059AB05C2E2840F06981009AB15C2E29E5
:101EE40040F04C81039AB25C2E2A40F04281422396
:101EF40008F8043001342D21AB4BE4B237E1049AE5
:101F0400012A13D1029AB25C2E2A0BD1452308F878
:101F14000430A54B0134DA552F22E4B203F809202A
:101F240002358FE72D2A8FD15423F0E7049A022A31
:101F34002ED1029AB15C2E291CD1059AB25C2E2AAC
:101F440007D1492308F80430974B0134E4B2DA5539
:101F540009E02D2A7FF478AF412308F80430924B2E
:101F64000134E4B2D95503F809202F22033503F8CC
:101F74000A2067E72D297FF467AF059AB25C2E2A01
:101F840001D14E23E9E72D2A7FF45EAF4D23D9E733
:101F9400049A032A7FF458AF029AB25C2E2A44D1E1
:101FA400059AB25C2E2A20D1009AB25C2E2A07D15F
:101FB400532308F804307C4B0134E4B2DA5531E0A1
:101FC4002D2A7FF441AF55232E2208F80430764B96
:101FD4000134DA5503F809202D22E4B203F80A206B
:101FE4002F22043503F80B202CE72D2A7FF42CAF85
:101FF400009AB25C2E2A0AD152232D2108F804300B
:10200400694B0134E4B2DA5503F80910E6E72D2AE6
:102014007FF41AAF57232E2108F80430624B0134A1
:10202400E4B2D95503F80920D8E72D2A7FF40CAF80
:10203400059AB25C2E2A19D1009AB25C2E2A09D1D3
:1020440044232D2208F80430574B0134DA55E4B206
:102054002E22E7E72D2A7FF4F7AE4B2308F804304D
:10206400514B01342E21E4B2DA55CDE72D2A7FF409
:10207400EBAE009AB25C2E2A08D147232D2108F832
:102084000430494B0134E4B2D955BDE72D2A7FF41D
:10209400DBAE4F238DE7059AB05C2E2838D1009A29
:1020A400B15C2E2924D1039AB25C2E2A11D1482383
:1020B40008F804303C4B0134E4B2DA5503F8092043
:1020C40003F80A2003F80B202F22019905355A54EE
:1020D400B8E62D2A7FF4B8AE562308F80430324B04
:1020E4000134E4B2D95503F8091003F80A10E9E7FA
:1020F4002D297FF4A9AE039AB25C2E2A7FF4A4AEF4
:10210400462308F80430284B0134E4B2DA5543E09E
:102114002D287FF499AE009AB15C2E290ED1039A32
:10212400B25C2E2A7FF490AE4C2308F804301E4B88
:102134000134E4B2DA5503F80900C1E72D297FF42C
:1021440083AE039AB25C2E2A07D1502308F80430D8
:10215400154B0134E4B2DA55C5E72D2A7FF474AE89
:102164004A232E2108F8043001340F4BE4B2D95528
:10217400A4E72D2A7FF468AE5823E7E72D297FF4DE
:1021840063AE039AB25C2E2A09D1432308F80430C3
:10219400054B0134E4B2D95503F80920A5E72D2AEB
:1021A4007FF452AE5923C0E7380C00202D287FF469
:1021B4004BAE009AB15C2E297FF446AE039AB25C12
:1021C4002E2A07D15A2308F80430054B0134E4B20F
:1021D400D855B0E72D2A7FF437AE512391E700BFDD
:1021E400380C00207047000008B54FF4E1330A486A
:1021F4000A4AC0E9002300230C22C0E90233C0E9E3
:1022040005230361C36100F003FE18B1BDE8084073
:10221400FEF7CAB808BD00BF3814002000380140DA
:1022240010B5044686B01022002102A801F036F849
:1022340022681B4B9A4230D103F558439A691948D6
:1022440042F480429A619A6902A902F4804200929F
:10225400009A9A69002442F004029A619B694FF43F
:10226400007203F004030193019B0223CDE90223CE
:102274000323059300F0BAF94FF48063094802A9D7
:10228400CDE90234049400F0B1F92520224601215D
:1022940000F09CF8252000F0CBF806B010BD00BF7C
:1022A40000380140000801400C480D490D4A002344
:1022B40002E0D458C4500433C4188C42F9D30A4AF7
:1022C4000A4C002301E013600432A242FBD3FFF75F
:1022D40089FF00F0B1FFFEF753F8704700000020BB
:1022E4000C000020FC3200080C00002080140020A8
:1022F400FEE7000038B50E4B054618784FF47A73A4
:10230400B3FBF0F30B4A1068B0FBF3F000F09EF857
:10231400044658B90F2D09D8024629464FF0FF301C
:1023240000F054F82046044B1D6038BD0120FCE742
:10233400040000200000002008000020074A08B51F
:102344001368032043F01003136000F02DF80020FD
:10235400FFF7D0FFFEF72AF8002008BD0020024056
:10236400034A044B11681B780B441360704700BF89
:102374007C14002004000020014B1868704700BF43
:102384007C14002038B50446FFF7F6FF0546631CAD
:102394001EBF044B1B78E418FFF7EEFF431BA34258
:1023A400FAD338BD0400002007490302CA6803F4C5
:1023B400E06322F4E0621204120C134343F0BF639F
:1023C40043F40033CB60704700ED00E0164B30B5AA
:1023D400DC68C4F30224C4F10703251D042B28BFC1
:1023E4000423062D4FF0FF3598BF002405FA03F3AC
:1023F40088BF033C21EA0303A34005FA04F422EA5C
:102404000402002843EA0203ACBF00F16040074A1B
:102414004FEA0313DBB2ABBF00F5614000F00F00DD
:1024240080F80033135430BD00ED00E014ED00E0FB
:10243400002808DB0123420900F01F0003FA00F022
:10244400014B43F82200704700E100E00138B0F18D
:10245400807F0BD24FF0E023F021054A586182F8C7
:1024640023100020072298611A61704701207047E9
:1024740000ED00E090F82130022B06D004238363A2
:10248400002380F820300120704703681A6822F086
:102494000E021A601A6822F001021A600123D0E9C0
:1024A4000F218B4053604FF48073038400207047E6
:1024B40008B590F82130022B03D004238363012054
:1024C40008BD036843491A6822F00E021A601A68AC
:1024D40022F001021A60404A934241D98B4238D01B
:1024E40014318B4237D014318B4236D014318B42A5
:1024F40023D014318B4223D014318B4223D0934206
:1025040024D002F56272934223D01432934222D033
:102514001432934221D01432934214BF4FF48033C7
:102524004FF480532D4A53604FF480730384436BFC
:10253400002B4DD098470020C2E74FF48053F1E7B9
:102544004FF48033EEE74FF48013EBE74FF08073E2
:10255400E8E70123E6E71023E4E74FF48073E1E7BB
:102564008B422ED01E498B422DD014318B422CD05D
:1025740014318B4219D014318B4219D014318B424F
:1025840019D093421AD0174A93421AD01432934264
:1025940019D01432934218D01432934214BF4FF41A
:1025A40080334FF48053104ABDE74FF48053FAE769
:1025B4004FF48033F7E74FF48013F4E74FF0807360
:1025C400F1E70123EFE71023EDE74FF48073EAE727
:1025D400184675E7080002408000024000040240EB
:1025E4001C00024008040240000002402DE9F74F9D
:1025F400002216466A4F6B4BDFF8ACC1DFF8ACE142
:102604000C6834FA06F502D103B0BDE8F08F4FF040
:10261400010808FA06F804EA080538EA040440F058
:1026240081804C68032C07D8013C022C00F28C807A
:10263400DFE804F09DA2A800122C00F0A08073D85B
:10264400112C00F09680FF2D98BF82464FF00F09A1
:1026540088BF00F1040A4FEA8604DAF8008088BFD4
:10266400203C09FA04FB28EA0B0802FA04F448EABD
:102674000404CAF80040D1F804A01AF0805F51D0D5
:10268400BC6926F0030844F00104BC61BC6908F18C
:10269400804804F00104019408F5803806F0030B27
:1026A400019C4FEA8B0BD8F8084009FA0BF924EA8D
:1026B40009093F4CA04269D004F58064A04267D068
:1026C40004F58064A04265D004F58064A04263D020
:1026D40004F58064A04261D060450CBF0524062443
:1026E40004FA0BF444EA0904C8F808401C681AF414
:1026F400803F14BF2C43AC431C605C681AF4003F59
:1027040014BF2C43AC435C609C681AF4801F14BF54
:102714002C43AC439C60DC681AF4001F14BF2C43A8
:10272400AC43DC6001366BE774450DD018D8DFF894
:1027340084904C4508D009F570294C4504D0A9F57E
:1027440080194C457FF47FAF8A68EAB1012A08BF3B
:10275400C0F810804FF0080218BFC0F8148072E768
:10276400DFF854904C45EFD009F58039E9E7CA68A1
:1027740069E7CA68043266E7CA68083263E7CA6868
:102784000C3260E700225EE704225CE70024A7E73E
:102794000124A5E70224A3E70324A1E704249FE777
:1027A4000010024000040140001C014000002210FF
:1027B4000008014000001210000031108368194223
:1027C40014BF0120002070470AB101617047090459
:1027D400FBE7C36801EA030221EA030141EA02417B
:1027E40001617047044A08B55169014202D0506141
:1027F400FFF7F6F908BD00BF000401402DE9F341DD
:10280400054638B30368DB0710D42B689F075ED4F2
:102814002B68190700F195802B685A0700F1C180D5
:10282400E869002840F02C81002029E0904C63687E
:1028340003F00C03042B07D0636803F00C03082B8C
:102844000AD16368DE0307D523689C03DDD56B6872
:10285400002BDAD1012013E06B68B3F5803F12D16D
:10286400236843F480332360FFF786FD064623681C
:102874009803CAD4FFF780FD801B6428F7D903208E
:1028840002B0BDE8F0819BB9236823F48033236050
:10289400236823F480232360FFF76EFD0646236834
:1028A4009903B2D5FFF768FD801B6428F7D9E6E7E2
:1028B400B3F5A02F236803D143F480232360CFE72B
:1028C40023F480332360236823F48023CBE7684C0C
:1028D400636813F00C0F07D0636803F00C03082B34
:1028E40010D16368DA030DD423689B0702D52B69E2
:1028F400012BAFD123686A6923F0F80343EAC203CA
:10290400236085E72A695B4B6AB101221A60FFF7ED
:1029140033FD064623689F07ECD4FFF72DFD801B8B
:102924000228F7D9ABE71A60FFF726FD06462368AD
:1029340098077FF56DAFFFF71FFD801B0228F6D9BE
:102944009DE7AA694A4E4B4BE2B10122C3F88024A9
:10295400FFF712FD0446736A9B070DD54FF4FA5234
:10296400454B1B68B3FBF2F3019300BF019B5A1E56
:102974000192002BF9D14FE7FFF7FEFC001B022860
:10298400E9D97CE7C3F88024FFF7F6FC0446736AB0
:102994009F077FF541AFFFF7EFFC001B0228F6D934
:1029A4006DE7334CE369D80024D40127E36943F08D
:1029B4008053E361E36903F080530093009B2F4E3F
:1029C4003368D90518D5EB68012B26D1236A43F067
:1029D40001032362FFF7D0FC41F288380646236ADC
:1029E4009B073FD5002F3FF41BAFE36923F08053CF
:1029F400E36115E70027E2E7336843F4807333604B
:102A0400FFF7BAFC80463368DA05DCD4FFF7B4FC80
:102A1400A0EB08006428F6D931E7ABB9236A41F288
:102A2400883823F001032362236A23F0040323621A
:102A3400FFF7A2FC0646236A9807D3D5FFF79CFC50
:102A4400801B4045F7D91AE7052B236A03D143F0CD
:102A540004032362BAE723F001032362236A23F009
:102A64000403B6E7FFF788FC801B4045B7D906E7A7
:102A740000100240000042420000002000700040AC
:102A84002A4C636803F00C03082B3ED00022284B29
:102A940002281A662CD1FFF76FFC064623689901B9
:102AA40020D42B6AB3F5803F05D16268A96822F46B
:102AB40000320A436260696A62680B4322F474124A
:102AC4001343012263601A4B1A66FFF755FC05464F
:102AD40023689A013FF5A8AEFFF74EFC401B02287D
:102AE400F6D9CCE6FFF748FC801B0228D6D9C6E607
:102AF400FFF742FC054623689B017FF595AEFFF77F
:102B04003BFC401B0228F6D9B9E601283FF4B8AED5
:102B140063682A6A03F4803191427FF49BAE6A6A47
:102B240003F4701393423FF47FAE93E60010024027
:102B34000000424230B5184B87B002AC03F11005D7
:102B4400224618685968083303C2AB421446F7D1C9
:102B540040F201231149ADF804304B6803F00C0234
:102B6400082A17D1C3F3834218326A44DB0312F8EC
:102B7400100C0CD54B680A4AC3F340435043183336
:102B84006B4413F8143CB0FBF3F007B030BD054BB5
:102B94005843FAE70248F8E7E03200080010024020
:102BA40000127A0000093D002DE9F0410D4604466B
:102BB40010B90120BDE8F081444A136803F007030B
:102BC4008B4228D321688E0730D4CA0743D43F4AA6
:102BD400136803F00703AB4265D822683C4D12F03A
:102BE400040F6CD1130706D56B68226923F4605374
:102BF40043EAC2036B60FFF79DFF6B68354AC3F37A
:102C04000313D35CD840344B1860344B1868FFF777
:102C140071FB0020CEE7136823F007030B43136016
:102C2400136803F007038B42C3D1CBE7284B11F0A1
:102C3400040F1EBF5A6842F4E0625A60080742BF9C
:102C44005A6842F460525A605A68A06822F0F0024E
:102C540002435A60B9E762681D4E012A33681AD1EB
:102C640013F4003FA5D0736841F2883823F00303BE
:102C740013437360FFF780FB07467368626803F0D1
:102C84000C03B3EB820FA2D0FFF776FBC01B4045C9
:102C9400F3D903208EE7022A02D113F0007FE1E783
:102CA40013F0020FDEE7136823F007032B431360CE
:102CB400136803F00703AB427FF47BAF8DE76B68C7
:102CC400E16823F4E0630B436B608BE70020024070
:102CD40000100240C8320008000000200800002054
:102CE400044B054A5B68C3F30223D35C034A1068B0
:102CF400D840704700100240D8320008000000207D
:102D0400044B054A5B68C3F3C223D35C034A1068CF
:102D1400D840704700100240D8320008000000205C
:102D24000368DA6822F49072DA605A6922F00102C8
:102D34005A61026B012A02BFDA6822F01002DA60DB
:102D4400202380F83E3000230363704710B5044607
:102D54000368C1681A6922F440520A431A618268FE
:102D64000069D9680243606921F4B05121F00C0173
:102D740002430A43DA605A69A16922F440720A43A1
:102D84005A610E4A934215D1FFF7BAFF1923434300
:102D9400626820689200B3FBF2F36422B3FBF2F1A1
:102DA40002FB11331B013233B3FBF2F303EB0113C8
:102DB400836010BDFFF794FFE8E700BF00380140CF
:102DC400F8B504460E4617461D462268136836EACF
:102DD400030301D1002014E06B1CF7D095B92368DC
:102DE4000320DA6822F4D072DA605A6922F0010210
:102DF4005A61202384F83D3084F83E30002384F85F
:102E04003C30F8BDFFF7B8FAC01B8542DDD2E6E7D7
:102E140010B5044640B390F83D3003F0FF021BB9EF
:102E240080F83C20FFF7FCF92423226884F83D3025
:102E3400D368204623F40053D360FFF787FF236849
:102E440000201A6922F490421A615A6922F02A0277
:102E54005A61DA6842F40052DA602023206484F86C
:102E64003D3084F83E3010BD0120FCE72DE9F843E5
:102E7400994690F83D300446202B0E46174648D11B
:102E8400002944D0002A42D090F83C30012B40D095
:102E94000123002580F83C302123056480F83D306F
:102EA400FFF76AFAA3688046B3F5805FA784E784D6
:102EB40003D123690BB935461E46002384F83C3000
:102EC400E38C9BB253B94B46424640212046FFF760
:102ED40077FF50B9202384F83D3007E04B46424643
:102EE40080212046FFF76CFF10B10320BDE8F88372
:102EF40022684EB935F8023BC3F308035360E18CF2
:102F0400013989B2E184DBE716F8013BF6E70120D9
:102F1400ECE70220EAE77047704708B50023406AEF
:102F2400C385C384FFF7F8FF08BD704707B5816800
:102F3400836AB1F5805F026834D10169002934D114
:102F44005268C2F3080223F8022BC28D8362013A4D
:102F540092B2C2851ABB0368D96821F02001D960F6
:102F6400D96821F48071D960596921F0010159614E
:102F7400202180F83E10016B012920D10263D96819
:102F840021F01001D9601968C90605D501921A68A3
:102F940001925B680193019B818DFFF7C6FF03B02B
:102FA4005DF804FB39B9016929B95268D2B21A70C3
:102FB400836A0133C9E7526802F07F02F7E7FDF73D
:102FC4003FFAECE7036837B51A68044612F00F0FAE
:102FD400D9685D690CD1950667D58D0665D590F8DD
:102FE4003E30222B5BD103B0BDE83040FFF79EBFDB
:102FF40005F0010001F49075054356D0D50705D5B9
:10300400CB0542BF236C43F001032364550704D569
:1030140018B1236C43F002032364930704D518B159
:10302400236C43F004032364150707D501F0200340
:1030340003431EBF236C43F008032364236C73B360
:10304400920608D58B0606D594F83E30222B02D181
:103054002046FFF76BFF236820465B69256C03F06D
:10306400400305F008051D431BD0FFF759FE2368F4
:103074005A69550610D55A69A06B22F040025A616C
:1030840050B1534B4363FFF713FA40B1A06B436B4A
:1030940003B0BDE8304018472046FFF73DFF03B0BA
:1030A40030BDFFF739FF2564F9E7206B012855D1BE
:1030B400D00653D5CD0651D5002101911A6801924D
:1030C4005A680192019A5A6912F040022AD0A06B00
:1030D4000268526892B2002AE1D0A58D9542DED9E9
:1030E400E2858269202A15D0DA6822F48072DA60D7
:1030F4005A6922F001025A615A6922F040025A6167
:10310400202284F83E202163DA6822F01002DA607B
:10311400FFF7B0F9E38DA18DC91A89B22046FFF7F4
:1031240004FFBCE7E18D88B2E18D89B20029B6D0F5
:10313400A18D091A89B20029B1D0D86820F4907001
:10314400D860586920F001005861202084F83E00BE
:103154002263DA6822F01002DA60DFE7100626D56F
:103164000D0624D594F83D20212A98D1A168226A1D
:10317400B1F5805F16D12169A1B932F8021BC1F300
:10318400080159602262E28C013A92B2E284002A78
:1031940085D1DA6822F08002DA60DA6842F040020F
:1031A400DA607CE7511C216212785A60EBE7500622
:1031B4007FF575AF4A067FF572AFDA68204622F0D4
:1031C4004002DA60202384F83D30FFF7A4FE66E76E
:1031D4001F2F0008C28582858162034622220020B7
:1031E400186483F83C0083F83E201B68DA6842F4D4
:1031F4008072DA605A6942F001025A61DA6842F078
:103204002002DA60704770B490F83E60202E10D12E
:1032140061B15AB190F83C40012C0AD0012480F8E5
:103224003C400024046370BCFFF7D4BF012070BC91
:1032340070470220FBE7000070B500260C4D0D4CD2
:10324400641BA410A64209D100F030F800260A4DF0
:103254000A4C641BA410A64205D170BD55F8043B6A
:1032640098470136EEE755F8043B98470136F2E7F4
:10327400F4320008F4320008F4320008F83200088E
:103284000A44914200F1FF3300D1704710B511F8A0
:10329400014B914203F8014FF9D110BD034602449A
:1032A400934200D1704703F8011BF9E7F8B500BF5A
:1032B400F8BC08BC9E467047F8B500BFF8BC08BC13
:0432C4009E4670476B
:1032C80000000000000000000102030406070809CE
:1032D80000000000010203040203040506070809B0
:0C32E8000A0B0C0D0E0F1010000000006F
:0432F40009020008C3
:0432F800E5010008E4
:0C32FC000024F40001000000100000009D
:04000005080022AD20
:00000001FF
