:020000040800F2
:1000000000C0002091740008A1730008A7730008C5
:10001000AD730008B3730008B97300080000000056
:10002000000000000000000000000000BF73000896
:10003000CB73000800000000D7730008E3730008CA
:10004000D9740008D9740008D9740008F173000845
:10005000D9740008D9740008D9740008D97400084C
:10006000D9740008D9740008D9740008D97400083C
:10007000D9740008D9740008D9740008D97400082C
:10008000D9740008D9740008D9740008D97400081C
:10009000D9740008D9740008D9740008D97400080C
:1000A000D9740008D9740008D9740008D9740008FC
:1000B000D9740008D9740008D9740008D9740008EC
:1000C000D9740008D9740008D9740008D9740008DC
:1000D000D9740008D9740008D9740008D9740008CC
:1000E000D974000805740008D9740008D974000890
:1000F000D9740008D9740008D9740008D9740008AC
:10010000D9740008D9740008D9740008D97400089B
:10011000D9740008D9740008D9740008D97400088B
:10012000D9740008D9740008D9740008D97400087B
:1001300000000000000000000000000000000000BF
:1001400000000000000000000000000000000000AF
:10015000000000000000000000000000000000009F
:10016000000000000000000000000000000000008F
:10017000000000000000000000000000000000007F
:10018000000000000000000000000000000000006F
:10019000000000000000000000000000000000005F
:1001A000000000000000000000000000000000004F
:1001B000000000000000000000000000000000003F
:1001C000000000000000000000000000000000002F
:1001D000000000000000000000000000000000001F
:0401E0005FF8E0F1F3
:1001E80010B5054C237833B9044B13B10448AFF369
:1001F80000800123237010BD600000200000000073
:10020800049C000808B5034B1BB103490348AFF32E
:10021800008008BD0000000064000020049C000865
:1002280070B54FF0FF0C4CF4E06C1CEA11541DBF84
:100238001CEA135594EA0C0F95EA0C0F00F0DEF84F
:100248002C4481EA030621EA4C5123EA4C5350EA34
:10025800013518BF52EA033541F4801143F4801385
:1002680038D0A0FB02CE4FF00005E1FB02E506F016
:100278000042E0FB03E54FF00006E1FB03569CF06B
:10028800000F18BF4EF0010EA4F1FF04B6F5007F71
:1002980064F5407404D25FEA4E0E6D4146EB0606E3
:1002A80042EAC62141EA55514FEAC52040EA5E506C
:1002B8004FEACE2EB4F1FD0C88BFBCF5E06F1ED816
:1002C800BEF1004F08BF5FEA500E50F1000041EB4D
:1002D800045170BD06F0004646EA010140EA0200FA
:1002E80081EA0301B4EB5C04C2BFD4EB0C0541EA1C
:1002F800045170BD41F480114FF0000E013C00F331
:10030800AB8014F1360FDEBF002001F0004170BD54
:10031800C4F10004203C35DA0C341BDC04F114046D
:10032800C4F1200500FA05F320FA04F001FA05F2F9
:1003380040EA020001F0004221F0004110EBD370C6
:1003480021FA04F642EB06015EEA430E08BF20EAF2
:10035800D37070BDC4F10C04C4F1200500FA04F395
:1003680020FA05F001FA04F240EA020001F0004127
:1003780010EBD37041F100015EEA430E08BF20EA9A
:10038800D37070BDC4F1200500FA05F24EEA020EE2
:1003980020FA04F301FA05F243EA020321FA04F011
:1003A80001F0004121FA04F220EA020000EBD370C8
:1003B8005EEA430E08BF20EAD37070BD94F0000FC8
:1003C8000FD101F00046400041EB010111F4801FFC
:1003D80008BF013CF7D041EA060195F0000F18BFAD
:1003E800704703F00046520043EB030313F4801FE9
:1003F80008BF013DF7D043EA0603704794EA0C0FA3
:100408000CEA135518BF95EA0C0F0CD050EA4106B8
:1004180018BF52EA4306D1D181EA030101F0004135
:100428004FF0000070BD50EA410606BF104619465D
:1004380052EA430619D094EA0C0F02D150EA013669
:1004480013D195EA0C0F05D152EA03361CBF1046AA
:1004580019460AD181EA030101F0004141F0FE4149
:1004680041F470014FF0000070BD41F0FE4141F4CD
:10047800780170BD81F0004102E000BF83F00043C5
:1004880030B54FEA41044FEA430594EA050F08BF27
:1004980090EA020F1FBF54EA000C55EA020C7FEAEB
:1004A800645C7FEA655C00F0E2804FEA5454D4EB68
:1004B8005555B8BF6D420CDD2C4480EA020281EA32
:1004C800030382EA000083EA010180EA020281EA6A
:1004D8000303362D88BF30BD11F0004F4FEA0131BC
:1004E8004FF4801C4CEA113102D0404261EB4101CB
:1004F80013F0004F4FEA03334CEA133302D0524251
:1005080063EB430394EA050F00F0A780A4F101040C
:10051800D5F1200E0DDB02FA0EFC22FA05F2801846
:1005280041F1000103FA0EF2801843FA05F359412C
:100538000EE0A5F120050EF1200E012A03FA0EFCAB
:1005480028BF4CF0020C43FA05F3C01851EBE371D5
:1005580001F0004507D54FF0000EDCF1000C7EEBF2
:1005680000006EEB0101B1F5801F1BD3B1F5001F30
:100578000CD349085FEA30004FEA3C0C04F101044F
:100588004FEA445212F5800F80F09A80BCF1004F78
:1005980008BF5FEA500C50F1000041EB045141EAFA
:1005A800050130BD5FEA4C0C404141EB0101013CC3
:1005B80028BFB1F5801FE9D291F0000F04BF0146B2
:1005C8000020B1FA81F308BF2033A3F10B03B3F184
:1005D80020020CDA0C3208DD02F1140CC2F10C0214
:1005E80001FA0CF021FA02F10CE002F11402D8BF72
:1005F800C2F1200C01FA02F120FA0CFCDCBF41EA3E
:100608000C019040E41AA2BF01EB0451294330BD0C
:100618006FEA04041F3C1CDA0C340EDC04F11404E9
:10062800C4F1200220FA04F001FA02F340EA0300C0
:1006380021FA04F345EA030130BDC4F10C04C4F106
:10064800200220FA02F001FA04F340EA03002946E6
:1006580030BD21FA04F0294630BD94F0000F83F430
:10066800801306BF81F480110134013D4EE77FEA13
:10067800645C18BF7FEA655C29D094EA050F08BF5F
:1006880090EA020F05D054EA000C04BF1946104640
:1006980030BD91EA030F1EBF0021002030BD5FEA84
:1006A800545C05D14000494128BF41F0004130BDAC
:1006B80014F580043CBF01F5801130BD01F0004500
:1006C80045F0FE4141F470014FF0000030BD7FEA73
:1006D800645C1ABF194610467FEA655C1CBF0B466E
:1006E800024650EA013406BF52EA033591EA030F85
:1006F80041F4002130BD00BF90F0000F04BF00217D
:10070800704730B54FF4806404F132044FF00005AF
:100718004FF0000150E700BF90F0000F04BF002128
:10072800704730B54FF4806404F1320410F000458E
:1007380048BF40424FF000013EE700BF42004FEA89
:10074800E2014FEA31014FEA02701FBF12F07F4306
:1007580093F07F4F81F06051704732F07F4208BFBD
:10076800704793F07F4F04BF41F40021704730B5C4
:100778004FF4607401F0004521F000411CE700BF10
:1007880050EA010208BF704730B54FF000050AE093
:1007980050EA010208BF704730B511F0004502D594
:1007A800404261EB41014FF4806404F132045FEA96
:1007B800915C3FF4D8AE4FF003025FEADC0C18BF3F
:1007C80003325FEADC0C18BF033202EBDC02C2F131
:1007D800200300FA03FC20FA02F001FA03FE40EAC3
:1007E8000E0021FA02F11444BDE600BF4A0011D2FE
:1007F80012F5001211D20DD56FF47873B3EB625273
:100808000ED44FEAC12343F0004343EA505323FA7E
:1008180002F070474FF00000704750EA013002D1F3
:100828004FF0FF3070474FF00000704780B485B03C
:1008380000AF144B9B69134A43F010039361114BAB
:100848009B6903F01003FB60FB680E4B9B690D4A24
:1008580043F0200393610B4B9B6903F02003BB60BB
:10086800BB68084B9B69074A43F004039361054B37
:100878009B6903F004037B607B6800BF1437BD46A7
:1008880080BC70470010024080B483B000AF0346BC
:10089800FB800D4B4FF480721A610B4B4FF00072C6
:1008A8001A610A4AFB88D360074B4FF400021A61A9
:1008B800054B80221A61044B4FF400721A6100BF85
:1008C8000C37BD4680BC704700100140000C014049
:1008D80080B485B000AF03460A46FB801346BB8050
:1008E800FB88FB81194B4FF080721A61174B4FF050
:1008F80000721A61FB899AB2154BDA60134B4FF4F8
:1009080000021A61114B80221A61104B4FF40072D9
:100918001A6100BF0D4B4FF480721A610B4B4FF0F8
:1009280000721A610A4ABB88D360084B4FF4000270
:100938001A61064B80221A61044B4FF400721A6147
:1009480000BF1437BD4680BC704700BF001001408F
:10095800000C014080B483B000AF786000BF7B68B2
:100968005A1E7A60002BFAD100BF00BF0C37BD4673
:1009780080BC704780B586B000AF4FF6FF737B60D0
:100988000023BB600123FB6003233B613B1D194629
:10099800184806F033FF184B4FF480721A61164B53
:1009A8004FF000721A61144B4FF480021A61022052
:1009B800FFF7D0FF0F4B9B689BB2FB820E4B402288
:1009C8001A610D4B4FF400721A614FF6FF737B608A
:1009D8000123BB600123FB6003233B613B1D1946D8
:1009E800044806F00BFFFB8A9BB218461837BD4631
:1009F80080BD00BF000C01400010014080B489B0E8
:100A080000AF03460A46FB801346BB80444B9B88D5
:100A180041F66312934240F08981414B9B79002B48
:100A280040F084803E4B1A88FB88D31A9BB2013B66
:100A3800FB803B4B5B89FB813A4B4FF080721A611C
:100A4800384B4FF000721A61FB899AB2364BDA6064
:100A5800344B4FF400021A61324B80221A61314B39
:100A68004FF400721A6100BF2E4B4FF480721A6166
:100A78002C4B4FF000721A612B4B0022DA60294B85
:100A88004FF400021A61274B80221A61254B4FF45C
:100A980000721A61234B4FF480721A61214B4FF098
:100AA80000721A61204B0022DA601E4B4FF40002DC
:100AB8001A611C4B80221A611A4B4FF400721A619A
:100AC800184B4FF480721A61164B4FF000721A617E
:100AD800FB881B0A9AB2144BDA60124B4FF40002DF
:100AE8001A61104B80221A610E4B4FF400721A6182
:100AF8000C4B4FF480721A610A4B4FF000721A6166
:100B0800FB88094ADBB2D360064B4FF400021A6136
:100B1800044B80221A61034B4FF400721A6181E082
:100B28007C00002000100140000C01407C4B5B89D8
:100B38003B827C4B4FF080721A617A4B4FF0007207
:100B48001A613B8A9AB2784BDA60764B4FF400020E
:100B58001A61744B80221A61724B4FF400721A6149
:100B680000BF704B4FF480721A616E4B4FF00072E9
:100B78001A61FB881B0A9AB26B4BDA60694B4FF417
:100B880000021A61674B80221A61664B4FF40072AB
:100B98001A61644B4FF480721A61624B4FF0007215
:100BA8001A61FB88604ADBB2D3605E4B4FF40002E7
:100BB8001A615C4B80221A615A4B4FF400721A6119
:100BC800584B4FF480721A61564B4FF000721A61FD
:100BD800534B1B88013B1A12534BDA60514B4FF4AD
:100BE80000021A614F4B80221A614E4B4FF400727B
:100BF8001A614C4B4FF480721A614A4B4FF00072E5
:100C08001A61474B1B88013B474ADBB2D360454B0F
:100C18004FF400021A61434B80221A61414B4FF492
:100C280000721A613E4B9B897B823E4B4FF080726B
:100C38001A613C4B4FF000721A617B8A9AB23A4BA8
:100C4800DA60384B4FF400021A61364B80221A6181
:100C5800344B4FF400721A6100BF324B4FF480726C
:100C68001A61304B4FF000721A61BB881B0A9AB2A6
:100C78002D4BDA602B4B4FF400021A61294B80226E
:100C88001A61284B4FF400721A61264B4FF4807298
:100C98001A61244B4FF000721A61BB88224ADBB2FA
:100CA800D360204B4FF400021A611E4B80221A6158
:100CB8001C4B4FF400721A611A4B4FF480721A6180
:100CC800184B4FF000721A61154B5B88013B1A12E2
:100CD800154BDA60134B4FF400021A61114B802256
:100CE8001A61104B4FF400721A610E4B4FF4807268
:100CF8001A610C4B4FF000721A61094B5B88013B7B
:100D0800094ADBB2D360074B4FF400021A61054B66
:100D180080221A61034B4FF400721A6176E100BF1A
:100D28007C00002000100140000C01406A4B9B88A9
:100D380045F21052934240F0D580674B5B897B8324
:100D4800664B4FF080721A61644B4FF000721A6163
:100D58007B8B9AB2624BDA60604B4FF400021A61E7
:100D68005E4B80221A615D4B4FF400721A6100BF1E
:100D78005A4B4FF480721A61584B4FF000721A6147
:100D8800FB881B0A9AB2564BDA60544B4FF40002A8
:100D98001A61524B80221A61504B4FF400721A614B
:100DA8004D4B5B8901339BB23B834C4B4FF08072B8
:100DB8001A614A4B4FF000721A613B8B9AB2484B4A
:100DC800DA60464B4FF400021A61444B80221A61E4
:100DD800424B4FF400721A6100BF404B4FF48072CF
:100DE8001A613E4B4FF000721A61FB883C4ADBB235
:100DF800D3603A4B4FF400021A61384B80221A61D3
:100E0800364B4FF400721A61334B9B89FB82334B8C
:100E18004FF080721A61314B4FF000721A61FB8AF1
:100E28009AB22F4BDA602D4B4FF400021A612B4B0C
:100E380080221A61294B4FF400721A6100BF274BB8
:100E48004FF480721A61254B4FF000721A61BB880B
:100E58001B0A9AB2224BDA60204B4FF400021A6147
:100E68001E4B80221A611D4B4FF400721A611A4BF7
:100E78009B8901339BB2BB82184B4FF080721A6179
:100E8800164B4FF000721A61BB8A9AB2144BDA60A3
:100E9800124B4FF400021A61104B80221A610F4B5B
:100EA8004FF400721A6100BF0C4B4FF480721A6144
:100EB8000A4B4FF000721A61BB88094ADBB2D36053
:100EC800064B4FF400021A61044B80221A61034B4F
:100ED8004FF400721A6199E07C0000200010014074
:100EE800000C01404C4B5B89FB834C4B4FF08072EC
:100EF8001A614A4B4FF000721A61FB8B9AB2484B49
:100F0800DA60464B4FF400021A61444B80221A61A2
:100F1800424B4FF400721A6100BF404B4FF480728D
:100F28001A613E4B4FF000721A61FB881B0A9AB295
:100F38003B4BDA60394B4FF400021A61374B802281
:100F48001A61364B4FF400721A61344B4FF48072B9
:100F58001A61324B4FF000721A61FB88304ADBB2DB
:100F6800D3602E4B4FF400021A612C4B80221A6179
:100F78002A4B4FF400721A61274B9B89BB83274B7E
:100F88004FF080721A61254B4FF000721A61BB8BCB
:100F98009AB2234BDA60214B4FF400021A611F4BBF
:100FA80080221A611D4B4FF400721A6100BF1B4B5F
:100FB8004FF480721A61194B4FF000721A61BB88A6
:100FC8001B0A9AB2164BDA60144B4FF400021A61EE
:100FD800124B80221A61114B4FF400721A610F4BA9
:100FE8004FF480721A610D4B4FF000721A61BB8882
:100FF8000B4ADBB2D360094B4FF400021A61074B6E
:1010080080221A61054B4FF400721A6100BF243721
:10101800BD4680BC704700BF7C0000200010014026
:10102800000C014080B58AB000AF0346FB71002375
:10103800FB840023BB845F4B9B79012B05D15D4B5F
:101048009B8841F66312934209D15A4B9B79002B36
:1010580034D1584B9B8841F6631293422ED1FB79C9
:10106800072B2BD801A252F823F000BF95100008D7
:101078009B100008A1100008A7100008AD10000878
:10108800B3100008B9100008BF1000080623FB7150
:1010980014E00723FB7111E00423FB710EE0052324
:1010A800FB710BE00123FB7108E00023FB7105E0F5
:1010B8000323FB7102E00223FB7100BFFB79072BBE
:1010C80035D801A252F823F037110008F1100008B2
:1010D800FB100008051100080F110008191100087D
:1010E800231100082D110008FB8C43F08003FB84BA
:1010F8001DE0FB8C43F04003FB8418E0FB8C43F0BD
:10110800C003FB8413E0FB8C43F02003FB840EE058
:10111800FB8C43F06003FB8409E0FB8C43F0A003E5
:10112800FB8404E0FB8C43F0E003FB8400BF362320
:10113800BB84204B9B8845F21052934202D14FF456
:101148005853BB841B4B9B8849F2413293420BD0C6
:10115800184B9B8847F28972934205D0154B9B88A0
:1011680047F29672934203D1FB8C43F00803FB8449
:10117800FA8CBB8C11461846FFF7AAFB0D4B9B88CF
:1011880041F66312934227D0FB8C03F02003002B17
:1011980012D0084B1A88074B5B889A421CD2054B21
:1011A8001B887B84034B5A88024B1A80014A7B8C2C
:1011B800538011E07C0000209C4B1A889B4B5B8875
:1011C8009A4209D9994B1B887B84984B5A88974B2C
:1011D8001A80964A7B8C5380944B9B8845F2105218
:1011E800934240F0AF81914B5B89BB83904B4FF0AA
:1011F80080721A618E4B4FF000721A61BB8B9AB2E3
:101208008C4BDA608A4B4FF400021A61884B8022BB
:101218001A61874B4FF400721A6100BF844B4FF478
:1012280080721A61824B4FF000721A61814B002262
:10123800DA607F4B4FF400021A617D4B80221A61FD
:101248007B4B4FF400721A61784B5B8901339BB278
:101258007B83774B4FF080721A61754B4FF00072A9
:101268001A617B8B9AB2734BDA60714B4FF40002B0
:101278001A616F4B80221A616D4B4FF400721A612C
:1012880000BF6B4B4FF480721A61694B4FF00072CC
:101298001A61684B0022DA60654B4FF400021A614C
:1012A800634B80221A61624B4FF400721A615F4BE4
:1012B8005B8902339BB23B835D4B4FF080721A61AE
:1012C8005B4B4FF000721A613B8B9AB2594BDA6054
:1012D800574B4FF400021A61554B80221A61544B48
:1012E8004FF400721A6100BF514B4FF480721A61BB
:1012F8004F4B4FF000721A614C4B1B88013B1A127E
:101308004C4BDA604A4B4FF400021A61484B80227A
:101318001A61474B4FF400721A61444B5B890333DF
:101328009BB2FB82424B4FF080721A61404B4FF0E8
:1013380000721A61FB8A9AB23E4BDA603C4B4FF45A
:1013480000021A613A4B80221A61394B4FF400723D
:101358001A6100BF364B4FF480721A61344B4FF05C
:1013680000721A61314B1B88013B324ADBB2D360F1
:101378002F4B4FF400021A612D4B80221A612C4B1F
:101388004FF400721A61294B9B89BB82284B4FF09E
:1013980080721A61264B4FF000721A61BB8A9AB2AA
:1013A800244BDA60224B4FF400021A61204B802252
:1013B8001A611F4B4FF400721A6100BF1C4B4FF4A7
:1013C80080721A611A4B4FF000721A61194B002291
:1013D800DA60174B4FF400021A61154B80221A612C
:1013E800134B4FF400721A61104B9B8901339BB267
:1013F8007B820F4B4FF080721A610D4B4FF00072D9
:101408001A617B8A9AB20B4BDA60094B4FF40002DF
:101418001A61074B80221A61054B4FF400721A615A
:1014280000BF034B4FF480721A6105E07C00002076
:1014380000100140000C01403F4B4FF000721A6150
:101448003E4B0022DA603C4B4FF400021A613A4BE3
:1014580080221A61384B4FF400721A61384B9B890D
:1014680002339BB23B82344B4FF080721A61324B8D
:101478004FF000721A613B8A9AB2304BDA602E4BF9
:101488004FF400021A612C4B80221A612A4B4FF448
:1014980000721A6100BF284B4FF480721A61264B04
:1014A8004FF000721A61264B5B88013B1A12234BDE
:1014B800DA60214B4FF400021A611F4B80221A6137
:1014C8001D4B4FF400721A611D4B9B8903339BB26D
:1014D800FB81194B4FF080721A61174B4FF0007265
:1014E8001A61FB899AB2154BDA60134B4FF400026C
:1014F8001A61114B80221A610F4B4FF400721A6166
:1015080000BF0D4B4FF480721A610B4B4FF0007205
:101518001A610B4B5B88013B084ADBB2D360064B70
:101528004FF400021A61044B80221A61024B4FF4F7
:1015380000721A61F8E000BF00100140000C014081
:101548007C0000207A4B5B893B847A4B4FF0807299
:101558001A61784B4FF000721A613B8C9AB2764B45
:10156800DA60744B4FF400021A61724B80221A61E0
:10157800704B4FF400721A6100BF6E4B4FF48072CB
:101588001A616C4B4FF000721A616B4B0022DA60E3
:10159800684B4FF400021A61664B80221A61654B52
:1015A8004FF400721A61634B4FF480721A61614BF9
:1015B8004FF000721A61604B0022DA605D4B4FF405
:1015C80000021A615B4B80221A615A4B4FF4007279
:1015D8001A61584B4FF480721A61564B4FF00072E3
:1015E8001A61534B1B88013B1A12534BDA60514B5B
:1015F8004FF400021A614F4B80221A614D4B4FF491
:1016080000721A614B4B4FF480721A61494B4FF0CC
:1016180000721A61464B1B88013B474ADBB2D36014
:10162800444B4FF400021A61424B80221A61414B2D
:101638004FF400721A613E4B9B89FB833D4B4FF080
:1016480080721A613B4B4FF000721A61FB8B9AB2A1
:10165800394BDA60374B4FF400021A61354B802260
:101668001A61344B4FF400721A6100BF314B4FF4CA
:1016780080721A612F4B4FF000721A612E4B0022B4
:10168800DA602C4B4FF400021A612A4B80221A614F
:10169800284B4FF400721A61264B4FF480721A617E
:1016A800244B4FF000721A61234B0022DA60214B61
:1016B8004FF400021A611F4B80221A611D4B4FF430
:1016C80000721A611B4B4FF480721A61194B4FF06C
:1016D80000721A61164B5B88013B1A12164BDA60CE
:1016E800144B4FF400021A61124B80221A61114BFD
:1016F8004FF400721A610F4B4FF480721A610D4B50
:101708004FF000721A610A4B5B88013B0A4ADBB250
:10171800D360084B4FF400021A61064B80221A610D
:10172800044B4FF400721A6100BF2837BD4680BDD4
:101738007C00002000100140000C014080B584B0FE
:1017480000AF03463A60FB800B46BB80BA88FB8833
:1017580011461846FFF752F91A4B1B89FB811A4BA1
:101768004FF080721A61184B4FF000721A61FB89B2
:101778009AB2164BDA60144B4FF400021A61124BFE
:1017880080221A61104B4FF400721A6100BF00BF2B
:101798000D4B4FF480721A610B4B4FF000721A61B7
:1017A8000A4A3B68D360084B4FF400021A61064BA3
:1017B80080221A61044B4FF400721A6100BF10377F
:1017C800BD4680BD7C00002000100140000C014097
:1017D80090B585B000AF0346FB71BE23FB815A4B21
:1017E8004FF080721A61584B4FF000721A61FB89F2
:1017F8009AB2564BDA60544B4FF400021A61524BBE
:1018080080221A61504B4FF400721A6100BF4E4B90
:101818004FF480721A614C4B4FF000721A614B4BB7
:101828000522DA60484B4FF400021A61464B8022C9
:101838001A61454B4FF400721A61434B4FF48072A2
:101848001A61414B4FF000721A61FB791846FEF796
:1018580063FF3BA3D3E90023FEF7E2FC02460B46F5
:101868003A4C10461946FEF7C1FF0346E360364B73
:101878004FF400021A61344B80221A61324B4FF444
:1018880000721A61304B4FF480721A612E4B4FF080
:1018980000721A612D4B0122DA602B4B4FF40002C3
:1018A8001A61294B80221A61274B4FF400721A6182
:1018B800254B4FF480721A61234B4FF000721A6166
:1018C800224BFF22DA60204B4FF400021A611E4BB4
:1018D80080221A611C4B4FF400721A611A4B4FF4A4
:1018E80080721A61184B4FF000721A61174B002270
:1018F800DA60154B4FF400021A61134B80221A610B
:10190800114B4FF400721A610F4B4FF480721A6139
:101918000D4B4FF000721A610C4B0022DA600A4B33
:101928004FF400021A61084B80221A61064B4FF4EB
:1019380000721A6100BF1437BD4690BDAFF3008036
:10194800666666666666044000100140000C014049
:1019580080B582B000AF0346FB71684AFB7993718A
:10196800FB79002B65D1654BF0221A80634B4FF44D
:10197800A0725A80614B9B8845F21052934214D151
:101988005E4B4FF430521A815C4B4FF428525A8107
:101998005A4B4FF42C529A81584B4FF4F0721A80DC
:1019A800564B4FF448725A8020E0544B9B8841F6BE
:1019B8006312934211D1514B2C221A814F4B2B2287
:1019C8005A814E4B2A229A814C4B4FF4F0721A805E
:1019D8004A4B4FF448725A8008E0484B2C221A812F
:1019E800464B2A225A81454B2B229A81434B9B888E
:1019F80045F21032934205D0404B9B8847F29672CD
:101A0800934207D13D4B4FF4A0721A803B4B4FF4E1
:101A1800F0725A80394B9B8849F60602934265D189
:101A2800364B4FF4F0721A80344B4FF448725A8098
:101A38005CE0324B4FF4A0721A80304BF0225A808F
:101A48002E4B9B8845F21052934214D12B4B4FF4E6
:101A580030521A81294B4FF428525A81274B4FF4A0
:101A68002C529A81254B4FF448721A80234B4FF41D
:101A7800F0725A8026E0214B9B8841F6631293420C
:101A880005D01E4B9B8849F60602934211D11B4B89
:101A98002C221A81194B2A225A81184B2B229A81FF
:101AA800164B4FF448721A80144B4FF4F0725A8058
:101AB80008E0124B2C221A81104B2A225A810F4B14
:101AC8002B229A810D4B9B8845F21032934205D008
:101AD8000A4B9B8847F29672934207D1074B4FF403
:101AE800F0721A80054B4FF4A0725A800020FFF75D
:101AF80099FA00BF0837BD4680BD00BF7C000020B2
:101B080080B5DAB000AFBE4B9B69BD4A43F0100305
:101B18009361BB4B9B6903F0100207F5B473A3F5FF
:101B2800A8731A6007F5B473A3F5A8731B68B44BC0
:101B38009B69B34A43F010039361B14B9B6903F06F
:101B4800100207F5B473A3F5AA731A6007F5B47306
:101B5800A3F5AA731B68AA4B9B69A94A43F0100313
:101B68009361A74B9B6903F0100207F5B473A3F5C3
:101B7800AC731A6007F5B473A3F5AC731B68A04B7C
:101B88009B699F4A43F0100393619D4B9B6903F047
:101B9800100207F5B473A3F5AE731A6007F5B473B2
:101BA800A3F5AE731B68964B9B69954A43F01003E7
:101BB8009361934B9B6903F0100207F5B473A3F587
:101BC800B0731A6007F5B473A3F5B0731B688C4B38
:101BD8009B698B4A43F008039361894B9B6903F027
:101BE800080207F5B473A3F5B2731A6007F5B47366
:101BF800A3F5B2731B68824B9B69814A43F00103CA
:101C080093617F4B9B6903F0010207F5B473A3F559
:101C1800B4731A6007F5B473A3F5B4731B68794BF2
:101C28005B68C7F86431D7F8643123F0E063C7F81C
:101C38006431D7F8643143F00073C7F86431714AEE
:101C4800D7F8643153604FF48063C7F854310123E7
:101C5800C7F858310123C7F85C310323C7F860314E
:101C680007F5AA731946684805F0C8FD4FF40073D4
:101C7800C7F854310123C7F858310123C7F85C313C
:101C88000323C7F8603107F5AA7319465E4805F0C3
:101C9800B5FD8023C7F8543107F5AA7319465A4889
:101CA80005F0ACFD4023C7F8543107F5AA7319466F
:101CB800554805F0A3FD4FF48073C7F8543107F574
:101CC800AA731946504805F099FD4FF6FF73C7F8F7
:101CD80054310123C7F8583107F5AA7319464B4800
:101CE80005F08CFD484B80221A61474B40221A614F
:101CF800454B4FF400721A61434B4FF480721A61DE
:101D0800424B4FF6FF72DA604148FEF723FE07F5B3
:101D1800B473A3F5A673D3221A803B4B4FF080729D
:101D28001A61394B4FF000721A6107F5B473A3F5C5
:101D3800A6731B889AB2354BDA60334B4FF4000216
:101D48001A61314B80221A612F4B4FF400721A61CD
:101D580000BFFEF70FFE03461A462E4B9A80FEF789
:101D680009FE03461A462B4B9A80FEF703FE0346EC
:101D78001A46284B9A80274B9B881B029AB2254B00
:101D88009A80FEF7F7FD03461A46224B9B881343B9
:101D98009AB2204B9A801F4B9B8849F2413293425A
:101DA80000F00E8207F5B473A3F5A57304221A8018
:101DB800154B4FF080721A61134B4FF000721A6185
:101DC80007F5B473A3F5A5731B889AB20F4BDA60B5
:101DD8000D4B4FF400021A610B4B80221A610A4B1B
:101DE8004FF400721A6100BFFEF7C4FD03461A469D
:101DF800084B9A80FEF7BEFD03461A460CE000BF6A
:101E0800001002400000014000100140000C014099
:101E1800FFFF01007C000020B14B9A80FEF7AAFD6D
:101E280003461A46AE4B9A80AD4B9B881B029AB26A
:101E3800AB4B9A80FEF79EFD03461A46A84B9B883B
:101E480013439AB2A64B9A80A54B9B8848F25252EC
:101E5800934203D1A24B47F289729A80A04B9B8888
:101E680047F28972934200F0AB8107F5B473A3F58A
:101E7800A473D4221A809B4B4FF080721A61994B3D
:101E88004FF000721A6107F5B473A3F5A4731B88A9
:101E98009AB2954BDA60934B4FF400021A61914B5A
:101EA80080221A618F4B4FF400721A6100BFFEF74F
:101EB80061FD03461A468A4B9A80FEF75BFD03468E
:101EC8001A46874B9A80FEF755FD03461A46844BFF
:101ED8009A80834B9B881B029AB2814B9A80FEF7AB
:101EE80049FD03461A467E4B9B8813439AB27C4BA6
:101EF8009A807B4B9B8845F21032934200F06081B8
:101F080007F5B473A3F5A373D3221A80754B4FF06A
:101F180080721A61734B4FF000721A6107F5B4733F
:101F2800A3F5A3731B889AB26F4BDA606D4B4FF41D
:101F380000021A616B4B80221A616A4B4FF40072DF
:101F48001A6100BFFEF716FD03461A46644B9A80D5
:101F5800FEF710FD03461A46614B9A80FEF70AFD0C
:101F680003461A465E4B9A805D4B9B881B029AB2C9
:101F78005B4B9A80FEF7FEFC03461A46584B9B883B
:101F880013439AB2564B9A80554B9B8847F29672E8
:101F9800934200F0158155214FF47040FEF798FCEC
:101FA800AA214FF20100FEF793FC52214FF20200E2
:101FB800FEF78EFC08214FF20300FEF789FC012191
:101FC8004FF20400FEF784FC07F5B473A3F5A17380
:101FD8004FF445421A80434B4FF080721A61414BCF
:101FE8004FF000721A6107F5B473A3F5A1731B884B
:101FF8009AB23D4BDA603B4B4FF400021A61394B01
:1020080080221A61374B4FF400721A6100BFFEF745
:10201800B1FC03461A46324B9A80314B9B881B020F
:102028009AB22F4B9A8007F5B473A3F5A2734CF2BA
:1020380001521A802B4B4FF080721A61294B4FF0D6
:1020480000721A6107F5B473A3F5A2731B889AB2DC
:10205800254BDA60234B4FF400021A61214B802292
:102068001A61204B4FF400721A6100BFFEF782FC20
:1020780003461A461A4B9B8813439AB2184B9A8008
:10208800174B9B8845F21052934200F0998007F550
:10209800B473A3F5A073D3221A80124B4FF0807249
:1020A8001A61104B4FF000721A6107F5B473A3F56B
:1020B800A0731B889AB20C4BDA600A4B4FF40002EB
:1020C8001A61084B80221A61064B4FF400721A619C
:1020D80000BFFEF74FFC03461A46014B9A8005E005
:1020E8007C00002000100140000C0140FEF742FC7B
:1020F80003461A46B24B9A80FEF73CFC03461A4642
:10210800AF4B9A80AE4B9B881B029AB2AC4B9A801D
:10211800FEF730FC03461A46A94B9B8813439AB234
:10212800A74B9A80A64B9B8849F60602934247D054
:1021380007F5B473A3F59F73A1221A80A14B4FF042
:1021480080721A619F4B4FF000721A6107F5B473E1
:10215800A3F59F731B889AB29B4BDA60994B4FF497
:1021680000021A61974B80221A61964B4FF4007255
:102178001A6100BFFEF7FEFB03461A46904B9A8091
:10218800FEF7F8FB03461A468D4B9A808C4B9B88CA
:102198001B029AB28A4B9A80FEF7ECFB03461A465A
:1021A800874B9B8813439AB2854B9A80844B9B88B4
:1021B80045F26172934203D1814B41F663129A80D2
:1021C8007F4B9B8847F28972934240F0F38207F570
:1021D800B473A3F58E7311221A807A4B4FF0807274
:1021E8001A61784B4FF000721A6107F5B473A3F5C2
:1021F8008E731B889AB2744BDA60724B4FF40002EC
:102208001A61704B80221A616E4B4FF400721A618A
:1022180000BF782005F0C0F907F5B473A3F58F73F4
:1022280036221A80674B4FF080721A61654B4FF067
:1022380000721A6107F5B473A3F58F731B889AB2FD
:10224800614BDA605F4B4FF400021A615D4B8022EC
:102258001A615C4B4FF400721A6100BF0020FEF750
:1022680013FB07F5B473A3F590733A221A80554B04
:102278004FF080721A61534B4FF000721A6107F5E4
:10228800B473A3F590731B889AB24F4BDA604D4B29
:102298004FF400021A614B4B80221A61494B4FF4EC
:1022A80000721A6100BF0520FEF7EEFA07F5B47355
:1022B800A3F59173B2221A80424B4FF080721A61D3
:1022C800404B4FF000721A6107F5B473A3F5917390
:1022D8001B889AB23C4BDA603A4B4FF400021A6101
:1022E800384B80221A61374B4FF400721A6100BFD5
:1022F8000C20FEF7C9FA0C20FEF7C6FA0020FEF7FC
:10230800C3FA3320FEF7C0FA3320FEF7BDFA07F50B
:10231800B473A3F59273B7221A802A4B4FF08072D8
:102328001A61284B4FF000721A6107F5B473A3F5D0
:1023380092731B889AB2244BDA60224B4FF4000246
:102348001A61204B80221A611E4B4FF400721A61E9
:1023580000BF3520FEF798FA07F5B473A3F5937319
:10236800BB221A80174B4FF080721A61154B4FF041
:1023780000721A6107F5B473A3F593731B889AB2B8
:10238800114BDA600F4B4FF400021A610D4B80229B
:102398001A610C4B4FF400721A6100BF3220FEF72D
:1023A80073FA07F5B473A3F59473C0221A80054B2A
:1023B8004FF080721A61034B4FF000721A6105E00A
:1023C8007C00002000100140000C014007F5B473A8
:1023D800A3F594731B889AB2BF4BDA60BF4B4FF4D6
:1023E80000021A61BD4B80221A61BC4B4FF4007287
:1023F8001A6100BF0C20FEF747FA07F5B473A3F57E
:102408009573C2221A80B54B4FF080721A61B34B94
:102418004FF000721A6107F5B473A3F595731B8822
:102428009AB2AD4BDA60AD4B4FF400021A61AB4B78
:1024380080221A61A94B4FF400721A6100BF012073
:10244800FEF722FA07F5B473A3F59673C3221A8030
:10245800A24B4FF080721A61A04B4FF000721A61C4
:1024680007F5B473A3F596731B889AB29A4BDA6092
:102478009A4B4FF400021A61984B80221A61974BCD
:102488004FF400721A6100BF1020FEF7FDF907F53E
:10249800B473A3F59773C4221A80904B4FF08072DF
:1024A8001A618E4B4FF000721A6107F5B473A3F5E9
:1024B80097731B889AB2884BDA60884B4FF40002F6
:1024C8001A61864B80221A61844B4FF400721A619C
:1024D80000BF2020FEF7D8F907F5B473A3F5987369
:1024E800C6221A807D4B4FF080721A617B4B4FF0E9
:1024F80000721A6107F5B473A3F598731B889AB232
:10250800754BDA60754B4FF400021A61734B8022E9
:102518001A61724B4FF400721A6100BF0F20FEF768
:10252800B3F907F5B473A3F59973D0221A806B4BEE
:102538004FF080721A61694B4FF000721A6107F50B
:10254800B473A3F599731B889AB2634BDA60634B33
:102558004FF400021A61614B80221A615F4B4FF4FD
:1025680000721A6100BFA420FEF78EF9A120FEF7C1
:102578008BF907F5B473A3F59A73E0221A80574BC9
:102588004FF080721A61554B4FF000721A6107F5CF
:10259800B473A3F59A731B889AB24F4BDA604F4B0A
:1025A8004FF400021A614D4B80221A614B4B4FF4D5
:1025B80000721A6100BFD020FEF766F90020FEF70E
:1025C80063F90220FEF760F90720FEF75DF90A209B
:1025D800FEF75AF92820FEF757F93220FEF754F98A
:1025E8004420FEF751F94220FEF74EF90620FEF787
:1025F8004BF90E20FEF748F91220FEF745F9142092
:10260800FEF742F91720FEF73FF907F5B473A3F573
:102618009B73E1221A80314B4FF080721A612F4B65
:102628004FF000721A6107F5B473A3F59B731B880A
:102638009AB2294BDA60294B4FF400021A61274BF2
:1026480080221A61254B4FF400721A6100BFD02016
:10265800FEF71AF90020FEF717F90220FEF714F921
:102668000720FEF711F90A20FEF70EF92820FEF7D9
:102678000BF93120FEF708F95420FEF705F9472039
:10268800FEF702F90E20FEF7FFF81C20FEF7FCF813
:102698001720FEF7F9F81B20FEF7F6F81E20FEF7C4
:1026A800F3F807F5B473A3F59C732A221A800B4B31
:1026B8004FF080721A61094B4FF000721A6107F5EA
:1026C800B473A3F59C731B889AB2034BDA60034B6F
:1026D8004FF400021A6103E0000C014000100140B1
:1026E800324B80221A61314B4FF400721A6100BFDD
:1026F8000020FEF7C9F80020FEF7C6F80020FEF714
:10270800C3F8EF20FEF7C0F807F5B473A3F59D737F
:102718002B221A80254B4FF080721A61234B4FF001
:1027280000721A6107F5B473A3F59D731B889AB2FA
:102738001F4BDA601D4B4FF400021A611B4B8022BD
:102748001A611A4B4FF400721A6100BF0020FEF79D
:102758009BF80020FEF798F80120FEF795F83F2037
:10276800FEF792F807F5B473A3F59E7329221A8031
:102778000E4B4FF080721A610C4B4FF000721A61C9
:1027880007F5B473A3F59E731B889AB2084BDA60F9
:10279800064B4FF400021A61044B80221A61034B66
:1027A8004FF400721A6104F0F4B800BF0010014041
:1027B800000C0140B94B9B8849F24132934240F0EA
:1027C800A183CF23A7F87830B54B4FF080721A61F8
:1027D800B34B4FF000721A61B7F878309AB2B14B28
:1027E800DA60AF4B4FF400021A61AD4B80221A61D8
:1027F800AB4B4FF400721A6100BF0020FEF744F89B
:10280800C120FEF741F83020FEF73EF8ED23A7F887
:102818007630A34B4FF080721A61A14B4FF00072D3
:102828001A61B7F876309AB29E4BDA609C4B4FF437
:1028380000021A619A4B80221A61994B4FF4007278
:102848001A6100BF6420FEF71FF80320FEF71CF88A
:102858001220FEF719F88120FEF716F8E823A7F8EA
:1028680074308F4B4FF080721A618D4B4FF00072AD
:102878001A61B7F874309AB28A4BDA60884B4FF411
:1028880000021A61864B80221A61854B4FF4007250
:102898001A6100BF8520FDF7F7FF1020FDF7F4FF50
:1028A8007A20FDF7F1FFCB23A7F872307C4B4FF06D
:1028B80080721A617A4B4FF000721A61B7F8723061
:1028C8009AB2784BDA60764B4FF400021A61744B77
:1028D80080221A61724B4FF400721A6100BF3920CE
:1028E800FDF7D2FF2C20FDF7CFFF0020FDF7CCFF2E
:1028F8003420FDF7C9FF0220FDF7C6FFF723A7F82C
:102908007030674B4FF080721A61654B4FF0007260
:102918001A61B7F870309AB2624BDA60604B4FF4C4
:1029280000021A615E4B80221A615D4B4FF40072FF
:102938001A6100BF2020FDF7A7FFEA23A7F86E3031
:10294800574B4FF080721A61554B4FF000721A6165
:10295800B7F86E309AB2534BDA60514B4FF400021D
:102968001A614F4B80221A614D4B4FF400721A6165
:1029780000BF0020FDF788FF0020FDF785FFC0237A
:10298800A7F86C30464B4FF080721A61444B4FF0F9
:1029980000721A61B7F86C309AB2424BDA60404B59
:1029A8004FF400021A613E4B80221A613C4B4FF4EF
:1029B80000721A6100BF1B20FDF766FFC123A7F84C
:1029C8006A30374B4FF080721A61354B4FF0007206
:1029D8001A61B7F86A309AB2324BDA60304B4FF46A
:1029E80000021A612E4B80221A612D4B4FF400729F
:1029F8001A6100BF0120FDF747FF07F5B473A3F57F
:102A08008073C5221A80264B4FF080721A61244BBE
:102A18004FF000721A6107F5B473A3F580731B8831
:102A28009AB2204BDA601E4B4FF400021A611C4B1D
:102A380080221A611A4B4FF400721A6100BF3020CD
:102A4800FDF722FF3020FDF71FFF07F5B473A3F54C
:102A58008173C7221A80124B4FF080721A61104B93
:102A68004FF000721A6107F5B473A3F581731B88E0
:102A78009AB20C4BDA600A4B4FF400021A61084B09
:102A880080221A61064B4FF400721A6100BFB7200A
:102A9800FDF7FAFE07F5B47306E000BF7C000020DE
:102AA80000100140000C0140A3F5827336221A8001
:102AB800C14B4FF080721A61BF4B4FF000721A6120
:102AC80007F5B473A3F582731B889AB2BB4BDA601F
:102AD800B94B4FF400021A61B74B80221A61B64B0A
:102AE8004FF400721A6100BF4820FDF7CDFE07F5CC
:102AF800B473A3F583733A221A80AF4B4FF08072F8
:102B08001A61AD4B4FF000721A6107F5B473A3F563
:102B180083731B889AB2A94BDA60A74B4FF4000263
:102B28001A61A54B80221A61A34B4FF400721A61F7
:102B380000BF5520FDF7A8FE07F5B473A3F584730D
:102B4800B1221A809C4B4FF080721A619A4B4FF059
:102B580000721A6107F5B473A3F584731B889AB2DF
:102B6800964BDA60944B4FF400021A61924B802224
:102B78001A61914B4FF400721A6100BF0020FDF7F3
:102B880083FE1A20FDF780FE07F5B473A3F585735D
:102B9800B6221A80884B4FF080721A61864B4FF02C
:102BA80000721A6107F5B473A3F585731B889AB28E
:102BB800824BDA60804B4FF400021A617E4B802210
:102BC8001A617D4B4FF400721A6100BF0A20FDF7AD
:102BD8005BFEA220FDF758FE07F5B473A3F58673D4
:102BE800F2221A80744B4FF080721A61724B4FF0C8
:102BF80000721A6107F5B473A3F586731B889AB23D
:102C08006E4BDA606C4B4FF400021A616A4B8022FB
:102C18001A61694B4FF400721A6100BF0020FDF77A
:102C280033FE07F5B473A3F5877326221A80624B27
:102C38004FF080721A61604B4FF000721A6107F50D
:102C4800B473A3F587731B889AB25C4BDA605A4B4E
:102C58004FF400021A61584B80221A61564B4FF408
:102C680000721A6100BF0120FDF70EFE07F5B4736C
:102C7800A3F58873E0221A804F4B4FF080721A61D7
:102C88004D4B4FF000721A6107F5B473A3F58873C2
:102C98001B889AB2494BDA60474B4FF400021A611D
:102CA800454B80221A61444B4FF400721A6100BFF1
:102CB8000F20FDF7E9FD2A20FDF7E6FD2820FDF7A6
:102CC800E3FD0820FDF7E0FD0E20FDF7DDFD0820FF
:102CD800FDF7DAFD5420FDF7D7FDA920FDF7D4FD57
:102CE8004320FDF7D1FD0A20FDF7CEFD0F20FDF7AB
:102CF800CBFD0020FDF7C8FD0020FDF7C5FD002035
:102D0800FDF7C2FD0020FDF7BFFD07F5B473A3F57D
:102D18008973E1221A80284B4FF080721A61264B82
:102D28004FF000721A6107F5B473A3F589731B8815
:102D38009AB2224BDA60204B4FF400021A611E4B04
:102D480080221A611C4B4FF400721A6100BF0020E8
:102D5800FDF79AFD1520FDF797FD1720FDF794FD67
:102D68000720FDF791FD1120FDF78EFD0620FDF7E8
:102D78008BFD2B20FDF788FD5620FDF785FD3C20B7
:102D8800FDF782FD0520FDF77FFD1020FDF77CFD96
:102D98000F20FDF779FD3F20FDF776FD3F20FDF779
:102DA80073FD0F20FDF770FD07F5B473A3F58A7363
:102DB8002B221A8004E000BF00100140000C0140E3
:102DC8004E4B4FF080721A614C4B4FF000721A61F3
:102DD80007F5B473A3F58A731B889AB2484BDA6077
:102DE800464B4FF400021A61444B80221A61434B50
:102DF8004FF400721A6100BF0020FDF745FD002066
:102E0800FDF742FD0120FDF73FFD3F20FDF73CFDAA
:102E180007F5B473A3F58B732A221A80374B4FF04A
:102E280080721A61354B4FF000721A6107F5B4735E
:102E3800A3F58B731B889AB2314BDA602F4B4FF492
:102E480000021A612D4B80221A612C4B4FF400723C
:102E58001A6100BF0020FDF717FD0020FDF714FDE3
:102E68000020FDF711FDEF20FDF70EFD07F5B47307
:102E7800A3F58C7311221A80204B4FF080721A61CF
:102E88001E4B4FF000721A6107F5B473A3F58C73EB
:102E98001B889AB21A4BDA60184B4FF400021A6179
:102EA800164B80221A61154B4FF400721A6100BF4D
:102EB800782004F071FB07F5B473A3F58D7329220C
:102EC8001A800E4B4FF080721A610C4B4FF0007253
:102ED8001A6107F5B473A3F58D731B889AB2084B72
:102EE800DA60064B4FF400021A61044B80221A6123
:102EF800024B4FF400721A6103F04BBD0010014001
:102F0800000C0140BE4B9B8845F21032934241F0C1
:102F18006D84ED23A7F8DA30BA4B4FF080721A614E
:102F2800B84B4FF000721A61B7F8DA309AB2B64B64
:102F3800DA60B44B4FF400021A61B24B80221A6176
:102F4800B04B4FF400721A6100BF0120FDF79CFCE2
:102F5800FE20FDF799FCEE23A7F8D830A94B4FF0D7
:102F680080721A61A74B4FF000721A61B7F8D83017
:102F78009AB2A54BDA60A34B4FF400021A61A14B39
:102F880080221A619F4B4FF400721A6100BFDE2045
:102F9800FDF77AFC2120FDF777FCF123A7F8D6305E
:102FA800984B4FF080721A61964B4FF000721A617D
:102FB800B7F8D6309AB2944BDA60924B4FF40002CD
:102FC8001A61904B80221A618E4B4FF400721A617D
:102FD80000BF0120FDF758FCDF23A7F8D430894B48
:102FE8004FF080721A61874B4FF000721A61B7F880
:102FF800D4309AB2844BDA60824B4FF400021A61E3
:10300800804B80221A617F4B4FF400721A6100BF17
:103018001020FDF739FCC423A7F8D230794B4FF0C4
:1030280080721A61774B4FF000721A61B7F8D2308C
:103038009AB2754BDA60734B4FF400021A61714B08
:1030480080221A616F4B4FF400721A6100BF8F2003
:10305800FDF71AFCC623A7F8D0306A4B4FF08072F0
:103068001A61684B4FF000721A61B7F8D0309AB203
:10307800654BDA60634B4FF400021A61614B8022A2
:103088001A61604B4FF400721A6100BF0020FDF70F
:10309800FBFBE220FDF7F8FBE220FDF7F5FBE22061
:1030A800FDF7F2FBBF23A7F8CE30564B4FF08072E6
:1030B8001A61544B4FF000721A61B7F8CE309AB2C9
:1030C800514BDA604F4B4FF400021A614D4B80228E
:1030D8001A614C4B4FF400721A6100BFAA20FDF729
:1030E800D3FBB023A7F8CC30464B4FF080721A615F
:1030F800444B4FF000721A61B7F8CC309AB2424B89
:10310800DA60404B4FF400021A613E4B80221A618C
:103118003C4B4FF400721A6100BF0D20FDF7B4FB61
:103128000020FDF7B1FB0D20FDF7AEFB0020FDF7F9
:10313800ABFB1120FDF7A8FB0020FDF7A5FB19202C
:10314800FDF7A2FB0020FDF79FFB2120FDF79CFB6C
:103158000020FDF799FB2D20FDF796FB0020FDF7D9
:1031680093FB3D20FDF790FB0020FDF78DFB5D20D4
:10317800FDF78AFB0020FDF787FB5D20FDF784FB48
:103188000020FDF781FBB123A7F8CA301D4B4FF093
:1031980080721A611B4B4FF000721A61B7F8CA307F
:1031A8009AB2194BDA60174B4FF400021A61154BAB
:1031B80080221A61134B4FF400721A6100BF8020FD
:1031C800FDF762FB0020FDF75FFB8B20FDF75CFB42
:1031D8000020FDF759FB9620FDF756FB0020FDF770
:1031E80053FBB223A7F8C830064B4FF080721A6120
:1031F800044B4FF000721A61B7F8C8309AB205E074
:103208007C00002000100140000C0140D04BDA6027
:10321800D04B4FF400021A61CE4B80221A61CD4B7D
:103228004FF400721A6100BF0020FDF72DFB00204B
:10323800FDF72AFB0220FDF727FB0020FDF724FB02
:103248000320FDF721FB0020FDF71EFBB323A7F8A1
:10325800C630C04B4FF080721A61BE4B4FF00072FF
:103268001A61B7F8C6309AB2B94BDA60B94B4FF465
:1032780000021A61B74B80221A61B64B4FF40072F4
:103288001A6100BF0020FDF7FFFA0020FDF7FCFAE5
:103298000020FDF7F9FA0020FDF7F6FA0020FDF707
:1032A800F3FA0020FDF7F0FA0020FDF7EDFA002010
:1032B800FDF7EAFA0020FDF7E7FA0020FDF7E4FA47
:1032C8000020FDF7E1FA0020FDF7DEFA0020FDF707
:1032D800DBFA0020FDF7D8FA0020FDF7D5FA002028
:1032E800FDF7D2FA0020FDF7CFFA0020FDF7CCFA5F
:1032F8000020FDF7C9FA0020FDF7C6FA0020FDF707
:10330800C3FA0020FDF7C0FA0020FDF7BDFA00203F
:10331800FDF7BAFAB423A7F8C4308E4B4FF0807289
:103328001A618C4B4FF000721A61B7F8C4309AB228
:10333800874BDA60874B4FF400021A61854B802275
:103348001A61844B4FF400721A6100BF8B20FDF79D
:103358009BFA0020FDF798FA9620FDF795FA0020D1
:10336800FDF792FAA120FDF78FFA0020FDF78CFAFD
:10337800B523A7F8C230774B4FF080721A61754BAE
:103388004FF000721A61B7F8C2309AB2704BDA6027
:10339800704B4FF400021A616E4B80221A616D4B1C
:1033A8004FF400721A6100BF0220FDF76DFA002089
:1033B800FDF76AFA0320FDF767FA0020FDF764FAC3
:1033C8000420FDF761FA0020FDF75EFAB623A7F89E
:1033D800C030604B4FF080721A615E4B4FF0007244
:1033E8001A61B7F8C0309AB2594BDA60594B4FF4AA
:1033F80000021A61574B80221A61564B4FF4007233
:103408001A6100BF0020FDF73FFA0020FDF73CFAE3
:10341800B723A7F8BE304F4B4FF080721A614D4B5F
:103428004FF000721A61B7F8BE309AB2484BDA60B2
:10343800484B4FF400021A61464B80221A61454BF3
:103448004FF400721A6100BF0020FDF71DFA00203A
:10345800FDF71AFA3F20FDF717FA0020FDF714FAD6
:103468005E20FDF711FA0020FDF70EFA6420FDF743
:103478000BFA0020FDF708FA8C20FDF705FA00206A
:10348800FDF702FAAC20FDF7FFF90020FDF7FCF983
:10349800DC20FDF7F9F90020FDF7F6F97020FDF7BB
:1034A800F3F90020FDF7F0F99020FDF7EDF9002081
:1034B800FDF7EAF9EB20FDF7E7F90020FDF7E4F95D
:1034C800DC20FDF7E1F90020FDF7DEF9B823A7F8C5
:1034D800BC30204B4FF080721A611E4B4FF00072C7
:1034E8001A61B7F8BC309AB2194BDA60194B4FF42D
:1034F80000021A61174B80221A61164B4FF40072B2
:103508001A6100BF0020FDF7BFF90020FDF7BCF9E4
:103518000020FDF7B9F90020FDF7B6F90020FDF706
:10352800B3F90020FDF7B0F90020FDF7ADF9002050
:10353800FDF7AAF9BA23A7F8BA30064B4FF0807204
:103548001A61044B4FF000721A61B7F8BA3003E001
:10355800000C0140001001409AB2D94BDA60D94BF7
:103568004FF400021A61D74B80221A61D54B4FF4F1
:1035780000721A6100BF2420FDF786F90020FDF7CC
:1035880083F90020FDF780F90020FDF77DF9C123BC
:10359800A7F8B830CB4B4FF080721A61C94B4FF087
:1035A80000721A61B7F8B8309AB2C54BDA60C54BE9
:1035B8004FF400021A61C34B80221A61C14B4FF4C9
:1035C80000721A6100BF2020FDF75EF90020FDF7A8
:1035D8005BF95420FDF758F90020FDF755F9FF2055
:1035E800FDF752F90020FDF74FF9C223A7F8B630CE
:1035F800B44B4FF080721A61B24B4FF000721A61EF
:10360800B7F8B6309AB2AE4BDA60AE4B4FF4000260
:103618001A61AC4B80221A61AA4B4FF400721A61EE
:1036280000BF0A20FDF730F90020FDF72DF904202E
:10363800FDF72AF90020FDF727F9C323A7F8B430CE
:10364800A04B4FF080721A619E4B4FF000721A61C6
:10365800B7F8B4309AB29A4BDA609A4B4FF400023A
:103668001A61984B80221A61964B4FF400721A61C6
:1036780000BF3C20FDF708F90020FDF705F93A20C6
:10368800FDF702F90020FDF7FFF83920FDF7FCF8F7
:103698000020FDF7F9F83720FDF7F6F80020FDF7D0
:1036A800F3F83C20FDF7F0F80020FDF7EDF83620A0
:1036B800FDF7EAF80020FDF7E7F83220FDF7E4F817
:1036C8000020FDF7E1F82F20FDF7DEF80020FDF7D8
:1036D800DBF82C20FDF7D8F80020FDF7D5F82920D5
:1036E800FDF7D2F80020FDF7CFF82620FDF7CCF83B
:1036F8000020FDF7C9F82420FDF7C6F80020FDF7E3
:10370800C3F82420FDF7C0F80020FDF7BDF82320FA
:10371800FDF7BAF80020FDF7B7F83C20FDF7B4F83C
:103728000020FDF7B1F83620FDF7AEF80020FDF7D0
:10373800ABF83220FDF7A8F80020FDF7A5F82F20F8
:10374800FDF7A2F80020FDF79FF82C20FDF79CF864
:103758000020FDF799F82920FDF796F80020FDF7DD
:1037680093F82620FDF790F80020FDF78DF8242027
:10377800FDF78AF80020FDF787F82420FDF784F884
:103788000020FDF781F82320FDF77EF80020FDF7E3
:103798007BF8C423A7F8B2304A4B4FF080721A6105
:1037A800484B4FF000721A61B7F8B2309AB2444BE6
:1037B800DA60444B4FF400021A61424B80221A61CE
:1037C800404B4FF400721A6100BF6220FDF75CF8AD
:1037D8000020FDF759F80520FDF756F80020FDF701
:1037E80053F88420FDF750F80020FDF74DF8F0203D
:1037F800FDF74AF80020FDF747F81820FDF744F8D0
:103808000020FDF741F8A420FDF73EF80020FDF761
:103818003BF81820FDF738F80020FDF735F8502060
:10382800FDF732F80020FDF72FF80C20FDF72CF8F3
:103838000020FDF729F81720FDF726F80020FDF7EE
:1038480023F89520FDF720F80020FDF71DF8F32058
:10385800FDF71AF80020FDF717F8E620FDF714F831
:103868000020FDF711F8C523A7F8B030154B4FF02D
:1038780080721A61134B4FF000721A61B7F8B030BA
:103888009AB20F4BDA600F4B4FF400021A610D4BDE
:1038980080221A610B4B4FF400721A6100BF32206C
:1038A800FCF7F2FF0020FCF7EFFF4420FCF7ECFFE9
:1038B8000020FCF7E9FF6520FCF7E6FF002003E0A5
:1038C800000C014000100140FCF7DEFF7620FCF7F9
:1038D800DBFF0020FCF7D8FF8820FCF7D5FF00208D
:1038E800FCF7D2FFC623A7F8AE30D74B4FF0807253
:1038F8001A61D54B4FF000721A61B7F8AE309AB220
:10390800D24BDA60D04B4FF400021A61CE4B8022C2
:103918001A61CD4B4FF400721A6100BF2020FCF7EA
:10392800B3FF0020FCF7B0FF1720FCF7ADFF002025
:10393800FCF7AAFF0120FCF7A7FF0020FCF7A4FF73
:10394800C723A7F8AC30C04B4FF080721A61BE4B4A
:103958004FF000721A61B7F8AC309AB2BB4BDA601C
:10396800B94B4FF400021A61B74B80221A61B64B6B
:103978004FF400721A6100BF0020FCF785FF002099
:10398800FCF782FF0020FCF77FFF0020FCF77CFF9C
:10399800C823A7F8AA30AC4B4FF080721A61AA4B23
:1039A8004FF000721A61B7F8AA309AB2A74BDA60E2
:1039B800A54B4FF400021A61A34B80221A61A24B57
:1039C8004FF400721A6100BF0020FCF75DFF002071
:1039D800FCF75AFF0020FCF757FF0020FCF754FFC4
:1039E800C923A7F8A830984B4FF080721A61964BFC
:1039F8004FF000721A61B7F8A8309AB2934BDA60A8
:103A0800914B4FF400021A618F4B80221A618E4B42
:103A18004FF400721A6100BF0020FCF735FF002048
:103A2800FCF732FF0020FCF72FFF0020FCF72CFFEB
:103A38000020FCF729FF0020FCF726FF0020FCF7F8
:103A480023FF0020FCF720FF0020FCF71DFF0020CB
:103A5800FCF71AFF0020FCF717FF0020FCF714FF03
:103A68000020FCF711FF0020FCF70EFF0020FCF7F8
:103A78000BFF0020FCF708FFE023A7F8A630724BE5
:103A88004FF080721A61704B4FF000721A61B7F8EC
:103A9800A6309AB26D4BDA606B4B4FF400021A6194
:103AA800694B80221A61684B4FF400721A6100BF9B
:103AB8001620FCF7E9FE0020FCF7E6FE1C20FCF7C8
:103AC800E3FE0020FCF7E0FE2120FCF7DDFE0020ED
:103AD800FCF7DAFE3620FCF7D7FE0020FCF7D4FE10
:103AE8004620FCF7D1FE0020FCF7CEFE5220FCF762
:103AF800CBFE0020FCF7C8FE6420FCF7C5FE0020C2
:103B0800FCF7C2FE7A20FCF7BFFE0020FCF7BCFEE3
:103B18008B20FCF7B9FE0020FCF7B6FE9920FCF7D5
:103B2800B3FE0020FCF7B0FEA820FCF7ADFE002095
:103B3800FCF7AAFEB920FCF7A7FE0020FCF7A4FEBC
:103B4800C420FCF7A1FE0020FCF79EFECA20FCF76B
:103B58009BFE0020FCF798FED220FCF795FE002083
:103B6800FCF792FED920FCF78FFE0020FCF78CFEB4
:103B7800E020FCF789FE0020FCF786FEF320FCF726
:103B880083FE0020FCF780FEE123A7F8A4302E4B2B
:103B98004FF080721A612C4B4FF000721A61B7F81F
:103BA800A4309AB2294BDA60274B4FF400021A610D
:103BB800254B80221A61244B4FF400721A6100BF12
:103BC8001620FCF761FE0020FCF75EFE1C20FCF7C7
:103BD8005BFE0020FCF758FE2220FCF755FE002073
:103BE800FCF752FE3620FCF74FFE0020FCF74CFE97
:103BF8004520FCF749FE0020FCF746FE5220FCF762
:103C080043FE0020FCF740FE6420FCF73DFE002048
:103C1800FCF73AFE7A20FCF737FE0020FCF734FE6A
:103C28008B20FCF731FE0020FCF72EFE9920FCF7D4
:103C38002BFE0020FCF728FEA820FCF725FE00201C
:103C4800FCF722FEB92003E000100140000C0140FF
:103C5800FCF71AFE0020FCF717FEC420FCF714FE40
:103C68000020FCF711FECA20FCF70EFE0020FCF72E
:103C78000BFED220FCF708FE0020FCF705FED8203A
:103C8800FCF702FE0020FCF7FFFDE020FCF7FCFD3E
:103C98000020FCF7F9FDF320FCF7F6FD0020FCF707
:103CA800F3FDE223A7F8A230E34B4FF080721A61CC
:103CB800E14B4FF000721A61B7F8A2309AB2DF4BAD
:103CC800DA60DD4B4FF400021A61DB4B80221A6187
:103CD800D94B4FF400721A6100BF0520FCF7D4FDE0
:103CE8000020FCF7D1FD0B20FCF7CEFD0020FCF7EF
:103CF800CBFD1B20FCF7C8FD0020FCF7C5FD3420D8
:103D0800FCF7C2FD0020FCF7BFFD4420FCF7BCFD1A
:103D18000020FCF7B9FD4F20FCF7B6FD0020FCF7AA
:103D2800B3FD6120FCF7B0FD0020FCF7ADFD792064
:103D3800FCF7AAFD0020FCF7A7FD8820FCF7A4FDEE
:103D48000020FCF7A1FD9720FCF79EFD0020FCF762
:103D58009BFDA620FCF798FD0020FCF795FDB720F9
:103D6800FCF792FD0020FCF78FFDC220FCF78CFDCC
:103D78000020FCF789FDC720FCF786FD0020FCF732
:103D880083FDD120FCF780FD0020FCF77DFDD620C7
:103D9800FCF77AFD0020FCF777FDDD20FCF774FDC9
:103DA8000020FCF771FDF320FCF76EFD0020FCF706
:103DB8006BFDE323A7F8A0309F4B4FF080721A6188
:103DC8009D4B4FF000721A61B7F8A0309AB29B4B26
:103DD800DA60994B4FF400021A61974B80221A61FE
:103DE800954B4FF400721A6100BF0520FCF74CFD9B
:103DF8000020FCF749FD0A20FCF746FD0020FCF7EF
:103E080043FD1C20FCF740FD0020FCF73DFD33205E
:103E1800FCF73AFD0020FCF737FD4420FCF734FDA1
:103E28000020FCF731FD5020FCF72EFD0020FCF7A8
:103E38002BFD6220FCF728FD0020FCF725FD7820EB
:103E4800FCF722FD0020FCF71FFD8820FCF71CFD75
:103E58000020FCF719FD9720FCF716FD0020FCF761
:103E680013FDA620FCF710FD0020FCF70DFDB72080
:103E7800FCF70AFD0020FCF707FDC220FCF704FD53
:103E88000020FCF701FDC720FCF7FEFC0020FCF732
:103E9800FBFCD120FCF7F8FC0020FCF7F5FCD52052
:103EA800FCF7F2FC0020FCF7EFFCDD20FCF7ECFC53
:103EB8000020FCF7E9FCF320FCF7E6FC0020FCF707
:103EC800E3FCE423A7F89E305B4B4FF080721A6145
:103ED800594B4FF000721A61B7F89E309AB2574B9F
:103EE800DA60554B4FF400021A61534B80221A6175
:103EF800514B4FF400721A6100BF0120FCF7C4FC5B
:103F08000020FCF7C1FC0120FCF7BEFC0020FCF7F8
:103F1800BBFC0220FCF7B8FC0020FCF7B5FC2A200B
:103F2800FCF7B2FC0020FCF7AFFC3C20FCF7ACFC33
:103F38000020FCF7A9FC4B20FCF7A6FC0020FCF7AE
:103F4800A3FC5D20FCF7A0FC0020FCF79DFC74207E
:103F5800FCF79AFC0020FCF797FC8420FCF794FC03
:103F68000020FCF791FC9320FCF78EFC0020FCF766
:103F78008BFCA220FCF788FC0020FCF785FCB32012
:103F8800FCF782FC0020FCF77FFCBE20FCF77CFCE1
:103F98000020FCF779FCC420FCF776FC0020FCF735
:103FA80073FCCD20FCF770FC0020FCF76DFCD320DF
:103FB800FCF76AFC0020FCF767FCDD20FCF764FCDA
:103FC8000020FCF761FCF320FCF75EFC0020FCF706
:103FD8005BFCE523A7F89C30174B4FF080721A6101
:103FE800154B4FF000721A61B7F89C309AB2134B18
:103FF800DA60114B4FF400021A610F4B80221A61EC
:104008000D4B4FF400721A6100BF0020FCF73CFC16
:104018000020FCF739FC0020FCF736FC0020FCF7F8
:1040280033FC0220FCF730FC0020FCF72DFC292093
:10403800FCF72AFC002003E000100140000C0140BE
:10404800FCF722FC3C20FCF71FFC0020FCF71CFCC2
:104058004B20FCF719FC0020FCF716FC5D20FCF750
:1040680013FC0020FCF710FC7420FCF70DFC00206A
:10407800FCF70AFC8420FCF707FC0020FCF704FC92
:104088009320FCF701FC0020FCF7FEFBA220FCF7C4
:10409800FBFB0020FCF7F8FBB320FCF7F5FB002046
:1040A800FCF7F2FBBE20FCF7EFFB0020FCF7ECFB73
:1040B800C420FCF7E9FB0020FCF7E6FBCD20FCF769
:1040C800E3FB0020FCF7E0FBD320FCF7DDFB00203E
:1040D800FCF7DAFBDC20FCF7D7FB0020FCF7D4FB6D
:1040E800F320FCF7D1FB0020FCF7CEFBE623A7F872
:1040F8009A30DE4B4FF080721A61DC4B4FF0007241
:104108001A61B7F89A309AB2D94BDA60D74B4FF4A4
:1041180000021A61D54B80221A61D44B4FF4007209
:104128001A6100BF1120FCF7AFFB0020FCF7ACFBC5
:104138003420FCF7A9FB0020FCF7A6FB5620FCF76F
:10414800A3FB0020FCF7A0FB7620FCF79DFB0020DA
:10415800FCF79AFB7720FCF797FB0020FCF794FB11
:104168006620FCF791FB0020FCF78EFB8820FCF70B
:104178008BFB0020FCF788FB9920FCF785FB0020CF
:10418800FCF782FBBB20FCF77FFB0020FCF77CFBE5
:104198009920FCF779FB0020FCF776FB6620FCF7FA
:1041A80073FB0020FCF770FB5520FCF76DFB00202B
:1041B800FCF76AFB5520FCF767FB0020FCF764FB63
:1041C8004520FCF761FB0020FCF75EFB4320FCF771
:1041D8005BFB0020FCF758FB4420FCF755FB002054
:1041E800FCF752FBE723A7F89830A04B4FF08072FA
:1041F8001A619E4B4FF000721A61B7F898309AB264
:104208009B4BDA60994B4FF400021A61974B80225E
:104218001A61964B4FF400721A6100BF3220FCF706
:1042280033FB0020FCF730FB5520FCF72DFB00206A
:10423800FCF72AFB7620FCF727FB0020FCF724FB81
:104248006620FCF721FB0020FCF71EFB6720FCF72B
:104258001BFB0020FCF718FB6720FCF715FB002070
:10426800FCF712FB8720FCF70FFB0020FCF70CFB88
:104278009920FCF709FB0020FCF706FBBB20FCF7A4
:1042880003FB0020FCF700FB9920FCF7FDFA002057
:10429800FCF7FAFA7720FCF7F7FA0020FCF7F4FAB3
:1042A8004420FCF7F1FA0020FCF7EEFA5620FCF760
:1042B800EBFA0020FCF7E8FA2320FCF7E5FA0020E7
:1042C800FCF7E2FA3320FCF7DFFA0020FCF7DCFA0F
:1042D8004520FCF7D9FA0020FCF7D6FAE823A7F81E
:1042E8009630624B4FF080721A61604B4FF000724B
:1042F8001A61B7F896309AB25D4BDA605B4B4FF4AF
:1043080000021A61594B80221A61584B4FF400720F
:104318001A6100BF0020FCF7B7FA0020FCF7B4FAD6
:104328009920FCF7B1FA0020FCF7AEFA8720FCF7D9
:10433800ABFA0020FCF7A8FA8820FCF7A5FA0020C1
:10434800FCF7A2FA7720FCF79FFA0020FCF79CFA0A
:104358006620FCF799FA0020FCF796FA8820FCF70B
:1043680093FA0020FCF790FAAA20FCF78DFA0020B7
:10437800FCF78AFABB20FCF787FA0020FCF784FADE
:104388009920FCF781FA0020FCF77EFA6620FCF7FA
:104398007BFA0020FCF778FA5520FCF775FA002024
:1043A800FCF772FA5520FCF76FFA0020FCF76CFA5C
:1043B8004420FCF769FA0020FCF766FA4420FCF771
:1043C80063FA0020FCF760FA5520FCF75DFA00203C
:1043D800FCF75AFAE923A7F89430244B4FF080727F
:1043E8001A61224B4FF000721A61B7F894309AB2F2
:1043F8001F4BDA601D4B4FF400021A611B4B8022E1
:104408001A611A4B4FF400721A6100BFAA20FCF718
:104418003BFA0020FCF738FA0020FCF735FA0020B8
:10442800FCF732FA0023A7F89230104B4FF0807255
:104438001A610E4B4FF000721A61B7F892309AB2B7
:104448000B4BDA60094B4FF400021A61074B8022CC
:104458001A61064B4FF400721A6100BFAA20FCF7DC
:1044680013FACF23A7F8903004E000BF00100140F2
:10447800000C0140BC4B4FF080721A61BA4B4FF0F0
:1044880000721A61B7F890309AB2B84BDA60B64B3E
:104498004FF400021A61B44B80221A61B24B4FF4F8
:1044A80000721A6100BF0020FCF7EEF90020FCF74B
:1044B800EBF90020FCF7E8F90020FCF7E5F900200B
:1044C800FCF7E2F90020FCF7DFF90020FCF7DCF943
:1044D8000020FCF7D9F90020FCF7D6F90020FCF7FA
:1044E800D3F90020FCF7D0F90020FCF7CDF9002023
:1044F800FCF7CAF90020FCF7C7F90020FCF7C4F95B
:104508000020FCF7C1F90020FCF7BEF9F023A7F85A
:104518008E30954B4FF080721A61934B4FF00072BA
:104528001A61B7F88E309AB2904BDA608E4B4FF41E
:1045380000021A618C4B80221A618B4B4FF4007277
:104548001A6100BF0020FCF79FF95020FCF79CF986
:104558000020FCF799F90020FCF796F90020FCF7F9
:1045680093F9F323A7F88C307F4B4FF080721A61D0
:104578007D4B4FF000721A61B7F88C309AB27B4BC2
:10458800DA60794B4FF400021A61774B80221A6186
:10459800754B4FF400721A6100BF0020FCF774F9E4
:1045A800F923A7F88A30704B4FF080721A616E4B6E
:1045B8004FF000721A61B7F88A309AB26B4BDA6022
:1045C800694B4FF400021A61674B80221A61664BEF
:1045D8004FF400721A6100BF0620FCF755F910204D
:1045E800FCF752F92920FCF74FF90020FCF74CF9A9
:1045F8003A23A7F888305C4B4FF080721A615A4B07
:104608004FF000721A61B7F888309AB2574BDA60E7
:10461800554B4FF400021A61534B80221A61524BDA
:104628004FF400721A6100BF5520FCF72DF91123D1
:10463800A7F886304C4B4FF080721A614A4B4FF006
:1046480000721A61B7F886309AB2484BDA60464B66
:104658004FF400021A61444B80221A61424B4FF416
:1046680000721A6100BF642002F096FF2923A7F8A0
:1046780084303D4B4FF080721A613B4B4FF0007213
:104688001A61B7F884309AB2384BDA60364B4FF477
:1046980000021A61344B80221A61334B4FF40072C6
:1046A8001A6100BF3523A7F882302F4B4FF0807274
:1046B8001A612D4B4FF000721A61B7F882309AB226
:1046C8002A4BDA60284B4FF400021A61264B8022ED
:1046D8001A61254B4FF400721A6100BF0020FCF7E5
:1046E800D3F85123A7F880301F4B4FF080721A611E
:1046F8001D4B4FF000721A61B7F880309AB21B4B0D
:10470800DA60194B4FF400021A61174B80221A61C4
:10471800154B4FF400721A6100BFFF20FCF7B4F884
:104728005323A7F87E30104B4FF080721A610E4B5E
:104738004FF000721A61B7F87E309AB20B4BDA600C
:10474800094B4FF400021A61074B80221A61064B8D
:104758004FF400721A6100BF2C20FCF795F855231E
:10476800A7F87C3004E000BF00100140000C0140B5
:104778001C4B4FF080721A611A4B4FF000721A618D
:10478800B7F87C309AB2184BDA60164B4FF4000237
:104798001A61144B80221A61124B4FF400721A618D
:1047A80000BF8220FCF770F82C23A7F87A300D4B55
:1047B8004FF080721A610B4B4FF000721A61B7F814
:1047C8007A309AB2084BDA60064B4FF400021A614D
:1047D800044B80221A61034B4FF400721A6102F0F5
:1047E800D8B800BF00100140000C0140B44B9B88B2
:1047F80047F29672934240F0E3821123A7F8023100
:10480800B04B4FF080721A61AE4B4FF000721A61D4
:10481800B7F802319AB2AC4BDA60AA4B4FF40002F7
:104828001A61A84B80221A61A64B4FF400721A61D4
:1048380000BF782002F0B0FE3623A7F80031A14B64
:104848004FF080721A619F4B4FF000721A61B7F8EF
:1048580000319AB29C4BDA609A4B4FF400021A610D
:10486800984B80221A61974B4FF400721A6100BF6F
:104878004820FCF709F83A23A7F8FE30914B4FF08F
:1048880080721A618F4B4FF000721A61B7F8FE30D0
:104898009AB28D4BDA608B4B4FF400021A61894B48
:1048A80080221A61874B4FF400721A6100BF5520AD
:1048B800FBF7EAFFF023A7F8FC30824B4FF0807239
:1048C8001A61804B4FF000721A61B7F8FC309AB247
:1048D8007D4BDA607B4B4FF400021A61794B8022E2
:1048E8001A61784B4FF400721A6100BFC320FBF7BE
:1048F800CBFFF023A7F8FA30724B4FF080721A61A1
:10490800704B4FF000721A61B7F8FA309AB26E4BDA
:10491800DA606C4B4FF400021A616A4B80221A610C
:10492800684B4FF400721A6100BF9620FBF7ACFF8A
:10493800B423A7F8F830634B4FF080721A61614BCB
:104948004FF000721A61B7F8F8309AB25E4BDA602D
:104958005C4B4FF400021A615A4B80221A61594B82
:104968004FF400721A6100BF0120FBF78DFFB623D8
:10497800A7F8F630534B4FF080721A61514B4FF045
:1049880000721A61B7F8F6309AB24F4BDA604D4BA5
:104998004FF400021A614B4B80221A61494B4FF4C5
:1049A80000721A6100BF0A20FBF76EFFA220FBF716
:1049B8006BFFB723A7F8F430424B4FF080721A61AF
:1049C800404B4FF000721A61B7F8F4309AB23E4B80
:1049D800DA603C4B4FF400021A613A4B80221A61AC
:1049E800384B4FF400721A6100BFC620FBF74CFF2A
:1049F800B923A7F8F230334B4FF080721A61314B6C
:104A08004FF000721A61B7F8F2309AB22E4BDA60A2
:104A18002C4B4FF400021A612A4B80221A61294B51
:104A28004FF400721A6100BF0220FBF72DFFE0204F
:104A3800FBF72AFFC023A7F8F030224B4FF0807213
:104A48001A61204B4FF000721A61B7F8F0309AB231
:104A58001D4BDA601B4B4FF400021A61194B802280
:104A68001A61184B4FF400721A6100BF8020FBF7DF
:104A78000BFF1620FBF708FFC123A7F8EE30114BF8
:104A88004FF080721A610F4B4FF000721A61B7F83D
:104A9800EE309AB20C4BDA600A4B4FF400021A61FE
:104AA800084B80221A61074B4FF400721A6100BF4D
:104AB8001920FBF7E9FEC223A7F8EC3006E000BF97
:104AC8007C00002000100140000C0140BA4B4FF060
:104AD80080721A61B84B4FF000721A61B7F8EC3067
:104AE8009AB2B64BDA60B44B4FF400021A61B24B7B
:104AF80080221A61B04B4FF400721A6100BFA720E0
:104B0800FBF7C2FEC523A7F8EA30AB4B4FF0807223
:104B18001A61A94B4FF000721A61B7F8EA309AB2DD
:104B2800A64BDA60A44B4FF400021A61A24B802214
:104B38001A61A14B4FF400721A6100BF1620FBF7EF
:104B4800A3FEE823A7F8E8309B4B4FF080721A6168
:104B5800994B4FF000721A61B7F8E8309AB2974B48
:104B6800DA60954B4FF400021A61934B80221A6168
:104B7800914B4FF400721A6100BF4020FBF784FE8E
:104B88008A20FBF781FE0020FBF77EFE0020FBF762
:104B98007BFE2920FBF778FE1920FBF775FEA52080
:104BA800FBF772FE3320FBF76FFEE023A7F8E63031
:104BB800814B4FF080721A617F4B4FF000721A617F
:104BC800B7F8E6309AB27D4BDA607B4B4FF40002BF
:104BD8001A61794B80221A61774B4FF400721A617F
:104BE80000BFF020FBF750FE0720FBF74DFE0D201D
:104BF800FBF74AFE0420FBF747FE0520FBF744FEBF
:104C08001420FBF741FE3620FBF73EFE5420FBF74D
:104C18003BFE4C20FBF738FE3820FBF735FE13200F
:104C2800FBF732FE1420FBF72FFE2E20FBF72CFE9D
:104C38003420FBF729FEE123A7F8E4305E4B4FF060
:104C480080721A615C4B4FF000721A61B7F8E43059
:104C58009AB25A4BDA60584B4FF400021A61564B1D
:104C680080221A61544B4FF400721A6100BFF02081
:104C7800FBF70AFE1020FBF707FE1420FBF704FEE3
:104C88000E20FBF701FE0C20FBF7FEFD0820FBF7CA
:104C9800FBFD3520FBF7F8FD4420FBF7F5FD4C2024
:104CA800FBF7F2FD2620FBF7EFFD1020FBF7ECFDEC
:104CB8001220FBF7E9FD2C20FBF7E6FD3220FBF77D
:104CC800E3FDF023A7F8E2303B4B4FF080721A6106
:104CD800394B4FF000721A61B7F8E2309AB2374B8D
:104CE800DA60354B4FF400021A61334B80221A61A7
:104CF800314B4FF400721A6100BF3C20FBF7C4FD32
:104D0800F023A7F8E0302C4B4FF080721A612A4B41
:104D18004FF000721A61B7F8E0309AB2274BDA60A8
:104D2800254B4FF400021A61234B80221A61224B53
:104D38004FF400721A6100BF6920FBF7A5FD7820C7
:104D480002F02AFC2123A7F8DE301B4B4FF08072BB
:104D58001A61194B4FF000721A61B7F8DE309AB237
:104D6800164BDA60144B4FF400021A61124B802282
:104D78001A61114B4FF400721A6100BF2923A7F87A
:104D8800DC300D4B4FF080721A610B4B4FF0007204
:104D98001A61B7F8DC309AB2084BDA60064B4FF468
:104DA80000021A61044B80221A61034B4FF400720F
:104DB8001A6101F0EEBD00BF00100140000C014077
:104DC800034B9B8845F21052934240F0B38701E0B1
:104DD8007C00002055214FF47040FBF779FDAA2193
:104DE8004FF20100FBF774FD52214FF20200FBF76E
:104DF8006FFD08214FF20300FBF76AFD01214FF216
:104E08000400FBF765FD0D214FF43040FBF760FD12
:104E18000D214BF20100FBF75BFD0D214BF2020067
:104E2800FBF756FD34214FF43640FBF751FD342192
:104E38004BF20160FBF74CFD34214BF20260FBF7AB
:104E480047FD0D214FF43140FBF742FD0D214BF298
:104E58000110FBF73DFD0D214BF20210FBF738FD69
:104E680034214FF43740FBF733FD34214BF2017006
:104E7800FBF72EFD34214BF20270FBF729FD0021D0
:104E88004FF43240FBF724FD00214BF20120FBF7E1
:104E98001FFD00214BF20220FBF71AFD24214FF4DD
:104EA8003840FBF715FD24214BF60100FBF710FDF8
:104EB80024214BF60200FBF70BFD01214FF43F4084
:104EC800FBF706FD0F214FF43340FBF701FD0F21DF
:104ED8004BF20130FBF7FCFC0F214BF20230FBF7E1
:104EE800F7FC34214FF43940FBF7F2FC34214BF640
:104EF8000110FBF7EDFC34214BF60210FBF7E8FC40
:104F080008214FF43540FBF7E3FC08214BF2015030
:104F1800FBF7DEFC08214BF20250FBF7D9FC03211A
:104F28004FF44240FBF7D4FC24214FF43A40FBF7FE
:104F3800CFFC24214BF60120FBF7CAFC24214BF6B9
:104F48000220FBF7C5FC00214FF43C40FBF7C0FCF6
:104F580078214BF60140FBF7BBFC00214BF60240E1
:104F6800FBF7B6FC00214FF43D40FBF7B1FC78217C
:104F78004BF60150FBF7ACFC00214BF60250FBF757
:104F8800A7FC00214FF43E40FBF7A2FC64214BF63E
:104F98000160FBF79DFC00214FF45140FBF798FCA2
:104FA80033214DF20110FBF793FC00214DF2021062
:104FB800FBF78EFC34214DF20310FBF789FC00212E
:104FC8004DF20410FBF784FC3A214DF20510FBF773
:104FD8007FFC00214DF20610FBF77AFC4A214DF2C6
:104FE8000710FBF775FC00214DF20810FBF770FC69
:104FF8005C214DF20910FBF76BFC00214DF20A1001
:10500800FBF766FC81214DF20B10FBF761FC0021D8
:105018004DF20C10FBF75CFCA6214DF20D10FBF7CE
:1050280057FC00214DF20E10FBF752FCE5214DF222
:105038000F10FBF74DFC01214DF21010FBF748FC57
:1050480013214DF21110FBF743FC01214DF2121010
:10505800FBF73EFC54214DF21310FBF739FC0121FC
:105068004DF21410FBF734FC82214DF21510FBF7BA
:105078002FFC01214DF21610FBF72AFCCA214DF234
:105088001710FBF725FC02214DF21810FBF720FC46
:1050980000214DF21910FBF71BFC02214DF21A10EA
:1050A800FBF716FC01214DF21B10FBF711FC022146
:1050B8004DF21C10FBF70CFC34214DF21D10FBF7D0
:1050C80007FC02214DF21E10FBF702FC67214DF28E
:1050D8001F10FBF7FDFB02214DF22010FBF7F8FB38
:1050E80084214DF22110FBF7F3FB02214DF222102F
:1050F800FBF7EEFBA4214DF22310FBF7E9FB02219D
:105108004DF22410FBF7E4FBB7214DF22510FBF715
:10511800DFFB02214DF22610FBF7DAFBCF214DF21F
:105128002710FBF7D5FB02214DF22810FBF7D0FB27
:10513800DE214DF22910FBF7CBFB02214DF22A109C
:10514800FBF7C6FBF2214DF22B10FBF7C1FB022146
:105158004DF22C10FBF7BCFBFE214DF22D10FBF796
:10516800B7FB03214DF22E10FBF7B2FB10214DF2D5
:105178002F10FBF7ADFB03214DF23010FBF7A8FB16
:1051880033214DF23110FBF7A3FB03214DF232100E
:10519800FBF79EFB6D214DF23310FBF799FB0021C5
:1051A8004FF45240FBF794FB33214DF20120FBF7FB
:1051B8008FFB00214DF20220FBF78AFB34214DF2D0
:1051C8000320FBF785FB00214DF20420FBF780FB51
:1051D8003A214DF20520FBF77BFB00214DF206201A
:1051E800FBF776FB4A214DF20720FBF771FB002104
:1051F8004DF20820FBF76CFB5C214DF20920FBF710
:1052080067FB00214DF20A20FBF762FB81214DF27A
:105218000B20FBF75DFB00214DF20C20FBF758FB40
:10522800A6214DF20D20FBF753FB00214DF20E2075
:10523800FBF74EFBE5214DF20F20FBF749FB01215F
:105248004DF21020FBF744FB13214DF21120FBF720
:105258003FFB01214DF21220FBF73AFB54214DF29E
:105268001320FBF735FB01214DF21420FBF730FB2F
:1052780082214DF21520FBF72BFB01214DF2162060
:10528800FBF726FBCA214DF21720FBF721FB022171
:105298004DF21820FBF71CFB00214DF21920FBF7FB
:1052A80017FB02214DF21A20FBF712FB01214DF2E8
:1052B8001B20FBF70DFB02214DF21C20FBF708FB1E
:1052C80034214DF21D20FBF703FB02214DF21E2075
:1052D800FBF7FEFA67214DF21F20FBF7F9FA0221CE
:1052E8004DF22020FBF7F4FA84214DF22120FBF740
:1052F800EFFA02214DF22220FBF7EAFAA4214DF23F
:105308002320FBF7E5FA02214DF22420FBF7E0FA0F
:10531800B7214DF22520FBF7DBFA02214DF22620BA
:10532800FBF7D6FACF214DF22720FBF7D1FA02215D
:105338004DF22820FBF7CCFADE214DF22920FBF7AD
:10534800C7FA02214DF22A20FBF7C2FAF2214DF2E8
:105358002B20FBF7BDFA02214DF22C20FBF7B8FAFF
:10536800FE214DF22D20FBF7B3FA03214DF22E203A
:10537800FBF7AEFA10214DF22F20FBF7A9FA032113
:105388004DF23020FBF7A4FA33214DF23120FBF720
:105398009FFA03214DF23220FBF79AFA6D214DF264
:1053A8003320FBF795FA00214FF45340FBF790FAAE
:1053B80033214DF20130FBF78BFA00214DF2023018
:1053C800FBF786FA34214DF20330FBF781FA00210E
:1053D8004DF20430FBF77CFA3A214DF20530FBF729
:1053E80077FA00214DF20630FBF772FA4A214DF2A6
:1053F8000730FBF76DFA00214DF20830FBF768FA29
:105408005C214DF20930FBF763FA00214DF20A30B6
:10541800FBF75EFA81214DF20B30FBF759FA0021B8
:105428004DF20C30FBF754FAA6214DF20D30FBF784
:105438004FFA00214DF20E30FBF74AFAE5214DF202
:105448000F30FBF745FA01214DF21030FBF740FA17
:1054580013214DF21130FBF73BFA01214DF21230C6
:10546800FBF736FA54214DF21330FBF731FA0121DC
:105478004DF21430FBF72CFA82214DF21530FBF770
:1054880027FA01214DF21630FBF722FACA214DF214
:105498001730FBF71DFA02214DF21830FBF718FA06
:1054A80000214DF21930FBF713FA02214DF21A30A0
:1054B800FBF70EFA01214DF21B30FBF709FA022126
:1054C8004DF21C30FBF704FA34214DF21D30FBF786
:1054D800FFF902214DF21E30FBF7FAF967214DF270
:1054E8001F30FBF7F5F902214DF22030FBF7F0F9F8
:1054F80084214DF22130FBF7EBF902214DF22230E5
:10550800FBF7E6F9A4214DF22330FBF7E1F902217C
:105518004DF22430FBF7DCF9B7214DF22530FBF7CB
:10552800D7F902214DF22630FBF7D2F9CF214DF2FF
:105538002730FBF7CDF902214DF22830FBF7C8F9E7
:10554800DE214DF22930FBF7C3F902214DF22A3052
:10555800FBF7BEF9F2214DF22B30FBF7B9F9022126
:105568004DF22C30FBF7B4F9FE214DF22D30FBF74C
:10557800AFF903214DF22E30FBF7AAF910214DF2B5
:105588002F30FBF7A5F903214DF23030FBF7A0F9D6
:1055980033214DF23130FBF79BF903214DF23230C4
:1055A800FBF796F96D214DF23330FBF791F90021A5
:1055B8004FF45440FBF78CF933214DF20140FBF7CF
:1055C80087F900214DF20240FBF782F934214DF2B0
:1055D8000340FBF77DF900214DF20440FBF778F911
:1055E8003A214DF20540FBF773F900214DF20640D0
:1055F800FBF76EF94A214DF20740FBF769F90021E4
:105608004DF20840FBF764F95C214DF20940FBF7C5
:105618005FF900214DF20A40FBF75AF981214DF25A
:105628000B40FBF755F900214DF20C40FBF750F900
:10563800A6214DF20D40FBF74BF900214DF20E402B
:10564800FBF746F9E5214DF20F40FBF741F901213F
:105658004DF21040FBF73CF913214DF21140FBF7D6
:1056680037F901214DF21240FBF732F954214DF27E
:105678001340FBF72DF901214DF21440FBF728F9EF
:1056880082214DF21540FBF723F901214DF2164016
:10569800FBF71EF9CA214DF21740FBF719F9022151
:1056A8004DF21840FBF714F900214DF21940FBF7B1
:1056B8000FF902214DF21A40FBF70AF901214DF2C8
:1056C8001B40FBF705F902214DF21C40FBF700F9DE
:1056D80034214DF21D40FBF7FBF802214DF21E402C
:1056E800FBF7F6F867214DF21F40FBF7F1F80221AE
:1056F8004DF22040FBF7ECF884214DF22140FBF7F6
:10570800E7F802214DF22240FBF7E2F8A4214DF21E
:105718002340FBF7DDF802214DF22440FBF7D8F8CF
:10572800B7214DF22540FBF7D3F802214DF2264070
:10573800FBF7CEF8CF214DF22740FBF7C9F802213D
:105748004DF22840FBF7C4F8DE214DF22940FBF763
:10575800BFF802214DF22A40FBF7BAF8F2214DF2C8
:105768002B40FBF7B5F802214DF22C40FBF7B0F8BF
:10577800FE214DF22D40FBF7ABF803214DF22E40F0
:10578800FBF7A6F810214DF22F40FBF7A1F80321F3
:105798004DF23040FBF79CF833214DF23140FBF7D6
:1057A80097F803214DF23240FBF792F86D214DF244
:1057B8003340FBF78DF800214FF45540FBF788F88C
:1057C80033214DF20150FBF783F800214DF20250CE
:1057D800FBF77EF834214DF20350FBF779F80021EE
:1057E8004DF20450FBF774F83A214DF20550FBF7DF
:1057F8006FF800214DF20650FBF76AF84A214DF286
:105808000750FBF765F800214DF20850FBF760F8E8
:105818005C214DF20950FBF75BF800214DF20A506C
:10582800FBF756F881214DF20B50FBF751F8002198
:105838004DF20C50FBF74CF8A6214DF20D50FBF73A
:1058480047F800214DF20E50FBF742F8E5214DF2E2
:105858000F50FBF73DF801214DF21050FBF738F8D7
:1058680013214DF21150FBF733F801214DF212507C
:10587800FBF72EF854214DF21350FBF729F80121BC
:105888004DF21450FBF724F882214DF21550FBF726
:105898001FF801214DF21650FBF71AF8CA214DF2F4
:1058A8001750FBF715F802214DF21850FBF710F8C6
:1058B80000214DF21950FBF70BF802214DF21A5056
:1058C800FBF706F801214DF21B50FBF701F8022106
:1058D8004DF21C50FAF7FCFF34214DF21D50FAF737
:1058E800F7FF02214DF21E50FAF7F2FF67214DF241
:1058F8001F50FAF7EDFF02214DF22050FAF7E8FFAA
:1059080084214DF22150FAF7E3FF02214DF2225093
:10591800FAF7DEFFA4214DF22350FAF7D9FF02214E
:105928004DF22450FAF7D4FFB7214DF22550FAF77B
:10593800CFFF02214DF22650FAF7CAFFCF214DF2D0
:105948002750FAF7C5FF02214DF22850FAF7C0FF99
:10595800DE214DF22950FAF7BBFF02214DF22A5001
:10596800FAF7B6FFF2214DF22B50FAF7B1FF0221F8
:105978004DF22C50FAF7ACFFFE214DF22D50FAF7FC
:10598800A7FF03214DF22E50FAF7A2FF10214DF286
:105998002F50FAF79DFF03214DF23050FAF798FF88
:1059A80033214DF23150FAF793FF03214DF2325073
:1059B800FAF78EFF6D214DF23350FAF789FF002177
:1059C8004FF45640FAF784FF33214DF20160FAF79D
:1059D8007FFF00214DF20260FAF77AFF34214DF281
:1059E8000360FAF775FF00214DF20460FAF770FFC3
:1059F8003A214DF20560FAF76BFF00214DF206607F
:105A0800FAF766FF4A214DF20760FAF761FF0021B5
:105A18004DF20860FAF75CFF5C214DF20960FAF775
:105A280057FF00214DF20A60FAF752FF81214DF22B
:105A38000B60FAF74DFF00214DF20C60FAF748FFB2
:105A4800A6214DF20D60FAF743FF00214DF20E60DA
:105A5800FAF73EFFE5214DF20F60FAF739FF012111
:105A68004DF21060FAF734FF13214DF21160FAF786
:105A78002FFF01214DF21260FAF72AFF54214DF24F
:105A88001360FAF725FF01214DF21460FAF720FFA1
:105A980082214DF21560FAF71BFF01214DF21660C5
:105AA800FAF716FFCA214DF21760FAF711FF022123
:105AB8004DF21860FAF70CFF00214DF21960FAF761
:105AC80007FF02214DF21A60FAF702FF01214DF299
