:020000040800F2
:1000000000C00020FD050008B1040008B704000886
:10001000BD040008C3040008C90400080000000073
:10002000000000000000000000000000CF040008F5
:10003000DB04000800000000E7040008F3040008E7
:100040004506000845060008450600084506000864
:100050004506000845060008FF040008450600089C
:100060004506000845060008450600084506000844
:100070004506000845060008450600084506000834
:100080004506000845060008450600084506000824
:100090004506000845060008450600080D0500084D
:1000A0004506000845060008450600084506000804
:1000B00045060008450600084506000845060008F4
:1000C00045060008450600084506000845060008E4
:1000D00045060008450600084506000845060008D4
:1000E0001B050008450600084506000845060008EF
:1000F00045060008450600084506000845060008B4
:1001000045060008450600084506000845060008A3
:100110004506000845060008450600084506000893
:100120004506000845060008450600084506000883
:1001300000000000000000000000000000000000BF
:1001400000000000000000000000000000000000AF
:10015000000000000000000000000000000000009F
:10016000000000000000000000000000000000008F
:10017000000000000000000000000000000000007F
:10018000000000000000000000000000000000006F
:10019000000000000000000000000000000000005F
:1001A000000000000000000000000000000000004F
:1001B000000000000000000000000000000000003F
:1001C000000000000000000000000000000000002F
:1001D000000000000000000000000000000000001F
:0401E0005FF8E0F1F3
:1001E40010B5054C237833B9044B13B10448AFF36D
:1001F40000800123237010BD0C00002000000000CB
:100204008015000808B5034B1BB103490348AFF33D
:10021400008008BD000000001000002080150008C8
:1002240080B500AF00F00EFA00F003F800F046F8D5
:10023400FEE780B590B000AF07F118032822002133
:10024400184601F06FF93B1D00221A605A609A604B
:10025400DA601A610123BB614FF48033FB61002330
:100264003B620123BB6202237B634FF48033BB6395
:100274004FF4E013FB6307F11803184600F06AFD1E
:100284000346002B01D000F0D7F80F237B60022334
:10029400BB600023FB604FF480633B6100237B6100
:1002A4003B1D0221184600F0D7FF0346002B01D066
:1002B40000F0C2F800BF4037BD4680BD80B588B0AD
:1002C40000AF07F1100300221A605A609A60DA60E6
:1002D400534B9B69524A43F020039361504B9B69F3
:1002E40003F02003FB60FB684D4B9B694C4A43F0D1
:1002F400040393614A4B9B6903F00403BB60BB682E
:10030400474B9B69464A43F010039361444B9B69F6
:1003140003F010037B607B6800224FF48071414836
:1003240000F0CFFC002204213F4800F0CAFC012366
:100334003B613E4B7B610223BB6107F1100319460D
:10034400384800F013FB20233B61394B7B610123C8
:10035400BB6107F110031946364800F007FB4FF460
:1003640080733B6101237B610023BB610223FB613A
:1003740007F1100319462B4800F0F8FA4FF4007304
:100384003B6102237B610323FB6107F110031946E0
:10039400244800F0EBFA4FF480633B6100237B6157
:1003A4000023BB6107F1100319461E4800F0DEFA72
:1003B4004FF400433B611E4B7B610123BB6107F19A
:1003C40010031946174800F0D1FA04233B610123B6
:1003D4007B610023BB610223FB6107F11003194613
:1003E400114800F0C3FA00220121062000F087FA28
:1003F400062000F0A0FA01220121172000F07FFA64
:10040400172000F098FA02220121282000F077FA40
:10041400282000F090FA00BF2037BD4680BD00BF01
:1004240000100240000801400014014000001110B7
:10043400000021100010014080B400AF72B600BF6C
:10044400FEE7000080B584B000AF164B9B69154AE7
:1004540043F001039361134B9B6903F00103BB60F9
:10046400BB68104BDB690F4A43F08053D3610D4BDB
:10047400DB6903F080537B607B68052000F034FA6D
:10048400094B5B68FB60FB6823F0E063FB60FB687F
:1004940043F00073FB60044AFB68536000BF1037ED
:1004A400BD4680BD001002400000014080B400AF92
:1004B400FEE780B400AFFEE780B400AFFEE780B48F
:1004C40000AFFEE780B400AFFEE780B400AF00BF2A
:1004D400BD4680BC704780B400AF00BFBD4680BC41
:1004E400704780B400AF00BFBD4680BC704780B584
:1004F40000AF00F0EDF800BF80BD80B500AF012073
:1005040000F010FC00BF80BD80B500AF202000F0DB
:1005140009FC00BF80BD80B500AF4FF4004000F07F
:1005240001FC00BF80BD000080B584B000AF03466D
:10053400FB80642000F0E8F8FB88B3F5004F21D07D
:10054400B3F5004F41DC012B2ED0202B3DD12021CF
:10055400234800F09FFB0346002B38D10023FB60A7
:100564000123FB600AE0642000F0CEF84FF48071B0
:100574001C4800F0BEFBFB680133FB60FB68042BE6
:10058400F1DD24E04FF40041164800F083FB0346FC
:10059400002B1ED14FF48071124800F0AAFB0421F5
:1005A400114800F0A6FB14E001210E4800F072FB94
:1005B4000346012B0FD14FF480710A4800F099FBD8
:1005C4000421094800F095FB05E000BF04E000BFEA
:1005D40002E000BF00E000BF00BF1037BD4680BD91
:1005E40000100140000801400014014080B400AF35
:1005F40000BFBD4680BC70470C480D490D4A00231E
:1006040002E0D458C4500433C4188C42F9D30A4AC3
:100614000A4C002301E013600432A242FBD3FFF72B
:10062400E5FF00F087FFFFF7FBFD704700000020A7
:100634000C000020C01500080C0000202C00002035
:10064400FEE7000080B500AF084B1B68074A43F083
:1006540010031360032000F047F9002000F008F8AD
:10066400FFF7F0FE0023184680BD00BF00200240C3
:1006740080B582B000AF7860124B1A68124B1B78B9
:1006840019464FF47A73B3FBF1F3B2FBF3F3184654
:1006940000F05FF90346002B01D001230EE07B68D4
:1006A4000F2B0AD8002279684FF0FF3000F027F9A9
:1006B400064A7B681360002300E0012318460837CC
:1006C400BD4680BD0000002008000020040000207A
:1006D40080B400AF054B1B781A46054B1B681344C6
:1006E400034A136000BFBD4680BC70470800002069
:1006F4002800002080B400AF024B1B681846BD469A
:1007040080BC70472800002080B584B000AF7860BA
:10071400FFF7F0FFB8607B68FB60FB68B3F1FF3F55
:1007240005D00A4B1B781A46FB681344FB6000BFD4
:10073400FFF7E0FF0246BB68D31AFA689A42F7D87B
:1007440000BF00BF1037BD4680BD00BF08000020B9
:1007540080B485B000AF78607B6803F00703FB606A
:100764000C4BDB68BB60BA684FF6FF031340BB60F9
:10077400FB681A02BB68134343F0BF6343F40033BE
:10078400BB60044ABB68D36000BF1437BD4680BC5D
:10079400704700BF00ED00E080B400AF044BDB689D
:1007A4001B0A03F007031846BD4680BC704700BF10
:1007B40000ED00E080B483B000AF0346FB7197F90D
:1007C4000730002B0BDBFB7903F01F02064997F976
:1007D40007305B09012000FA02F241F8232000BF30
:1007E4000C37BD4680BC704700E100E080B483B0A4
:1007F40000AF03463960FB7197F90730002B0ADB21
:100804003B68DAB20C4997F907301201D2B20B44B3
:1008140083F800230AE03B68DAB20849FB7903F065
:100824000F03043B1201D2B20B441A7600BF0C37FB
:10083400BD4680BC704700BF00E100E000ED00E071
:1008440080B489B000AFF860B9607A60FB6803F0E7
:100854000703FB61FB69C3F10703042B28BF0423CF
:10086400BB61FB690433062B02D9FB69033B00E03F
:1008740000237B614FF0FF32BB6902FA03F3DA43D2
:10088400BB681A407B699A404FF0FF317B6901FADB
:1008940003F3D9437B680B40134318462437BD4602
:1008A40080BC704780B582B000AF78607B68013B44
:1008B400B3F1807F01D301230FE00A4A7B68013B37
:1008C40053600F214FF0FF30FFF790FF054B0022DC
:1008D4009A60044B07221A60002318460837BD4665
:1008E40080BD00BF10E000E080B582B000AF78604A
:1008F4007868FFF72DFF00BF0837BD4680BD80B57F
:1009040086B000AF0346B9607A60FB7300237B6155
:10091400FFF742FF78617A68B9687869FFF790FF5A
:10092400024697F90F3011461846FFF75FFF00BFE4
:100934001837BD4680BD80B582B000AF0346FB7159
:1009440097F907301846FFF735FF00BF0837BD4653
:1009540080BD80B582B000AF78607868FFF7A2FFF1
:10096400034618460837BD4680BD000080B48BB0EE
:1009740000AF7860396000237B6200233B6279E139
:1009840001227B6A02FA03F3FB613B681B68FA6984
:100994001340BB61BA69FB699A4240F068813B68C5
:1009A4005B68964A93425ED0944A934275D8944ABF
:1009B400934258D0924A93426FD8924A934252D06B
:1009C400904A934269D8904A93424CD08E4A9342BB
:1009D40063D88E4A934246D08C4A93425DD8122BF8
:1009E4002AD8122B59D801A252F823F06B0A000816
:1009F400450A0008570A0008990A00089F0A0008D7
:100A04009F0A00089F0A00089F0A00089F0A00081E
:100A14009F0A00089F0A00089F0A00089F0A00080E
:100A24009F0A00089F0A00089F0A00089F0A0008FE
:100A34004D0A0008610A0008754A934213D02CE05D
:100A44003B68DB683B6229E03B68DB6804333B625C
:100A540024E03B68DB6808333B621FE03B68DB68EB
:100A64000C333B621AE03B689B68002B02D10423E1
:100A74003B6213E03B689B68012B05D108233B6272
:100A84007B68FA691A6109E008233B627B68FA69AA
:100A94005A6103E000233B6200E000BFBB69FF2B07
:100AA40001D87B6801E07B6804337B61BB69FF2B61
:100AB40002D87B6A9B0002E07B6A083B9B003B6197
:100AC4007B691A680F213B6901FA03F3DB431A407F
:100AD400396A3B6901FA03F31A437B691A603B687C
:100AE4005B6803F08053002B00F0C180494B9B6985
:100AF400484A43F001039361464B9B6903F00103A9
:100B0400BB60BB68444A7B6A9B08023352F82330BB
:100B1400FB607B6A03F003039B000F2202FA03F3DA
:100B2400DB43FA681340FB607B683C4A93421FD066
:100B34007B683B4A934219D07B683A4A934213D06C
:100B44007B68394A93420DD07B68384A934207D078
:100B54007B68374A934201D105230AE0062308E063
:100B6400042306E0032304E0022302E0012300E05F
:100B740000237A6A02F0030292009340FA68134356
:100B8400FB6025497B6A9B080233FA6841F82320FD
:100B94003B685B6803F48033002B06D0254B1A684E
:100BA4002449BB6913430B6006E0224B1A68BB69F6
:100BB400DB43204913400B603B685B6803F400335C
:100BC400002B06D01B4B5A681A49BB6913434B6070
:100BD40006E0184B5A68BB69DB43164913404B6067
:100BE4003B685B6803F48013002B25D0114B9A6893
:100BF4001049BB6913438B6025E000BF000032102D
:100C0400000031100000221000002110000012101A
:100C140000001110001002400000014000080140D3
:100C2400000C014000100140001401400018014074
:100C3400001C014000040140154B9A68BB69DB436A
:100C4400134913408B603B685B6803F40013002B6B
:100C540006D00F4BDA680E49BB691343CB6006E03C
:100C64000B4BDA68BB69DB4309491340CB607B6AF1
:100C740001337B623B681A687B6A22FA03F3002B18
:100C84007FF47EAE00BF00BF2C37BD4680BC7047EA
:100C94000004014080B485B000AF78600B467B80CF
:100CA4007B689A687B881340002B02D00123FB7376
:100CB40001E00023FB73FB7B18461437BD4680BC60
:100CC400704780B483B000AF78600B467B801346D6
:100CD4007B707B78002B03D07A887B681A6103E0F1
:100CE4007B881A047B681A6100BF0C37BD4680BC40
:100CF400704780B485B000AF78600B467B807B681A
:100D0400DB68FB607A88FB6813401A04FB68D943EC
:100D14007B880B401A437B681A6100BF1437BD46B9
:100D240080BC704780B582B000AF0346FB80084B9F
:100D34005A69FB881340002B06D0054AFB8853618F
:100D4400FB881846FFF7F0FB00BF0837BD4680BD9F
:100D54000004014080B586B000AF78607B68002B4A
:100D640001D1012372E27B681B6803F00103002BAD
:100D740000F08780924B5B6803F00C03042B0CD0CB
:100D84008F4B5B6803F00C03082B12D18C4B5B6810
:100D940003F48033B3F5803F0BD1894B1B6803F414
:100DA4000033002B6CD07B685B68002B68D1012377
:100DB4004CE27B685B68B3F5803F06D1804B1B68CF
:100DC4007F4A43F4803313602EE07B685B68002B1A
:100DD4000CD17B4B1B687A4A23F480331360784B25
:100DE4001B68774A23F4802313601DE07B685B68EB
:100DF400B3F5A02F0CD1724B1B68714A43F48023C6
:100E040013606F4B1B686E4A43F4803313600BE02E
:100E14006B4B1B686A4A23F480331360684B1B686E
:100E2400674A23F4802313607B685B68002B13D02C
:100E3400FFF760FC386108E0FFF75CFC02463B69A1
:100E4400D31A642B01D9032300E25D4B1B6803F41E
:100E54000033002BF0D014E0FFF74CFC386108E0BD
:100E6400FFF748FC02463B69D31A642B01D90323DC
:100E7400ECE1534B1B6803F40033002BF0D100E08A
:100E840000BF7B681B6803F00203002B63D04C4B4C
:100E94005B6803F00C03002B0BD0494B5B6803F039
:100EA4000C03082B1CD1464B5B6803F48033002BE6
:100EB40016D1434B1B6803F00203002B05D07B685B
:100EC4001B69012B01D00123C0E13D4B1B6823F0BA
:100ED400F8027B685B69DB00394913430B603AE035
:100EE4007B681B69002B20D0364B01221A60FFF768
:100EF40001FC386108E0FFF7FDFB02463B69D31AA9
:100F0400022B01D90323A1E12D4B1B6803F002033B
:100F1400002BF0D02A4B1B6823F0F8027B685B6936
:100F2400DB00274913430B6015E0264B00221A60AF
:100F3400FFF7E0FB386108E0FFF7DCFB02463B69A2
:100F4400D31A022B01D9032380E11D4B1B6803F044
:100F54000203002BF0D17B681B6803F00803002B0D
:100F64003AD07B689B69002B19D0174B01221A6079
:100F7400FFF7C0FB386108E0FFF7BCFB02463B69A2
:100F8400D31A022B01D9032360E10D4B5B6A03F0F2
:100F94000203002BF0D0012000F0A6FA1CE00A4B5B
:100FA40000221A60FFF7A6FB38610FE0FFF7A2FBEF
:100FB40002463B69D31A022B08D9032346E100BF3A
:100FC400001002400000424280044242924B5B6A9D
:100FD40003F00203002BE9D17B681B6803F00403D0
:100FE400002B00F0A6800023FB758B4BDB6903F01C
:100FF4008053002B0DD1884BDB69874A43F0805323
:10100400D361854BDB6903F08053BB60BB6801236C
:10101400FB75824B1B6803F48073002B18D17F4B44
:101024001B687E4A43F480731360FFF763FB3861E7
:1010340008E0FFF75FFB02463B69D31A642B01D932
:10104400032303E1754B1B6803F48073002BF0D07A
:101054007B68DB68012B06D16F4B1B6A6E4A43F039
:10106400010313622DE07B68DB68002B0CD16A4B13
:101074001B6A694A23F001031362674B1B6A664AC1
:1010840023F0040313621CE07B68DB68052B0CD19E
:10109400614B1B6A604A43F0040313625E4B1B6A94
:1010A4005D4A43F0010313620BE05B4B1B6A5A4A2F
:1010B40023F001031362584B1B6A574A23F00403BD
:1010C40013627B68DB68002B15D0FFF713FB3861D4
:1010D4000AE0FFF70FFB02463B69D31A41F288325C
:1010E400934201D90323B1E04B4B1B6A03F0020383
:1010F400002BEED014E0FFF7FDFA38610AE0FFF7A9
:10110400F9FA02463B69D31A41F28832934201D973
:1011140003239BE0404B1B6A03F00203002BEED138
:10112400FB7D012B05D13C4BDB693B4A23F080530B
:10113400D3617B68DB69002B00F08780364B5B68EA
:1011440003F00C03082B61D07B68DB69022B46D1CA
:10115400334B00221A60FFF7CDFA386108E0FFF73D
:10116400C9FA02463B69D31A022B01D903236DE065
:10117400294B1B6803F00073002BF0D17B681B6ABA
:10118400B3F5803F08D1244B5B6823F400327B68BD
:101194009B68214913434B601F4B5B6823F4741213
:1011A4007B68196A7B685B6A0B431B4913434B607A
:1011B4001B4B01221A60FFF79DFA386108E0FFF724
:1011C40099FA02463B69D31A022B01D903233DE065
:1011D400114B1B6803F00073002BF0D035E0104B6B
:1011E40000221A60FFF786FA386108E0FFF782FAF6
:1011F40002463B69D31A022B01D9032326E0064B8E
:101204001B6803F00073002BF0D11EE07B68DB69E0
:10121400012B07D1012319E00010024000700040A7
:10122400600042420B4B5B68FB60FB6803F4803256
:101234007B681B6A9A4206D1FB6803F470127B68D0
:101244005B6A9A4201D0012300E000231846183754
:10125400BD4680BD0010024080B584B000AF786008
:1012640039607B68002B01D10123D0E06A4B1B68F5
:1012740003F007033A689A4210D9674B1B6823F0BE
:10128400070265493B6813430B60634B1B6803F01B
:1012940007033A689A4201D00123B8E07B681B68CF
:1012A40003F00203002B20D07B681B6803F00403C7
:1012B400002B05D0594B5B68584A43F4E0635360F4
:1012C4007B681B6803F00803002B05D0534B5B6855
:1012D400524A43F460535360504B5B6823F0F0026E
:1012E4007B689B684D4913434B607B681B6803F024
:1012F4000103002B40D07B685B68012B07D1474B6F
:101304001B6803F40033002B15D101237FE07B68B5
:101314005B68022B07D1414B1B6803F00073002B61
:1013240009D1012373E03D4B1B6803F00203002B3A
:1013340001D101236BE0394B5B6823F003027B6826
:101344005B68364913434B60FFF7D4F9F8600AE051
:10135400FFF7D0F90246FB68D31A41F28832934270
:1013640001D9032353E02D4B5B6803F00C027B6827
:101374005B689B009A42EBD1274B1B6803F0070381
:101384003A689A4210D2244B1B6823F00702224980
:101394003B6813430B60204B1B6803F007033A6858
:1013A4009A4201D0012332E07B681B6803F00403F6
:1013B400002B08D0194B5B6823F4E0627B68DB6880
:1013C400164913434B607B681B6803F00803002B2A
:1013D40009D0124B5B6823F460527B681B69DB0005
:1013E4000E4913434B6000F021F802460B4B5B6837
:1013F4001B0903F00F030A49CB5C22FA03F3094AE1
:101404001360094B1B681846FFF732F9002318468E
:101414001037BD4680BD00BF0020024000100240CE
:10142400A8150008000000200400002090B48AB031
:1014340000AF294B3C1D0FCB84E80F0040F2012381
:101444003B800023FB610023BB6100237B620023FC
:101454007B6100233B62214B5B68FB61FB6903F00A
:101464000C03042B02D0082B03D02BE01C4B3B6253
:101474002BE0FB699B0C03F00F0328333B4413F868
:10148400243C7B61FB6903F48033002B12D0134BA3
:101494005B685B0C03F0010328333B4413F8283CDE
:1014A400BB617B690E4A03FB02F2BB69B2FBF3F337
:1014B4007B6204E07B690B4A02FB03F37B627B6A79
:1014C4003B6202E0064B3B6200BF3B6A184628378A
:1014D400BD4690BC704700BF98150008001002403C
:1014E40000127A0000093D0080B485B000AF786036
:1014F4000A4B1B680A4AA2FB03235B0A7A6802FBB5
:1015040003F3FB6000BFFB685A1EFA60002BF9D19D
:1015140000BF00BF1437BD4680BC704700000020E8
:10152400D34D621003460244934200D1704703F83E
:10153400011BF9E770B500260C4D0D4C641BA4107B
:10154400A64209D100F01AF800260A4D0A4C641B81
:10155400A410A64205D170BD55F8043B9847013646
:10156400EEE755F8043B98470136F2E7B815000852
:10157400B8150008B8150008BC150008F8B500BF78
:10158400F8BC08BC9E467047F8B500BFF8BC08BC60
:041594009E467047B8
:1015980002030405060708090A0B0C0D0E0F1010AC
:1015A800000000000000000001020304060708090B
:0415B800090200081C
:0415BC00E50100083D
:0C15C0000024F4001000000001000000F6
:04000005080005FDED
:00000001FF
