:020000040800F2
:1000000000C00020111000080D0C00080F0C0008A3
:10001000110C0008130C0008150C0008000000006B
:10002000000000000000000000000000170C0008A5
:10003000190C0008000000001B0C00081D0C000833
:1000400059100008591000085910000859100008EC
:100050005910000859100008210C00085910000818
:1000600059100008591000085910000859100008CC
:1000700059100008591000085910000859100008BC
:1000800059100008591000085910000859100008AC
:10009000591000085910000859100008270C0008D2
:1000A000591000085910000859100008591000088C
:1000B000591000082D0C00085910000859100008AC
:1000C000591000085910000859100008591000086C
:1000D00059100008390C0008591000085910000880
:1000E000590C000859100008591000085910000850
:1000F000591000085910000859100008591000083C
:10010000591000085910000859100008591000082B
:10011000591000085910000859100008591000081B
:10012000591000085910000859100008591000080B
:1001300000000000000000000000000000000000BF
:1001400000000000000000000000000000000000AF
:10015000000000000000000000000000000000009F
:10016000000000000000000000000000000000008F
:10017000000000000000000000000000000000007F
:10018000000000000000000000000000000000006F
:10019000000000000000000000000000000000005F
:1001A000000000000000000000000000000000004F
:1001B000000000000000000000000000000000003F
:1001C000000000000000000000000000000000002F
:1001D000000000000000000000000000000000001F
:0401E0005FF8E0F1F3
:1001E40010B5054C237833B9044B13B10448AFF36D
:1001F40000800123237010BD800000200000000057
:100204007C39000808B5034B1BB103490348AFF31D
:10021400008008BD00000000840000207C39000834
:10022400034613F8012B002AFBD1181A0138704732
:1002340010B590B01022002108A802F053F914223E
:10024400002101A802F04EF902244FF48033092260
:10025400CDE90D43CDE9062301224FF4E01306A8AE
:100264000A920C920F9301F0A9F908B172B6FEE755
:100274000F23CDE901344FF480630390CDE90430BA
:10028400214601A801F070FB08B172B6FEE710B078
:1002940010BD00002DE9F04F022401268DB000F0BE
:1002A400FFFEFFF7C5FF1022002108A802F01AF98B
:1002B400924B4FF480719A69914842F020029A61FE
:1002C4009A69904F02F020020392039A9A690025DA
:1002D40042F004029A619A6902F004020492049AB8
:1002E4009A6942F010029A619B69012203F010039B
:1002F4000593059B01F01AF901220421824801F0BB
:1003040015F9824B7E4808A9CDE908630A9401F0E7
:100314001FF820237E480DEB0301CDE908370A9628
:1003240001F016F84FF48073754808A9CDE9083632
:10033400CDE90A5401F00CF84FF40043704808A9C1
:10034400CDE908370A9601F003F804236E4808A99A
:10035400CDE90836CDE90A5400F0FAFF21462A46D1
:10036400062000F0E5FE062000F014FF2146324688
:10037400172000F0DDFE172000F00CFF2246214676
:10038400282000F0D5FE282000F004FF1022294682
:1003940008A802F0A7F840F2CF235E4C5E4A20463C
:1003A400C4E9002342F20F73CDE90655C4E90335CD
:1003B400A560A56101F0D0FC08B172B6FEE74FF468
:1003C4008053204608A9089301F0FCFC08B172B6DA
:1003D400FEE7CDE9060006A9204601F087FD0446A4
:1003E40008B172B6FEE7DFF83491DFF814814C4BA4
:1003F4001E68002EFCD1D9F800304A4D4A4F03F252
:1004040022532A68C9F800303B689A4233D12A68DB
:10041400464B002C2DD14649464802F0D7F82A68AD
:100424003B689A4205D02B68002B0CDB2B68032B0E
:1004340009DC4048FFF7F4FE4FF0FF3382B23D4938
:100444003D4801F031FE2B68012B03DC2B68002BA7
:1004540040F0C980394B1A68002A35D14FF47A70BC
:1004640000F042FE2B68013B2B602A68344B1A6073
:10047400BDE73449D0E72B68012B08DD2B68032B3B
:1004840005DC2A6830492B4802F0A0F8C7E72B683E
:10049400012B02D12A682D49F5E72B68002BBED128
:1004A4003B68A34202DC22462949ECE73B6822462A
:1004B40003EBD373B4EB630F01DB2649E3E70CB121
:1004C4002549E0E72549DEE7012A49D100214046D4
:1004D40019604FF4807101F029F84FF4807140469F
:1004E40001F029F84FF4FA7000F0FEFD40464FF495
:1004F400807101F020F84FF4FA70B1E70010024067
:1005040000080140000021100014014000001110F7
:1005140000100140AC00002000040040080000204E
:100524003C010020000000200400002040050020C1
:100534009439000840010020F4000020600D0020E0
:1005440038010020DF3900082D3A00084C3A000831
:100554006A3A00089B3A0008C73A0008FC3A0008C7
:10056400022A7FF47FAF002204211A605648012238
:1005740000F0DCFF0421544800F0DDFF4FF4FA7072
:1005840000F0B2FD0421504800F0D5FF4FF4FA709A
:1005940000F0AAFDD9F8000001F0ACFF032304F138
:1005A400010A0A34B4FBF3F4484B9B46009301F070
:1005B400CFFF1A2290FBF2FC0CFB12004449009B73
:1005C40001360860B44200F1610003F8010BEDDA72
:1005D40000235C4463703F4800F0E9FF3B685446E5
:1005E40001332B603EE7D5F800A0BAF1010F7FF488
:1005F400FEAE4FF47A7000F077FD2B68DFF8D8B0C8
:10060400013B2B602B68CBF80030344B1A68012A6D
:1006140015D10021404619604FF4807100F086FF27
:100624004FF48071404600F086FF4FF4FA7000F0FA
:100634005BFD4FF48071404600F07DFFD7E6022A4F
:100644007FF4D5AE002204211A601F48524600F000
:100654006DFF04211C4800F06EFF4FF4FA7000F0A7
:1006640043FD0421184800F066FF631CD9F800001C
:10067400009301F03FFF03230A34B4FBF3F4134B5C
:100684009A46019301F064FF1A2290FBF2FC0CFBE2
:1006940012000F49019B01360860B44200F1610069
:1006A40003F8010BEDDA002354446370094800F0A9
:1006B4007EFF3B68009C01332B602B68013B2B6061
:1006C4002B68CBF8003092E600140140400500206E
:1006D40044090020A000002038010020600D002003
:1006E4002DE9F04320280146A3B037D0B0F5004FE0
:1006F40000F03E81012840F0D480834800F010FFD0
:10070400012840F0CE80814B1B68002BC0F2C980C9
:100714007F4B1A68002A40F0CC8018607D4B0EACE9
:1007240003F12806254618685968083303C5B342FF
:100734002C46F7D118680EA92860774811F8013BB8
:10074400002B40F0B2804FF6FF737349734892B2A6
:1007540001F0AAFC724801F0C3F9CAE0714800F044
:10076400DFFE002840F09D80684D6F4B2A686B4C7B
:100774001A604FF4E1336D4EC4E90200C4E900632A
:100784000C232061C4E90530E061204601F05EFCE1
:10079400064608B172B6FEE76549664801F036FFC1
:1007A4006448FFF73DFD4FF0FF3382B261492046B4
:1007B40001F07AFC20460A245F4F01225F4901F0D0
:1007C40040FEDFF87C813E60DFF87891594E224686
:1007D400002C59D04946304601F0F8FE3046FFF768
:1007E4001FFD4FF0FF3382B231464C4801F05CFCF0
:1007F4004FF47A7000F078FC534B013C1A78012ACC
:1008040048D1454B1B78592B40D150493A6049484F
:1008140001F0FCFE4748FFF703FD4FF0FF3382B2BF
:1008240044493E4801F040FC3B68012B3CD14FF465
:100834007A7000F059FC464B464E186801F05AFE97
:100844000024B0461A27DFF8109101F081FE90FBD6
:10085400F7F303FB17000134C9F80000042C00F17E
:10086400610006F8010BF0D1002388F80430062358
:100874003A483B4AC0E9002340F66D53836000F0D8
:100884006FFE50B172B6FEE74146A4E74E2B01D18C
:100894003449BCE7611C9AD1C6E7334B1B6801336A
:1008A4002B6023B0BDE8F083FEE7013200F8013B82
:1008B40044E700221A602D4B0EAA03F128051446C2
:1008C40018685968083303C4AB422246F7D10022A2
:1008D4001B88114823800EAB13F8011B81B94FF616
:1008E400FF730D490D4892B201F0DEFB0C4801F094
:1008F40029F94FF47A7023B0BDE8F04300F0F4BB5B
:10090400013200F8011BE7E7000801400000002065
:100914003C010020EC3B00085E090020F4000020AC
:10092400AC000020001001403801002000380140D4
:100934002B3B0008400100209C00002049090020B6
:10094400963B0008913B000848090020B33B00088F
:10095400080000204005002044090020A0000020D9
:1009640000300040C53B000804000020183C00088B
:10097400504800F0D5FD002893D14F4B1B68002B45
:100984008FDB01224D4B1A6004AA15464C4B03F130
:100994002006144618685968083303C4B342224633
:1009A400F7D118681B7920602371464B0027019307
:1009B400454B0A219A8818689B79ADF80C2001AA46
:1009C4008DF80E301346DFF804910290D9F80040F8
:1009D400002C41D122463B4402A9BA4203F1FF3321
:1009E40044D13B4E2B4631460025B04613F8012B2B
:1009F400002A40D13A4602A908EB050001F064FD43
:100A0400D9F80030EA19012B3DDD324D0EAB2868D0
:100A1400696803C3A8680EA9186011F8013B73BB89
:100A24004FF6FF732A4992B22B4801F03DFB4D2249
:100A34002A490EA801F048FD0EAB13F8012B002A39
:100A440033D14FF6FF73A2B22149234801F02CFBA6
:100A54000122234B1A607DE694FBF1F001FB104464
:100A6400303402F8014B01370446B1E718780132FB
:100A740001F8010BB1E7013501F8012BB6E708F8DD
:100A840002300132C9E7174D0EAB2868696803C309
:100A9400A97A2889997018800EA911F8013B002BB6
:100AA400BED008F802300132F7E7013406F8012B12
:100AB400C3E700BF00080140000000203C01002003
:100AC400423C00086E657700673C00080400002083
:100AD4005E0900206E3C0008F40000207A3C000807
:100AE40040090020C73C0008014800F060BD00BF79
:100AF400A0000020104B07B59A69052042F00102BE
:100B04009A619A6902F001020092009ADA6942F04D
:100B14008052DA61DB6903F080530193019B00F09A
:100B2400F5FA064A536823F0E06343F00073536018
:100B340003B05DF804FB00BF001002400000014058
:100B440007B50E4B02689A4215D103F50333DA69EF
:100B54001D2042F00202DA610022DB69114603F033
:100B640002030193019B00F0E3FA1D2003B05DF83A
:100B740004EB00F00FBB03B05DF804FB000400407D
:100B840010B5044686B01022002102A801F0AAFC88
:100B940022681B4B9A4230D103F558439A6919488D
:100BA40042F480429A619A6902A902F48042009256
:100BB400009A9A69002442F004029A619B694FF4F6
:100BC400007203F004030193019B0223CDE9022385
:100BD4000323059300F0BCFB4FF48063094802A98A
:100BE400CDE90234049400F0B3FB25202246012110
:100BF40000F09EFA252000F0CDFA06B010BD00BF2B
:100C04000038014000080140FEE7FEE7FEE7FEE78A
:100C1400FEE770477047704700F054BA012000F0B7
:100C240093BC202000F090BC014800F0A7BF00BF97
:100C3400AC00002010B5054C204601F0E1FA204636
:100C4400BDE810400122024901F0FBBBF400002082
:100C5400490900204FF4004000F076BC2DE9F0472C
:100C6400A74BADF5876D1B68002B79DD0268A54B9A
:100C74009A4275D1A44BA54E93F800903278B9F1FD
:100C84000A0FA34C40F037812178A24BA24F197070
:100C9400531E3B7021464FF6FF73A04801F004FA3F
:100CA4009F4B1B68012B59D19E4B00251A6897F85E
:100CB4000080012A79D1A24622469B4F1D603D60E7
:100CC400A84551DC994B0EAA03F1180C1546186877
:100CD4005968083303C563452A46F7D118689988CB
:100CE4009B792860A980AB710025914B88491868CD
:100CF4009A889B790190ADF8082001A842468DF8A6
:100D04000A3001F0E1FB0EAB13F8012B002A34D1B9
:100D1400424601A9601901F0D7FB3B6808EB0502C4
:100D2400012B31DD834D03AB2868696803C3A868D0
:100D340003A9186011F8013B1BBB4FF6FF737449FC
:100D440092B2764801F0B0F93B687B4A01337B48A4
:100D5400136000F0F7FE0022794B1A600023337011
:100D64000DF5876DBDE8F087396812F8013B013550
:100D740009FB0133303B3B60A2E701350AF8012B44
:100D8400C2E7A3540132D5E76E4D03AB2868696806
:100D940003C32889A97A1880997003AB13F8011B3F
:100DA4000029CAD0A1540132F8E74FF47F722946D2
:100DB4000FA80E9501F096FBAA4623460DF13809BB
:100DC400A8452DDC52464946514887F800A001F059
:100DD4007BFB5D4A0021104610F8013B53BB5FFAD0
:100DE4008AFA514560D0594B03AA03F128071546E6
:100DF40018685968083303C5BB422A46F7D1002254
:100E04001B782B7003AB13F8011BA9B94FF6FF73C2
:100E140092B23F49414801F047F901224C4B9CE70B
:100E240013F8012B0135202A1CBF09F80A200AF106
:100E3400010AC5E70131CFE7013204F8011BE2E7FB
:100E440005780133A5F16107192F9CBF203D05707A
:100E54000D780130A5F16107192F9CBF203D0D705D
:100E640001315345ECD10023294953451FD1394B56
:100E740003AA03F11007154618685968083303C517
:100E8400BB422A46F7D10022186803AB286013F846
:100E9400011B61BB4FF6FF7392B21D491F4801F05D
:100EA40003F902222A4B58E719482749D9E711F8D0
:100EB400015B12F8010B854217D0244B03AA03F1FE
:100EC4002807154618685968083303C5BB422A46E3
:100ED400F7D100221B782B7003AB13F8011B0029F8
:100EE40094D0013204F8011BF7E70133BDE7013266
:100EF40004F8011BCBE704F80290013232702FE7AB
:100F04003801002000380140490900205D09002013
:100F14005E0900200C00002048090020F400002095
:100F24009C0000204009002004000020D23C00085E
:100F3400673C00086E3C000800000020AC00002064
:100F44003C010020C73C000840050020F13C00089B
:100F5400600D00201A3D00080120704708B501F01B
:100F640089FA162303604FF0FF3008BD08B501F07D
:100F740081FA16230360FEE770B50D4614460E464B
:100F8400731B9C4201DC204670BDAFF3008006F861
:100F9400010BF5E770B50D4614460E46731B9C42D3
:100FA40001DC204670BD16F8010BAFF30080F5E7B5
:100FB4004FF0FF3070474FF4005300204B607047F0
:100FC40001207047002070470B4A0346116810B592
:100FD40009B90A491160106809490A4C0344091BFC
:100FE4008B4206D901F046FA0C2303604FF0FF3020
:100FF40010BD1360FCE700BF640D0020800D0020CD
:1010040000C0002000040000704700000C480D4997
:101014000D4A002302E0D458C4500433C4188C424F
:10102400F9D30A4A0A4C002301E013600432A242B5
:10103400FBD3FFF7E9FF01F023FAFFF72BF9704721
:101044000000002080000020A83E0008800000204E
:101054007C0D0020FEE7000038B50E4B05461878DD
:101064004FF47A73B3FBF0F30B4A1068B0FBF3F060
:1010740000F09EF8044658B90F2D09D802462946B7
:101084004FF0FF3000F054F82046044B1D6038BD8B
:101094000120FCE7140000201000002018000020AC
:1010A400074A08B51368032043F01003136000F0E7
:1010B4002DF80020FFF7D0FFFFF71CFD002008BD2E
:1010C40000200240034A044B11681B780B44136050
:1010D400704700BF680D002014000020014B186801
:1010E400704700BF680D002038B50446FFF7F6FFCF
:1010F4000546631C1EBF044B1B78E418FFF7EEFF84
:10110400431BA342FAD338BD14000020074903024D
:10111400CA6803F4E06322F4E0621204120C13437D
:1011240043F0BF6343F40033CB60704700ED00E04D
:10113400164B30B5DC68C4F30224C4F10703251D43
:10114400042B28BF0423062D4FF0FF3598BF00243D
:1011540005FA03F388BF033C21EA0303A34005FA1D
:1011640004F422EA0402002843EA0203ACBF00F1BB
:101174006040074A4FEA0313DBB2ABBF00F561409E
:1011840000F00F0080F80033135430BD00ED00E090
:1011940014ED00E0002808DB0123420900F01F00E1
:1011A40003FA00F0014B43F82200704700E100E02D
:1011B4000138B0F1807F0BD24FF0E023F021054AD3
:1011C400586182F823100020072298611A61704741
:1011D4000120704700ED00E090F82130022B06D08A
:1011E40004238363002380F82030012070470368C0
:1011F4001A6822F00E021A601A6822F001021A60BC
:101204000123D0E90F218B4053604FF48073038492
:101214000020704708B590F82130022B03D0042336
:101224008363012008BD036843491A6822F00E0253
:101234001A601A6822F001021A60404A934241D9A6
:101244008B4238D014318B4237D014318B4236D094
:1012540014318B4223D014318B4223D014318B426E
:1012640023D0934224D002F56272934223D01432E5
:10127400934222D01432934221D01432934214BFA9
:101284004FF480334FF480532D4A53604FF48073EE
:101294000384436B002B4DD098470020C2E74FF4E2
:1012A4008053F1E74FF48033EEE74FF48013EBE71C
:1012B4004FF08073E8E70123E6E71023E4E74FF4F7
:1012C4008073E1E78B422ED01E498B422DD014311E
:1012D4008B422CD014318B4219D014318B4219D04B
:1012E40014318B4219D093421AD0174A93421AD020
:1012F4001432934219D01432934218D014329342C8
:1013040014BF4FF480334FF48053104ABDE74FF4B9
:101314008053FAE74FF48033F7E74FF48013F4E790
:101324004FF08073F1E70123EFE71023EDE74FF46B
:101334008073EAE7184675E708000240800002401F
:10134400000402401C000240080402400000024065
:101354002DE9F74F002216466A4F6B4BDFF8ACC1FC
:10136400DFF8ACE10C6834FA06F502D103B0BDE84D
:10137400F08F4FF0010808FA06F804EA080538EA85
:10138400040440F081804C68032C07D8013C022CF3
:1013940000F28C80DFE804F09DA2A800122C00F07B
:1013A400A08073D8112C00F09680FF2D98BF824640
:1013B4004FF00F0988BF00F1040A4FEA8604DAF8F7
:1013C400008088BF203C09FA04FB28EA0B0802FAD3
:1013D40004F448EA0404CAF80040D1F804A01AF05E
:1013E400805F51D0BC6926F0030844F00104BC615D
:1013F400BC6908F1804804F00104019408F58038C0
:1014040006F0030B019C4FEA8B0BD8F8084009FA4D
:101414000BF924EA09093F4CA04269D004F5806421
:10142400A04267D004F58064A04265D004F58064CE
:10143400A04263D004F58064A04261D060450CBF33
:101444000524062404FA0BF444EA0904C8F8084005
:101454001C681AF4803F14BF2C43AC431C605C68C6
:101464001AF4003F14BF2C43AC435C609C681AF42C
:10147400801F14BF2C43AC439C60DC681AF4001F2B
:1014840014BF2C43AC43DC6001366BE774450DD0CC
:1014940018D8DFF884904C4508D009F570294C45DC
:1014A40004D0A9F580194C457FF47FAF8A68EAB16E
:1014B400012A08BFC0F810804FF0080218BFC0F816
:1014C400148072E7DFF854904C45EFD009F5803969
:1014D400E9E7CA6869E7CA68043266E7CA68083295
:1014E40063E7CA680C3260E700225EE704225CE727
:1014F4000024A7E70124A5E70224A3E70324A1E726
:1015040004249FE70010024000040140001C014035
:1015140000002210000801400000121000003110E9
:101524008368194214BF0120002070470AB1016189
:1015340070470904FBE7C36801EA030221EA0301D7
:1015440041EA024101617047044A08B55169014208
:1015540002D05061FFF7C4F808BD00BF0004014089
:1015640038B5044608B34CF6CC4203681A6045F219
:1015740055521A6042685A6082689A60FFF7AEFD5D
:1015840005462268D06810F0030003D14AF6AA2366
:10159400136038BDFFF7A2FD401B2728F1D923684B
:1015A400DB689B07EDD00320F3E70120F1E74AF65F
:1015B400AA22036800201A60704700002DE9F34155
:1015C400054638B30368DB0710D42B689F075ED445
:1015D4002B68190700F195802B685A0700F1C18028
:1015E400E869002840F02C81002029E0904C6368D1
:1015F40003F00C03042B07D0636803F00C03082BDF
:101604000AD16368DE0307D523689C03DDD56B68C4
:10161400002BDAD1012013E06B68B3F5803F12D1BF
:10162400236843F480332360FFF758FD064623689C
:101634009803CAD4FFF752FD801B6428F7D903200E
:1016440002B0BDE8F0819BB9236823F480332360A2
:10165400236823F480232360FFF740FD06462368B4
:101664009903B2D5FFF73AFD801B6428F7D9E6E762
:10167400B3F5A02F236803D143F480232360CFE77D
:1016840023F480332360236823F48023CBE7684C5E
:10169400636813F00C0F07D0636803F00C03082B86
:1016A40010D16368DA030DD423689B0702D52B6934
:1016B400012BAFD123686A6923F0F80343EAC2031C
:1016C400236085E72A695B4B6AB101221A60FFF740
:1016D40005FD064623689F07ECD4FFF7FFFC801B3B
:1016E4000228F7D9ABE71A60FFF7F8FC064623682F
:1016F40098077FF56DAFFFF7F1FC801B0228F6D940
:101704009DE7AA694A4E4B4BE2B10122C3F88024FB
:10171400FFF7E4FC0446736A9B070DD54FF4FA52B5
:10172400454B1B68B3FBF2F3019300BF019B5A1EA8
:101734000192002BF9D14FE7FFF7D0FC001B0228E0
:10174400E9D97CE7C3F88024FFF7C8FC0446736A30
:101754009F077FF541AFFFF7C1FC001B0228F6D9B4
:101764006DE7334CE369D80024D40127E36943F0DF
:101774008053E361E36903F080530093009B2F4E91
:101784003368D90518D5EB68012B26D1236A43F0B9
:1017940001032362FFF7A2FC41F288380646236A5C
:1017A4009B073FD5002F3FF41BAFE36923F0805321
:1017B400E36115E70027E2E7336843F4807333609D
:1017C400FFF78CFC80463368DA05DCD4FFF786FC2F
:1017D400A0EB08006428F6D931E7ABB9236A41F2DB
:1017E400883823F001032362236A23F0040323626D
:1017F400FFF774FC0646236A9807D3D5FFF76EFCFF
:10180400801B4045F7D91AE7052B236A03D143F01F
:1018140004032362BAE723F001032362236A23F05B
:101824000403B6E7FFF75AFC801B4045B7D906E727
:1018340000100240000042421000002000700040EE
:101844002A4C636803F00C03082B3ED00022284B7B
:1018540002281A662CD1FFF741FC06462368990139
:1018640020D42B6AB3F5803F05D16268A96822F4BD
:1018740000320A436260696A62680B4322F474129C
:101884001343012263601A4B1A66FFF727FC0546CF
:1018940023689A013FF5A8AEFFF720FC401B0228FD
:1018A400F6D9CCE6FFF71AFC801B0228D6D9C6E687
:1018B400FFF714FC054623689B017FF595AEFFF7FF
:1018C4000DFC401B0228F6D9B9E601283FF4B8AE56
:1018D40063682A6A03F4803191427FF49BAE6A6A9A
:1018E40003F4701393423FF47FAE93E6001002407A
:1018F4000000424230B5184B87B002AC03F110052A
:10190400224618685968083303C2AB421446F7D11B
:1019140040F201231149ADF804304B6803F00C0286
:10192400082A17D1C3F3834218326A44DB0312F83E
:10193400100C0CD54B680A4AC3F340435043183388
:101944006B4413F8143CB0FBF3F007B030BD054B07
:101954005843FAE70248F8E7463D00080010024001
:1019640000127A0000093D002DE9F0410D460446BD
:1019740010B90120BDE8F081444A136803F007035D
:101984008B4228D321688E0730D4CA0743D43F4AF8
:10199400136803F00703AB4265D822683C4D12F08C
:1019A400040F6CD1130706D56B68226923F46053C6
:1019B40043EAC2036B60FFF79DFF6B68354AC3F3CC
:1019C4000313D35CD840344B1860344B1868FFF7CA
:1019D40043FB0020CEE7136823F007030B43136097
:1019E400136803F007038B42C3D1CBE7284B11F0F4
:1019F400040F1EBF5A6842F4E0625A60080742BFEF
:101A04005A6842F460525A605A68A06822F0F002A0
:101A140002435A60B9E762681D4E012A33681AD13D
:101A240013F4003FA5D0736841F2883823F0030310
:101A340013437360FFF752FB07467368626803F051
:101A44000C03B3EB820FA2D0FFF748FBC01B404549
:101A5400F3D903208EE7022A02D113F0007FE1E7D5
:101A640013F0020FDEE7136823F007032B43136020
:101A7400136803F00703AB427FF47BAF8DE76B6819
:101A8400E16823F4E0630B436B608BE700200240C2
:101A9400001002402E3D0008100000201800002015
:101AA400044B054A5B68C3F30223D35C034A106802
:101AB400D8407047001002403E3D0008100000204E
:101AC400044B054A5B68C3F3C223D35C034A106822
:101AD400D8407047001002403E3D0008100000202E
:101AE40090F83D30012B28D1022380F83D30036863
:101AF400DA6842F00102DA60114A934212D002F528
:101B0400006293420ED0B3F1804F0BD0A2F598320D
:101B1400934207D002F58062934203D002F58062BB
:101B2400934204D19A6802F00702062A03D01A6885
:101B340042F001021A60002070470120704700BF84
:101B4400002C01400368DA6822F00102DA6041F2F5
:101B54001112196A114208D140F24442196A114221
:101B640002BF1A6822F001021A60012380F83D3096
:101B7400002070477047704770477047036810B57E
:101B84001A69044691070ED5DA6892070BD56FF0EF
:101B940002021A61012202779B699B0777D0FFF743
:101BA400EAFF0023237723681A69500710D5DA68FF
:101BB40051070DD56FF004021A61022222779B6946
:101BC400204613F4407F68D0FFF7D5FF0023237726
:101BD40023681A6912070FD5DA6810070CD56FF05D
:101BE40008021A6104222277DB69204699075AD039
:101BF400FFF7C1FF0023237723681A69D20610D5A3
:101C0400DA68D0060DD56FF010021A610822227727
:101C1400DB69204613F4407F4BD0FFF7ACFF002371
:101C2400237723681A69D10708D5DA68D20705D55E
:101C34006FF0010220461A61FEF756FF23681A6905
:101C4400100608D5DA68110605D56FF08002204623
:101C54001A6100F082F923681A69520608D5DA6815
:101C6400500605D56FF0400220461A61FFF785FF44
:101C740023681A69910622D5DA6892061FD56FF097
:101C840020022046BDE810401A6100F065B9FFF754
:101C940071FF2046FFF770FF83E7FFF76BFF2046D5
:101CA400FFF76AFF92E7FFF765FF2046FFF764FF3F
:101CB400A0E7FFF75FFF2046FFF75EFFAFE710BD29
:101CC400244A0368904212D002F5006290420ED07A
:101CD400B0F1804F0BD0A2F59832904207D002F5B4
:101CE4008062904203D002F5806290421DD14A681E
:101CF40023F070031343174A904212D002F5006296
:101D040090420ED0B0F1804F0BD0A2F598329042A1
:101D140007D002F58062904203D002F580629042BF
:101D240003D1CA6823F4407313434A6923F0800340
:101D3400134303608B68C3620B688362054B98424C
:101D440003D003F50063984201D10B6903630123B7
:101D540043617047002C014010B5044630B390F83D
:101D64003D3003F0FF021BB980F83C20FEF7E8FE8B
:101D74000223206884F83D30211DFFF7A1FF0123D1
:101D8400002084F8463084F83E3084F83F3084F8EC
:101D9400403084F8413084F8423084F8433084F889
:101DA400443084F8453084F83D3010BD0120FCE710
:101DB40010B584680A4324F47F4442EA0322224390
:101DC400826010BD70B590F83C300446012B4FF092
:101DD400020027D0012384F83D00206884F83C30B9
:101DE400836823F47F4323F0770383600B68602BBD
:101DF4004DD032D8402B62D015D8202B03D009D82F
:101E040033F0100208D1826822F07002134343F0C9
:101E1400070320E0302BF6D00123002084F83D3066
:101E240084F83C0070BD502BF6D14A68CE68016A34
:101E3400056A21F00A0125F00105056283690A4358
:101E440023F0F00343EA061383610262836823F0FC
:101E5400700343F057038360DEE7702B0CD0B3F5B7
:101E6400005FD9D1CB68D1E90121FFF7A1FF226836
:101E7400936843F4804308E0CB68D1E90121FFF77C
:101E840097FF2268936843F077039360C4E74D6833
:101E9400CE68016A21F0100101628269036A22F4AA
:101EA400704223F0A00343EA051342EA063282613A
:101EB4000362836823F0700343F06703CBE74A6847
:101EC400CE68016A056A21F00A0125F00105056260
:101ED40083690A4323F0F00343EA06138361026231
:101EE400836823F0700343F04703B4E730B590F8F8
:101EF4003C300246012B4FF002002AD0136882F8CE
:101F04003D005C680D6824F070042C4398685C60A4
:101F1400104CA34212D004F50064A3420ED0B3F1D6
:101F2400804F0BD0A4F59834A34207D004F5806405
:101F3400A34203D004F58064A34204D1496820F08D
:101F44008000014399600123002082F83D3082F82B
:101F54003C0030BD002C0140704770470368DA68CC
:101F640022F49072DA605A6922F001025A61026B1B
:101F7400012A02BFDA6822F01002DA60202380F816
:101F84003E3000230363704710B504460368C168FC
:101F94001A6922F440520A431A6182680069D968B6
:101FA4000243606921F4B05121F00C0102430A4359
:101FB400DA605A69A16922F440720A435A610E4AEE
:101FC400934215D1FFF77CFD1923434362682068CF
:101FD4009200B3FBF2F36422B3FBF2F102FB113380
:101FE4001B013233B3FBF2F303EB0113836010BD27
:101FF400FFF756FDE8E700BF00380140F8B5044696
:102004000E4617461D462268136836EA030301D1BB
:10201400002014E06B1CF7D095B923680320DA681C
:1020240022F4D072DA605A6922F001025A61202344
:1020340084F83D3084F83E30002384F83C30F8BD09
:10204400FFF74CF8C01B8542DDD2E6E710B5044625
:1020540040B390F83D3003F0FF021BB980F83C20F8
:10206400FEF78EFD2423226884F83D30D368204691
:1020740023F40053D360FFF787FF236800201A6915
:1020840022F490421A615A6922F02A025A61DA68EB
:1020940042F40052DA602023206484F83D3084F84E
:1020A4003E3010BD0120FCE72DE9F843994690F835
:1020B4003D300446202B0E46174648D1002944D013
:1020C400002A42D090F83C30012B40D00123002557
:1020D40080F83C302123056480F83D30FEF7FEFF94
:1020E400A3688046B3F5805FA784E78403D123699E
:1020F4000BB935461E46002384F83C30E38C9BB272
:1021040053B94B46424640212046FFF777FF50B96A
:10211400202384F83D3007E04B4642468021204688
:10212400FFF76CFF10B10320BDE8F88322684EB9B5
:1021340035F8023BC3F308035360E18C013989B2DB
:10214400E184DBE716F8013BF6E70120ECE7022027
:10215400EAE77047704708B50023406AC385C38423
:10216400FFF7F8FF08BD704707B58168836AB1F5CA
:10217400805F026834D10169002934D15268C2F306
:10218400080223F8022BC28D8362013A92B2C285FF
:102194001ABB0368D96821F02001D960D96821F4F9
:1021A4008071D960596921F001015961202180F8B9
:1021B4003E10016B012920D10263D96821F010017E
:1021C400D9601968C90605D501921A6801925B683D
:1021D4000193019B818DFFF7C6FF03B05DF804FBFB
:1021E40039B9016929B95268D2B21A70836A0133C4
:1021F400C9E7526802F07F02F7E7FEF72FFDECE72C
:10220400036837B51A68044612F00F0FD9685D6980
:102214000CD1950667D58D0665D590F83E30222BF6
:102224005BD103B0BDE83040FFF79EBF05F001006D
:1022340001F49075054356D0D50705D5CB0542BFAB
:10224400236C43F001032364550704D518B1236CB0
:1022540043F002032364930704D518B1236C43F0BD
:1022640004032364150707D501F0200303431EBFAD
:10227400236C43F008032364236C73B3920608D5DC
:102284008B0606D594F83E30222B02D12046FFF768
:102294006BFF236820465B69256C03F0400305F05F
:1022A40008051D431BD0FFF759FE23685A695506DC
:1022B40010D55A69A06B22F040025A6150B1534BB9
:1022C4004363FEF7A7FF40B1A06B436B03B0BDE8C7
:1022D400304018472046FFF73DFF03B030BDFFF7FD
:1022E40039FF2564F9E7206B012855D1D00653D571
:1022F400CD0651D5002101911A6801925A680192C4
:10230400019A5A6912F040022AD0A06B02685268FE
:1023140092B2002AE1D0A58D9542DED9E285826988
:10232400202A15D0DA6822F48072DA605A6922F021
:1023340001025A615A6922F040025A61202284F84B
:102344003E202163DA6822F01002DA60FEF744FFCF
:10235400E38DA18DC91A89B22046FFF704FFBCE7BB
:10236400E18D88B2E18D89B20029B6D0A18D091A18
:1023740089B20029B1D0D86820F49070D860586927
:1023840020F001005861202084F83E002263DA68BE
:1023940022F01002DA60DFE7100626D50D0624D5F8
:1023A40094F83D20212A98D1A168226AB1F5805F72
:1023B40016D12169A1B932F8021BC1F30801596091
:1023C4002262E28C013A92B2E284002A85D1DA6870
:1023D40022F08002DA60DA6842F04002DA607CE7D8
:1023E400511C216212785A60EBE750067FF575AFF5
:1023F4004A067FF572AFDA68204622F04002DA60BE
:10240400202384F83D30FFF7A4FE66E75B21000833
:10241400C28582858162034622220020186483F8E3
:102424003C0083F83E201B68DA6842F48072DA606C
:102434005A6942F001025A61DA6842F02002DA6015
:10244400704770B490F83E60202E10D161B15AB13B
:1024540090F83C40012C0AD0012480F83C40002430
:10246400046370BCFFF7D4BF012070BC7047022026
:10247400FBE70000014B1868704700BF1C000020F8
:1024840070B500260C4D0D4C641BA410A64209D156
:1024940001F072FA00260A4D0A4C641BA410A642ED
:1024A40005D170BD55F8043B98470136EEE755F861
:1024B400043B98470136F2E7A03E0008A03E00081E
:1024C400A03E0008A43E00080A44914200F1FF33F4
:1024D40000D1704710B511F8014B914203F8014F38
:1024E400F9D110BD03460244934200D1704703F86A
:1024F400011BF9E738B5104B04461D68AB6BB3B943
:10250400182000F0BBF80246A86320B942210B4B07
:102514000B4800F083F80B490B4BC0E900130B4B3D
:10252400002183600B2383810120C2E9040100227E
:10253400AB6B1C615A6138BD1C0000205C3D000877
:10254400733D00080E33CDAB34126DE6ECDE0500AE
:10255400164B10B51C68A36BB3B9182000F08EF8A5
:102564000246A06320B94E21114B124800F056F8E0
:102574001149124BC0E90013114B002183600B2356
:1025840083810120C2E90401A46B0E4A20696369B6
:1025940042430D4901FB0322A0FB0101431C42EB12
:1025A4000100C4E9043020F0004010BD1C000020EC
:1025B4005C3D0008733D00080E33CDAB34126DE66C
:1025C400ECDE05002DF451582D7F954C0EB46FF0C0
:1025D400004100B59CB01DAB029006900791049198
:1025E4000848094953F8042B0591006802A901938E
:1025F40000F084F90022029B1A701CB05DF804EB11
:1026040003B070471C0000200802FFFF034611F8C6
:10261400012B03F8012B002AF9D170471FB514468A
:102624001A46094B05461B68D8684CB1074BCDE9DF
:10263400013400912B46064900F00EF800F01CFE10
:10264400044B1C46F3E700BF1C000020CE3D0008ED
:10265400DB3D0008C43B00080EB403B5014603ABE0
:10266400054853F8042B0068019300F06FFA02B098
:102674005DF804EB03B070471C000020024B0146D8
:10268400186800F06BB800BF1C00002038B5054680
:10269400002940D051F8043C0C1F002BB8BFE418AB
:1026A40001F036F81C4A136833B963601460284695
:1026B400BDE8384001F032B8A34208D92068211897
:1026C4008B4201BF19685B6809182160EDE71A465F
:1026D4005B680BB1A342FAD911685018A0420BD120
:1026E40020680144501883421160E0D118685B6887
:1026F400014411605360DAE702D90C232B60D6E75A
:10270400206821188B4201BF19685B680918216091
:1027140063605460CBE738BD6C0D002070B50E4E7D
:102724000C463168054611B900F0D6FC30602146EC
:10273400284600F0D1FC431C0AD0C41C24F0030436
:10274400A04207D0211A284600F0C6FC013001D16E
:102754004FF0FF34204670BD700D00202DE9F0418C
:10276400CD1C25F0030508350C2D38BF0C25002D94
:10277400074601DBA94205D90C2300263B603046FD
:10278400BDE8F0812E4E00F0C3FF33681C4634BB15
:1027940029463846FFF7C2FF431C04464DD134682E
:1027A4002646002E40D123683146384604EB030800
:1027B40000F092FC80453AD1216803356D1A25F06A
:1027C400030508350C2D38BF0C2538462946FFF77C
:1027D400A5FF01302BD023682B4423600EE0226830
:1027E400521B1ED40B2A16D96119A342256018BFA7
:1027F4005960636808BF316062514B60384604F128
:102804000B0600F08BFF26F00706231DF21AB6D044
:102814009B1BA350B3E76268A3420CBF32605A60AB
:10282400ECE723466468B2E734467668B9E70C23DC
:1028340038463B6000F072FFA1E72560DEE700BF89
:102844006C0D00202DE9F0478E6882469E420C46AE
:1028540090461F4638D88A8912F4906F32D0256882
:1028640009690133A5EB010965694B4405EB45058D
:1028740005EBD5756D109D4238BF1D46530531D506
:102884002946FFF76BFF064650B90C234FF0FF3083
:10289400CAF80030A38943F04003A381BDE8F08760
:1028A4004A462169FFF710FEA38923F4906343F09D
:1028B4008003A38126614E4426603E466561A5EBF4
:1028C4000905A560BE4200D93E463246414620680D
:1028D40000F004FFA36800209B1BA360236833441B
:1028E4002360DBE72A4600F01FFF06460028E1D1FB
:1028F40050462169FFF7CAFEC7E700002DE9F04FF3
:1029040098468B8907461B060D4614469DB00ED586
:102914000B6963B94021FFF721FF2860286120B9C2
:102924000C233B604FF0FF30D1E040236B61002368
:10293400099320238DF8293030234FF00109CDF875
:102944000C80DFF8A4818DF82A3023469A4613F8C8
:10295400012B0AB1252AF9D1BAEB040B0BD05B4643
:10296400224629463846FFF76DFF013000F0AA8061
:10297400099A5A4409929AF80030002B00F0A28078
:1029840000234FF0FF32CDE905230AF1010A049335
:1029940007938DF853301A935446052214F8011BFB
:1029A400514800F08DFE049AD8B9D00644BF2023C4
:1029B4008DF85330110744BF2B238DF853309AF808
:1029C40000302A2B15D0544600204FF00A0C079AE9
:1029D400214611F8013B303B092B4ED9B0B1079287
:1029E40014E0A0EB080309FA03F31343A24604938B
:1029F400D2E7039B191D1B680391002BBBBF5B42ED
:102A040042F0020207930793B8BF049223782E2B57
:102A14000CD163782A2B35D1039B02341A1D1B6811
:102A24000392002BB8BF4FF0FF330593DFF8BCA02F
:102A340003225046217800F043FE40B14023A0EB2E
:102A44000A0003FA00F0049B01340343049314F8CE
:102A5400011B062226488DF8281000F031FE0028BC
:102A640038D0244B1BBB039B073323F007030833E5
:102A74000393099B3344099367E70C4601200CFB3D
:102A84000232A5E700234FF00A0C194601340593DE
:102A9400204610F8012B303A092A03D9002BC5D05F
:102AA4000591C3E7044601230CFB0121F0E703ABC6
:102AB40000932A463846104B04A9AFF30080421C09
:102AC4000646D6D1AB895B063FF52CAF09981DB0FD
:102AD400BDE8F08F03AB00932A463846064B04A9A1
:102AE40000F0D4F9EBE700BF0A3E0008103E0008EE
:102AF400143E00080000000049280008936810B440
:102B0400013B002B936007DA9469A34201DB0A2995
:102B140002D110BC00F0F0BA1368581C1060197090
:102B2400084610BC7047F8B506460F461446D5183B
:102B3400AC4201D1002007E03A46304614F8011BAC
:102B4400FFF7DCFF431CF3D1F8BD00002DE9F04F83
:102B54000D461446984606469DB018B183690BB9D4
:102B640000F0A8FC894B9D421BD175686B6ED90798
:102B740005D4AB899A0502D4A86D00F039FDAB8960
:102B84001B0701D52B69EBB92946304600F006FB3B
:102B9400C0B16B6EDC070ED54FF0FF301DB0BDE841
:102BA400F08F7B4B9D4201D1B568DFE7794B9D42A5
:102BB40008BFF568DAE7AB899805EDD4A86D00F095
:102BC40018FDE9E70023099320238DF829303023E9
:102BD4004FF00109CDF80C80DFF8BC818DF82A3064
:102BE40023469A4613F8012B0AB1252AF9D1BAEBE8
:102BF400040B0BD05B46224629463046FFF793FF71
:102C0400013000F0AA80099A5A4409929AF80030D7
:102C1400002B00F0A28000234FF0FF32CDE9052302
:102C24000AF1010A049307938DF853301A9354461A
:102C3400052214F8011B584800F042FD049AD8B943
:102C4400D10644BF20238DF85330130744BF2B23F0
:102C54008DF853309AF800302A2B15D054460020B2
:102C64004FF00A0C079A214611F8013B303B092B1F
:102C74004ED9B0B1079214E0A0EB080309FA03F3AC
:102C84001343A2460493D2E7039B191D1B680391C7
:102C9400002BBBBF5B4242F0020207930793B8BF0D
:102CA400049223782E2B0CD163782A2B35D1039BE5
:102CB40002341A1D1B680392002BB8BF4FF0FF3378
:102CC4000593DFF8D8A003225046217800F0F8FCE1
:102CD40040B14023A0EB0A0003FA00F0049B013446
:102CE4000343049314F8011B06222D488DF8281081
:102CF40000F0E6FC00283FD02A4B1BBB039B0733A4
:102D040023F0070308330393099B3B44099367E7C4
:102D14000C4601200CFB0232A5E700234FF00A0CFD
:102D2400194601340593204610F8012B303A092A3C
:102D340003D9002BC5D00591C3E7044601230CFB3E
:102D44000121F0E703AB00932A463046164B04A951
:102D5400AFF300800746781CD6D16B6ED90705D433
:102D6400AB899A0502D4A86D00F043FCAB895B06DD
:102D74003FF512AF099811E703AB00932A4630469A
:102D8400094B04A900F082F8E4E700BF603E0008A4
:102D9400803E0008403E00080A3E0008103E00083D
:102DA400143E0008000000002B2B00082DE9F0471A
:102DB400164699468A680B6907469342B8BF13467C
:102DC400336091F843200C46DDF820800AB10133CA
:102DD40033602368990642BF336802333360256841
:102DE40015F0060506D104F1190AE36832689B1A46
:102DF400AB4228DC94F84320131E226818BF012339
:102E040092062DD44946384604F14302C0470130A6
:102E140020D02368E56803F00603042B18BF0025BF
:102E240032684FF00006A36808BFAD1A226908BFD4
:102E340025EAE5759342C4BF9B1AED181A34B542CE
:102E44001AD1002008E00123524649463846C047BB
:102E5400013003D14FF0FF30BDE8F0870135C4E7FE
:102E64003020E11881F843005A1C94F8451022449C
:102E7400023382F84310C5E7012322464946384607
:102E8400C0470130E6D00136D9E700002DE9FF47FD
:102E94000F7E9146782F80460C469A460C9D01F190
:102EA400430207D8622F0AD8002F00F0D980582F88
:102EB40000F0A48004F1420584F842703AE0A7F1DE
:102EC4006303152BF6D801A151F823F0292F00082C
:102ED4003D2F0008B92E0008B92E0008B92E0008AD
:102EE400B92E00083D2F0008B92E0008B92E00089D
:102EF400B92E0008B92E00084B3000086D2F0008C9
:102F04002D300008B92E0008B92E00086D300008D5
:102F1400B92E00086D2F0008B92E0008B92E00083C
:102F2400353000082B681A1D1B682A6004F142051D
:102F340084F842300123A4E020682968060601F1E0
:102F440004030AD50E682B60002E03DA2D23764283
:102F540084F843300A235E4819E00E6810F0400FED
:102F64002B6018BF36B2EFE72B682068191D296063
:102F7400010601D51E6802E04606FBD51E886F2FA8
:102F84000CBF08230A235248002184F843106568C3
:102F9400002DA8BF2168A560A4BF21F00401216011
:102FA4000EB9002D4DD01546B6FBF3F103FB1167A6
:102FB400C75D05F8017D3746BB420E46F4D9082BA0
:102FC4000BD12368DE0708D5236961689942DEBF07
:102FD400302305F8013C05F1FF35521B22614B46B5
:102FE40021464046CDF800A003AAFFF7DFFE0130DA
:102FF4004CD14FF0FF3004B0BDE8F087344881F87D
:1030040045702968236851F8046B29601D0614D59E
:10301400DF0744BF43F0200323601EB9236823F075
:10302400200323601023AFE7236843F020032360C9
:103034007823284884F84530E3E7590648BFB6B2F8
:10304400E6E71546BBE72B682668181D616928600A
:1030540035061B6801D5196002E07006FBD519809E
:10306400002315462361BAE72B6800211A1D2A6044
:103074001D686268284600F023FB08B1401B6060AD
:1030840063682361002384F84330A8E72A4649464D
:1030940040462369D0470130ABD023689B0713D443
:1030A400E068039B9842B8BF1846A4E70123324660
:1030B40049464046D04701309BD00135E368039927
:1030C4005B1AAB42F2DCEBE7002504F11906F5E7E5
:1030D4001B3E00082C3E000838B50023054D04466D
:1030E40008462B60FDF770FF431C02D12B6803B127
:1030F400236038BD780D0020F8B50E461446054609
:1031040018B183690BB900F0D5F9214B9C422BD13E
:103114006C68A369A360A3891A072FD523696BB3CD
:1031240023692068F6B2C01A63693746834204DC17
:103134002146284600F02AF930BBA3680130013B40
:10314400A36023685A1C22601E706369834204D002
:10315400A389DB0706D50A2E04D12146284600F0B0
:1031640015F988B93846F8BD0A4B9C4201D1AC68C0
:10317400CFE7094B9C4208BFEC68CAE721462846C2
:1031840000F00CF80028CBD04FF0FF37EAE700BF7F
:10319400603E0008803E0008403E0008324B70B597
:1031A4001D6806460C4625B1AB6913B9284600F0E4
:1031B40081F92E4B9C420FD16C68A389B4F90C2081
:1031C40019072CD4DD0611D40923336042F04003DF
:1031D4004FF0FF30A3813EE0254B9C4201D1AC6807
:1031E400EBE7244B9C4208BFEC68E6E7580712D58E
:1031F400616B41B104F14403994202D03046FFF7B8
:1032040045FA00236363A38923F02403A3810023E5
:10321400636023692360A38943F00803A3812369BE
:103224004BB9A38903F42073B3F5007F03D021467F
:10323400304600F005FAA089B4F90C2010F001031F
:103244000AD00023A36063695B42A361236943B985
:1032540010F08000BAD170BD810758BF6369A360C4
:10326400F4E70020F7E700BF1C000020603E0008E0
:10327400803E0008403E0008062008B500F0ACFA85
:103284000120FDF773FE00008A89F8B50546100792
:103294000C4657D44B68002B04DC0B6C002B01DC70
:1032A4000020F8BDE66A002EFAD0002312F4805202
:1032B4002F682B6032D0606DA3895A0705D56368E7
:1032C400C01A636B0BB1236CC01A00230246E66A72
:1032D4002846216AB047431CA38906D129681D29C1
:1032E4002CD8294ACA40D60728D500226260226910
:1032F400D904226004D5421C01D12B6803B960654E
:10330400616B2F600029CBD004F14403994202D0B1
:103314002846FFF7BBF900206063C2E7216A012356
:103324002846B047411CC7D12B68002BC4D01D2BA5
:1033340001D0162B01D12F60B2E7A38943F04003DB
:10334400A381AEE70F69002FAAD0930718BF00230B
:103354000E6808BF4B69F61B0F608B60002E9FDD63
:1033640033463A462846216AD4F828C0E047002864
:1033740006DCA3894FF0FF3043F04003A38190E7BC
:103384000744361AEAE700BF0100402038B50B694C
:1033940005460C4613B90025284638BD18B1836983
:1033A4000BB900F087F8144B9C421BD16C68B4F93C
:1033B4000C30002BEFD0626ED00704D4990502D4F0
:1033C400A06D00F015F928462146FFF75DFF636EF6
:1033D4000546DA07E0D4A3899B05DDD4A06D00F08F
:1033E40008F9D9E7054B9C4201D1AC68DFE7044BEF
:1033F4009C4208BFEC68DAE7603E0008803E0008A3
:10340400403E0008002310B50446C0E90033C0E97B
:103414000433836081814366C28183611946082233
:103424005C30FFF75FF8054B24626362044BA362D0
:10343400044BE362044B236310BD00BF153800083E
:10344400373800086F38000893380008014900F045
:10345400AFB800BF91330008682270B54D1E5543C4
:103464000E4605F17401FFF779F9044640B10021D5
:10347400C0E900160C30A06005F16802FFF732F8CD
:10348400204670BD014800F0B3B800BF750D0020A0
:10349400014800F0AEB800BF750D0020014800F0EF
:1034A400A7B800BF760D0020014800F0A2B800BF05
:1034B400760D002010B50446FFF7F0FFA3691BB199
:1034C400BDE81040FFF7F0BFC4E912332365134B86
:1034D400134A1B68A262A34208BF0123204608BF07
:1034E400A36100F01FF86060204600F01BF8A060A4
:1034F400204600F017F800220421E0606068FFF71E
:1035040081FF01220921A068FFF77CFF022212211A
:10351400E068FFF777FF0123A361D1E7583D000876
:1035240051340008F8B50746FFF7ACFF1E4B1E6880
:10353400B36913B93046FFF7BDFF4836D6E9013405
:10354400013B03D533680BB33668F7E7B4F90C5085
:10355400D5B9164B04F15800E360656600F047F8EE
:10356400FFF796FF08222946C4E90155C4E904552A
:103574002560A56104F15C00FEF7B4FFC4E90D55B4
:10358400C4E912552046F8BD6834D9E70421384609
:10359400FFF762FF044630600028D5D1FFF778FFBB
:1035A4000C233B60EEE700BF583D00080100FFFF1D
:1035B4002DE9F84306468846002700F14804D4E97B
:1035C4000195B9F1010905D52468002CF7D13846D5
:1035D400BDE8F883AB89012B07D9B5F90E30013367
:1035E40003D029463046C04707436835E9E77047AA
:1035F4007047704770B50E46B1F90E101446002995
:103604001D4696B008DA0022B6F90C302A601A0674
:1036140010D44FF480630EE06A4600F05FF900288E
:10362400F1DB019A02F47042A2F500535A425A4166
:103634002A60EEE740230020236016B070BD00002E
:103644008B8973B59D0706460C4607D504F14703DD
:10365400236023610123636102B070BD6A4601AB3C
:10366400FFF7C8FF009905463046FFF777F848B9D9
:10367400B4F90C309A05EFD423F0030343F00203AA
:10368400A381E3E70D4BB362A389206043F0800379
:10369400A381009B20616361019B5BB13046B4F957
:1036A4000E1000F02DF928B1A38923F0030343F091
:1036B4000103A381A0890543A581CDE75134000806
:1036C400034610B5C9B202449342184601D1002002
:1036D40003E0047801338C42F6D110BD884210B562
:1036E40001EB020402D98442234607D8431EA142B7
:1036F40008D011F8012B03F8012FF8E70146024422
:103704008A4200D110BD13F8014D02F8014DF7E7CC
:103714000148FFF76DBF00BF740D00200148FFF79B
:1037240068BF00BF740D00202DE9F04180461446A7
:103734000E4621B91146BDE8F041FFF70FB82AB98A
:10374400FEF7A4FF25462846BDE8F08100F0FAF80C
:103754008442074602D8B4EB500F12D821464046A3
:10376400FEF7FCFF05460028EDD0BC422246314658
:1037740028BF3A46FEF7A8FE31464046FEF786FFCC
:10378400E1E73546DFE71F2938B504460D4604D97D
:10379400162303604FF0FF3038BD426C12B152F86B
:1037A40021304BB9204600F031F82A460146204624
:1037B400BDE8384000F018B8012B0AD0591C03D1D9
:1037C400162303600120E7E70024284642F8254039
:1037D40098470020E0E70000024B01461868FFF715
:1037E400D2BF00BF1C00002038B50023064D04469C
:1037F400084611462B60FDF7B1FB431C02D12B6830
:1038040003B1236038BD00BF780D0020FDF7A4BBD1
:1038140010B50C46B1F90E1000F09CF80028ABBFAF
:10382400636DA3891B1823F48053ACBF6365A38124
:1038340010BD2DE9F0411F468B890546DB050C467A
:10384400164605D502230022B1F90E1000F068F8DF
:10385400A389324623F48053A38128463B46B4F916
:103864000E10BDE8F04100F017B810B50C46B1F9E0
:103874000E1000F055F8431CA38915BF606523F4AE
:10388400805343F48053A38118BFA38110BDB1F9C1
:103894000E1000F013B8000038B50446084611466F
:1038A4000022054D2A601A46FDF774FB431C02D121
:1038B4002B6803B1236038BD780D002038B5002390
:1038C400054D044608462B60FDF772FB431C02D1EC
:1038D4002B6803B1236038BD780D002038B5002370
:1038E400064D0446084611462B60FDF764FB431C55
:1038F40002D12B6803B1236038BD00BF780D0020CE
:1039040038B50023054D044608462B60FDF758FBE7
:10391400431C02D12B6803B1236038BD780D00200D
:1039240038B50446084611460022054D2A601A4659
:10393400FDF748FB431C02D12B6803B1236038BD5B
:10394400780D002051F8043C181F002BBCBF0B5805
:10395400C018704738B50446084611460022054D84
:103964002A601A46FDF708FB431C02D12B6803B1F9
:10397400236038BD780D0020F8B500BFF8BC08BC42
:103984009E467047F8B500BFF8BC08BC9E46704719
:10399400596F752068617665202564205365636FCF
:1039A4006E647320696E20746F74616C2C204C6596
:1039B4007420757320537461727420547970696E25
:1039C40067204578657263697365200D0A205B572B
:1039D4004F52445D202573200D0A00596F752068ED
:1039E400617665202564205365636F6E6473206976
:1039F4006E20746F74616C2C204C65742075732078
:103A0400436F6E74696E756520547970696E6720B2
:103A14004578657263697365200D0A205B574F52C0
:103A2400445D202573200D0A00205B5741524E4906
:103A34004E475D202564207365636F6E6473206C4C
:103A440065667421200D0A00205B5741524E494E91
:103A5400475D202564207365636F6E64206C656622
:103A64007421200D0A0047616D65206F766572210F
:103A7400205468652053636F726520796F752067E1
:103A840065742069732025642C20457863656C6C0B
:103A9400656E74210D0A0047616D65206F7665724D
:103AA40021205468652053636F726520796F7520F7
:103AB4006765742069732025642C20476F6F642127
:103AC4000D0A0047616D65206F7665722120546888
:103AD400652053636F726520796F75206765742064
:103AE40069732025642C20507261637469636520B6
:103AF4006D6F7265210D0A0047616D65206F7665F3
:103B04007221205468652053636F726520796F7544
:103B1400206765742069732025642C2052756262C5
:103B2400697368210D0A000D0A47616D652053749D
:103B3400617274212041726520796F75205265612C
:103B440064793F205B592F4E5D200D0A28596F750B
:103B54002073686F756C642067697665206D6520D5
:103B6400796F75722063686F69636520776974681B
:103B740020275927206F7220274E2720696E203175
:103B840030207365636F6E6473290D0A0025642DFC
:103B94002D002564200D0A54696D65204F766572E9
:103BA4002C20517569742047616D65210D0A000D43
:103BB4000A52656164792E2E2E476F210D0A0D0A73
:103BC400000D0A596F752063616E20706C61792055
:103BD4006E6578742074696D652C20517569742044
:103BE40047616D65210D0A00205B50617573655D49
:103BF40020506C65617365207072657373204B454A
:103C0400595F574B20746F20636F6E74696E7565CE
:103C1400210D0A00205B636F6E74696E75655D200B
:103C240057656C636F6D6520746F20636F6D6520DD
:103C34006261636B20616761696E210D0A00205B1C
:103C44005550444154455D20546865206375727233
:103C5400656E742074696D65206C696D6974206982
:103C6400732000667269656E6400207365636F6E0D
:103C740064732E0D0A00205B5550444154455D2069
:103C840054696D65206C696D6974206368616E6741
:103C940065643A203F207365636F6E6473283F2028
:103CA40063616E206265205B312C2032305D292EE9
:103CB40020506C6561736520696E707574203F2EA9
:103CC4000D0A00207365636F6E642E0D0A00205B7D
:103CD4005550444154455D2054696D65206C696DAF
:103CE4006974206368616E6765643A2000205B49EB
:103CF4004E464F5D2057726F6E6720696E70757403
:103D04002120506C6561736520747279206167614C
:103D1400696E210D0A00205B494E464F5D20476FB6
:103D24006F64206A6F62210D0A0000000000000029
:103D34000000010203040607080900000000010254
:103D4400030402030405060708090A0B0C0D0E0FF1
:103D540010100000200000205245454E54206D6193
:103D64006C6C6F6320737563636565646564002FB1
:103D74006275696C642F676E752D746F6F6C732D2B
:103D8400666F722D73746D33325F31302E332D3282
:103D94003032312E31302E32303231313130352D16
:103DA400313130302F7372632F6E65776C69622FF7
:103DB4006E65776C69622F6C6962632F7374646CCF
:103DC40069622F72616E642E63002C2066756E63C7
:103DD40074696F6E3A2000617373657274696F6EF3
:103DE4002022257322206661696C65643A20666925
:103DF4006C6520222573222C206C696E6520256455
:103E0400257325730A00232D302B2000686C4C0089
:103E140065666745464700303132333435363738C6
:103E24003941424344454600303132333435363724
:103E340038396162636465660000000000000000B8
:103E4400000000000000000000000000000000006E
:103E5400000000000000000000000000000000005E
:103E6400000000000000000000000000000000004E
:103E7400000000000000000000000000000000003E
:103E8400000000000000000000000000000000002E
:0C3E940000000000000000000000000022
:043EA000090200080B
:043EA400E50100082C
:103EA800102700000A000000080200005900000066
:103EB8000024F40001000000100000002000002091
:103EC80000000000603E0008803E0008403E0008F8
:103ED80000000000000000000000000000000000DA
:103EE80000000000000000000000000000000000CA
:103EF80000000000000000000000000000000000BA
:103F080000000000000000000000000000000000A9
:103F18000000000000000000000000000000000099
:0400000508001011CE
:00000001FF
