:020000040800F2
:1000000000C0002025740008056700080767000885
:10001000096700080B6700080D6700080000000072
:100020000000000000000000000000000F67000852
:10003000116700080000000013670008156700083A
:100040006D7400086D7400086D7400086D7400080C
:100050006D7400086D7400086D7400086D740008FC
:100060006D7400086D7400086D7400086D740008EC
:100070006D7400086D7400086D7400086D740008DC
:100080006D7400086D7400086D7400086D740008CC
:100090006D7400086D7400086D7400086D740008BC
:1000A0006D7400086D7400086D7400086D740008AC
:1000B00019670008256700086D7400086D74000852
:1000C0006D7400086D7400086D7400086D7400088C
:1000D0006D740008316700086D7400086D740008C5
:1000E0006D7400086D7400086D7400086D7400086C
:1000F0006D7400086D7400086D7400086D7400085C
:100100006D7400086D7400086D7400086D7400084B
:100110006D7400086D7400086D7400086D7400083B
:100120006D7400086D7400086D7400086D7400082B
:1001300000000000000000000000000000000000BF
:1001400000000000000000000000000000000000AF
:10015000000000000000000000000000000000009F
:10016000000000000000000000000000000000008F
:10017000000000000000000000000000000000007F
:10018000000000000000000000000000000000006F
:10019000000000000000000000000000000000005F
:1001A000000000000000000000000000000000004F
:1001B000000000000000000000000000000000003F
:1001C000000000000000000000000000000000002F
:1001D000000000000000000000000000000000001F
:0401E0005FF8E0F1F3
:1001E80010B5054C237833B9044B13B10448AFF369
:1001F80000800123237010BDB4000020000000001F
:10020800009A000808B5034B1BB103490348AFF334
:10021800008008BD00000000B8000020009A000817
:1002280010F8012B11F8013B012A28BF9A42F7D098
:10023800D01A7047034613F8012B002AFBD1181A6D
:100248000138704781F0004102E000BF83F00043AD
:1002580030B54FEA41044FEA430594EA050F08BF59
:1002680090EA020F1FBF54EA000C55EA020C7FEA1D
:10027800645C7FEA655C00F0E2804FEA5454D4EB9A
:100288005555B8BF6D420CDD2C4480EA020281EA64
:10029800030382EA000083EA010180EA020281EA9C
:1002A8000303362D88BF30BD11F0004F4FEA0131EE
:1002B8004FF4801C4CEA113102D0404261EB4101FD
:1002C80013F0004F4FEA03334CEA133302D0524283
:1002D80063EB430394EA050F00F0A780A4F101043F
:1002E800D5F1200E0DDB02FA0EFC22FA05F2801879
:1002F80041F1000103FA0EF2801843FA05F359415F
:100308000EE0A5F120050EF1200E012A03FA0EFCDD
:1003180028BF4CF0020C43FA05F3C01851EBE37107
:1003280001F0004507D54FF0000EDCF1000C7EEB24
:1003380000006EEB0101B1F5801F1BD3B1F5001F62
:100348000CD349085FEA30004FEA3C0C04F1010481
:100358004FEA445212F5800F80F09A80BCF1004FAA
:1003680008BF5FEA500C50F1000041EB045141EA2C
:10037800050130BD5FEA4C0C404141EB0101013CF5
:1003880028BFB1F5801FE9D291F0000F04BF0146E4
:100398000020B1FA81F308BF2033A3F10B03B3F1B6
:1003A80020020CDA0C3208DD02F1140CC2F10C0246
:1003B80001FA0CF021FA02F10CE002F11402D8BFA4
:1003C800C2F1200C01FA02F120FA0CFCDCBF41EA70
:1003D8000C019040E41AA2BF01EB0451294330BD3F
:1003E8006FEA04041F3C1CDA0C340EDC04F114041C
:1003F800C4F1200220FA04F001FA02F340EA0300F3
:1004080021FA04F345EA030130BDC4F10C04C4F138
:10041800200220FA02F001FA04F340EA0300294618
:1004280030BD21FA04F0294630BD94F0000F83F462
:10043800801306BF81F480110134013D4EE77FEA45
:10044800645C18BF7FEA655C29D094EA050F08BF91
:1004580090EA020F05D054EA000C04BF1946104672
:1004680030BD91EA030F1EBF0021002030BD5FEAB6
:10047800545C05D14000494128BF41F0004130BDDE
:1004880014F580043CBF01F5801130BD01F0004532
:1004980045F0FE4141F470014FF0000030BD7FEAA5
:1004A800645C1ABF194610467FEA655C1CBF0B46A0
:1004B800024650EA013406BF52EA033591EA030FB7
:1004C80041F4002130BD00BF90F0000F04BF0021AF
:1004D800704730B54FF4806404F132044FF00005E2
:1004E8004FF0000150E700BF90F0000F04BF00215B
:1004F800704730B54FF4806404F1320410F00045C1
:1005080048BF40424FF000013EE700BF42004FEABB
:10051800E2014FEA31014FEA02701FBF12F07F4338
:1005280093F07F4F81F06051704732F07F4208BFEF
:10053800704793F07F4F04BF41F40021704730B5F6
:100548004FF4607401F0004521F000411CE700BF42
:1005580050EA010208BF704730B54FF000050AE0C5
:1005680050EA010208BF704730B511F0004502D5C6
:10057800404261EB41014FF4806404F132045FEAC8
:10058800915C3FF4D8AE4FF003025FEADC0C18BF71
:1005980003325FEADC0C18BF033202EBDC02C2F163
:1005A800200300FA03FC20FA02F001FA03FE40EAF5
:1005B8000E0021FA02F11444BDE600BF70B54FF0F9
:1005C800FF0C4CF4E06C1CEA11541DBF1CEA1355D7
:1005D80094EA0C0F95EA0C0F00F0DEF82C4481EA3F
:1005E800030621EA4C5123EA4C5350EA013518BF5F
:1005F80052EA033541F4801143F4801338D0A0FB4C
:1006080002CE4FF00005E1FB02E506F00042E0FBF8
:1006180003E54FF00006E1FB03569CF0000F18BFFE
:100628004EF0010EA4F1FF04B6F5007F64F54074A6
:1006380004D25FEA4E0E6D4146EB060642EAC62139
:1006480041EA55514FEAC52040EA5E504FEACE2EA6
:10065800B4F1FD0C88BFBCF5E06F1ED8BEF1004FA9
:1006680008BF5FEA500E50F1000041EB045170BD25
:1006780006F0004646EA010140EA020081EA030169
:10068800B4EB5C04C2BFD4EB0C0541EA045170BD65
:1006980041F480114FF0000E013C00F3AB8014F1DF
:1006A800360FDEBF002001F0004170BDC4F1000428
:1006B800203C35DA0C341BDC04F11404C4F12005A9
:1006C80000FA05F320FA04F001FA05F240EA020004
:1006D80001F0004221F0004110EBD37021FA04F63A
:1006E80042EB06015EEA430E08BF20EAD37070BDF4
:1006F800C4F10C04C4F1200500FA04F320FA05F053
:1007080001FA04F240EA020001F0004110EBD37054
:1007180041F100015EEA430E08BF20EAD37070BDC4
:10072800C4F1200500FA05F24EEA020E20FA04F39D
:1007380001FA05F243EA020321FA04F001F000414C
:1007480021FA04F220EA020000EBD3705EEA430EBD
:1007580008BF20EAD37070BD94F0000F0FD101F0EC
:100768000046400041EB010111F4801F08BF013C25
:10077800F7D041EA060195F0000F18BF704703F063
:100788000046520043EB030313F4801F08BF013DEA
:10079800F7D043EA0603704794EA0C0F0CEA1355A6
:1007A80018BF95EA0C0F0CD050EA410618BF52EA60
:1007B8004306D1D181EA030101F000414FF0000066
:1007C80070BD50EA410606BF1046194652EA430674
:1007D80019D094EA0C0F02D150EA013613D195EAE8
:1007E8000C0F05D152EA03361CBF104619460AD130
:1007F80081EA030101F0004141F0FE4141F470013A
:100808004FF0000070BD41F0FE4141F4780170BD29
:1008180070B54FF0FF0C4CF4E06C1CEA11541DBF8E
:100828001CEA135594EA0C0F95EA0C0F00F0A7F890
:10083800A4EB050481EA030E52EA03354FEA0131BD
:1008480000F088804FEA03334FF0805545EA1313D0
:1008580043EA12634FEA022245EA111545EA106598
:100868004FEA00260EF000419D4208BF964244F12F
:10087800FD0404F5407402D25B084FEA3202B61A4E
:1008880065EB03055B084FEA32024FF480104FF422
:10089800002CB6EB020E75EB030E22BFB61A754696
:1008A80040EA0C005B084FEA3202B6EB020E75EB29
:1008B800030E22BFB61A754640EA5C005B084FEA91
:1008C8003202B6EB020E75EB030E22BFB61A75465E
:1008D80040EA9C005B084FEA3202B6EB020E75EB69
:1008E800030E22BFB61A754640EADC0055EA060E2A
:1008F80018D04FEA051545EA16754FEA06164FEA6D
:10090800C30343EA52734FEAC2025FEA1C1CC0D118
:1009180011F4801F0BD141EA00014FF000004FF0A5
:10092800004CB6E711F4801F04BF01430020B4F166
:10093800FD0C88BFBCF5E06F3FF6AFAEB5EB030C1E
:1009480004BFB6EB020C5FEA500C50F1000041EB1B
:10095800045170BD0EF0004E4EEA113114EB5C04E8
:10096800C2BFD4EB0C0541EA045170BD41F48011BB
:100978004FF0000E013C90E645EA060E8DE60CEAC3
:10098800135594EA0C0F08BF95EA0C0F3FF43BAFE0
:1009980094EA0C0F0AD150EA01347FF434AF95EA97
:1009A8000C0F7FF425AF104619462CE795EA0C0F7B
:1009B80006D152EA03353FF4FDAE1046194622E748
:1009C80050EA410618BF52EA43067FF4C5AE50EA22
:1009D80041047FF40DAF52EA43057FF4EBAE12E712
:1009E8004FF0FF3C06E000BF4FF0010C02E000BFF3
:1009F8004FF0010C4DF804CD4FEA410C7FEA6C5CD6
:100A08004FEA430C18BF7FEA6C5C1BD001B050EA78
:100A1800410C0CBF52EA430C91EA030F02BF90EA63
:100A2800020F0020704710F1000F91EA030F58BF22
:100A3800994208BF90422CBFD8176FEAE37040F084
:100A4800010070474FEA410C7FEA6C5C02D150EA22
:100A5800013C07D14FEA430C7FEA6C5CD6D152EADD
:100A6800033CD3D05DF8040B704700BF84461046A2
:100A780062468C461946634600E000BF01B5FFF7A1
:100A8800B7FF002848BF10F1000F01BD4DF808ED71
:100A9800FFF7F4FF0CBF012000205DF808FB00BF42
:100AA8004DF808EDFFF7EAFF34BF012000205DF89C
:100AB80008FB00BF4DF808EDFFF7E0FF94BF0120E9
:100AC80000205DF808FB00BF4DF808EDFFF7CEFFEA
:100AD80094BF012000205DF808FB00BF4DF808ED29
:100AE800FFF7C4FF34BF012000205DF808FB00BFFA
:100AF8004FEA410C7FEA6C5C02D150EA013C0AD112
:100B08004FEA430C7FEA6C5C02D152EA033C02D103
:100B18004FF0000070474FF0010070474A0011D2B3
:100B280012F5001211D20DD56FF47873B3EB62523F
:100B38000ED44FEAC12343F0004343EA505323FA4B
:100B480002F070474FF00000704750EA013002D1C0
:100B58004FF0FF3070474FF00000704780F00040C2
:100B680002E000BF81F0004142001FBF5FEA41037D
:100B780092EA030F7FEA226C7FEA236C6AD04FEA7D
:100B88001262D2EB1363C1BFD218414048404140C2
:100B9800B8BF5B42192B88BF704710F0004F40F474
:100BA800000020F07F4018BF404211F0004F41F490
:100BB800000121F07F4118BF494292EA030F3FD05C
:100BC800A2F1010241FA03FC10EB0C00C3F120036F
:100BD80001FA03F100F0004302D5494260EB4000FE
:100BE800B0F5000F13D3B0F1807F06D340084FEA69
:100BF800310102F10102FE2A51D2B1F1004F40EB5E
:100C0800C25008BF20F0010040EA030070474900C5
:100C180040EB0000013A28BFB0F5000FEDD2B0FA62
:100C280080FCACF1080CB2EB0C0200FA0CF0AABF85
:100C380000EBC25052421843BCBFD0401843704723
:100C480092F0000F81F4000106BF80F40000013229
:100C5800013BB5E74FEA41037FEA226C18BF7FEA00
:100C6800236C21D092EA030F04D092F0000F08BF42
:100C78000846704790EA010F1CBF0020704712F029
:100C88007F4F04D1400028BF40F00040704712F168
:100C980000723CBF00F50000704700F0004343F0CD
:100CA800FE4040F4000070477FEA226216BF084603
:100CB8007FEA23630146420206BF5FEA412390EAC6
:100CC800010F40F4800070474FF0000304E000BFBC
:100CD80010F0004348BF40425FEA000C08BF70476D
:100CE80043F0964301464FF000001CE050EA010231
:100CF80008BF70474FF000030AE000BF50EA010246
:100D080008BF704711F0004302D5404261EB410132
:100D18005FEA010C02BF84460146002043F0B64357
:100D280008BFA3F18053A3F50003BCFA8CF2083A7C
:100D3800A3EBC25310DB01FA02FC634400FA02FC85
:100D4800C2F12002BCF1004F20FA02F243EB02008C
:100D580008BF20F00100704702F1200201FA02FCEE
:100D6800C2F1200250EA4C0021FA02F243EB0200E1
:100D780008BF20EADC7070474FF0FF0C1CEAD05225
:100D88001EBF1CEAD15392EA0C0F93EA0C0F6FD0E6
:100D98001A4480EA010C400218BF5FEA41211ED0C4
:100DA8004FF0006343EA501043EA5111A0FB0131B0
:100DB8000CF00040B1F5000F3EBF490041EAD37185
:100DC8005B0040EA010062F17F02FD2A1DD8B3F101
:100DD800004F40EBC25008BF20F00100704790F070
:100DE800000F0CF0004C08BF49024CEA502040EAC2
:100DF80051207F3AC2BFD2F1FF0340EAC250704788
:100E080040F400004FF00003013A5DDC12F1190FC5
:100E1800DCBF00F000407047C2F10002410021FA37
:100E280002F1C2F1200200FA02FC5FEA310040F14F
:100E3800000053EA4C0308BF20EADC70704792F0C8
:100E4800000F00F0004C02BF400010F4000F013A00
:100E5800F9D040EA0C0093F0000F01F0004C02BFFB
:100E6800490011F4000F013BF9D041EA0C018FE76A
:100E78000CEAD15392EA0C0F18BF93EA0C0F0AD070
:100E880030F0004C18BF31F0004CD8D180EA010096
:100E980000F00040704790F0000F17BF90F0004F2F
:100EA800084691F0000F91F0004F14D092EA0C0F11
:100EB80001D142020FD193EA0C0F03D14B0218BFA4
:100EC800084608D180EA010000F0004040F0FE40EA
:100ED80040F40000704740F0FE4040F44000704786
:100EE8004FF0FF0C1CEAD0521EBF1CEAD15392EA05
:100EF8000C0F93EA0C0F69D0A2EB030280EA010CF5
:100F080049024FEA402037D04FF0805343EA11118D
:100F180043EA10130CF000408B4238BF5B0042F1EB
:100F28007D024FF4000C8B4224BF5B1A40EA0C0090
:100F3800B3EB510F24BFA3EB510340EA5C00B3EBC2
:100F4800910F24BFA3EB910340EA9C00B3EBD10FB0
:100F580024BFA3EBD10340EADC001B0118BF5FEA02
:100F68001C1CE0D1FD2A3FF650AF8B4240EBC2502B
:100F780008BF20F0010070470CF0004C4CEA5020EC
:100F88007F32C2BFD2F1FF0340EAC250704740F43B
:100F980000004FF00003013A37E792F0000F00F02D
:100FA800004C02BF400010F4000F013AF9D040EAAB
:100FB8000C0093F0000F01F0004C02BF490011F43F
:100FC800000F013BF9D041EA0C0195E70CEAD15337
:100FD80092EA0C0F08D142027FF47DAF93EA0C0F1E
:100FE8007FF470AF084676E793EA0C0F04D14B0202
:100FF8003FF44CAF08466EE730F0004C18BF31F0B4
:10100800004CCAD130F000427FF45CAF31F00043AD
:101018007FF43CAF5FE700BF4FEA4002B2F1FE4FFA
:101028000FD34FF09E03B3EB12620DD94FEA0023A2
:1010380043F0004310F0004F23FA02F018BF40427B
:1010480070474FF00000704712F1610F01D1420262
:1010580005D110F0004008BF6FF0004070474FF016
:101068000000704742000ED2B2F1FE4F0BD34FF092
:101078009E03B3EB126209D44FEA002343F0004306
:1010880023FA02F070474FF00000704712F1610F29
:1010980001D1420202D14FF0FF3070474FF00000FB
:1010A800704700BF04F08EBF10B5044604F0B0FFCF
:1010B800230A5B00603B03F0FE0005F055F804F0DE
:1010C800E9FFE0B205F050F804F0E4FF04F0A0FFF7
:1010D800A12005F049F804F0DDFF002005F072F8C2
:1010E800044604F0B5FF204610BD38B504460D4649
:1010F80004F08EFF230A5B00603B03F0FE0005F05E
:1011080033F804F0C7FFE0B205F02EF804F0C2FF90
:10111800284605F029F804F0BDFF04F099FFBDE862
:1011280038400A2000F06EB970B50D468418A4B294
:10113800A04200D170BD461CFFF7B6FFB6B205F855
:10114800010B3046F4E770B504460E468518ADB27B
:10115800AC4200D170BD204616F8011B0134FFF7E0
:10116800C4FFA4B2F4E7052000F034B90E4B10B563
:101178009A6986B042F010029A619B69012403F0D3
:1011880010030193019B0923CDE902340323074887
:1011980002A90593049406F0DDFA054BC3F88041D3
:1011A800C3F88C4106B010BD001002400010014089
:1011B8000000224238B50D4B00251A680C4C22F469
:1011C80070421A601A681E2042F440521A600123C5
:1011D800C4F88C31C4F8803100F0FCF8C4F88C51A4
:1011E800FFF7C1FFC4F8805138BD00BF00100140AF
:1011F8000000224238B501250B4B0C4C1A681E2002
:1012080022F470421A601A6842F440521A60C4F814
:10121800805100F0DFF80023C4F88C31FFF7A3FFFA
:10122800C4F88C5138BD00BF0010014000002242B4
:1012380038B5114B114D1A68FB2422F470421A601C
:101248001A6842F400421A600123C5F88C31C5F8C7
:101258008031FFF788FFD5F80C0110B9C5F8800177
:1012680006E0013C14F0FF0403D1FFF7C3FF01209F
:1012780038BDFFF778FFEEE700100140000022427A
:1012880038B500250C4C0D4BC4F880511A6822F46F
:1012980070421A601A6842F440521A60FFF763FFFE
:1012A800C4F88C51FFF75FFF0123C4F88031FFF7C2
:1012B8005AFFC4F8805138BD000022420010014096
:1012C80070B5002501260C4C0C4BC4F880511A68E7
:1012D80022F470421A601A6842F440521A60FFF70A
:1012E80042FFC4F88C61FFF73EFFC4F88061FFF746
:1012F8003AFFC4F8805170BD00002242001001403E
:101308002DE9F0410027124B124E1A68044622F4C8
:1013180070421A601A68082542F440521A60C6F8EA
:101328008071FFF720FF4FF00108E309C6F88C3100
:10133800C6F88081FFF717FF013DC6F88071FFF7F7
:1013480012FF640015F0FF05E4B2EED1BDE8F081AC
:1013580000100140000022422DE9F8430024164BFA
:1013680006461A681E2022F470421A601A68082578
:1013780042F400421A6000F02DF8A1464FF001082F
:101388000E4FC7F88091FFF7EEFEC7F88081D7F8B7
:101398000C316400E4B20BB10134E4B2013D15F044
:1013A800FF05EED126B9FFF78BFF2046BDE8F8838D
:1013B800FFF766FFF9E700BF001001400000224276
:1013C80010B50446042006F0FDF8014B1C6010BD62
:1013D800D00000200A4B4FF0E0211B6830B558437D
:1013E80000234D698C698A699442FCD0234498BFD4
:1013F8005B199B1A834200D330BD1446F3E700BF44
:10140800D000002038B505460024A54200D838BDD4
:101418004FF47A70FFF7DEFF0134F6E770B5054642
:101428000C461646FFF7C6FE7020FFF769FFFFF768
:10143800FFFEE8B2FFF764FFFFF7FAFE2644B44266
:1014480001D1002508E014F8010BFFF759FFFFF759
:10145800EFFE05460028F2D0FFF7CCFE284670BD07
:10146800F8B5044615460E46FFF7A4FE7020FFF7B0
:1014780047FFFFF7DDFEE0B2FFF742FFFFF7D8FEB8
:10148800FFF798FE7120FFF73BFF0024FFF7D0FE1F
:101498006F1EAC4203D1BDE8F840FFF7ABBE381B66
:1014A80018BF0120FFF758FF30550134F1E700005D
:1014B8002F4BF0B59A6987B042F010029A619B6988
:1014C800012403F010030193019B4FF40053CDE96D
:1014D80002340323002502262648274F02A9059334
:1014E800049406F037F902A92248CDE9026506F00E
:1014F80031F9FFF73BFE1420C7F8B451FFF782FF1C
:101508003220C7F8B441FFF77DFF224669462846D6
:101518008DF80050FFF782FF22466946A420FFF7A6
:101528007DFF16232246694680208DF80030FFF79C
:1015380075FF0C232246694688208DF80030FFF796
:101548006DFF32466946A120FFF78AFF9DF80030FB
:10155800302B0BD19DF80130032B07D143F2030147
:10156800064807F0B5FA284607B0F0BD2046FBE765
:10157800001002400010014000002242189A0008A2
:101588002DE9FF410A21484E8DF8070033780133D1
:10159800DBB2B3FBF1F201FB1232D2B2337002B309
:1015A800092B1ED900209DF80730DB0611D13F4BCF
:1015B80093F9201093F820200029A9BF4FF6FF7156
:1015C80002F07F0222F01F029981A8BFD98283F816
:1015D80020203378F02B84BF0A23337004B0BDE891
:1015E800F081012202200DF10701FFF739FF9DF874
:1015F800073003F00F02531E042BD3D8FF23934068
:10160800DB430027294D63F03F03DFF8A48085F80A
:10161800203005F10C0495F820303B41DA0724D539
:10162800042238F8170003A9FFF71AFF95F830309D
:101638009DF80C1013F0010F9DF80D209DF80E3049
:101648009DF80F0021D04FEA012C0CF4706C624415
:1016580062811A0202F470620244228001F0F003EF
:10166800802B1EBF0023638123800137052F04F1DF
:101678000204D0D1AB89EA8A13439BB20BB98DF827
:1016880007300023012033708DE74FEA012C1B023D
:10169800C2F5F0720CF4706C03F47063A2EB0C02E8
:1016A800034422806381D9E7D4000020140000207D
:1016B800249A000870B505460C461646FFF77AFDD1
:1016C8002820FFF71DFEFFF7B3FD280AFFF718FED5
:1016D800FFF7AEFDE8B2FFF713FEFFF7A9FD2644BA
:1016E800B44201D1002508E014F8010BFFF708FE09
:1016F800FFF79EFD05460028F2D0FFF77BFD284640
:1017080070BD0000002307B51A460E498DF8050084
:1017180011F8010B0132D2B20344B82ADBB2F7D177
:101728005B42084948F247008DF80430FFF7C2FFD2
:10173800022201A948F2FF00FFF7BCFF002003B016
:101748005DF804FB509A0008F8B5044615460E46A5
:10175800FFF730FD2820FFF7D3FDFFF769FD200ACA
:10176800FFF7CEFDFFF764FDE0B2FFF7C9FDFFF715
:101778005FFDFFF71FFD2920FFF7C2FD0024FFF7DB
:1017880057FD6F1EAC4203D1BDE8F840FFF732BDEC
:10179800381B18BF0120FFF7DFFD30550134F1E792
:1017A800374BF0B59A6989B042F010029A619B698B
:1017B800012403F010030193019B4FF40053CDE97A
:1017C80004340323002602252E482F4F04A907932B
:1017D800069405F0BFFF04A92A48CDE9045605F090
:1017E800B9FFFFF7C3FC0A20C7F8B461FFF70AFE88
:1017F8000A20C7F8B441FFF705FE04A92148CDE93E
:101808000565049505F0A6FF6420FFF7FBFD04229B
:1018180048F2401002A9FFF797FF02A91B488DF86C
:101828000C6007F055F91A4902A8FEF7F9FC18BB35
:10183800224602A948F240008DF80850FFF73AFF07
:1018480002A9224648F24700FFF77EFF9DF80810DC
:101858005F2905D80F4807F03BF92046FFF752FFEC
:101868000A20FFF7CFFD0023012248F2400002A919
:101878008DF80830FFF71EFF002009B0F0BD00BF4B
:101888000010024000100140000022422E9A000879
:101898003A9A00083F9A00080A212DE9F043594D69
:1018A80085B02B788DF807000133DBB2B3FBF1F27A
:1018B80001FB1232D2B22B7012B3092B20D90020AF
:1018C8009DF8073003F08F03802B11D14E4B93F90D
:1018D800201093F820200029A9BF4FF6FF7102F0CD
:1018E8007F0222F01F029981A8BFD98283F82020A5
:1018F8002B78F02B84BF0A232B7005B0BDE8F0834A
:10190800012248F24E100DF10701FFF71DFF9DF966
:1019180007209DF80730002A0DDA03F00F03052B86
:1019280009D80023012248F24E100DF10B018DF861
:101938000B30FFF7BFFE9DF8073003F00F02531E70
:10194800042BBCD8FF2393408DF80B30DB430027D2
:101958002D4C63F03F0394F8208084F82030A3894D
:10196800DFF8A890A382E38A04F10C06E38394F8D5
:1019780020303B41DB0720D5042239F8170003A9A2
:10198800FFF7E2FE94F830309DF80F1013F0010FC6
:101998009DF80E309DF80D009DF80C2018BFC3F57A
:1019A800487302EB002217BFA3EB012303EB0123CB
:1019B8007281338004BF328073810137052F06F1AD
:1019C8000206D4D1124BA1891A88914203D8E28A1F
:1019D8005B889A4208D99DF8073013F00E0F06D09D
:1019E800E389A381238BE38200232B7008E0A38A79
:1019F80084F82080A381E38BE38280238DF807306D
:101A080001205DE7D500002014000020089B000895
:101A1800D8000020194B30B59A6987B042F004020B
:101A28009A619A69012402F004020092009A9A6964
:101A3800134D42F010029A619B69022203F01003D1
:101A48000193019B0023CDE902430323284602A901
:101A5800CDE9042305F07EFE4FF40043284602A991
:101A68000293049405F076FE2023064802A9029307
:101A7800049405F06FFE07B030BD00BF00100240AF
:101A88000008014000100140012838B5264D1ED13C
:101A980028702021254805F045FF88BB0A20FFF75C
:101AA800B1FC0023202121482B7005F03BFF0028C2
:101AB80034D04FF400411E4805F034FF80B30121B3
:101AC8001B4805F02FFF01282CD0002038BD2B78AB
:101AD800002BDED12021154805F024FF0128F4D180
:101AE8004FF40041124805F01DFF01280446ECD1CF
:101AF80001460F4805F016FF0028E6D12C70E5E7EF
:101B08004FF400410A4805F00DFF0028C6D0012116
:101B1800074805F007FF0128DCD1BFE70120D5E71A
:101B28000220D3E70320D1E7000000200010014085
:101B3800000801404FF48072054B06495A614FF482
:101B480000725A61C8608021596119611A61704731
:101B580000100140000C01404FF088320E4B10B5C8
:101B68001A605A6000224FF48071DA6002F18042F4
:101B780002F58832116140244FF4007151615461BB
:101B88009868146111614FF033321A605A604FF649
:101B9800FF7280B2DA6010BD000C014010B50C462F
:101BA800FFF7C8FF4FF48072054B06491A614FF4DE
:101BB80000725A61CC608021596119611A6110BDA7
:101BC80000100140000C0140014B1889FFF7B2BF1B
:101BD800D80000204FF48072054B06491A614FF473
:101BE80000725A61C8608021596119611A61704791
:101BF80000100140000C01402DE9F74F41F6631237
:101C0800814E0746B38870899342804C4FEA112A67
:101C18005FFA81F87BD196F80690B9F1000F4FD1A1
:101C28003588FFF787FF4FF4007380224FF48070E8
:101C3800013DED1B7649ADB22F0AEDB2206163611B
:101C4800C1F80C9062612261236120616361C1F86F
:101C58000C9062612261236120616361CF606261DF
:101C68002261236120616361CD6062612261236129
:101C7800B089FFF75FFF4FF4807580224FF400733F
:101C88007188634801390E12C9B225616361C0F8D1
:101C98000CA062612261236125616361C0F80C8038
:101CA80062612261236125616361C66062612261AC
:101CB800236125616361C1606261226123616CE017
:101CC800FFF738FF4FF400704FF48071504D3B0A16
:101CD80021616061EB6080233288FFB2013A636161
:101CE8002361206121616061EF601712D2B26361E4
:101CF8002361206121616061EF606361236120617C
:101D080021616061EA60636123612061B0E7FAB232
:101D1800019245F2105293424FEA172B4FF4807903
:101D28003B4F3DD14FF40075FFF704FFC4F8109006
:101D38006561C7F80CB04FF0800B7089C4F814B017
:101D48000130C4F810B080B22561FFF7F3FE019BA3
:101D5800C4F81090B0896561FB60C4F814B0C4F889
:101D680010B02561FFF7E6FEB089C4F81090013085
:101D7800656180B2C7F80CA0C4F814B0C4F810B0FC
:101D88002561FFF7D7FEC4F810906561C7F80C808D
:101D9800C4F814B0C4F810B0256103B0BDE8F08FE2
:101DA800FFF7C8FE4FF40073C4F810906361C7F8DA
:101DB8000CB04FF0800B019AC4F814B0B089C4F885
:101DC80010B02361C4F810906361FA60C4F814B0CD
:101DD800C4F810B02361FFF7ADFE4FF40073C4F8E8
:101DE80010906361C7F80CA0C4F814B0C4F810B020
:101DF8002361C4F810906361C7F80C80C4F814B06C
:101E0800C4F810B05AE700BFD80000200010014005
:101E1800000C01402DE9F047A34E41F66312B17959
:101E2800B38801290DD193421AD1013806285AD80E
:101E3800DFE810F03F00400137013501330131017F
:101E48002F01C9B9934217D1072821D8DFE810F02C
:101E58002301210127012501310020002901480023
:101E6800072815D8DFE810F0170115011B01190123
:101E7800250014001D0126010138062808D8DFE8CE
:101E880010F01800190110010E010C010A010801D7
:101E9800002545F2105293420DD049F24132934247
:101EA80003D047F28972934201D145F008053620E4
:101EB80003E08025EDE74FF458502946FFF76EFE02
:101EC80041F66313B188794C994200F09080A806D6
:101ED800338872880AD59A420AD93280738007E01B
:101EE80036204025E9E736200025E6E79A42F4D374
:101EF80045F2105399427AD14FF4007580274FF478
:101F080080794FF0000A7089FFF714FE7089DFF8B6
:101F1800A0810130C4F8109080B26561C8F80CA0A7
:101F2800676127612561FFF705FE7089C4F8109085
:101F38000230656180B2C8F80CA06761276125612D
:101F4800FFF7F8FD33887089013B1B120330C4F892
:101F5800109080B26561C8F80C306761276125610F
:101F6800FFF7E8FD3388C4F81090013BDBB26561E8
:101F7800B089C8F80C30676127612561FFF7DAFD81
:101F8800B089C4F810900130656180B2C8F80CA01F
:101F9800676127612561FFF7CDFDB089C4F810900E
:101FA8000230656180B2C8F80CA0676127612561BD
:101FB800FFF7C0FD7388B089013B1B120330C4F8DA
:101FC800109080B26561C8F80C306761276125619F
:101FD800FFF7B0FD7388C4F81090013B6561DBB270
:101FE800C8F80C30676127612561BDE8F0874FF4B8
:101FF800007580274FF480794FF0000A7089FFF749
:1020080099FD3388DFF8A880013B1A12DBB2C4F8C7
:102018001090B0896561C8F80CA0676127612561D7
:10202800C4F810906561C8F80CA067612761256144
:10203800C4F810906561C8F80C20676127612561B4
:10204800C4F810906561C8F80C3067612761256194
:10205800FFF770FD7388C4F81090013B1A12656190
:10206800C8F80CA0676127612561C4F81090656104
:10207800C8F80CA0676127612561C4F810906561F4
:10208800C8F80C20676127612561C4F81090656164
:10209800A5E7E025FDE6A025FBE66025F9E6202575
:1020A800F7E6C025F5E600BFD80000200010014083
:1020B800000C01404025ECE608B5FFF79DFDFFF751
:1020C80083FD4FF48072074B07491A614FF4007281
:1020D800088806495A61C8608021596119611A61E6
:1020E80008BD00BF00100140D6000020000C0140D0
:1020F8002DE9F74F0192CAB2009245F21052DFF86B
:10210800AC810546B8F80430B8F80A009342684C28
:102118004FEA112A57D14FF4007B80264FF480777D
:10212800FFF708FDB8F80A00DFF888912A0A01309D
:10213800276180B2C4F814B0EDB2C9F80C2066610A
:102148002661C4F810B0FFF7F5FC2761B8F80C0059
:10215800C4F814B0C9F80C5066612661C4F810B010
:10216800FFF7E8FCB8F80C0027610130C4F814B098
:1021780080B2C9F80CA066612661C4F810B0FFF7F8
:10218800D9FC009B2761C4F814B0C9F80C3066610B
:102198002661C4F810B04FF400734FF48070B8F89B
:1021A8000820444960616361CA60802262612261DB
:1021B8002361206101986361C860626122612361C3
:1021C80003B0BDE8F08F41F6631293424DD198F801
:1021D800063023B9B8F80030013B5D1BADB2FFF7FC
:1021E800A9FC4FF4007680274FF48072314B290AFE
:1021F800EDB22261B8F80C006661D96067612761A9
:10220800266122616661DD6067612761266122615E
:102218006661D96067612761266122616661DD6058
:10222800676127612661FFF785FC4FF4807200998A
:10223800204B22616661C3F80CA0676127612661A3
:1022480022616661D96067612761266122616661E2
:10225800C3F80CA06761276126612261009A666154
:10226800DA6067612761266195E7FFF763FC4FF441
:1022780000764FF4807280270E4B290AEDB2226156
:10228800B8F80C006661D960676127612661226130
:102298006661DD60676127612661FFF74BFC4FF4DB
:1022A8008072044B22616661D2E700BFD80000202B
:1022B80000100140000C01402DE9F8438146BE2082
:1022C800FFF738FC4FF4007580264FF4807805231B
:1022D8001F4C204FC4F8108048466561FB6066615A
:1022E80026612561C4F810806561FEF7FDF816A324
:1022F800D3E90023FEF762F9FEF710FC0123F8602A
:10230800666126612561C4F810806561FB60FF2362
:10231800666126612561C4F810806561FB60002351
:10232800666126612561C4F810806561FB6066619D
:1023380026612561C4F810806561FB6066612661CD
:102348002561BDE8F88300BF666666666666044078
:1023580000100140000C0140304B10B44FF4A07144
:10236800F0249A88987178BB45F2105082421C80FC
:10237800598012D14FF430521A814FF428525A81A1
:102388004FF42C529A814FF4F0721A804FF448722D
:102398005A80002010BCFFF73DBD41F66310824211
:1023A8004FF02C00188103D12B225A812A22E9E709
:1023B8002A2058812B20988145F210308242E8D19A
:1023C80019804FF4F072E3E745F210508242198009
:1023D8005C800CD14FF430521A814FF428525A8144
:1023E8004FF42C529A814FF448721A80E9E741F66B
:1023F80063102C2482424FF02A001C81588101D19D
:102408002B22EFE72B20988145F21030824202BF41
:102418004FF4F07259801A80BBE700BFD800002043
:102428000021F8B50E4B05461A885C8808465443C7
:102438004FF48076FFF7E0FBFFF7C6FB00224FF46E
:1024480000718020074B084FA24200D1F8BD1E61E1
:1024580001325961FD60586118611961F4E700BFE4
:10246800D800002000100140000C0140364B2DE937
:10247800F04F9A6987B042F008029A619A6901247C
:1024880002F008020092009A9A69304842F010025D
:102498009A619B6902A903F010030193019B4FF411
:1024A800F863CDE9023403230494059305F052F947
:1024B8004FF6FF7302A92648029305F04BF9254A07
:1024C8003220536823F0E06343F080635360FEF7E3
:1024D80099FF21460020FFF761FB3220FEF792FFAB
:1024E800D320FFF727FBFFF737FB1B4CA080FFF734
:1024F80033FBA080FFF730FB0002A080FFF72CFB26
:10250800A388184349F2413380B29842A08073D01F
:102518000420FFF70FFBFFF71FFBA080FFF71CFB52
:10252800A080FFF719FB0002A080FFF715FBA38826
:10253800184348F2525380B29842A08047F28973F8
:102548000CD1A38058E000BF0010024000100140E9
:10255800000C014000000140D800002098424BD0F8
:10256800D420FFF7E7FAFFF7F7FAA080FFF7F4FAAD
:10257800A080FFF7F1FA0002A080FFF7EDFAA38828
:10258800184345F2103380B29842A08034D04FF4FB
:102598005A40FFF7CFFAFFF7DFFAA0804FF45B400D
:1025A800FFF7C8FAFFF7D8FA0002A0804FF45C40A2
:1025B800FFF7C0FAFFF7D0FAA388184380B2B0F546
:1025C800004F45F21053A080BBD0984214D0A120F0
:1025D800FFF7B0FAFFF7C0FAA080FFF7BDFA0002D4
:1025E800A080FFF7B9FAA388184345F2617380B257
:1025F800984200F02481A080A188924806F068FAE9
:1026080049F24132A388934240F02081CF20FFF75E
:1026180091FA0020FFF7DEFAC120FFF7DBFA30203D
:10262800FFF7D8FAED20FFF785FA6420FFF7D2FA12
:102638000320FFF7CFFA1220FFF7CCFA8120FFF72B
:10264800C9FAE820FFF776FA8520FFF7C3FA1020C9
:10265800FFF7C0FA7A20FFF7BDFACB20FFF76AFA36
:102668003920FFF7B7FA2C20FFF7B4FA0020FFF75C
:10267800B1FA3420FFF7AEFA0220FFF7ABFAF720E1
:10268800FFF758FA2020FFF7A5FAEA20FFF752FAD9
:102698000020FFF79FFAFFF79DFAC020FFF74AFADC
:1026A8001B20FFF797FAC120FFF744FA0120FFF734
:1026B80091FAC520FFF73EFA3020FFF78BFAFFF7B3
:1026C80089FAC720FFF736FAB720FFF783FA3620D2
:1026D800FFF730FA4820FFF77DFA3A20FFF72AFA89
:1026E8005520FFF777FAB120FFF724FA0020FFF70B
:1026F80071FA1A20FFF76EFAB620FFF71BFA0A20C4
:10270800FFF768FAA220FFF765FAF220FFF712FA3E
:102718000020FFF75FFA2620FFF70CFA0120FFF7E9
:1027280059FAE020FFF706FA0F20FFF753FA2A209C
:10273800FFF750FA2820FFF74DFA0820FFF74AFA6A
:102748000E20FFF747FA0820FFF744FA5420FFF756
:1027580041FAA920FFF73EFA4320FFF73BFA0A2087
:10276800FFF738FA0F20FFF735FA0020FFF732FAA3
:10277800FFF730FAFFF72EFAFFF72CFAE120FFF700
:10278800D9F90020FFF726FA1520FFF723FA1720BA
:10279800FFF720FA0720FFF71DFA1120FFF71AFAB2
:1027A8000620FFF717FA2B20FFF714FA5620FFF739
:1027B80011FA3C20FFF70EFA0520FFF70BFA10205C
:1027C800FFF708FA0F20FFF705FA3F20FFF702FA94
:1027D800FFF700FA0F20FFF7FDF92B20FFF7AAF902
:1027E8000020FFF7F7F9FFF7F5F90120FFF7F2F9F5
:1027F8003F20FFF7EFF92A20FFF79CF90020FFF7A9
:10280800E9F9FFF7E7F9FFF7E5F9EF20FFF7E2F954
:102818001120FFF78FF97820FEF7F4FD2920FFF744
:1028280089F90020FFF798FD0122074B4FF6FF704A
:10283800C3F8A821FFF7F4FD07B0BDE8F08F41F613
:1028480063137EE6129B00080000224247F2897259
:10285800934240F0CB801120FFF76CF97820FEF707
:10286800D1FD3620FFF766F90020FFF7B3F93A20CB
:10287800FFF760F90520FFF7ADF9B220FFF75AF925
:102888000C20FFF7A7F9FFF7A5F90020FFF7A2F939
:102898003320FFF79FF9FFF79DF9B720FFF74AF9B3
:1028A8003520FFF797F9BB20FFF744F93220FFF7EF
:1028B80091F9C020FFF73EF90C20FFF78BF9C220F1
:1028C800FFF738F90120FFF785F9C320FFF732F940
:1028D8001020FFF77FF9C420FFF72CF92020FFF71D
:1028E80079F9C620FFF726F90F20FFF773F9D020F2
:1028F800FFF720F9A420FFF76DF9A120FFF76AF987
:10290800E020FFF717F9D020FFF764F90020FFF760
:1029180061F90220FFF75EF90720FFF75BF90A204B
:10292800FFF758F92820FFF755F93220FFF752F939
:102938004420FFF74FF94220FFF74CF90620FFF734
:1029480049F90E20FFF746F91220FFF743F9142042
:10295800FFF740F91720FFF73DF9E120FFF7EAF804
:10296800D020FFF737F90020FFF734F90220FFF7EE
:1029780031F90720FFF72EF90A20FFF72BF9282055
:10298800FFF728F93120FFF725F95420FFF722F93E
:102998004720FFF71FF90E20FFF71CF91C20FFF74F
:1029A80019F91720FFF716F91B20FFF713F91E2056
:1029B800FFF710F92A20FFF7BDF80020FFF70AF902
:1029C800FFF708F9FFF706F9EF20FFF703F92B20C7
:1029D800FFF7B0F80020FFF7FDF8FFF7FBF801203C
:1029E800FFF7F8F83F20FFF7F5F817E745F2103240
:1029F800934240F02487ED20FFF79CF80120FFF771
:102A0800E9F8FE20FFF7E6F8EE20FFF793F8DE205E
:102A1800FFF7E0F82120FFF7DDF8F120FFF78AF84B
:102A28000120FFF7D7F8DF20FFF784F81020FFF721
:102A3800D1F8C420FFF77EF88F20FFF7CBF8C62027
:102A4800FFF778F80020FFF7C5F8E220FFF7C2F893
:102A5800FFF7C0F8FFF7BEF8BF20FFF76BF8AA2012
:102A6800FFF7B8F8B020FFF765F80D20FFF7B2F8C8
:102A78000020FFF7AFF80D20FFF7ACF80020FFF7B4
:102A8800A9F81120FFF7A6F80020FFF7A3F81920EE
:102A9800FFF7A0F80020FFF79DF82120FFF79AF82C
:102AA8000020FFF797F82D20FFF794F80020FFF794
:102AB80091F83D20FFF78EF80020FFF78BF85D2096
:102AC800FFF788F80020FFF785F85D20FFF782F808
:102AD8000020FFF77FF8B120FFF72CF88020FFF7E0
:102AE80079F80020FFF776F88B20FFF773F80020BD
:102AF800FFF770F89620FFF76DF80020FFF76AF8E7
:102B0800B220FFF717F80020FFF764F8FFF762F824
:102B18000220FFF75FF80020FFF75CF80320FFF7BB
:102B280059F80020FFF756F8B320FFF703F8002004
:102B3800FFF750F8FFF74EF8FFF74CF8FFF74AF8A1
:102B4800FFF748F8FFF746F8FFF744F8FFF742F8B1
:102B5800FFF740F8FFF73EF8FFF73CF8FFF73AF8C1
:102B6800FFF738F8FFF736F8FFF734F8FFF732F8D1
:102B7800FFF730F8FFF72EF8FFF72CF8FFF72AF8E1
:102B8800FFF728F8FFF726F8FFF724F8FFF722F8F1
:102B9800B420FEF7CFFF8B20FFF71CF80020FFF7CB
:102BA80019F89620FFF716F80020FFF713F8A12070
:102BB800FFF710F80020FFF70DF8B520FEF7BAFF71
:102BC8000220FFF707F80020FFF704F80320FFF7BB
:102BD80001F80020FEF7FEFF0420FEF7FBFF0020AF
:102BE800FEF7F8FFB620FEF7A5FF0020FEF7F2FF7C
:102BF800FEF7F0FFB720FEF79DFF0020FEF7EAFF83
:102C0800FEF7E8FF3F20FEF7E5FF0020FEF7E2FFB2
:102C18005E20FEF7DFFF0020FEF7DCFF6420FEF7F2
:102C2800D9FF0020FEF7D6FF8C20FEF7D3FF002047
:102C3800FEF7D0FFAC20FEF7CDFF0020FEF7CAFF5D
:102C4800DC20FEF7C7FF0020FEF7C4FF7020FEF768
:102C5800C1FF0020FEF7BEFF9020FEF7BBFF00205B
:102C6800FEF7B8FFEB20FEF7B5FF0020FEF7B2FF36
:102C7800DC20FEF7AFFF0020FEF7ACFFB820FEF720
:102C880059FF0020FEF7A6FFFEF7A4FFFEF7A2FFFC
:102C9800FEF7A0FFFEF79EFFFEF79CFFFEF79AFFE8
:102CA800FEF798FFBA20FEF745FF2420FEF792FFB3
:102CB8000020FEF78FFFFEF78DFFFEF78BFFC12088
:102CC800FEF738FF2020FEF785FF0020FEF782FF81
:102CD8005420FEF77FFF0020FEF77CFFFF20FEF761
:102CE80079FF0020FEF776FFC220FEF723FF0A20B7
:102CF800FEF770FF0020FEF76DFF0420FEF76AFF65
:102D08000020FEF767FFC320FEF714FF3C20FEF704
:102D180061FF0020FEF75EFF3A20FEF75BFF002010
:102D2800FEF758FF3920FEF755FF0020FEF752FF47
:102D38003720FEF74FFF0020FEF74CFF3C20FEF740
:102D480049FF0020FEF746FF3620FEF743FF00202C
:102D5800FEF740FF3220FEF73DFF0020FEF73AFF66
:102D68002F20FEF737FF0020FEF734FF2C20FEF758
:102D780031FF0020FEF72EFF2920FEF72BFF002051
:102D8800FEF728FF2620FEF725FF0020FEF722FF8A
:102D98002420FEF71FFF0020FEF71CFF2420FEF76B
:102DA80019FF0020FEF716FF2320FEF713FF00206F
:102DB800FEF710FF3C20FEF70DFF0020FEF70AFF8C
:102DC8003620FEF707FF0020FEF704FF3220FEF74B
:102DD80001FF0020FEF7FEFE2F20FEF7FBFE00207D
:102DE800FEF7F8FE2C20FEF7F5FE0020FEF7F2FEB7
:102DF8002920FEF7EFFE0020FEF7ECFE2620FEF766
:102E0800E9FE0020FEF7E6FE2420FEF7E3FE0020A0
:102E1800FEF7E0FE2420FEF7DDFE0020FEF7DAFED6
:102E28002320FEF7D7FE0020FEF7D4FEC420FEF7CD
:102E380081FE6220FEF7CEFE0020FEF7CBFE0520C5
:102E4800FEF7C8FE0020FEF7C5FE8420FEF7C2FE8E
:102E58000020FEF7BFFEF020FEF7BCFE0020FEF7C4
:102E6800B9FE1820FEF7B6FE0020FEF7B3FEA42038
:102E7800FEF7B0FE0020FEF7ADFE1820FEF7AAFE12
:102E88000020FEF7A7FE5020FEF7A4FE0020FEF764
:102E9800A1FE0C20FEF79EFE0020FEF79BFE1720E9
:102EA800FEF798FE0020FEF795FE9520FEF792FEAD
:102EB8000020FEF78FFEF320FEF78CFE0020FEF7C1
:102EC80089FEE620FEF786FE0020FEF783FEC52079
:102ED800FEF730FE3220FEF77DFE0020FEF77AFE78
:102EE8004420FEF777FE0020FEF774FE6520FEF70B
:102EF80071FE0020FEF76EFE7620FEF76BFE0020C6
:102F0800FEF768FE8820FEF765FE0020FEF762FEE9
:102F1800C620FEF70FFE2020FEF75CFE0020FEF71D
:102F280059FE1720FEF756FE0020FEF753FE01203B
:102F3800FEF750FE0020FEF74DFEC720FEF7FAFD13
:102F48000020FEF747FEFEF745FEFEF743FEFEF7BC
:102F580041FEC820FEF7EEFD0020FEF73BFEFEF71F
:102F680039FEFEF737FEFEF735FEC920FEF7E2FD13
:102F78000020FEF72FFEFEF72DFEFEF72BFEFEF7D4
:102F880029FEFEF727FEFEF725FEFEF723FEFEF7D5
:102F980021FEFEF71FFEFEF71DFEFEF71BFEFEF7E5
:102FA80019FEFEF717FEFEF715FEFEF713FEFEF7F5
:102FB80011FEE020FEF7BEFD1620FEF70BFE0020F6
:102FC800FEF708FE1C20FEF705FE0020FEF702FEB5
:102FD8002120FEF7FFFD0020FEF7FCFD3620FEF75E
:102FE800F9FD0020FEF7F6FD4620FEF7F3FD002070
:102FF800FEF7F0FD5220FEF7EDFD0020FEF7EAFD9A
:103008006420FEF7E7FD0020FEF7E4FD7A20FEF7D6
:10301800E1FD0020FEF7DEFD8B20FEF7DBFD002042
:10302800FEF7D8FD9920FEF7D5FD0020FEF7D2FD6A
:10303800A820FEF7CFFD0020FEF7CCFDB920FEF753
:10304800C9FD0020FEF7C6FDC420FEF7C3FD002021
:10305800FEF7C0FDCA20FEF7BDFD0020FEF7BAFD51
:10306800D220FEF7B7FD0020FEF7B4FDD920FEF709
:10307800B1FD0020FEF7AEFDE020FEF7ABFD00201D
:10308800FEF7A8FDF320FEF7A5FD0020FEF7A2FD40
:10309800E120FEF74FFD1620FEF79CFD0020FEF70D
:1030A80099FD1C20FEF796FD0020FEF793FD2220D7
:1030B800FEF790FD0020FEF78DFD3620FEF78AFD15
:1030C8000020FEF787FD4520FEF784FD0020FEF76F
:1030D80081FD5220FEF77EFD0020FEF77BFD642077
:1030E800FEF778FD0020FEF775FD7A20FEF772FDE9
:1030F8000020FEF76FFD8B20FEF76CFD0020FEF729
:1031080069FD9920FEF766FD0020FEF763FDA82003
:10311800FEF760FD0020FEF75DFDB920FEF75AFDC1
:103128000020FEF757FDC420FEF754FD0020FEF7EF
:1031380051FDCA20FEF74EFD0020FEF74BFDD220C0
:10314800FEF748FD0020FEF745FDD820FEF742FDBA
:103158000020FEF73FFDE020FEF73CFD0020FEF7D3
:1031680039FDF320FEF736FD0020FEF733FDE2209F
:10317800FEF7E0FC0520FEF72DFD0020FEF72AFDF6
:103188000B20FEF727FD0020FEF724FD1B20FEF78D
:1031980021FD0020FEF71EFD3420FEF71BFD002058
:1031A800FEF718FD4420FEF715FD0020FEF712FD7E
:1031B8004F20FEF70FFD0020FEF70CFD6120FEF703
:1031C80009FD0020FEF706FD7920FEF703FD00202B
:1031D800FEF700FD8820FEF7FDFC0020FEF7FAFC54
:1031E8009720FEF7F7FC0020FEF7F4FCA620FEF778
:1031F800F1FC0020FEF7EEFCB720FEF7EBFC002008
:10320800FEF7E8FCC220FEF7E5FC0020FEF7E2FC32
:10321800C720FEF7DFFC0020FEF7DCFCD120FEF71C
:10322800D9FC0020FEF7D6FCD620FEF7D3FC002000
:10323800FEF7D0FCDD20FEF7CDFC0020FEF7CAFC2F
:10324800F320FEF7C7FC0020FEF7C4FCE320FEF7DE
:1032580071FC0520FEF7BEFC0020FEF7BBFC0A202F
:10326800FEF7B8FC0020FEF7B5FC1C20FEF7B2FC08
:103278000020FEF7AFFC3320FEF7ACFC0020FEF781
:10328800A9FC4420FEF7A6FC0020FEF7A3FC502072
:10329800FEF7A0FC0020FEF79DFC6220FEF79AFCDA
:1032A8000020FEF797FC7820FEF794FC0020FEF73C
:1032B80091FC8820FEF78EFC0020FEF78BFC9720FF
:1032C800FEF788FC0020FEF785FCA620FEF782FCAE
:1032D8000020FEF77FFCB720FEF77CFC0020FEF7FD
:1032E80079FCC220FEF776FC0020FEF773FCC720AD
:1032F800FEF770FC0020FEF76DFCD120FEF76AFC9B
:103308000020FEF767FCD520FEF764FC0020FEF7DE
:1033180061FCDD20FEF75EFC0020FEF75BFCF3207D
:10332800FEF758FC0020FEF755FCE420FEF702FCEF
:103338000120FEF74FFC0020FEF74CFC0120FEF7B1
:1033480049FC0020FEF746FC0220FEF743FC002063
:10335800FEF740FC2A20FEF73DFC0020FEF73AFC71
:103368003C20FEF737FC0020FEF734FC4B20FEF72C
:1033780031FC0020FEF72EFC5D20FEF72BFC002020
:10338800FEF728FC7420FEF725FC0020FEF722FC3F
:103398008420FEF71FFC0020FEF71CFC9320FEF79C
:1033A80019FC0020FEF716FCA220FEF713FC0020F3
:1033B800FEF710FCB320FEF70DFC0020FEF70AFC18
:1033C800BE20FEF707FC0020FEF704FCC420FEF731
:1033D80001FC0020FEF7FEFBCD20FEF7FBFB0020E2
:1033E800FEF7F8FBD320FEF7F5FB0020FEF7F2FB13
:1033F800DD20FEF7EFFB0020FEF7ECFBF320FEF7E5
:10340800E9FB0020FEF7E6FBE520FEF793FB002032
:10341800FEF7E0FBFEF7DEFBFEF7DCFBFEF7DAFB70
:103428000220FEF7D7FB0020FEF7D4FB2920FEF789
:10343800D1FB0020FEF7CEFB3C20FEF7CBFB0020A3
:10344800FEF7C8FB4B20FEF7C5FB0020FEF7C2FBCA
:103458005D20FEF7BFFB0020FEF7BCFB7420FEF7E3
:10346800B9FB0020FEF7B6FB8420FEF7B3FB002073
:10347800FEF7B0FB9320FEF7ADFB0020FEF7AAFB9A
:10348800A220FEF7A7FB0020FEF7A4FBB320FEF75F
:10349800A1FB0020FEF79EFBBE20FEF79BFB002051
:1034A800FEF798FBC420FEF795FB0020FEF792FB81
:1034B800CD20FEF78FFB0020FEF78CFBD320FEF714
:1034C80089FB0020FEF786FBDC20FEF783FB00204B
:1034D800FEF780FBF320FEF77DFB0020FEF77AFB6A
:1034E800E620FEF727FB1120FEF774FB0020FEF70D
:1034F80071FB3420FEF76EFB0020FEF76BFB5620B5
:10350800FEF768FB0020FEF765FB7620FEF762FBFE
:103518000020FEF75FFB7720FEF75CFB0020FEF73C
:1035280059FB6620FEF756FB0020FEF753FB882068
:10353800FEF750FB0020FEF74DFB9920FEF74AFBF3
:103548000020FEF747FBBB20FEF744FB0020FEF7F8
:1035580041FB9920FEF73EFB0020FEF73BFB66206F
:10356800FEF738FB0020FEF735FB5520FEF732FB4F
:103578000020FEF72FFB5520FEF72CFB0020FEF75E
:1035880029FB4520FEF726FB0020FEF723FB4320FE
:10359800FEF720FB0020FEF71DFB4420FEF71AFB78
:1035A8000020FEF717FBE720FEF7C4FA3220FEF7EB
:1035B80011FB0020FEF70EFB5520FEF70BFB002049
:1035C800FEF708FB7620FEF705FB0020FEF702FB5E
:1035D8006620FEF7FFFA0020FEF7FCFA6720FEF7E8
:1035E800F9FA0020FEF7F6FA6720FEF7F3FA002052
:1035F800FEF7F0FA8720FEF7EDFA0020FEF7EAFA68
:103608009920FEF7E7FA0020FEF7E4FABB20FEF760
:10361800E1FA0020FEF7DEFA9920FEF7DBFA002037
:10362800FEF7D8FA7720FEF7D5FA0020FEF7D2FA8F
:103638004420FEF7CFFA0020FEF7CCFA5620FEF71A
:10364800C9FA0020FEF7C6FA2320FEF7C3FA0020C5
:10365800FEF7C0FA3320FEF7BDFA0020FEF7BAFAEB
:103668004520FEF7B7FA0020FEF7B4FAE820FEF787
:1036780061FA0020FEF7AEFAFEF7ACFA9920FEF7E1
:10368800A9FA0020FEF7A6FA8720FEF7A3FA002081
:10369800FEF7A0FA8820FEF79DFA0020FEF79AFAB6
:1036A8007720FEF797FA0020FEF794FA6620FEF7D7
:1036B80091FA0020FEF78EFA8820FEF78BFA002098
:1036C800FEF788FAAA20FEF785FA0020FEF782FAAC
:1036D800BB20FEF77FFA0020FEF77CFA9920FEF760
:1036E80079FA0020FEF776FA6620FEF773FA0020D2
:1036F800FEF770FA5520FEF76DFA0020FEF76AFA19
:103708005520FEF767FA0020FEF764FA4420FEF71A
:1037180061FA0020FEF75EFA4420FEF75BFA00200B
:10372800FEF758FA5520FEF755FA0020FEF752FA30
:10373800E920FEF7FFF9AA20FEF74CFA0020FEF771
:1037480049FAFEF747FAFEF745FAFEF7F3F9AA2019
:10375800FEF740FACF20FEF7EDF90020FEF73AFA1F
:10376800FEF738FAFEF736FAFEF734FAFEF732FAC1
:10377800FEF730FAFEF72EFAFEF72CFAFEF72AFAD1
:10378800FEF728FAFEF726FAFEF724FAFEF722FAE1
:10379800FEF720FAFEF71EFAFEF71CFAFEF71AFAF1
:1037A800F020FEF7C7F90020FEF714FA5020FEF7C4
:1037B80011FA0020FEF70EFAFEF70CFAFEF70AFAE5
:1037C800F320FEF7B7F90020FEF704FAF920FEF718
:1037D800B1F90620FEF7FEF91020FEF7FBF92920C3
:1037E800FEF7F8F90020FEF7F5F93A20FEF7A2F9FE
:1037F8005520FEF7EFF91120FEF79CF96420FDF73C
:1038080001FE2920FEF796F93520FEF793F90020EE
:10381800FEF7E0F95120FEF78DF9FF20FEF7DAF9FF
:103828005320FEF787F92C20FEF7D4F95520FEF730
:1038380081F98220FEF7CEF92C20FEF7F0BF45F281
:103848001052934240F07C8755214FF47040FEF7A8
:10385800A5F9AA214FF20100FEF7A0F952214FF273
:103868000200FEF79BF908214FF20300FEF796F9D4
:1038780001214FF20400FEF791F90D214FF4304079
:10388800FEF78CF90D214BF20100FEF787F90D21A7
:103898004BF20200FEF782F934214FF43640FEF76E
:1038A8007DF934214BF20160FEF778F934214BF2AF
:1038B8000260FEF773F90D214FF43140FEF76EF9FF
:1038C8000D214BF20110FEF769F90D214BF20210A0
:1038D800FEF764F934214FF43740FEF75FF93421DD
:1038E8004BF20170FEF75AF934214BF20270FEF7E1
:1038F80055F900214FF43240FEF750F900214BF200
:103908000120FEF74BF900214BF20220FEF746F9A1
:1039180024214FF43840FEF741F924214BF60100E9
:10392800FEF73CF924214BF60200FEF737F9012196
:103938004FF43F40FEF732F90F214FF43340FEF7C2
:103948002DF90F214BF20130FEF728F90F214BF228
:103958000230FEF723F934214FF43940FEF71EF9FF
:1039680034214BF60110FEF719F934214BF60210F9
:10397800FEF714F908214FF43540FEF70FF9082136
:103988004BF20150FEF70AF908214BF20250FEF7FC
:1039980005F903214FF44240FEF700F924214FF4C2
:1039A8003A40FEF7FBF824214BF60120FEF7F6F823
:1039B80024214BF60220FEF7F1F800214FF43C4099
:1039C800FEF7ECF878214BF60140FEF7E7F8002106
:1039D8004BF60240FEF7E2F800214FF43D40FEF7B7
:1039E800DDF878214BF60150FEF7D8F800214BF6A8
:1039F8000250FEF7D3F800214FF43E40FEF7CEF810
:103A080064214BF60160FEF7C9F800214FF45140DC
:103A1800FEF7C4F833214DF20110FEF7BFF800217C
:103A28004DF20210FEF7BAF834214DF20310FEF7FA
:103A3800B5F800214DF20410FEF7B0F83A214DF226
:103A48000510FEF7ABF800214DF20610FEF7A6F8B8
:103A58004A214DF20710FEF7A1F800214DF2081097
:103A6800FEF79CF85C214DF20910FEF797F800214B
:103A78004DF20A10FEF792F881214DF20B10FEF775
:103A88008DF800214DF20C10FEF788F8A6214DF2B2
:103A98000D10FEF783F800214DF20E10FEF77EF8A8
:103AA800E5214DF20F10FEF779F801214DF21010C3
:103AB800FEF774F813214DF21110FEF76FF801218B
:103AC8004DF21210FEF76AF854214DF21310FEF76A
:103AD80065F801214DF21410FEF760F882214DF2CD
:103AE8001510FEF75BF801214DF21610FEF756F897
:103AF800CA214DF21710FEF751F802214DF21810A5
:103B0800FEF74CF800214DF21910FEF747F8022194
:103B18004DF21A10FEF742F801214DF21B10FEF784
:103B28003DF802214DF21C10FEF738F834214DF211
:103B38001D10FEF733F802214DF21E10FEF72EF885
:103B480067214DF21F10FEF729F802214DF22010CF
:103B5800FEF724F884214DF22110FEF71FF8022108
:103B68004DF22210FEF71AF8A4214DF22310FEF7A9
:103B780015F802214DF22410FEF710F8B7214DF286
:103B88002510FEF70BF802214DF22610FEF706F875
:103B9800CF214DF22710FEF701F802214DF228102F
:103BA800FDF7FCFFDE214DF22910FDF7F7FF02219A
:103BB8004DF22A10FDF7F2FFF2214DF22B10FDF71E
:103BC800EDFF02214DF22C10FDF7E8FFFE214DF22A
:103BD8002D10FDF7E3FF03214DF22E10FDF7DEFF58
:103BE80010214DF22F10FDF7D9FF03214DF23010AF
:103BF800FDF7D4FF33214DF23110FDF7CFFF03213C
:103C08004DF23210FDF7CAFF6D214DF23310FDF76A
:103C1800C5FF00214FF45240FDF7C0FF33214DF29C
:103C28000120FDF7BBFF00214DF20220FDF7B6FF92
:103C380034214DF20320FDF7B1FF00214DF204209D
:103C4800FDF7ACFF3A214DF20520FDF7A7FF002153
:103C58004DF20620FDF7A2FF4A214DF20720FDF79D
:103C68009DFF00214DF20820FDF798FF5C214DF2E1
:103C78000920FDF793FF00214DF20A20FDF78EFF82
:103C880081214DF20B20FDF789FF00214DF20C2018
:103C9800FDF784FFA6214DF20D20FDF77FFF0021DF
:103CA8004DF20E20FDF77AFFE5214DF20F20FDF7CA
:103CB80075FF01214DF21020FDF770FF13214DF221
:103CC8001120FDF76BFF01214DF21220FDF766FF71
:103CD80054214DF21320FDF761FF01214DF214200C
:103CE800FDF75CFF82214DF21520FDF757FF0121FA
:103CF8004DF21620FDF752FFCA214DF21720FDF7AD
:103D08004DFF02214DF21820FDF748FF00214DF22A
:103D18001920FDF743FF02214DF21A20FDF73EFF5F
:103D280001214DF21B20FDF739FF02214DF21C2025
:103D3800FDF734FF34214DF21D20FDF72FFF02213E
:103D48004DF21E20FDF72AFF67214DF21F20FDF7D7
:103D580025FF02214DF22020FDF720FF84214DF29E
:103D68002120FDF71BFF02214DF22220FDF716FF4F
:103D7800A4214DF22320FDF711FF02214DF224204A
:103D8800FDF70CFFB7214DF22520FDF707FF0221B3
:103D98004DF22620FDF702FFCF214DF22720FDF737
:103DA800FDFE02214DF22820FDF7F8FEDE214DF23E
:103DB8002920FDF7F3FE02214DF22A20FDF7EEFE41
:103DC800F2214DF22B20FDF7E9FE02214DF22C20C5
:103DD800FDF7E4FEFE214DF22D20FDF7DFFE032165
:103DE8004DF22E20FDF7DAFE10214DF22F20FDF7BF
:103DF800D5FE03214DF23020FDF7D0FE33214DF2E0
:103E08003120FDF7CBFE03214DF23220FDF7C6FE2F
:103E18006D214DF23320FDF7C1FE00214FF45340D0
:103E2800FDF7BCFE33214DF20130FDF7B7FE00214E
:103E38004DF20230FDF7B2FE34214DF20330FDF7AA
:103E4800ADFE00214DF20430FDF7A8FE3A214DF2F7
:103E58000530FDF7A3FE00214DF20630FDF79EFE6A
:103E68004A214DF20730FDF799FE00214DF2083046
:103E7800FDF794FE5C214DF20930FDF78FFE00211D
:103E88004DF20A30FDF78AFE81214DF20B30FDF725
:103E980085FE00214DF20C30FDF780FEA6214DF283
:103EA8000D30FDF77BFE00214DF20E30FDF776FE5A
:103EB800E5214DF20F30FDF771FE01214DF2103072
:103EC800FDF76CFE13214DF21130FDF767FE01215D
:103ED8004DF21230FDF762FE54214DF21330FDF71A
:103EE8005DFE01214DF21430FDF758FE82214DF29E
:103EF8001530FDF753FE01214DF21630FDF74EFE49
:103F0800CA214DF21730FDF749FE02214DF2183053
:103F1800FDF744FE00214DF21930FDF73FFE022166
:103F28004DF21A30FDF73AFE01214DF21B30FDF734
:103F380035FE02214DF21C30FDF730FE34214DF2E2
:103F48001D30FDF72BFE02214DF21E30FDF726FE37
:103F580067214DF21F30FDF721FE02214DF220307E
:103F6800FDF71CFE84214DF22130FDF717FE0221DA
:103F78004DF22230FDF712FEA4214DF22330FDF759
:103F88000DFE02214DF22430FDF708FEB7214DF257
:103F98002530FDF703FE02214DF22630FDF7FEFD28
:103FA800CF214DF22730FDF7F9FD02214DF22830DF
:103FB800FDF7F4FDDE214DF22930FDF7EFFD02217A
:103FC8004DF22A30FDF7EAFDF2214DF22B30FDF7D4
:103FD800E5FD02214DF22C30FDF7E0FDFE214DF20A
:103FE8002D30FDF7DBFD03214DF22E30FDF7D6FD18
:103FF80010214DF22F30FDF7D1FD03214DF2303065
:10400800FDF7CCFD33214DF23130FDF7C7FD03211B
:104018004DF23230FDF7C2FD6D214DF23330FDF720
:10402800BDFD00214FF45440FDF7B8FD33214DF29A
:104038000140FDF7B3FD00214DF20240FDF7AEFD52
:1040480034214DF20340FDF7A9FD00214DF2044053
:10405800FDF7A4FD3A214DF20540FDF79FFD002133
:104068004DF20640FDF79AFD4A214DF20740FDF753
:1040780095FD00214DF20840FDF790FD5C214DF2C1
:104088000940FDF78BFD00214DF20A40FDF786FD42
:1040980081214DF20B40FDF781FD00214DF20C40CE
:1040A800FDF77CFDA6214DF20D40FDF777FD0021BF
:1040B8004DF20E40FDF772FDE5214DF20F40FDF780
:1040C8006DFD01214DF21040FDF768FD13214DF201
:1040D8001140FDF763FD01214DF21240FDF75EFD31
:1040E80054214DF21340FDF759FD01214DF21440C2
:1040F800FDF754FD82214DF21540FDF74FFD0121DA
:104108004DF21640FDF74AFDCA214DF21740FDF762
:1041180045FD02214DF21840FDF740FD00214DF20A
:104128001940FDF73BFD02214DF21A40FDF736FD1F
:1041380001214DF21B40FDF731FD02214DF21C40DB
:10414800FDF72CFD34214DF21D40FDF727FD02211E
:104158004DF21E40FDF722FD67214DF21F40FDF78D
:104168001DFD02214DF22040FDF718FD84214DF27E
:104178002140FDF713FD02214DF22240FDF70EFD0F
:10418800A4214DF22340FDF709FD02214DF2244000
:10419800FDF704FDB7214DF22540FDF7FFFC022194
:1041A8004DF22640FDF7FAFCCF214DF22740FDF7EE
:1041B800F5FC02214DF22840FDF7F0FCDE214DF21E
:1041C8002940FDF7EBFC02214DF22A40FDF7E6FC01
:1041D800F2214DF22B40FDF7E1FC02214DF22C407B
:1041E800FDF7DCFCFE214DF22D40FDF7D7FC032145
:1041F8004DF22E40FDF7D2FC10214DF22F40FDF775
:10420800CDFC03214DF23040FDF7C8FC33214DF2BF
:104218003140FDF7C3FC03214DF23240FDF7BEFCEF
:104228006D214DF23340FDF7B9FC00214FF45540A4
:10423800FDF7B4FC33214DF20150FDF7AFFC00212E
:104248004DF20250FDF7AAFC34214DF20350FDF760
:10425800A5FC00214DF20450FDF7A0FC3A214DF2D7
:104268000550FDF79BFC00214DF20650FDF796FC2A
:104278004A214DF20750FDF791FC00214DF20850FC
:10428800FDF78CFC5C214DF20950FDF787FC0021FD
:104298004DF20A50FDF782FC81214DF20B50FDF7DB
:1042A8007DFC00214DF20C50FDF778FCA6214DF263
:1042B8000D50FDF773FC00214DF20E50FDF76EFC1A
:1042C800E5214DF20F50FDF769FC01214DF2105028
:1042D800FDF764FC13214DF21150FDF75FFC01213D
:1042E8004DF21250FDF75AFC54214DF21350FDF7D0
:1042F80055FC01214DF21450FDF750FC82214DF27E
:104308001550FDF74BFC01214DF21650FDF746FC08
:10431800CA214DF21750FDF741FC02214DF2185009
:10432800FDF73CFC00214DF21950FDF737FC022146
:104338004DF21A50FDF732FC01214DF21B50FDF7EA
:104348002DFC02214DF21C50FDF728FC34214DF2C2
:104358001D50FDF723FC02214DF21E50FDF71EFCF7
:1043680067214DF21F50FDF719FC02214DF2205034
:10437800FDF714FC84214DF22150FDF70FFC0221BA
:104388004DF22250FDF70AFCA4214DF22350FDF70F
:1043980005FC02214DF22450FDF700FCB7214DF237
:1043A8002550FDF7FBFB02214DF22650FDF7F6FBE9
:1043B800CF214DF22750FDF7F1FB02214DF2285095
:1043C800FDF7ECFBDE214DF22950FDF7E7FB02215A
:1043D8004DF22A50FDF7E2FBF2214DF22B50FDF78A
:1043E800DDFB02214DF22C50FDF7D8FBFE214DF2EA
:1043F8002D50FDF7D3FB03214DF22E50FDF7CEFBD8
:1044080010214DF22F50FDF7C9FB03214DF230501A
:10441800FDF7C4FB33214DF23150FDF7BFFB0321FB
:104428004DF23250FDF7BAFB6D214DF23350FDF7D6
:10443800B5FB00214FF45640FDF7B0FB33214DF298
:104448000160FDF7ABFB00214DF20260FDF7A6FB12
:1044580034214DF20360FDF7A1FB00214DF2046009
:10446800FDF79CFB3A214DF20560FDF797FB002113
:104478004DF20660FDF792FB4A214DF20760FDF709
:104488008DFB00214DF20860FDF788FB5C214DF2A1
:104498000960FDF783FB00214DF20A60FDF77EFB02
:1044A80081214DF20B60FDF779FB00214DF20C6084
:1044B800FDF774FBA6214DF20D60FDF76FFB00219F
:1044C8004DF20E60FDF76AFBE5214DF20F60FDF736
:1044D80065FB01214DF21060FDF760FB13214DF2E1
:1044E8001160FDF75BFB01214DF21260FDF756FBF1
:1044F80054214DF21360FDF751FB01214DF2146078
:10450800FDF74CFB82214DF21560FDF747FB0121B9
:104518004DF21660FDF742FBCA214DF21760FDF718
:104528003DFB02214DF21860FDF738FB00214DF2EA
:104538001960FDF733FB02214DF21A60FDF72EFBDF
:1045480001214DF21B60FDF729FB02214DF21C6091
:10455800FDF724FB34214DF21D60FDF71FFB0221FE
:104568004DF21E60FDF71AFB67214DF21F60FDF743
:1045780015FB02214DF22060FDF710FB84214DF25E
:104588002160FDF70BFB02214DF22260FDF706FBCF
:10459800A4214DF22360FDF701FB02214DF22460B6
:1045A800FDF7FCFAB7214DF22560FDF7F7FA022175
:1045B8004DF22660FDF7F2FACF214DF22760FDF7A4
:1045C800EDFA02214DF22860FDF7E8FADE214DF2FE
:1045D8002960FDF7E3FA02214DF22A60FDF7DEFAC1
:1045E800F2214DF22B60FDF7D9FA02214DF22C6031
:1045F800FDF7D4FAFE214DF22D60FDF7CFFA032125
:104608004DF22E60FDF7CAFA10214DF22F60FDF72A
:10461800C5FA03214DF23060FDF7C0FA33214DF29F
:104628003160FDF7BBFA03214DF23260FDF7B6FAAF
:104638006D214DF23360FDF7B1FA55214FF470400A
:10464800FDF7ACFAAA214FF20100FDF7A7FA5221B3
:104658004FF20200FDF7A2FA08214FF20300FDF71E
:104668009DFA00214FF20400FDF798FACC214FF48F
:104678003140FDF793FA00214BF20110FDF78EFA55
:1046880005214FF43640FDF789FA70214FF4374081
:10469800FDF784FA70214BF20170FDF77FFA0121D2
:1046A8004FF43840FDF77AFA03214BF60100FDF785
:1046B80075FA03214BF60200FDF770FA03214BF659
:1046C8000300FDF76BFA02214FF43C40FDF766FA50
:1046D80000214BF60140FDF761FA00214BF602403C
:1046E800FDF75CFAD0214FF44940FDF757FA022153
:1046F8004CF60110FDF752FA50214CF60210FDF766
:104708004DFA50214CF60310FDF748FA50214CF6AB
:104718000410FDF743FA00214FF45450FDF73EFA18
:1047280055214FF46850FDF739FA4FF48850FDF7DA
:1047380001FA7820FCF74EFE4FF42450FEF76FB8CC
:1047480041F6631293427EF46CA8E2204FF40075A0
:104758004FF48078FDF7EEF91D23AC4CAC4F802662
:10476800C4F8108004226561FB6002234FF0010A3F
:104778004FF0030B6661642026612561C4F8108040
:104788006561FB60666126612561C4F8108065611A
:10479800FA60666126612561FCF71CFEE020FDF7E2
:1047A800C9F9C4F810800A206561C7F80CA06661D1
:1047B80026612561FCF726FEE020FDF7BBF9C4F869
:1047C80010800C206561C7F80CB066612661256110
:1047D800FCF718FE5046FDF7ADF90A20FCF712FE6B
:1047E800E620FDF7A7F92F21C4F810806561F9606C
:1047F800FF216661B02026612561C4F810806561DB
:10480800F960666126612561C4F810806561F96008
:10481800666126612561FDF78DF92021C4F81080B5
:104828004FF000096561F96040F21F316661266149
:104838002561C4F810806561C7F80C90666126612F
:104848002561C4F810806561C7F80CB066612661FF
:104858002561C4F810806561F96040F2DF11666176
:10486800B42026612561C4F810806561C7F80CA0E2
:10487800666126612561C4F810806561F96066612A
:1048880026612561C4F810806561C7F80C906661DF
:1048980026612561FDF74EF90422C4F81080656190
:1048A800FA6040F21F42666126612561C4F81080F3
:1048B8006561FA602E226661B62026612561C4F81A
:1048C80010806561C7F80C90666126612561C4F89F
:1048D80010806561FA60666126612561C4F8108000
:1048E8006561C7F80C90666126612561C4F810807F
:1048F8006561C7F80C90666126612561C4F810806F
:104908006561C7F80C90666126612561C4F810805E
:104918006561C7F80C90666126612561FDF70AF9A3
:104928000223C4F810806561FB604FF4037366616D
:1049380026612561C4F810806561FB6017236661F4
:1049480026612561C4F810806561C7F80C9066611E
:1049580026612561C4F810806561FB6015236661D6
:10496800F02026612561C4F810806561FB606661EE
:1049780026612561C4F810806561C7F80C906661EE
:1049880026612561C4F810806561C7F80C906661DE
:1049980026612561FDF7CEF8C4F8108029206561ED
:1049A800C7F80CB0666126612561FDF7C3F8D02011
:1049B800FDF7C0F8C4F81080BE206561C7F80C90F8
:1049C800666126612561FDF7B5F80523C4F81080F6
:1049D8006561FB60FE236661B82026612561C4F825
:1049E80010806561FB60666126612561C4F81080EE
:1049F8006561C7F80CA0666126612561C4F810805E
:104A08006561C7F80C906661266103E000100140FB
:104A1800000C01402561C4F810806561C7F80C904E
:104A2800666126612561C4F810806561C7F80C903D
:104A3800666126612561FDF77DF8C4F81080BA200B
:104A48006561C7F80CB0666126612561C4F81080FD
:104A58006561C7F80CA0666126612561FDF76AF8F3
:104A6800C4F8108064206561C7F80CA066612661EF
:104A78002561FDF721FCFDF7D4BE00BF2DE9F04FFD
:104A88001D46A2EB0008B8F1000F04460B4685B09E
:104A9800A5EB01091DDC1ED0A0EB02084FF0FF3288
:104AA800B9F1000F19DC1BD04FF0FF3BA1EB050952
:104AB8000025C845C246B8BFCA462F462E460AF149
:104AC800010101910198A9B281420BDD05B0BDE851
:104AD800F08F0122E4E74246E2E74FF0010BE7E7F7
:104AE800CB46E5E799B2A0B24644039202934F44FD
:104AF800FDF7E2FADDE90232B245BCBFA6EB0A06D1
:104B0800A418BA45BCBFA7EB0A075B440135D9E72F
:104B18002DE9F04F894617464FF0000885B054003C
:104B28000090C4F10304009B1FFA88F6BDB29A19DD
:104B3800A9EB050B92B21FFA8BFB1046594603925C
:104B4800FDF7BAFA009BA9EB060AE8181FFA8AFAD9
:104B580080B251460190FDF7AFFA09EB06039BB20C
:104B6800194601980293FDF7A7FA039A05EB090184
:104B7800104689B20191FDF79FFA009B01999E1B8F
:104B8800B6B23046FDF798FA009B08F101085D1BA4
:104B9800029BADB219462846FDF78EFA59463046B3
:104BA800FDF78AFA51462846FDF786FA002CA9BF78
:104BB800A8EB070304EB880404EB830407F1FF3731
:104BC800B4BF06340A344745ADDA05B0BDE8F08F06
:104BD8002DE9F04F1C4687B09DF840300F460593ED
:104BE80014F0070318BF0123610803EBD4034B43F8
:104BF8002421DBB20293203A294BD2B201FB0233C3
:104C08000C218146BB4600260493264B03EB021376
:104C18000393254B01FB02330193029AF3B29A42A4
:104C280002D807B0BDE8F08F0C2C29D1019B9D5DFF
:104C3800DFF878800BF108031FFA83FA2B0627D5D3
:104C48001B4B594648461A88FDF752FAB8F8022015
:104C58000BF101011FFA81FB6D005A45EDB2E0D955
:104C6800ABEB0702A24218D1B8F8003009F10100F5
:104C78001FFA80F94B45D4D9BA46D3460136CCE75A
:104C8800102C01D1039BD2E7182CCAD1049BCEE784
:104C9800059B002BDAD1074BD3E7DA45CED1ECE7F9
:104CA80083A50008939F00081F9B0008D8000020D8
:104CB800D6000020020000202DE9F04F0025834691
:104CC80088462F464FF00A0985B09DF838A0039210
:104CD8005E1E4FEA5A020292F4B2FF2C28D105B0A8
:104CE800BDE8F08F09FB02F20CF1FF3C5FFA8CFC87
:104CF800BCF1FF0FF6D1039BB3FBF2F2B2FBF9FC58
:104D080009FB1C225FFA82FCB7B9AE4214DD92B9E6
:104D180053462022009758464146FFF759FF029B09
:104D2800013C0BEB030001351FFA80FBE4B2D4E72A
:104D3800A4460122D8E7012700230CF13002009392
:104D4800D2B25346E7E72DE9F04F002507468A46D9
:104D58004FF00A0887B09DF84060039373080493E6
:104D6800039B9DF844B05C1E0592E4B202950BF0DB
:104D78000109FF2C2FD107B0BDE8F08F08FB02F224
:104D88000CF1FF3C5FFA8CFCBCF1FF0FF6D1059BE0
:104D9800B3FBF2F2B2FBF8FC08FB1C22029B5FFAA1
:104DA80082FCEBB9039B03F1FF3EAE4518DDAAB9BF
:104DB8001BF0800F334614BF30222022CDF800901C
:104DC80038465146FFF704FF049B013CF8180135AB
:104DD80087B2E4B2CDE7A4460122D1E701230293CA
:104DE8000CF130023346CDF80090D2B2E8E72DE955
:104DF800F04F1F4604460D464FF0000B85B00244A5
:104E08009DF8383096B20F9A0F44BFB24FEA530953
:104E180002F1FF385FFA80FA18F8012FA2F1200199
:104E28005E2902D905B0BDE8F08FB44222BFED1863
:104E3800ADB25446BD42F5D220462946CDF800B061
:104E48004C440393A4B2FFF7C3FE039BE4E70000BE
:104E58002DE9F84F82460D460C464FF00009DFF861
:104E680060B0184B04F19606174F09EB0308B6B269
:104E780001E0A6421BD018F9012B2146002AB6BF33
:104E8800124BBBF800201A885046FDF731F901345F
:104E98007A88A4B2A24210D9621B962AE9D13A882C
:104EA8000AF101001FFA80FA524506D92C4645F24C
:104EB800E47209F196099145D3D1BDE8F88F00BF96
:104EC80002000020DFB20008D8000020D600002031
:104ED8001B4B2DE9F0419A6986B042F004029A61B1
:104EE8009A69012402F004020092009A9A694FF428
:104EF800807842F020029A619B69042603F020031F
:104F08000193019B03230F4F0F4D384602A90593C8
:104F1800CDE90284049402F01DFC284602A90296F9
:104F280002F018FC22464146384602F001FD2246AE
:104F38003146284602F0FCFC06B0BDE8F08100BF0F
:104F480000100240000801400014014008B54FF667
:104F5800FF70FDF765FA4FF47842014B1A8008BDDF
:104F6800D600002073B54FF6FF70FDF759FA1F23DE
:104F780018250021704E08463380704B502201934B
:104F880000952B46FFF733FF6D4B6E4CCDE9005370
:104F9800B4222B4600216420FFF729FF23681E2B2B
:104FA8002ED1694BCDE900532B463C21B42208464B
:104FB800FFF71DFF2268012318243C21CDE9004397
:104FC800A0202346FFF7BFFE604BE622CDE9004351
:104FD8004FF48C714FF498730020FFF708FF5C4B77
:104FE800C82259885B4B183901931023002000937D
:104FF80089B2FFF7FCFE4FF47843338002B070BDEE
:1050080023681D2B01D1544BCCE723681C2B01D1FD
:10501800524BC7E723681B2B01D1514BC2E72368CA
:105028001A2B01D14F4BBDE72368192B01D14E4BE9
:10503800B8E72368182B03D14C4A01920093B4E7D0
:105048002368172B01D14A4BACE72368162B01D1F3
:10505800484BA7E72368152B03D1474B0193182327
:10506800ECE72368142B01D1444BF7E72368132B93
:1050780001D1434BF2E72368122B01D1414BEDE7F5
:105088002368112B01D1404BE8E72368102B01D18D
:105098003E4BE3E723680F2B01D13D4BDEE7236846
:1050A8000E2B01D13B4BD9E723680D2B01D13A4B8D
:1050B800D4E723680C2B01D1384BCFE723680B2B9F
:1050C80001D1374BCAE723680A2B01D1354BC5E715
:1050D8002368092B01D1344BC0E72368082B01D181
:1050E800324BBBE72368072B01D1314BB6E7236866
:1050F800062B01D12F4BB1E72368052B01D12E4B8D
:10510800ACE72368042B01D12C4BA7E72368032BBA
:1051180001D12B4BA2E72368022B01D1294B9DE734
:105128002368012B01D1284B98E72368002B7FF4D3
:1051380041AF264B92E700BFD6000020C30A010802
:10514800C80A010804000020CF0A0108A80B0108BA
:10515800D800002006040020D60A0108DD0A01084C
:10516800E40A0108EB0A0108F20A0108F90A010831
:10517800000B0108070B01080E0B0108150B0108AD
:105188001C0B0108230B01082A0B0108310B01082D
:10519800380B01083F0B0108460B01084D0B0108AD
:1051A800540B01085B0B0108620B0108690B01082D
:1051B800700B0108770B01087E0B0108850B0108AD
:1051C8008C0B0108930B01089A0B0108A10B01082D
:1051D8001F2337B5182400216B4D08462B806B4BD5
:1051E8005022019300942346FFF701FE684BB42236
:1051F800CDE90043002123466420FFF7F8FD654A06
:1052080013681E2B25D1644BCDE9004323463C216E
:10521800B4220846FFF7EBFD604BE6220193182302
:105228004FF48C71009300204FF49873FFF7DFFD63
:105238005B4BC82259885B4B183901931023002017
:10524800009389B2FFF7D3FD4FF478432B8003B066
:1052580030BD13681D2B01D1534BD5E713681C2BA8
:1052680001D1524BD0E713681B2B01D1504BCBE730
:1052780013681A2B01D14F4BC6E71368192B01D1BC
:105288004D4BC1E71368182B03D14C4A0192009388
:10529800BDE71368172B01D1494BB5E71368162BE7
:1052A80001D1484BB0E71368152B03D1464B019346
:1052B8001823ECE71368142B01D1444BF7E7136864
:1052C800132B01D1424BF2E71368122B01D1414B4A
:1052D800EDE71368112B01D13F4BE8E71368102B5A
:1052E80001D13E4BE3E713680F2B01D13C4BDEE7BE
:1052F80013680E2B01D13B4BD9E713680D2B01D155
:10530800394BD4E713680C2B01D1384BCFE713681E
:105318000B2B01D1364BCAE713680A2B01D1354B49
:10532800C5E71368092B01D1334BC0E71368082B75
:1053380001D1324BBBE71368072B01D1304BB6E7DD
:105348001368062B01D12F4BB1E71368052B01D148
:105358002D4BACE71368042B01D12C4BA7E713683E
:10536800032B01D12A4BA2E71368022B01D1294B49
:105378009DE71368012B01D1274B98E71368002B91
:105388007FF44AAF254B92E7D6000020C30A0108F4
:10539800C80A010804000020CF0A0108A80B010868
:1053A800D800002006040020D60A0108DD0A0108FA
:1053B800E40A0108EB0A0108F20A0108F90A0108DF
:1053C800000B0108070B01080E0B0108150B01085B
:1053D8001C0B0108230B01082A0B0108310B0108DB
:1053E800380B01083F0B0108460B01084D0B01085B
:1053F800540B01085B0B0108620B0108690B0108DB
:10540800700B0108770B01087E0B0108850B01085A
:105418008C0B0108930B01089A0B0108A10B0108DA
:105428001F2337B5182400216B4D08462B806B4B82
:105438005022019300942346FFF7D9FC684BB4220D
:10544800CDE90043002123466420FFF7D0FC654ADC
:1054580013681E2B25D1644BCDE9004323463C211C
:10546800B4220846FFF7C3FC604BE62201931823D9
:105478004FF48C71009300204FF49873FFF7B7FC3A
:105488005B4BC82259885B4B1839019310230020C5
:10549800009389B2FFF7ABFC4FF478432B8003B03D
:1054A80030BD13681D2B01D1534BD5E713681C2B56
:1054B80001D1524BD0E713681B2B01D1504BCBE7DE
:1054C80013681A2B01D14F4BC6E71368192B01D16A
:1054D8004D4BC1E71368182B03D14C4A0192009336
:1054E800BDE71368172B01D1494BB5E71368162B95
:1054F80001D1484BB0E71368152B03D1464B0193F4
:105508001823ECE71368142B01D1444BF7E7136811
:10551800132B01D1424BF2E71368122B01D1414BF7
:10552800EDE71368112B01D13F4BE8E71368102B07
:1055380001D13E4BE3E713680F2B01D13C4BDEE76B
:1055480013680E2B01D13B4BD9E713680D2B01D102
:10555800394BD4E713680C2B01D1384BCFE71368CC
:105568000B2B01D1364BCAE713680A2B01D1354BF7
:10557800C5E71368092B01D1334BC0E71368082B23
:1055880001D1324BBBE71368072B01D1304BB6E78B
:105598001368062B01D12F4BB1E71368052B01D1F6
:1055A8002D4BACE71368042B01D12C4BA7E71368EC
:1055B800032B01D12A4BA2E71368022B01D1294BF7
:1055C8009DE71368012B01D1274B98E71368002B3F
:1055D8007FF44AAF254B92E7D6000020C30A0108A2
:1055E800C80A010804000020CF0A0108BB0B010803
:1055F800D800002006040020D60A0108DD0A0108A8
:10560800E40A0108EB0A0108F20A0108F90A01088C
:10561800000B0108070B01080E0B0108150B010808
:105628001C0B0108230B01082A0B0108310B010888
:10563800380B01083F0B0108460B01084D0B010808
:10564800540B01085B0B0108620B0108690B010888
:10565800700B0108770B01087E0B0108850B010808
:105668008C0B0108930B01089A0B0108A10B010888
:10567800064B1A682AB9012205491A60054803F041
:105688004FBA002204491A60F8E700BF5405002009
:10569800CE0B010806040020D90B010810B590B004
:1056A8001422002108A803F02FF91422002101A8D0
:1056B80003F02AF902244FF480330122CDE90D4387
:1056C800CDE906234FF4E01306A80A920F9302F0DF
:1056D80035F908B172B6FEE70F23CDE901344FF46E
:1056E80080630390CDE90430214601A802F0FCFA5A
:1056F80008B172B6FEE710B010BD00002DE9F04FFA
:10570800502185B02820FFF7A3FB092000F0FCFEFC
:10571800002400F011FF25460646A046BA4FD7F8E8
:105728000090B9F1000F40F0B380B84DDFF8E08287
:10573800284602F01FFC2B684046C3F8249002F06C
:10574800E7FBB44BB42201931823FA2128200093D5
:105758004FF49373FFF74BFB4846FCF795F9DFF8D6
:10576800B8A20546DAF8043048469847FFF730FDF6
:105778009AF92030002B80F28780A849BAF80C30BB
:105788000888834218D2BAF8162049888A4213D268
:105798001738984232DC0F2A30D8404602F0EAFB2C
:1057A8001E229F4B40461A60D8F80030C3F8249058
:1057B80002F0AEFBFFF7D6FB012D09D14FF6FF70C3
:1057C800FCF72EFE01F01CFB01F022FAFFF7BEFBEE
:1057D80014230134E4B2B4FBF3F503FB154515F0CB
:1057E800FF0508D18F4AD2F8A031B3FA83F35B09D9
:1057F800C2F8A03100E00025A84690E74F2B0DD84D
:10580800172A0BD8FFF734FF814802F0B3FB0022B8
:10581800D8F800305A6202233B60CDE7642B13D9D5
:105828004AB3B32B10D8172A0ED8FFF721FF7C4BA9
:105838001A680A2AD5BF00221A681A600A3ACABF2B
:105848001A6003230123E7E7A3F13D00762812D865
:10585800A2F13D0026280ED87349744803F060F978
:105868007248FAF7E7FC4FF0FF3382B26F4970488D
:1058780002F032FEA0E7013B4E2B9DD8173991422A
:105888009ADCFFF7F5FE97E70A20FBF7BBFD93E7E5
:105898003B68012B03D03B68022B40F00E81654B1F
:1058A800B42201931823FA21282000934FF493730C
:1058B800FFF79DFA0020FCF7E7F8DFF85C9103900A
:1058C800D9F80430002098473B68022B40F08580C7
:1058D800FFF77EFC4FF0000BDFF834A1504602F0D2
:1058E80049FBDAF800304948C3F824B002F010FB4D
:1058F80099F920305B4580F2D0804848B9F80C30DF
:10590800B0F800C0634519D2B9F816204088824221
:1059180014D2ACF1170C9C4566DC0F2A64D85046AB
:1059280002F028FB1E223E4B50461A60DAF800307F
:10593800C3F824B002F0ECFAFFF714FB039B012B29
:1059480009D14FF6FF70FCF76BFD01F059FA01F031
:105958005FF9FFF7FBFA14220134E4B2B4FBF2F367
:1059680002FB1343DBB23BB92E4AD2F8A031B3FA9B
:1059780083F35B09C2F8A031B8F1000F7FF4CFAE12
:105988003B68022B40F08D802B4B1A6832605A68B6
:1059980072601A899B7A3281B3720A244FF00C091B
:1059A8007669DFF89880CDE900960C23F022002074
:1059B80098F80010FFF71BFA98F80030013C1433F0
:1059C80014F0FF04766988F80030ECD132230A24F9
:1059D80088F800304FF00108A1E63B68012B7FF4FE
:1059E80079AFFFF71DFD75E74F2B29D8172A27D860
:1059F800FFF73EFE064802F0BDFA0022DAF8003052
:105A08005A6202233B6099E7500500207C0400207D
:105A1800C4040020E40B010814000020D800002072
:105A28000400002000002142F00B0108E6000020DD
:105A38000C050020AF0B0108FA0B01080800002034
:105A4800642B08D9F2B1B32B05D8172A03D8FFF76E
:105A58000FFE0123D6E7A3F13D01762912D8A2F162
:105A68003D0126290ED89A499A4803F059F89948D1
:105A7800FAF7E0FB4FF0FF3382B29649964802F0FE
:105A88002BFD5BE7013B4E2B3FF658AF1738904292
:105A98003FF754AFFFF7ECFD50E70A20FBF7B2FCE5
:105AA8004CE73B68012B7FF478AF8C4B1A68326067
:105AB8005A681B7A726033726FE73B68032B7FF476
:105AC8002EAE1DB94FF6FF70FCF7AAFC844D2B686B
