:020000040800F2
:1000000000C00020FDE80008F5D40008FBD400087B
:1000100001D5000807D500080DD500080000000034
:1000200000000000000000000000000013D50008E0
:100030001FD50008000000002BD5000837D50008A8
:1000400045E9000845E9000845E9000845E90008D8
:1000500045E9000845E9000845E9000845E90008C8
:1000600045E9000845E9000845E9000845E90008B8
:1000700045E9000845E9000845E9000845E90008A8
:1000800045E9000845E9000845E9000845E9000898
:1000900045E9000845E9000845E9000845E9000888
:1000A00045E9000845E9000845E9000845E9000878
:1000B00045D5000845E9000845E9000845E900087C
:1000C00045E9000845E9000845E9000845E9000858
:1000D00045E9000859D5000845E9000845E9000848
:1000E00045E9000845E9000845E9000845E9000838
:1000F00045E9000845E9000845E9000845E9000828
:1001000045E9000845E9000845E9000845E9000817
:1001100045E9000845E9000845E9000845E9000807
:1001200045E9000845E9000845E9000845E90008F7
:1001300000000000000000000000000000000000BF
:1001400000000000000000000000000000000000AF
:10015000000000000000000000000000000000009F
:10016000000000000000000000000000000000008F
:10017000000000000000000000000000000000007F
:10018000000000000000000000000000000000006F
:10019000000000000000000000000000000000005F
:1001A000000000000000000000000000000000004F
:1001B000000000000000000000000000000000003F
:1001C000000000000000000000000000000000002F
:1001D000000000000000000000000000000000001F
:0401E0005FF8E0F1F3
:1001E80010B5054C237833B9044B13B10448AFF369
:1001F80000800123237010BDB8000020000000001B
:100208007429010808B5034B1BB103490348AFF330
:10021800008008BD00000000BC000020742901080F
:1002280010F8012B11F8013B012A28BF9A42F7D098
:10023800D01A7047034613F8012B002AFBD1181A6D
:100248000138704781F0004102E000BF83F00043AD
:1002580030B54FEA41044FEA430594EA050F08BF59
:1002680090EA020F1FBF54EA000C55EA020C7FEA1D
:10027800645C7FEA655C00F0E2804FEA5454D4EB9A
:100288005555B8BF6D420CDD2C4480EA020281EA64
:10029800030382EA000083EA010180EA020281EA9C
:1002A8000303362D88BF30BD11F0004F4FEA0131EE
:1002B8004FF4801C4CEA113102D0404261EB4101FD
:1002C80013F0004F4FEA03334CEA133302D0524283
:1002D80063EB430394EA050F00F0A780A4F101043F
:1002E800D5F1200E0DDB02FA0EFC22FA05F2801879
:1002F80041F1000103FA0EF2801843FA05F359415F
:100308000EE0A5F120050EF1200E012A03FA0EFCDD
:1003180028BF4CF0020C43FA05F3C01851EBE37107
:1003280001F0004507D54FF0000EDCF1000C7EEB24
:1003380000006EEB0101B1F5801F1BD3B1F5001F62
:100348000CD349085FEA30004FEA3C0C04F1010481
:100358004FEA445212F5800F80F09A80BCF1004FAA
:1003680008BF5FEA500C50F1000041EB045141EA2C
:10037800050130BD5FEA4C0C404141EB0101013CF5
:1003880028BFB1F5801FE9D291F0000F04BF0146E4
:100398000020B1FA81F308BF2033A3F10B03B3F1B6
:1003A80020020CDA0C3208DD02F1140CC2F10C0246
:1003B80001FA0CF021FA02F10CE002F11402D8BFA4
:1003C800C2F1200C01FA02F120FA0CFCDCBF41EA70
:1003D8000C019040E41AA2BF01EB0451294330BD3F
:1003E8006FEA04041F3C1CDA0C340EDC04F114041C
:1003F800C4F1200220FA04F001FA02F340EA0300F3
:1004080021FA04F345EA030130BDC4F10C04C4F138
:10041800200220FA02F001FA04F340EA0300294618
:1004280030BD21FA04F0294630BD94F0000F83F462
:10043800801306BF81F480110134013D4EE77FEA45
:10044800645C18BF7FEA655C29D094EA050F08BF91
:1004580090EA020F05D054EA000C04BF1946104672
:1004680030BD91EA030F1EBF0021002030BD5FEAB6
:10047800545C05D14000494128BF41F0004130BDDE
:1004880014F580043CBF01F5801130BD01F0004532
:1004980045F0FE4141F470014FF0000030BD7FEAA5
:1004A800645C1ABF194610467FEA655C1CBF0B46A0
:1004B800024650EA013406BF52EA033591EA030FB7
:1004C80041F4002130BD00BF90F0000F04BF0021AF
:1004D800704730B54FF4806404F132044FF00005E2
:1004E8004FF0000150E700BF90F0000F04BF00215B
:1004F800704730B54FF4806404F1320410F00045C1
:1005080048BF40424FF000013EE700BF42004FEABB
:10051800E2014FEA31014FEA02701FBF12F07F4338
:1005280093F07F4F81F06051704732F07F4208BFEF
:10053800704793F07F4F04BF41F40021704730B5F6
:100548004FF4607401F0004521F000411CE700BF42
:1005580050EA010208BF704730B54FF000050AE0C5
:1005680050EA010208BF704730B511F0004502D5C6
:10057800404261EB41014FF4806404F132045FEAC8
:10058800915C3FF4D8AE4FF003025FEADC0C18BF71
:1005980003325FEADC0C18BF033202EBDC02C2F163
:1005A800200300FA03FC20FA02F001FA03FE40EAF5
:1005B8000E0021FA02F11444BDE600BF70B54FF0F9
:1005C800FF0C4CF4E06C1CEA11541DBF1CEA1355D7
:1005D80094EA0C0F95EA0C0F00F0DEF82C4481EA3F
:1005E800030621EA4C5123EA4C5350EA013518BF5F
:1005F80052EA033541F4801143F4801338D0A0FB4C
:1006080002CE4FF00005E1FB02E506F00042E0FBF8
:1006180003E54FF00006E1FB03569CF0000F18BFFE
:100628004EF0010EA4F1FF04B6F5007F64F54074A6
:1006380004D25FEA4E0E6D4146EB060642EAC62139
:1006480041EA55514FEAC52040EA5E504FEACE2EA6
:10065800B4F1FD0C88BFBCF5E06F1ED8BEF1004FA9
:1006680008BF5FEA500E50F1000041EB045170BD25
:1006780006F0004646EA010140EA020081EA030169
:10068800B4EB5C04C2BFD4EB0C0541EA045170BD65
:1006980041F480114FF0000E013C00F3AB8014F1DF
:1006A800360FDEBF002001F0004170BDC4F1000428
:1006B800203C35DA0C341BDC04F11404C4F12005A9
:1006C80000FA05F320FA04F001FA05F240EA020004
:1006D80001F0004221F0004110EBD37021FA04F63A
:1006E80042EB06015EEA430E08BF20EAD37070BDF4
:1006F800C4F10C04C4F1200500FA04F320FA05F053
:1007080001FA04F240EA020001F0004110EBD37054
:1007180041F100015EEA430E08BF20EAD37070BDC4
:10072800C4F1200500FA05F24EEA020E20FA04F39D
:1007380001FA05F243EA020321FA04F001F000414C
:1007480021FA04F220EA020000EBD3705EEA430EBD
:1007580008BF20EAD37070BD94F0000F0FD101F0EC
:100768000046400041EB010111F4801F08BF013C25
:10077800F7D041EA060195F0000F18BF704703F063
:100788000046520043EB030313F4801F08BF013DEA
:10079800F7D043EA0603704794EA0C0F0CEA1355A6
:1007A80018BF95EA0C0F0CD050EA410618BF52EA60
:1007B8004306D1D181EA030101F000414FF0000066
:1007C80070BD50EA410606BF1046194652EA430674
:1007D80019D094EA0C0F02D150EA013613D195EAE8
:1007E8000C0F05D152EA03361CBF104619460AD130
:1007F80081EA030101F0004141F0FE4141F470013A
:100808004FF0000070BD41F0FE4141F4780170BD29
:1008180070B54FF0FF0C4CF4E06C1CEA11541DBF8E
:100828001CEA135594EA0C0F95EA0C0F00F0A7F890
:10083800A4EB050481EA030E52EA03354FEA0131BD
:1008480000F088804FEA03334FF0805545EA1313D0
:1008580043EA12634FEA022245EA111545EA106598
:100868004FEA00260EF000419D4208BF964244F12F
:10087800FD0404F5407402D25B084FEA3202B61A4E
:1008880065EB03055B084FEA32024FF480104FF422
:10089800002CB6EB020E75EB030E22BFB61A754696
:1008A80040EA0C005B084FEA3202B6EB020E75EB29
:1008B800030E22BFB61A754640EA5C005B084FEA91
:1008C8003202B6EB020E75EB030E22BFB61A75465E
:1008D80040EA9C005B084FEA3202B6EB020E75EB69
:1008E800030E22BFB61A754640EADC0055EA060E2A
:1008F80018D04FEA051545EA16754FEA06164FEA6D
:10090800C30343EA52734FEAC2025FEA1C1CC0D118
:1009180011F4801F0BD141EA00014FF000004FF0A5
:10092800004CB6E711F4801F04BF01430020B4F166
:10093800FD0C88BFBCF5E06F3FF6AFAEB5EB030C1E
:1009480004BFB6EB020C5FEA500C50F1000041EB1B
:10095800045170BD0EF0004E4EEA113114EB5C04E8
:10096800C2BFD4EB0C0541EA045170BD41F48011BB
:100978004FF0000E013C90E645EA060E8DE60CEAC3
:10098800135594EA0C0F08BF95EA0C0F3FF43BAFE0
:1009980094EA0C0F0AD150EA01347FF434AF95EA97
:1009A8000C0F7FF425AF104619462CE795EA0C0F7B
:1009B80006D152EA03353FF4FDAE1046194622E748
:1009C80050EA410618BF52EA43067FF4C5AE50EA22
:1009D80041047FF40DAF52EA43057FF4EBAE12E712
:1009E8004FF0FF3C06E000BF4FF0010C02E000BFF3
:1009F8004FF0010C4DF804CD4FEA410C7FEA6C5CD6
:100A08004FEA430C18BF7FEA6C5C1BD001B050EA78
:100A1800410C0CBF52EA430C91EA030F02BF90EA63
:100A2800020F0020704710F1000F91EA030F58BF22
:100A3800994208BF90422CBFD8176FEAE37040F084
:100A4800010070474FEA410C7FEA6C5C02D150EA22
:100A5800013C07D14FEA430C7FEA6C5CD6D152EADD
:100A6800033CD3D05DF8040B704700BF84461046A2
:100A780062468C461946634600E000BF01B5FFF7A1
:100A8800B7FF002848BF10F1000F01BD4DF808ED71
:100A9800FFF7F4FF0CBF012000205DF808FB00BF42
:100AA8004DF808EDFFF7EAFF34BF012000205DF89C
:100AB80008FB00BF4DF808EDFFF7E0FF94BF0120E9
:100AC80000205DF808FB00BF4DF808EDFFF7CEFFEA
:100AD80094BF012000205DF808FB00BF4DF808ED29
:100AE800FFF7C4FF34BF012000205DF808FB00BFFA
:100AF8004FEA410C7FEA6C5C02D150EA013C0AD112
:100B08004FEA430C7FEA6C5C02D152EA033C02D103
:100B18004FF0000070474FF0010070474FEA410264
:100B280012F5001215D211D56FF47873B3EB625237
:100B380012D94FEAC12343F0004343EA505311F05E
:100B4800004F23FA02F018BF404270474FF00000F0
:100B5800704750EA013005D111F0004008BF6FF02E
:100B6800004070474FF00000704700BF4A0011D2A4
:100B780012F5001211D20DD56FF47873B3EB6252EF
:100B88000ED44FEAC12343F0004343EA505323FAFB
:100B980002F070474FF00000704750EA013002D170
:100BA8004FF0FF3070474FF00000704780F0004072
:100BB80002E000BF81F0004142001FBF5FEA41032D
:100BC80092EA030F7FEA226C7FEA236C6AD04FEA2D
:100BD8001262D2EB1363C1BFD21841404840414072
:100BE800B8BF5B42192B88BF704710F0004F40F424
:100BF800000020F07F4018BF404211F0004F41F440
:100C0800000121F07F4118BF494292EA030F3FD00B
:100C1800A2F1010241FA03FC10EB0C00C3F120031E
:100C280001FA03F100F0004302D5494260EB4000AD
:100C3800B0F5000F13D3B0F1807F06D340084FEA18
:100C4800310102F10102FE2A51D2B1F1004F40EB0D
:100C5800C25008BF20F0010040EA03007047490075
:100C680040EB0000013A28BFB0F5000FEDD2B0FA12
:100C780080FCACF1080CB2EB0C0200FA0CF0AABF35
:100C880000EBC25052421843BCBFD04018437047D3
:100C980092F0000F81F4000106BF80F400000132D9
:100CA800013BB5E74FEA41037FEA226C18BF7FEAB0
:100CB800236C21D092EA030F04D092F0000F08BFF2
:100CC8000846704790EA010F1CBF0020704712F0D9
:100CD8007F4F04D1400028BF40F00040704712F118
:100CE80000723CBF00F50000704700F0004343F07D
:100CF800FE4040F4000070477FEA226216BF0846B3
:100D08007FEA23630146420206BF5FEA412390EA75
:100D1800010F40F4800070474FF0000304E000BF6B
:100D280010F0004348BF40425FEA000C08BF70471C
:100D380043F0964301464FF000001CE050EA0102E0
:100D480008BF70474FF000030AE000BF50EA0102F5
:100D580008BF704711F0004302D5404261EB4101E2
:100D68005FEA010C02BF84460146002043F0B64307
:100D780008BFA3F18053A3F50003BCFA8CF2083A2C
:100D8800A3EBC25310DB01FA02FC634400FA02FC35
:100D9800C2F12002BCF1004F20FA02F243EB02003C
:100DA80008BF20F00100704702F1200201FA02FC9E
:100DB800C2F1200250EA4C0021FA02F243EB020091
:100DC80008BF20EADC7070474FF0FF0C1CEAD052D5
:100DD8001EBF1CEAD15392EA0C0F93EA0C0F6FD096
:100DE8001A4480EA010C400218BF5FEA41211ED074
:100DF8004FF0006343EA501043EA5111A0FB013160
:100E08000CF00040B1F5000F3EBF490041EAD37134
:100E18005B0040EA010062F17F02FD2A1DD8B3F1B0
:100E2800004F40EBC25008BF20F00100704790F01F
:100E3800000F0CF0004C08BF49024CEA502040EA71
:100E480051207F3AC2BFD2F1FF0340EAC250704737
:100E580040F400004FF00003013A5DDC12F1190F75
:100E6800DCBF00F000407047C2F10002410021FAE7
:100E780002F1C2F1200200FA02FC5FEA310040F1FF
:100E8800000053EA4C0308BF20EADC70704792F078
:100E9800000F00F0004C02BF400010F4000F013AB0
:100EA800F9D040EA0C0093F0000F01F0004C02BFAB
:100EB800490011F4000F013BF9D041EA0C018FE71A
:100EC8000CEAD15392EA0C0F18BF93EA0C0F0AD020
:100ED80030F0004C18BF31F0004CD8D180EA010046
:100EE80000F00040704790F0000F17BF90F0004FDF
:100EF800084691F0000F91F0004F14D092EA0C0FC1
:100F080001D142020FD193EA0C0F03D14B0218BF53
:100F1800084608D180EA010000F0004040F0FE4099
:100F280040F40000704740F0FE4040F44000704735
:100F38004FF0FF0C1CEAD0521EBF1CEAD15392EAB4
:100F48000C0F93EA0C0F69D0A2EB030280EA010CA4
:100F580049024FEA402037D04FF0805343EA11113D
:100F680043EA10130CF000408B4238BF5B0042F19B
:100F78007D024FF4000C8B4224BF5B1A40EA0C0040
:100F8800B3EB510F24BFA3EB510340EA5C00B3EB72
:100F9800910F24BFA3EB910340EA9C00B3EBD10F60
:100FA80024BFA3EBD10340EADC001B0118BF5FEAB2
:100FB8001C1CE0D1FD2A3FF650AF8B4240EBC250DB
:100FC80008BF20F0010070470CF0004C4CEA50209C
:100FD8007F32C2BFD2F1FF0340EAC250704740F4EB
:100FE80000004FF00003013A37E792F0000F00F0DD
:100FF800004C02BF400010F4000F013AF9D040EA5B
:101008000C0093F0000F01F0004C02BF490011F4EE
:10101800000F013BF9D041EA0C0195E70CEAD153E6
:1010280092EA0C0F08D142027FF47DAF93EA0C0FCD
:101038007FF470AF084676E793EA0C0F04D14B02B1
:101048003FF44CAF08466EE730F0004C18BF31F063
:10105800004CCAD130F000427FF45CAF31F000435D
:101068007FF43CAF5FE700BF4FEA4002B2F1FE4FAA
:101078000FD34FF09E03B3EB12620DD94FEA002352
:1010880043F0004310F0004F23FA02F018BF40422B
:1010980070474FF00000704712F1610F01D1420212
:1010A80005D110F0004008BF6FF0004070474FF0C6
:1010B8000000704742000ED2B2F1FE4F0BD34FF042
:1010C8009E03B3EB126209D44FEA002343F00043B6
:1010D80023FA02F070474FF00000704712F1610FD9
:1010E80001D1420202D14FF0FF3070474FF00000AB
:1010F800704700BF80B500AF09F0B6FF00BF80BDE4
:1011080080B584B000AF0346FB800023FB7309F071
:10111800DBFFFB881B0A9BB2DBB25B00DBB2603BE8
:10112800DBB218460AF0ACF80AF01EF8FB88DBB20E
:1011380018460AF0A5F80AF017F809F0C5FFA1202B
:101148000AF09EF80AF010F800200AF0D9F80346D1
:10115800FB7309F0E1FFFB7B18461037BD4680BDE5
:1011680080B582B000AF03460A46FB8013467B7108
:1011780009F0AAFFFB881B0A9BB2DBB25B00DBB25B
:10118800603BDBB218460AF07BF809F0EDFFFB88FC
:10119800DBB218460AF074F809F0E6FF7B791846C6
:1011A8000AF06EF809F0E0FF09F0B6FF0A2000F037
:1011B80037FC00BF0837BD4680BD90B583B000AF8F
:1011C80003463960FB801346BB800DE0FB885A1C40
:1011D800FA803C68621C3A601846FFF791FF0346A4
:1011E8002370BB88013BBB80BB88002BEED100BFBE
:1011F80000BF0C37BD4690BD80B582B000AF034636
:101208003960FB801346BB800CE03B681A78FB888A
:1012180011461846FFF7A4FFFB880133FB803B68A3
:1012280001333B60BB885A1EBA80002BEDD100BF4A
:1012380000BF0837BD4680BD80B500AF0D4B1B68A9
:101248001A680C4B1B6822F040021A60094B0022F6
:101258001A61084B00225A6106480EF01DFC054B26
:101268001B681A68034B1B6842F040021A6000BFF3
:1012780080BD00BFF404002080B586B000AF2D4BC0
:101288009B692C4A43F0040393612A4B9B6903F042
:1012980004037B607B68274B9B69264A43F0100355
:1012A8009361244B9B6903F010033B603B681C234C
:1012B800BB600123FB6001233B6103237B6107F1D2
:1012C800080319461C480DF009FE1023BB6007F1FE
:1012D8000803194619480DF001FE0223BB600023DC
:1012E800FB6007F10803194613480DF0F7FD0122CA
:1012F800022111480DF09DFF012204210E480DF036
:1013080098FF012208210C480DF093FF01221021BB
:1013180009480DF08EFF0BF075FFFFF78DFF084BA6
:1013280000221A60074B01221A6000BF1837BD4619
:1013380080BD00BF001002400008014000100140BD
:10134800900121429001224280B582B000AF194A33
:101358003B4692E8030018600433197010200BF024
:101368008DFF3B4605221946302000F08FF83B469A
:1013780005221946102000F05BF80023FB7109E0F4
:10138800FB7908333B4413F8083CA52B06D1FB79BD
:101398000133FB71FB79042BF2D900E000BFFB7924
:1013A800052B01D0012300E0002318460837BD466D
:1013B80080BD00BF8C29010880B584B000AF03460A
:1013C8000A46FB711346BB710A4B00221A60FB796F
:1013D80018460BF081FF0346FB73BB7918460BF0E8
:1013E8007BFF044B01221A60FB7B18461037BD4671
:1013F80080BD00BF9001224280B584B000AF034693
:10140800FB710A4B00221A60FB7918460BF064FF47
:10141800FF200BF061FF0346FB73044B01221A60A7
:10142800FB7B18461037BD4680BD00BF90012242A5
:1014380090B585B000AF03463960FB711346BB71A8
:10144800114B00221A60FB7918460BF045FF034642
:10145800BB730023FB730AE0FB7B3A68D418FF20B8
:101468000BF03AFF03462370FB7B0133FB73FA7BD7
:10147800BB799A42F0D3044B01221A60BB7B184611
:101488001437BD4690BD00BF9001224280B584B09C
:1014980000AF03463960FB711346BB71104B002245
:1014A8001A60FB7918460BF017FF0346BB7300233D
:1014B800FB7309E03B685A1C3A601B7818460BF02E
:1014C8000BFFFB7B0133FB73FA7BBB799A42F1D3A9
:1014D800034B01221A60BB7B18461037BD4680BDFE
:1014E8009001224280B584B000AF786010200BF0E4
:1014F800C5FE184B00221A6020227968A020FFF749
:10150800C5FF144B01221A6000BF134B1B68002B48
:10151800FBD10720FFF770FF0346FB73FB7B1946DF
:101528002720FFF749FFFB7B03F01003002B05D0B2
:10153800FF21E120FFF740FF102307E0FB7B03F0CA
:101548002003002B01D0202300E0FF23184610378A
:10155800BD4680BD900121420401214280B584B07E
:1015680000AF786010200BF089FE0720FFF744FFDA
:101578000346FB73FB7B19462720FFF71DFFFB7B08
:1015880003F04003002B0AD0202279686120FFF77E
:101598004FFFFF21E220FFF70FFF002300E00123A8
:1015A80018461037BD4680BD80B500AF124B0022EB
:1015B8001A60052211492A20FFF768FF012121201E
:1015C800FFF7FAFE01212220FFF7F6FE2821252049
:1015D800FFF7F2FE20213120FFF7EEFE0F21262033
:1015E800FFF7EAFE0F212020FFF7E6FE024B01225B
:1015F8001A6000BF80BD00BF9001214280350108FC
:1016080080B500AF144B00221A6005221349302020
:10161800FFF73CFF052212492A20FFF737FF012177
:101628002120FFF7C9FE01212220FFF7C5FE1A215C
:101638002420FFF7C1FE28212520FFF7BDFE0F213A
:101648002620FFF7B9FE0E212020FFF7B5FE024B3A
:1016580001221A6000BF80BD90012142783501083F
:101668008035010880B500AF052000F09BF900BF68
:1016780080BD000080B586B000AF124B9B69114A4F
:1016880043F0100393610F4B9B6903F010037B60D9
:101698007B680923BB600123FB6001233B610323B3
:1016A8007B6107F10803194607480DF017FC074B43
:1016B80001221A60064B01221A6000BF1837BD4686
:1016C80080BD00BF0010024000100140800122428E
:1016D8008C01224280B500AF0F4B1B680E4A23F4E1
:1016E800704313600C4B1B680B4A43F44053136060
:1016F8000A4B01221A600A4B01221A601E2000F0D0
:1017080051F9064B00221A60FFF7ACFF044B002288
:101718001A6000BF80BD00BF001001408C0122424A
:101728008001224280B500AF0D4B1B680C4A23F4A0
:10173800704313600A4B1B68094A43F44053136013
:10174800084B01221A601E2000F02CF9064B0022DB
:101758001A60FFF787FF044B01221A6000BF80BDA3
:1017680000100140800122428C01224280B582B0E3
:1017780000AF0023FB71164B1B68154A23F4704316
:101788001360134B1B68124A43F400431360114B58
:1017980001221A60104B01221A60FFF763FF0BE069
:1017A800FB790133FB71FB79FA2B03D9FFF7BAFFF9
:1017B800012309E0FFF756FF084B1B68002BEFD108
:1017C800054B00221A60002318460837BD4680BD25
:1017D800001001408C012242800122420C01224269
:1017E80080B500AF0F4B00221A600F4B1B680E4AE2
:1017F80023F4704313600C4B1B680B4A43F44053AB
:101808001360FFF72FFF094B00221A60FFF72AFF2A
:10181800044B01221A60FFF725FF024B00221A60D1
:1018280000BF80BD80012242001001408C0122428D
:1018380080B500AF0F4B00221A600F4B1B680E4A91
:1018480023F4704313600C4B1B680B4A43F440535A
:101858001360FFF707FF094B01221A60FFF702FF29
:10186800044B01221A60FFF7FDFE024B00221A60AA
:1018780000BF80BD80012242001001408C0122423D
:1018880080B584B000AF0346FB71184B1B68174A3C
:1018980023F470431360154B1B68144A43F44053F8
:1018A8001360134B00221A60FFF7DCFE0023FB7362
:1018B80014E0FB79DB09DAB20E4B1A60FB795B00A6
:1018C800FB710B4B01221A60FFF7CCFE084B00227C
:1018D8001A60FFF7C7FEFB7B0133FB73FB7B072B0B
:1018E800E7D900BF00BF1037BD4680BD00100140DA
:1018F800800122428C01224280B584B000AF0346A9
:10190800FB710023BB731B4B1B681A4A23F47043FB
:101918001360184B1B68174A43F4004313601E20DA
:1019280000F040F80023FB7314E0134B00221A6008
:10193800FFF798FE104B01221A60BB7B5B00BB735C
:101948000E4B1B68002B02D0BB7B0133BB73FB7BA8
:101958000133FB73FB7B072BE7D9FB79002B02D103
:10196800FFF766FF01E0FFF73BFFBB7B1846103728
:10197800BD4680BD00100140800122420C01224278
:1019880080B582B000AF0346FB7104200DF048F922
:10199800FB79034A136000BF0837BD4680BD00BF0E
:1019A800D400002080B489B000AF78600023BB6108
:1019B800194B5B687B61194B1A687B6802FB03F360
:1019C8003B61154B9B68FB61134B9B68FB60FA6896
:1019D800FB699A42F8D0FA68FB699A4206D2FA691A
:1019E800FB68D31ABA691344BB6107E07A69FB68DC
:1019F800D21AFB691344BA691344BB61FB68FB61E3
:101A0800BA693B699A4200D2DEE700BF00BF2437BB
:101A1800BD4680BC704700BF10E000E0D400002045
:101A280080B584B000AF0346FB800023FB6006E06E
:101A38004FF47A70FFF7B6FFFB680133FB60FB8851
:101A4800FA689A42F4D300BF00BF1037BD4680BD84
:101A580080B584B000AF03463960FB8013467B71C4
:101A68000023BB73FFF736FE7020FFF709FFFFF76F
:101A78007DFEFB88DBB21846FFF702FFFFF776FE14
:101A88000023FB7310E0FB7B3A6813441B7818466D
:101A9800FFF7F6FEFFF76AFE0346BB73BB7B002B1E
:101AA80007D1FB7B0133FB73FA7B7B799A42EAD33C
:101AB80000E000BFFFF736FEBB7B18461037BD4677
:101AC80080BD90B585B000AF03463960FB801346F2
:101AD8007B71FFF7FFFD7020FFF7D2FEFFF746FE90
:101AE800FB88DBB21846FFF7CBFEFFF73FFEFFF798
:101AF800F1FD7120FFF7C4FEFFF738FE0023FB73EA
:101B080013E0FA7B7B79013B9A4214BF012300233F
:101B1800DBB21946FB7B3A68D4180846FFF7ECFE9F
:101B280003462370FB7B0133FB73FA7B7B799A4274
:101B3800E7D3FFF7F7FD00BF1437BD4690BD00009F
:101B480080B586B000AF374B9B69364A43F0100327
:101B58009361344B9B6903F010033B603B684FF47F
:101B680000537B600123BB600123FB6003233B61BF
:101B78003B1D19462C480DF0B1F902237B60002368
:101B8800BB603B1D194628480DF0A8F9FFF772FD08
:101B9800264B00221A601420FFF742FF234B012234
:101BA8001A603220FFF73CFF00233B7507F114034E
:101BB800012219460020FFF74BFF07F11403012209
:101BC8001946A420FFF744FF16233B7507F11403B9
:101BD800012219468020FFF73BFF0C233B7507F1D4
:101BE8001403012219468820FFF732FF07F1140376
:101BF80002221946A120FFF764FF3B7D302B0CD150
:101C08007B7D032B09D13B7D1B027A7D134419464A
:101C180007480FF079FC002300E001231846183725
:101C2800BD4680BD0010024000100140B4012242B0
:101C38009429010880B584B000AF0346FB710023E6
:101C4800FB730023BB73834B1B780133DAB2814BE0
:101C58001A70804B1A78804BA3FB0213D9080B46E5
:101C68009B000B445B00D31ADBB2002B04D0794BEA
:101C78001B78092B00F2BB80FB1D012219460220AC
:101C8800FFF71FFFFB7903F00F03002B00F0AF8075
:101C9800FB7903F00F03052B00F3A980FB7903F010
:101CA8000F03FF2202FA03F37B7397F90D30DB432E
:101CB8005BB263F03F035BB2DAB2684B83F8202073
:101CC8000023FB7380E0654B93F820301A46FB7BBA
:101CD80042FA03F303F00103002B72D0FB7B604A46
:101CE80032F8133007F1080104221846FFF7E9FE1D
:101CF8005A4B93F8303003F00103002B22D03B7A83
:101D08001B029BB203F4706399B27B7A9AB2FB7B95
:101D18000A4491B2514A08335B0013440A46DA80F8
:101D2800BB7A1B029BB203F4706399B2FB7A9AB236
:101D3800FB7B0A4491B2494A04335B0013440A46C8
:101D48009A8024E03B7A1B029BB203F470639AB238
:101D58007B7A9BB213449AB2FB7BC2F5F07291B2C4
:101D68003E4A04335B0013440A469A80BB7A1B023E
:101D78009BB203F4706399B2FB7A9AB2FB7B0A4474
:101D880091B2364A08335B0013440A46DA803B7A3C
:101D980003F0F003802B14D0FA7B304902F10803DA
:101DA8005B000B440021D980F97B2C4802F1080321
:101DB8005B000344D888294A0B1D5B001344024684
:101DC8009A80FB7B0133FB73FB7B042B7FF67BAF95
:101DD8000123BB73214B9B89002B05D11F4BDB8A49
:101DE800002B01D10023FB711A4B00221A70FB79DA
:101DF80003F01F03002B20D1184B93F820305BB25F
:101E0800002B09DA154B93F8203003F07F03DAB280
:101E1800124B83F8202010E0104B4FF6FF729A8186
:101E28000E4B4FF6FF72DA820C4B93F8203023F0FA
:101E38001F03DAB2094B83F82020064B1B78F02BDE
:101E480002D9044B0A221A70BB7B18461037BD46CC
:101E580080BD00BFD8000020CDCCCCCC1400002021
:101E68008835010880B584B000AF0346FB710023B4
:101E7800FB7300233B73FB797B730023FB7309E03F
:101E88003A7BFB7B1049CB5C1344DBB23B73FB7B97
:101E98000133FB73FB7BB72BF2D93B7B5B42DBB295
:101EA8003B73B822084948F2470000F00FF807F1E1
:101EB8000C030222194648F2FF0000F007F800233D
:101EC80018461037BD4680BD9435010880B584B0EA
:101ED80000AF03463960FB8013467B710023BB7358
:101EE800FFF7F8FB2820FFF7CBFCFFF73FFCFB8848
:101EF8001B0A9BB2DBB21846FFF7C2FCFFF736FCA1
:101F0800FB88DBB21846FFF7BBFCFFF72FFC00236A
:101F1800FB7310E0FB7B3A6813441B781846FFF705
:101F2800AFFCFFF723FC0346BB73BB7B002B07D139
:101F3800FB7B0133FB73FA7B7B799A42EAD300E09F
:101F480000BFFFF7EFFBBB7B18461037BD4680BDCF
:101F580090B585B000AF03463960FB8013467B71AE
:101F6800FFF7B8FB2820FFF78BFCFFF7FFFBFB8888
:101F78001B0A9BB2DBB21846FFF782FCFFF7F6FBA1
:101F8800FB88DBB21846FFF77BFCFFF7EFFBFFF798
:101F9800A1FB2920FFF774FCFFF7E8FB0023FB7384
:101FA80013E0FA7B7B79013B9A4214BF012300239B
:101FB800DBB21946FB7B3A68D4180846FFF79CFC4D
:101FC80003462370FB7B0133FB73FA7B7B799A42D0
:101FD800E7D3FFF7A7FB00BF1437BD4690BD00004D
:101FE80080B588B000AF464B9B69454A43F0100363
:101FF8009361434B9B6903F010037B607B684FF44C
:102008000053BB600123FB6001233B6103237B6119
:1020180007F1080319463B480CF060FF0223BB6038
:102028000023FB6007F10803194636480CF056FFF9
:10203800FFF720FB344B00221A600A20FFF7F0FC60
:10204800314B01221A600A20FFF7EAFC0223BB6029
:1020580002233B610023FB6007F108031946294866
:102068000CF03CFF6420FFF7DBFC07F118030422A7
:10207800194648F24010FFF76BFF00233B7707F142
:102088001803194621480FF03FFA07F118032049B1
:102098001846FEF7C5F80346002B2BD102233B76E2
:1020A80007F118030122194648F24000FFF70EFF16
:1020B80007F118030122194648F24700FFF748FFC5
:1020C8003B7E5F2B07D83B7E194612480FF01CFA5F
:1020D8000120FFF7C7FE0A20FFF7A2FC00233B768A
:1020E80007F118030122194648F24000FFF7EEFEF7
:1020F800002300E0002318462037BD4680BD00BFFE
:102108000010024000100140B4012242A029010839
:10211800AC290108B429010880B586B000AF034690
:10212800FB710023FB750023BB75934B1B780133B0
:10213800DAB2914B1A70904B1A78904BA3FB0213AA
:10214800D9080B469B000B445B00D31ADBB2002B6B
:1021580004D0894B1B78092B00F2DB80FB1D012280
:10216800194648F24E10FFF7F3FEFB795BB2002BDD
:102178000EDAFB7903F00F03052B09DC0023FB7350
:1021880007F10F030122194648F24E10FFF79EFE91
:10219800FB7903F00F03002B00F0BB80FB7903F001
:1021A8000F03052B00F3B580FB7903F00F03FF2223
:1021B80002FA03F3DBB2FB73714B93F820307B75A3
:1021C800FB7B5BB2DB435BB263F03F035BB2DAB22B
:1021D8006B4B83F820206A4B9A89694B9A82684B2B
:1021E800DA8A674BDA830023FB755EE0644B93F869
:1021F80020301A46FB7D42FA03F303F00103002B5B
:1022080050D0FB7D5F4A32F8133007F110010422E9
:102218001846FFF79DFE5A4B93F8303003F0010340
:10222800002B21D07B7C9BB21B0299B23B7C9AB2DB
:10223800FB7D0A4491B2524A08335B0013440A46B4
:10224800DA80FB7C9BB21B029AB2BB7C9BB2134424
:102258009AB2FB7DC2F5487291B2494A04335B00D9
:1022680013440A469A801DE07B7C9BB21B0299B2FC
:102278003B7C9AB2FB7D0A4491B2414A04335B002D
:1022880013440A469A80FB7C9BB21B0299B2BB7C22
:102298009AB2FB7D0A4491B2394A08335B00134471
:1022A8000A46DA80FB7D0133FB75FB7D042B9DD943
:1022B8000123BB75324B9A89334B1B889A4205D848
:1022C8002F4BDA8A304B5B889A421FD9FB7903F08F
:1022D8000E03002B0BD02A4BDA89294B9A81284B05
:1022E8001A8B274BDA82244B00221A7011E0244BF8
:1022F8009A8A234B9A81224BDA8B214BDA828023EC
:10230800FB711F4A7B7D82F8203002E01A4B0022C5
:102318001A70FB7903F08F03802B20D1184B93F8A8
:1023280020305BB2002B09DA154B93F8203003F00C
:102338007F03DAB2124B83F8202010E0104B4FF6DF
:10234800FF729A810E4B4FF6FF72DA820C4B93F8AC
:10235800203023F01F03DAB2094B83F82020064B04
:102368001B78F02B02D9044B0A221A70BB7D184641
:102378001837BD4680BD00BFD9000020CDCCCCCCDD
:10238800140000204C360108DC00002080B586B01F
:1023980000AF1F4B9B691E4A43F0040393611C4B1B
:1023A8009B6903F004037B607B68194B9B69184A9F
:1023B80043F010039361164B9B6903F010033B60D5
:1023C8003B680123BB600023FB6002233B610323BE
:1023D8007B6107F1080319460E480CF07FFD4FF4A6
:1023E8000043BB6001233B6107F108031946094814
:1023F8000CF074FD2023BB6001233B6107F1080347
:10240800194605480CF06AFD00BF1837BD4680BD67
:1024180000100240000801400010014080B582B061
:1024280000AF0346FB71FB79012B02D12F4B012230
:102438001A702E4B1B78002B37D020212C480CF01B
:10244800E1FE0346002B0ED04FF4004129480CF062
:10245800D9FE0346002B06D0012126480CF0D2FEF7
:102468000346012B21D10A20FFF7DAFA1F4B00227D
:102478001A7020211E480CF0C5FE0346002B01D11E
:1024880001232EE04FF400411A480CF0BBFE03462E
:10249800002B01D1022324E0012116480CF0B2FEE2
:1024A8000346012B1BD103231BE0202110480CF00D
:1024B800A9FE0346012B13D14FF400410D480CF03F
:1024C800A1FE0346012B0BD101210A480CF09AFE0C
:1024D8000346002B04D1054B01221A7000E000BF0F
:1024E800002318460837BD4680BD00BF0000002005
:1024F800001001400008014080B483B000AF0346DB
:10250800FB800D4B4FF480725A610B4B4FF40072F5
:102518005A610A4AFB88D360074B80225A61064BEE
:1025280080221A61044B4FF400721A6100BF0C3705
:10253800BD4680BC704700BF00100140000C014040
:1025480080B483B000AF0346FB800D4B4FF480721C
:102558001A610B4B4FF400725A610A4AFB88D36028
:10256800074B80225A61064B80221A61044B4FF4B4
:1025780000721A6100BF0C37BD4680BC704700BFAF
:1025880000100140000C014080B483B000AF034646
:10259800FB7100BFFB795A1EFA71002BFAD100BFFC
:1025A80000BF0C37BD4680BC7047000080B582B0C4
:1025B80000AF1A4B4FF088321A60184B4FF0883230
:1025C8005A60164B0022DA60154B4FF480721A617C
:1025D800134B4FF400725A61114B40225A6102208A
:1025E800FFF7D2FF0D4B9B68FB800D4B40221A6111
:1025F8000B4B4FF400721A61084B4FF033321A60DC
:10260800064B4FF033325A60044B4FF6FF72DA60D4
:10261800FB8818460837BD4680BD00BF000C014046
:102628000010014080B582B000AF03460A46FB8027
:102638001346BB80FB881846FFF75EFF0C4B4FF430
:1026480080721A610A4B4FF400725A61094ABB88BA
:10265800D360074B80225A61054B80221A61044BD4
:102668004FF400721A6100BF0837BD4680BD00BF35
:1026780000100140000C014080B500AF034B1B89DE
:102688001846FFF739FF00BF80BD00BFDC000020FF
:1026980080B582B000AF03460A46FB801346BB8074
:1026A800994B9B8841F66312934240F03381964BD5
:1026B8009B79002B63D1944B1A88FB88D31A9BB261
:1026C800013BFB80904B5B891846FFF715FF8F4B4A
:1026D8004FF480721A618D4B4FF400725A618C4B23
:1026E8000022DA60894B80225A61884B80221A6165
:1026F800864B4FF400721A61844B4FF480721A6152
:10270800824B4FF400725A61814B0022DA607F4B92
:1027180080225A617D4B80221A617C4B4FF40072F3
:102728001A617A4B4FF480721A61784B4FF4007239
:102738005A61FB881B0A9AB2754BDA60734B802288
:102748005A61724B80221A61704B4FF400721A6101
:102758006E4B4FF480721A616C4B4FF400725A61E1
:10276800FB886B4ADBB2D360684B80225A61674BA7
:1027780080221A61654B4FF400721A6161E0624B66
:102788005B891846FFF7B8FE604B4FF480721A61F8
:102798005E4B4FF400725A61FB881B0A9AB25C4B7D
:1027A800DA605A4B80225A61584B80221A61574B83
:1027B8004FF400721A61554B4FF480721A61534BF3
:1027C8004FF400725A61FB88514ADBB2D3604F4B19
:1027D80080225A614D4B80221A614C4B4FF4007293
:1027E8001A614A4B4FF480721A61484B4FF40072D9
:1027F8005A61454B1B88013B1A12454BDA60434B23
:1028080080225A61414B80221A61404B4FF400727A
:102818001A613E4B4FF480721A613C4B4FF40072C0
:102828005A61394B1B88013B394ADBB2D360374BBD
:1028380080225A61354B80221A61344B4FF4007262
:102848001A61314B9B891846FFF756FE2F4B4FF400
:1028580080721A612D4B4FF400725A61BB881B0AB3
:102868009AB22B4BDA60294B80225A61274B80227F
:102878001A61264B4FF400721A61244B4FF4807290
:102888001A61224B4FF400725A61BB88204ADBB2AE
:10289800D3601E4B80225A611C4B80221A611B4B4D
:1028A8004FF400721A61194B4FF480721A61174B7A
:1028B8004FF400725A61144B5B88013B1A12144B97
:1028C800DA60124B80225A61104B80221A610F4B3A
:1028D8004FF400721A610D4B4FF480721A610B4B62
:1028E8004FF400725A61084B5B88013B084ADBB21F
:1028F800D360064B80225A61044B80221A61034B35
:102908004FF400721A61E2E0DC0000200010014080
:10291800000C0140704B9B8845F21052934272D1D3
:102928006D4B5B891846FFF7E7FD6C4B4FF48072DF
:102938001A616A4B4FF400725A61FB881B0A9AB2FB
:10294800674BDA60654B80225A61644B80221A61BA
:10295800624B4FF400721A615F4B5B8901339BB283
:102968001846FFF7C9FD5D4B4FF480721A615B4B47
:102978004FF400725A61FB88594ADBB2D360574B57
:1029880080225A61554B80221A61544B4FF40072D1
:102998001A61514B9B891846FFF7AEFD4F4B4FF418
:1029A80080721A614D4B4FF400725A61BB881B0A42
:1029B8009AB24B4BDA60494B80225A61474B8022CE
:1029C8001A61464B4FF400721A61434B9B890133DD
:1029D8009BB21846FFF790FD404B4FF480721A6186
:1029E8003E4B4FF400725A61BB883D4ADBB2D3605C
:1029F8003A4B80225A61394B80221A61374B4FF487
:102A080000721A6163E0344B5B891846FFF774FD66
:102A1800324B4FF480721A61304B4FF400725A6196
:102A2800FB881B0A9AB22E4BDA602C4B80225A6123
:102A38002A4B80221A61294B4FF400721A61274BE6
:102A48004FF480721A61254B4FF400725A61FB886B
:102A5800234ADBB2D360214B80225A611F4B80226C
:102A68001A611E4B4FF400721A611B4B9B89184662
:102A7800FFF742FD194B4FF480721A61174B4FF460
:102A880000725A61BB881B0A9AB2154BDA60134B65
:102A980080225A61114B80221A61104B4FF4007248
:102AA8001A610E4B4FF480721A610C4B4FF400728E
:102AB8005A61BB880A4ADBB2D360084B80225A614C
:102AC800064B80221A61054B4FF400721A6100BF51
:102AD8000837BD4680BD00BFDC0000200010014063
:102AE800000C014080B584B000AF0346FB710023A1
:102AF800FB810023BB815E4B9B79012B05D15C4B8D
:102B08009B8841F66312934209D1594B9B79002B5C
:102B180034D1574B9B8841F6631293422ED1FB79EF
:102B2800072B2CD801A252F823F000BF552B000820
:102B38005B2B0008612B0008672B00086D2B000831
:102B4800732B0008792B00087F2B00080623FB71E4
:102B580015E00723FB7112E00423FB710FE0052346
:102B6800FB710CE00123FB7109E00023FB7106E017
:102B78000323FB7103E00223FB7100E000BFFB7934
:102B8800072B36D801A252F823F000BFFB2B000810
:102B9800B52B0008BF2B0008C92B0008D32B000851
:102BA800DD2B0008E72B0008F12B0008FB8943F018
:102BB8008003FB811DE0FB8943F04003FB8118E0A3
:102BC800FB8943F0C003FB8113E0FB8943F020033A
:102BD800FB810EE0FB8943F06003FB8109E0FB8980
:102BE80043F0A003FB8104E0FB8943F0E003FB8191
:102BF80000BF1F4B9B8845F21052934203D14FF4FC
:102C08005853BB8101E03623BB81194B9B8849F29D
:102C18004132934205D0164B9B8847F28972934202
:102C280003D1FB8943F00803FB81FA89BB8911466C
:102C38001846FFF7F7FC0E4B9B8841F66312934248
:102C480028D0FB8903F02003002B13D0084B1A88E7
:102C5800074B5B889A421DD2054B1B887B81044B2E
:102C68005A88034B1A80024A7B89538012E000BFBE
:102C7800DC0000207F4B1A887E4B5B889A4209D97A
:102C88007C4B1B887B817B4B5A887A4B1A80794A0C
:102C98007B895380774B9B8845F21052934240F0D2
:102CA800EF80744B5B891846FFF726FC724B4FF494
:102CB80080721A61704B4FF400725A616F4B002298
:102CC800DA606D4B80225A616B4B80221A616A4B25
:102CD8004FF400721A61674B5B8901339BB2184647
:102CE800FFF70AFC644B4FF480721A61624B4FF491
:102CF80000725A61614B0022DA605F4B80225A6190
:102D08005D4B80221A615C4B4FF400721A61594B7B
:102D18005B8902339BB21846FFF7EEFB564B4FF424
:102D280080721A61544B4FF400725A61514B1B88E0
:102D3800013B1A12514BDA604F4B80225A614E4BBD
:102D480080221A614C4B4FF400721A61494B5B891F
:102D580003339BB21846FFF7CFFB474B4FF4807203
:102D68001A61454B4FF400725A61424B1B88013B74
:102D7800424ADBB2D360404B80225A613E4B8022EC
:102D88001A613D4B4FF400721A613A4B9B89184601
:102D9800FFF7B2FB384B4FF480721A61364B4FF491
:102DA80000725A61354B0022DA60334B80225A6137
:102DB800314B80221A61304B4FF400721A612D4B4F
:102DC8009B8901339BB21846FFF796FB2A4B4FF4B9
:102DD80080721A61284B4FF400725A61274B002207
:102DE800DA60254B80225A61234B80221A61224BDC
:102DF8004FF400721A611F4B9B8902339BB218462D
:102E0800FFF77AFB1C4B4FF480721A611A4B4FF490
:102E180000725A61174B5B88013B1A12174BDA6034
:102E2800154B80225A61144B80221A61124B4FF4C1
:102E380000721A610F4B9B8903339BB21846FFF748
:102E48005BFB0D4B4FF480721A610B4B4FF4007211
:102E58005A61084B5B88013B084ADBB2D360064BDA
:102E680080225A61044B80221A61034B4FF400728E
:102E78001A61C3E0DC00002000100140000C014092
:102E8800604B5B891846FFF737FB5F4B4FF4807246
:102E98001A615D4B4FF400725A615C4B0022DA6094
:102EA800594B80225A61584B80221A61564B4FF475
:102EB80000721A61544B4FF480721A61524B4FF4EE
:102EC80000725A61514B0022DA604F4B80225A61DE
:102ED8004D4B80221A614C4B4FF400721A614A4BD9
:102EE8004FF480721A61484B4FF400725A61454B97
:102EF8001B88013B1A12454BDA60434B80225A610A
:102F0800414B80221A61404B4FF400721A613E4BCC
:102F18004FF480721A613C4B4FF400725A61394B7E
:102F28001B88013B394ADBB2D360374B80225A6198
:102F3800354B80221A61344B4FF400721A61314BC1
:102F48009B891846FFF7D8FA2F4B4FF480721A6105
:102F58002D4B4FF400725A612C4B0022DA602A4B39
:102F680080225A61284B80221A61274B4FF4007245
:102F78001A61254B4FF480721A61234B4FF400728B
:102F88005A61224B0022DA601F4B80225A611E4B85
:102F980080221A611C4B4FF400721A611A4B4FF4CD
:102FA80080721A61184B4FF400725A61154B5B8896
:102FB800013B1A12154BDA60134B80225A61124BEF
:102FC80080221A61104B4FF400721A610E4B4FF4B5
:102FD80080721A610C4B4FF400725A61094B5B887E
:102FE800013B0A4ADBB2D360074B80225A61064B89
:102FF80080221A61044B4FF400721A6100BF103727
:10300800BD4680BDDC00002000100140000C0140DE
:1030180080B582B000AF03460A46FB801346BB80EA
:10302800BA88FB8811461846FFF732FBFFF724FBE6
:103038000C4B4FF480721A610A4B4FF400725A61BC
:10304800094B1A88094BDA60064B80225A61054BF6
:1030580080221A61034B4FF400721A6100BF0837CF
:10306800BD4680BD00100140DA000020000C014080
:1030780080B582B000AF0346FB800B46BB80134689
:103088007B803C4B9B8845F21052934278D1394B58
:103098005B891846FFF730FA374B4FF480721A6194
:1030A800354B4FF400725A61FB881B0A9AB2334BB6
:1030B800DA60314B80225A612F4B80221A612E4BE5
:1030C8004FF400721A612B4B5B8901339BB218468F
:1030D800FFF712FA284B4FF480721A61264B4FF40F
:1030E80000725A61FB88254ADBB2D360224B8022EA
:1030F8005A61214B80221A611F4B4FF400721A61EA
:103108001C4B9B891846FFF7F7F91B4B4FF480724D
:103118001A61194B4FF400725A61BB881B0A9AB2A4
:10312800164BDA60144B80225A61134B80221A61C5
:10313800114B4FF400721A610E4B9B8901339BB2FD
:103148001846FFF7D9F90C4B4FF480721A610A4BF5
:103158004FF400725A61BB88084ADBB2D360064B51
:1031680080225A61044B80221A61034B4FF400728B
:103178001A6141E1DC00002000100140000C014010
:10318800684B9B8841F66312934240F0D180654BAF
:103198009B79002B06D1634B1A88FB88D31A9BB204
:1031A800013BFB805F4B5B891846FFF7A5F95E4B37
:1031B8004FF480721A615C4B4FF400725A61FB88BD
:1031C8001B0A9AB2594BDA60574B80225A61564B08
:1031D80080221A61544B4FF400721A61524B4FF41B
:1031E80080721A61504B4FF400725A61FB884F4A43
:1031F800DBB2D3604C4B80225A614B4B80221A6160
:10320800494B4FF400721A61474B4FF480721A61B0
:10321800454B4FF400725A61FB881B0A9AB2434B24
:10322800DA60414B80225A613F4B80221A613E4B43
:103238004FF400721A613C4B4FF480721A613A4B9A
:103248004FF400725A61FB88384ADBB2D360364BC0
:1032580080225A61344B80221A61334B4FF400723A
:103268001A61304B9B891846FFF746F92E4B4FF4ED
:1032780080721A612C4B4FF400725A61BB881B0A8A
:103288009AB22A4BDA60284B80225A61264B802258
:103298001A61254B4FF400721A61234B4FF4807268
:1032A8001A61214B4FF400725A61BB881F4ADBB286
:1032B800D3601D4B80225A611B4B80221A611A4B26
:1032C8004FF400721A61184B4FF480721A61164B52
:1032D8004FF400725A61BB881B0A9AB2134BDA602A
:1032E800114B80225A61104B80221A610E4B4FF409
:1032F80000721A610C4B4FF480721A610A4B4FF43A
:1033080000725A61BB88094ADBB2D360064B80223F
:103318005A61054B80221A61034B4FF400721A61FF
:103328006AE000BFDC00002000100140000C0140F2
:10333800494B5B891846FFF7DFF8484B4FF480721A
:103348001A61464B4FF400725A61FB881B0A9AB205
:10335800434BDA60414B80225A61404B80221A610C
:103368003E4B4FF400721A613C4B4FF480721A6165
:103378003A4B4FF400725A61FB88394ADBB2D3608A
:10338800364B80225A61354B80221A61334B4FF4F9
:1033980000721A61304B9B891846FFF7ADF82F4B26
:1033A8004FF480721A612D4B4FF400725A61BB883A
:1033B8001B0A9AB22A4BDA60284B80225A61274BA3
:1033C80080221A61254B4FF400721A61234B4FF487
:1033D80080721A61214B4FF400725A61BB88204AEF
:1033E800DBB2D3601D4B80225A611C4B80221A61CC
:1033F8001A4B4FF400721A61184B4FF480725A61DD
:10340800164B4FF400725A61134B1A89144BDA6049
:10341800124B80225A61114B80221A610F4B4FF4D4
:1034280000721A610D4B4FF480721A610B4B4FF406
:1034380000725A610A4A7B88D360084B80225A611D
:10344800064B80221A61054B4FF400721A6100BFC7
:103458000837BD4680BD00BFDC00002000100140D9
:10346800000C01400000000090B583B000AF034697
:10347800FB71BE20FFF740F84B4B4FF480721A6186
:10348800494B4FF400725A61484B0522DA60464BAB
:1034980080225A61444B80221A61434B4FF40072D8
:1034A8001A61414B4FF480721A613F4B4FF400721E
:1034B8005A61FB791846FDF717F839A3D3E90023B9
:1034C800FDF77CF802460B46384C10461946FDF7C6
:1034D8004DFB0346E360344B80225A61324B802215
:1034E8001A61314B4FF400721A612F4B4FF48072FE
:1034F8001A612D4B4FF400725A612C4B0122DA608D
:10350800294B80225A61284B80221A61264B4FF49E
:1035180000721A61244B4FF480721A61224B4FF4E7
:1035280000725A61214BFF22DA601F4B80225A61D8
:103538001D4B80221A611C4B4FF400721A611A4B02
:103548004FF480721A61184B4FF400725A61174B8E
:103558000022DA60144B80225A61134B80221A61D0
:10356800114B4FF400721A610F4B4FF480721A61BD
:103578000D4B4FF400725A610C4B0022DA600A4B73
:1035880080225A61084B80221A61074B4FF400725F
:103598001A6100BF0C37BD4690BD00BFAFF3008075
:1035A800666666666666044000100140000C0140CD
:1035B80080B582B000AF0346FB71584AFB7993711E
:1035C800FB79002B51D1554BF0221A80534B4FF405
:1035D800A0725A80514B9B8845F21052934214D1E5
:1035E8004E4B4FF430521A814C4B4FF428525A81AB
:1035F8004A4B4FF42C529A81484B4FF4F0721A8080
:10360800464B4FF448725A8020E0444B9B8841F661
:103618006312934211D1414B2C221A813F4B2B222A
:103628005A813E4B2A229A813C4B4FF4F0721A8001
:103638003A4B4FF448725A8008E0384B2C221A81D2
:10364800364B2A225A81354B2B229A81334B9B8841
:1036580045F21032934259D1304B4FF4A0721A8080
:103668002E4B4FF4F0725A8050E02C4B4FF4A0725E
:103678001A802A4BF0225A80284B9B8845F2105218
:10368800934214D1254B4FF430521A81234B4FF4F7
:1036980028525A81214B4FF42C529A811F4B4FF4D8
:1036A80048721A801D4B4FF4F0725A8020E01B4B71
:1036B8009B8841F66312934211D1184B2C221A8130
:1036C800164B2A225A81154B2B229A81134B4FF401
:1036D80048721A80114B4FF4F0725A8008E00F4B71
:1036E8002C221A810D4B2A225A810C4B2B229A81AB
:1036F8000A4B9B8845F21032934207D1074B4FF48F
:10370800F0721A80054B4FF4A0725A800020FFF720
:10371800E9F900BF0837BD4680BD00BFDC000020C6
:1037280080B588B000AFA14B9B69A04A43F008035D
:1037380093619E4B9B6903F00803BB60BB689B4B7E
:103748009B699A4A43F010039361984B9B6903F075
:1037580010037B607B684FF4F863FB6001233B61D7
:1037680001237B610323BB6107F10C0319469048D1
:103778000BF0B4FB4FF6FF73FB6007F10C0319461F
:103788008C480BF0ABFB8C4B5B68FB61FB6923F04F
:10379800E063FB61FB6943F08063FB61864AFB6978
:1037A80053603220FEF73CF901210020FEF73AFF72
:1037B8003220FEF735F9D320FEF79EFEFEF7F6FE1F
:1037C80003461A467D4B9A80FEF7F0FE03461A46DA
:1037D8007A4B9A80FEF7EAFE03461A46774B9A80A0
:1037E800764B9B881B029AB2744B9A80FEF7DEFEDA
:1037F80003461A46714B9B8813439AB26F4B9A80C3
:103808006E4B9B8849F24132934200F0C1800420FC
:10381800FEF772FEFEF7CAFE03461A46674B9A8009
:10382800FEF7C4FE03461A46644B9A80FEF7BEFEB6
:1038380003461A46614B9A80604B9B881B029AB2DA
:103848005E4B9A80FEF7B2FE03461A465B4B9B8896
:1038580013439AB2594B9A80584B9B8848F252525C
:10386800934203D1554B47F289729A80534B9B88F8
:1038780047F28972934200F08B80D420FEF73CFE19
:10388800FEF794FE03461A464C4B9A80FEF78EFECE
:1038980003461A46494B9A80FEF788FE03461A46A5
:1038A800464B9A80454B9B881B029AB2434B9A80A1
:1038B800FEF77CFE03461A46404B9B8813439AB298
:1038C8003E4B9A803D4B9B8845F2103293425FD025
:1038D8004FF45A40FEF710FEFEF768FE03461A46FC
:1038E800364B9A804FF45B40FEF706FEFEF75EFE0D
:1038F80003461A46314B9A80304B9B881B029AB27A
:103908002E4B9A804FF45C40FEF7F6FDFEF74EFE14
:1039180003461A46294B9B8813439AB2274B9A8031
:10392800264B9B88B3F5004F03D1244B45F2105228
:103938009A80224B9B8845F21052934228D0A120AE
:10394800FEF7DAFDFEF732FE03461A461B4B9A8055
:10395800FEF72CFE03461A46184B9A80174B9B8895
:103968001B029AB2154B9A80FEF720FE03461A46B0
:10397800124B9B8813439AB2104B9A800F4B9B882B
:1039880045F26172934203D10C4B41F663129A805F
:103998000A4B9B8819460A480DF0B6FD074B9B88D1
:1039A80049F24132934240F023810BE0001002407B
:1039B80000100140000C014000000140DC00002024
:1039C800C8290108CF20FEF797FD0020FEF7B8FDB3
:1039D800C120FEF7B5FD3020FEF7B2FDED20FEF761
:1039E8008BFD6420FEF7ACFD0320FEF7A9FD122035
:1039F800FEF7A6FD8120FEF7A3FDE820FEF77CFD7B
:103A08008520FEF79DFD1020FEF79AFD7A20FEF72F
:103A180097FDCB20FEF770FD3920FEF791FD2C2095
:103A2800FEF78EFD0020FEF78BFD3420FEF788FDA3
:103A38000220FEF785FDF720FEF75EFD2020FEF749
:103A48007FFDEA20FEF758FD0020FEF779FD0020F3
:103A5800FEF776FDC020FEF74FFD1B20FEF770FD38
:103A6800C120FEF749FD0120FEF76AFDC520FEF7DB
:103A780043FD3020FEF764FD3020FEF761FDC720CE
:103A8800FEF73AFDB720FEF75BFD3620FEF734FD62
:103A98004820FEF755FD3A20FEF72EFD5520FEF78B
:103AA8004FFDB120FEF728FD0020FEF749FD1A2042
:103AB800FEF746FDB620FEF71FFD0A20FEF740FD83
:103AC800A220FEF73DFDF220FEF716FD0020FEF7CE
:103AD80037FD2620FEF710FD0120FEF731FDE0201E
:103AE800FEF70AFD0F20FEF72BFD2A20FEF728FD22
:103AF8002820FEF725FD0820FEF722FD0E20FEF700
:103B08001FFD0820FEF71CFD5420FEF719FDA92013
:103B1800FEF716FD4320FEF713FD0A20FEF710FD01
:103B28000F20FEF70DFD0020FEF70AFD0020FEF72E
:103B380007FD0020FEF704FD0020FEF701FDE1204F
:103B4800FEF7DAFC0020FEF7FBFC1520FEF7F8FC78
:103B58001720FEF7F5FC0720FEF7F2FC1120FEF710
:103B6800EFFC0620FEF7ECFC2B20FEF7E9FC5620C4
:103B7800FEF7E6FC3C20FEF7E3FC0520FEF7E0FC40
:103B88001020FEF7DDFC0F20FEF7DAFC3F20FEF7E1
:103B9800D7FC3F20FEF7D4FC0F20FEF7D1FC2B20EA
:103BA800FEF7AAFC0020FEF7CBFC0020FEF7C8FCBD
:103BB8000120FEF7C5FC3F20FEF7C2FC2A20FEF7D5
:103BC8009BFC0020FEF7BCFC0020FEF7B9FC00209F
:103BD800FEF7B6FCEF20FEF7B3FC1120FEF78CFCD5
:103BE8007820FDF71DFF2920FEF786FC02F096BB22
:103BF8006D4B9B8847F28972934240F0D780112021
:103C0800FEF77AFC7820FDF70BFF3620FEF774FCF0
:103C18000020FEF795FC3A20FEF76EFC0520FEF723
:103C28008FFCB220FEF768FC0C20FEF789FC0C2004
:103C3800FEF786FC0020FEF783FC3320FEF780FCAD
:103C48003320FEF77DFCB720FEF756FC3520FEF743
:103C580077FCBB20FEF750FC3220FEF771FCC02039
:103C6800FEF74AFC0C20FEF76BFCC220FEF744FC72
:103C78000120FEF765FCC320FEF73EFC1020FEF78E
:103C88005FFCC420FEF738FC2020FEF759FCC62054
:103C9800FEF732FC0F20FEF753FCD020FEF72CFC79
:103CA800A420FEF74DFCA120FEF74AFCE020FEF719
:103CB80023FCD020FEF744FC0020FEF741FC022044
:103CC800FEF73EFC0720FEF73BFC0A20FEF738FC17
:103CD8002820FEF735FC3220FEF732FC4420FEF7A0
:103CE8002FFC4220FEF72CFC0620FEF729FC0E20B4
:103CF800FEF726FC1220FEF723FC1420FEF720FC1A
:103D08001720FEF71DFCE120FEF7F6FBD020FEF79A
:103D180017FC0020FEF714FC0220FEF711FC072018
:103D2800FEF70EFC0A20FEF70BFC2820FEF708FC25
:103D38003120FEF705FC5420FEF702FC4720FEF771
:103D4800FFFB0E20FEF7FCFB1C20FEF7F9FB1720FB
:103D5800FEF7F6FB1B20FEF7F3FB1E20FEF7F0FB39
:103D68002A20FEF7C9FB0020FEF7EAFB0020FEF739
:103D7800E7FB0020FEF7E4FBEF20FEF7E1FB2B203A
:103D8800FEF7BAFB0020FEF7DBFB0020FEF7D8FBAE
:103D98000120FEF7D5FB3F20FEF7D2FB2920FEF7D6
:103DA800ABFB02F0BBBA00BFDC000020034B9B88D2
:103DB80045F21032934240F07C8701E0DC0000209D
:103DC800ED20FEF799FB0120FEF7BAFBFE20FEF777
:103DD800B7FBEE20FEF790FBDE20FEF7B1FB2120BB
:103DE800FEF7AEFBF120FEF787FB0120FEF7A8FBEC
:103DF800DF20FEF781FB1020FEF7A2FBC420FEF7B0
:103E08007BFB8F20FEF79CFBC620FEF775FB00208E
:103E1800FEF796FBE220FEF793FBE220FEF790FB0D
:103E2800E220FEF78DFBBF20FEF766FBAA20FEF717
:103E380087FBB020FEF760FB0D20FEF781FB00201A
:103E4800FEF77EFB0D20FEF77BFB0020FEF778FBDC
:103E58001120FEF775FB0020FEF772FB1920FEF714
:103E68006FFB0020FEF76CFB2120FEF769FB0020AA
:103E7800FEF766FB2D20FEF763FB0020FEF760FBD4
:103E88003D20FEF75DFB0020FEF75AFB5D20FEF7A4
:103E980057FB0020FEF754FB5D20FEF751FB002086
:103EA800FEF74EFBB120FEF727FB8020FEF748FB0C
:103EB8000020FEF745FB8B20FEF742FB0020FEF7B3
:103EC8003FFB9620FEF73CFB0020FEF739FBB220B3
:103ED800FEF712FB0020FEF733FB0020FEF730FB55
:103EE8000220FEF72DFB0020FEF72AFB0320FEF739
:103EF80027FB0020FEF724FBB320FEF7FDFA002085
:103F0800FEF71EFB0020FEF71BFB0020FEF718FB48
:103F18000020FEF715FB0020FEF712FB0020FEF73D
:103F28000FFB0020FEF70CFB0020FEF709FB00202A
:103F3800FEF706FB0020FEF703FB0020FEF700FB60
:103F48000020FEF7FDFA0020FEF7FAFA0020FEF73F
:103F5800F7FA0020FEF7F4FA0020FEF7F1FA002045
:103F6800FEF7EEFA0020FEF7EBFA0020FEF7E8FA7B
:103F78000020FEF7E5FA0020FEF7E2FA0020FEF73F
:103F8800DFFA0020FEF7DCFA0020FEF7D9FAB420A9
:103F9800FEF7B2FA8B20FEF7D3FA0020FEF7D0FA2C
:103FA8009620FEF7CDFA0020FEF7CAFAA120FEF708
:103FB800C7FA0020FEF7C4FAB520FEF79DFA0220E2
:103FC800FEF7BEFA0020FEF7BBFA0320FEF7B8FAA8
:103FD8000020FEF7B5FA0420FEF7B2FA0020FEF73B
:103FE800AFFAB620FEF788FA0020FEF7A9FA0020FB
:103FF800FEF7A6FAB720FEF77FFA0020FEF7A0FA30
:104008000020FEF79DFA3F20FEF79AFA0020FEF7FF
:1040180097FA5E20FEF794FA0020FEF791FA6420E2
:10402800FEF78EFA0020FEF78BFA8C20FEF788FA4E
:104038000020FEF785FAAC20FEF782FA0020FEF792
:104048007FFADC20FEF77CFA0020FEF779FA702070
:10405800FEF776FA0020FEF773FA9020FEF770FA62
:104068000020FEF76DFAEB20FEF76AFA0020FEF753
:1040780067FADC20FEF764FA0020FEF761FAB82040
:10408800FEF73AFA0020FEF75BFA0020FEF758FA2E
:104098000020FEF755FA0020FEF752FA0020FEF73E
:1040A8004FFA0020FEF74CFA0020FEF749FA0020EC
:1040B800FEF746FABA20FEF71FFA2420FEF740FA68
:1040C8000020FEF73DFA0020FEF73AFA0020FEF73E
:1040D80037FAC120FEF710FA2020FEF731FA002047
:1040E800FEF72EFA5420FEF72BFA0020FEF728FAE6
:1040F800FF20FEF725FA0020FEF722FAC220FEF77D
:10410800FBF90A20FEF71CFA0020FEF719FA042032
:10411800FEF716FA0020FEF713FAC320FEF7ECF9B3
:104128003C20FEF70DFA0020FEF70AFA3A20FEF7C7
:1041380007FA0020FEF704FA3920FEF701FA0020FA
:10414800FEF7FEF93720FEF7FBF90020FEF7F8F935
:104158003C20FEF7F5F90020FEF7F2F93620FEF7CD
:10416800EFF90020FEF7ECF93220FEF7E9F900201C
:10417800FEF7E6F92F20FEF7E3F90020FEF7E0F955
:104188002C20FEF7DDF90020FEF7DAF92920FEF7EA
:10419800D7F90020FEF7D4F92620FEF7D1F9002040
:1041A800FEF7CEF92420FEF7CBF90020FEF7C8F978
:1041B8002420FEF7C5F90020FEF7C2F92320FEF7F8
:1041C800BFF90020FEF7BCF93C20FEF7B9F9002042
:1041D800FEF7B6F93620FEF7B3F90020FEF7B0F97E
:1041E8003220FEF7ADF90020FEF7AAF92F20FEF7DE
:1041F800A7F90020FEF7A4F92C20FEF7A1F900206A
:10420800FEF79EF92920FEF79BF90020FEF798F9A2
:104218002620FEF795F90020FEF792F92420FEF7F4
:104228008FF90020FEF78CF92420FEF789F9002089
:10423800FEF786F92320FEF783F90020FEF780F9C0
:10424800C420FEF759F96220FEF77AF90020FEF73C
:1042580077F90520FEF774F90020FEF771F984203C
:10426800FEF76EF90020FEF76BF9F020FEF768F90B
:104278000020FEF765F91820FEF762F90020FEF726
:104288005FF9A420FEF75CF90020FEF759F9182021
:10429800FEF756F90020FEF753F95020FEF750F9C3
:1042A8000020FEF74DF90C20FEF74AF90020FEF732
:1042B80047F91720FEF744F90020FEF741F9952049
:1042C800FEF73EF90020FEF73BF9F320FEF738F938
:1042D8000020FEF735F9E620FEF732F90020FEF758
:1042E8002FF9C520FEF708F93220FEF729F900203A
:1042F800FEF726F94420FEF723F90020FEF720F9FF
:104308006520FEF71DF90020FEF71AF97620FEF762
:1043180017F90020FEF714F98820FEF711F900209C
:10432800FEF70EF9C620FEF7E7F82020FEF708F999
:104338000020FEF705F91720FEF702F90020FEF726
:10434800FFF80120FEF7FCF80020FEF7F9F8C72077
:10435800FEF7D2F80020FEF7F3F80020FEF7F0F899
:104368000020FEF7EDF80020FEF7EAF8C820FEF777
:10437800C3F80020FEF7E4F80020FEF7E1F800207B
:10438800FEF7DEF80020FEF7DBF8C920FEF7B4F8E8
:104398000020FEF7D5F80020FEF7D2F80020FEF73F
:1043A800CFF80020FEF7CCF80020FEF7C9F800206F
:1043B800FEF7C6F80020FEF7C3F80020FEF7C0F8A5
:1043C8000020FEF7BDF80020FEF7BAF80020FEF73F
:1043D800B7F80020FEF7B4F80020FEF7B1F8002087
:1043E800FEF7AEF80020FEF7ABF80020FEF7A8F8BD
:1043F800E020FEF781F81620FEF7A2F80020FEF76D
:104408009FF81C20FEF79CF80020FEF799F8212061
:10441800FEF796F80020FEF793F83620FEF790F89E
:104428000020FEF78DF84620FEF78AF80020FEF7F8
:1044380087F85220FEF784F80020FEF781F8642000
:10444800FEF77EF80020FEF77BF87A20FEF778F872
:104458000020FEF775F88B20FEF772F80020FEF7B3
:104468006FF89920FEF76CF80020FEF769F8A8208D
:10447800FEF766F80020FEF763F8B920FEF760F84B
:104488000020FEF75DF8C420FEF75AF80020FEF77A
:1044980057F8CA20FEF754F80020FEF751F8D2204A
:1044A800FEF74EF80020FEF74BF8D920FEF748F843
:1044B8000020FEF745F8E020FEF742F80020FEF75E
:1044C8003FF8F320FEF73CF80020FEF739F8E1202A
:1044D800FEF712F81620FEF733F80020FEF730F842
:1044E8001C20FEF72DF80020FEF72AF82220FEF700
:1044F80027F80020FEF724F83620FEF721F80020E0
:10450800FEF71EF84520FEF71BF80020FEF718F806
:104518005220FEF715F80020FEF712F86420FEF787
:104528000FF80020FEF70CF87A20FEF709F80020B3
:10453800FEF706F88B20FEF703F80020FEF700F8D8
:104548009920FDF7FDFF0020FDF7FAFFA820FDF7F1
:10455800F7FF0020FDF7F4FFB920FDF7F1FF002079
:10456800FDF7EEFFC420FDF7EBFF0020FDF7E8FFA5
:10457800CA20FDF7E5FF0020FDF7E2FFD220FDF796
:10458800DFFF0020FDF7DCFFD820FDF7D9FF002072
:10459800FDF7D6FFE020FDF7D3FF0020FDF7D0FFA1
:1045A800F320FDF7CDFF0020FDF7CAFFE220FDF75D
:1045B800A3FF0520FDF7C4FF0020FDF7C1FF0B2076
:1045C800FDF7BEFF0020FDF7BBFF1B20FDF7B8FF7E
:1045D8000020FDF7B5FF3420FDF7B2FF0020FDF7FE
:1045E800AFFF4420FDF7ACFF0020FDF7A9FF4F20E7
:1045F800FDF7A6FF0020FDF7A3FF6120FDF7A0FF50
:104608000020FDF79DFF7920FDF79AFF0020FDF7B8
:1046180097FF8820FDF794FF0020FDF791FF972072
:10462800FDF78EFF0020FDF78BFFA620FDF788FF22
:104638000020FDF785FFB720FDF782FF0020FDF77A
:104648007FFFC220FDF77CFF0020FDF779FFC72020
:10465800FDF776FF0020FDF773FFD120FDF770FF0F
:104668000020FDF76DFFD620FDF76AFF0020FDF75B
:1046780067FFDD20FDF764FF0020FDF761FFF320F1
:10468800FDF75EFF0020FDF75BFFE320FDF734FF39
:104698000520FDF755FF0020FDF752FF0A20FDF722
:1046A8004FFF0020FDF74CFF1C20FDF749FF0020BD
:1046B800FDF746FF3320FDF743FF0020FDF740FFDD
:1046C8004420FDF73DFF0020FDF73AFF5020FDF79D
:1046D80037FF0020FDF734FF6220FDF731FF00208F
:1046E800FDF72EFF7820FDF72BFF0020FDF728FFB0
:1046F8008820FDF725FF0020FDF722FF9720FDF712
:104708001FFF0020FDF71CFFA620FDF719FF002062
:10471800FDF716FFB720FDF713FF0020FDF710FF88
:10472800C220FDF70DFF0020FDF70AFFC720FDF7A7
:1047380007FF0020FDF704FFD120FDF701FF00204F
:10474800FDF7FEFED520FDF7FBFE0020FDF7F8FE85
:10475800DD20FDF7F5FE0020FDF7F2FEF320FDF762
:10476800EFFE0020FDF7ECFEE420FDF7C5FE01207A
:10477800FDF7E6FE0020FDF7E3FE0120FDF7E0FE71
:104788000020FDF7DDFE0220FDF7DAFE0020FDF730
:10479800D7FE2A20FDF7D4FE0020FDF7D1FE3C20ED
:1047A800FDF7CEFE0020FDF7CBFE4B20FDF7C8FE3F
:1047B8000020FDF7C5FE5D20FDF7C2FE0020FDF7D5
:1047C800BFFE7420FDF7BCFE0020FDF7B9FE842073
:1047D800FDF7B6FE0020FDF7B3FE9320FDF7B0FE0F
:1047E8000020FDF7ADFEA220FDF7AAFE0020FDF790
:1047F800A7FEB320FDF7A4FE0020FDF7A1FEBE2012
:10480800FDF79EFE0020FDF79BFEC420FDF798FEF5
:104818000020FDF795FECD20FDF792FE0020FDF764
:104828008FFED320FDF78CFE0020FDF789FEDD20EA
:10483800FDF786FE0020FDF783FEF320FDF780FEDE
:104848000020FDF77DFEE520FDF756FE0020FDF770
:1048580077FE0020FDF774FE0020FDF771FE0020B2
:10486800FDF76EFE0220FDF76BFE0020FDF768FEE7
:104878002920FDF765FE0020FDF762FE3C20FDF7CC
:104888005FFE0020FDF75CFE4B20FDF759FE00207F
:10489800FDF756FE5D20FDF753FE0020FDF750FEA4
:1048A8007420FDF74DFE0020FDF74AFE8420FDF739
:1048B80047FE0020FDF744FE9320FDF741FE00204F
:1048C800FDF73EFEA220FDF73BFE0020FDF738FE77
:1048D800B320FDF735FE0020FDF732FEBE20FDF7C0
:1048E8002FFE0020FDF72CFEC420FDF729FE002036
:1048F800FDF726FECD20FDF723FE0020FDF720FE64
:10490800D320FDF71DFE0020FDF71AFEDC20FDF781
:1049180017FE0020FDF714FEF320FDF711FE00201E
:10492800FDF70EFEE620FDF7E7FD1120FDF708FE76
:104938000020FDF705FE3420FDF702FE0020FDF7FC
:10494800FFFD5620FDF7FCFD0020FDF7F9FD762060
:10495800FDF7F6FD0020FDF7F3FD7720FDF7F0FDEC
:104968000020FDF7EDFD6620FDF7EAFD0020FDF7CC
:10497800E7FD8820FDF7E4FD0020FDF7E1FD992023
:10498800FDF7DEFD0020FDF7DBFDBB20FDF7D8FDC0
:104998000020FDF7D5FD9920FDF7D2FD0020FDF799
:1049A800CFFD6620FDF7CCFD0020FDF7C9FD5520A1
:1049B800FDF7C6FD0020FDF7C3FD5520FDF7C0FD3E
:1049C8000020FDF7BDFD4520FDF7BAFD0020FDF7ED
:1049D800B7FD4320FDF7B4FD0020FDF7B1FD4420ED
:1049E800FDF7AEFD0020FDF7ABFDE720FDF784FDE8
:1049F8003220FDF7A5FD0020FDF7A2FD5520FDF7AB
:104A08009FFD0020FDF79CFD7620FDF799FD002015
:104A1800FDF796FD6620FDF793FD0020FDF790FD5C
:104A28006720FDF78DFD0020FDF78AFD6720FDF763
:104A380087FD0020FDF784FD8720FDF781FD00201C
:104A4800FDF77EFD9920FDF77BFD0020FDF778FD41
:104A5800BB20FDF775FD0020FDF772FD9920FDF7DD
:104A68006FFD0020FDF76CFD7720FDF769FD002044
:104A7800FDF766FD4420FDF763FD0020FDF760FDAE
:104A88005620FDF75DFD0020FDF75AFD2320FDF7B8
:104A980057FD0020FDF754FD3320FDF751FD0020A0
:104AA800FDF74EFD4520FDF74BFD0020FDF748FDC5
:104AB800E820FDF721FD0020FDF742FD0020FDF76D
:104AC8003FFD9920FDF73CFD0020FDF739FD8720CB
:104AD800FDF736FD0020FDF733FD8820FDF730FD9A
:104AE8000020FDF72DFD7720FDF72AFD0020FDF7BA
:104AF80027FD6620FDF724FD0020FDF721FD882015
:104B0800FDF71EFD0020FDF71BFDAA20FDF718FD8F
:104B18000020FDF715FDBB20FDF712FD0020FDF775
:104B28000FFD9920FDF70CFD0020FDF709FD66201B
:104B3800FDF706FD0020FDF703FD5520FDF700FDFC
:104B48000020FDF7FDFC5520FDF7FAFC0020FDF7DD
:104B5800F7FC4420FDF7F4FC0020FDF7F1FC4420AD
:104B6800FDF7EEFC0020FDF7EBFC5520FDF7E8FC17
:104B78000020FDF7E5FCE920FDF7BEFCAA20FDF7C3
:104B8800DFFC0020FDF7DCFC0020FDF7D9FC00204D
:104B9800FDF7D6FC0020FDF7AFFCAA20FDF7D0FCFE
:104BA800CF20FDF7A9FC0020FDF7CAFC0020FDF787
:104BB800C7FC0020FDF7C4FC0020FDF7C1FC002065
:104BC800FDF7BEFC0020FDF7BBFC0020FDF7B8FC9C
:104BD8000020FDF7B5FC0020FDF7B2FC0020FDF732
:104BE800AFFC0020FDF7ACFC0020FDF7A9FC00207D
:104BF800FDF7A6FC0020FDF7A3FC0020FDF7A0FCB4
:104C08000020FDF79DFC0020FDF79AFCF020FDF741
:104C180073FC0020FDF794FC5020FDF791FC002068
:104C2800FDF78EFC0020FDF78BFC0020FDF788FCCB
:104C3800F320FDF761FC0020FDF782FCF920FDF769
:104C48005BFC0620FDF77CFC1020FDF779FC292091
:104C5800FDF776FC0020FDF773FC3A20FDF74CFCCD
:104C68005520FDF76DFC1120FDF746FC6420FCF78C
:104C7800D7FE2920FDF740FC3520FDF73DFC00203C
:104C8800FDF75EFC5120FDF737FCFF20FDF758FCCF
:104C98005320FDF731FC2C20FDF752FC5520FDF781
:104CA8002BFC8220FDF74CFC2C20FDF725FC01F0A5
:104CB80035BB044B9B8845F21052934240F08187E4
:104CC80002E000BFDC00002055214FF47040FDF7E2
:104CD800A9FCAA214FF20100FDF7A4FC52214FF2D2
:104CE8000200FDF79FFC08214FF20300FDF79AFC34
:104CF80001214FF20400FDF795FC0D214FF43040DF
:104D0800FDF790FC0D214BF20100FDF78BFC0D2106
:104D18004BF20200FDF786FC34214FF43640FDF7D4
:104D280081FC34214BF20160FDF77CFC34214BF20D
:104D38000260FDF777FC0D214FF43140FDF772FC5E
:104D48000D214BF20110FDF76DFC0D214BF2021005
:104D5800FDF768FC34214FF43740FDF763FC34213C
:104D68004BF20170FDF75EFC34214BF20270FDF747
:104D780059FC00214FF43240FDF754FC00214BF25E
:104D88000120FDF74FFC00214BF20220FDF74AFC01
:104D980024214FF43840FDF745FC24214BF601004F
:104DA800FDF740FC24214BF60200FDF73BFC0121F6
:104DB8004FF43F40FDF736FC0F214FF43340FDF729
:104DC80031FC0F214BF20130FDF72CFC0F214BF287
:104DD8000230FDF727FC34214FF43940FDF722FC5F
:104DE80034214BF60110FDF71DFC34214BF602105F
:104DF800FDF718FC08214FF43540FDF713FC082196
:104E08004BF20150FDF70EFC08214BF20250FDF762
:104E180009FC03214FF44240FDF704FC24214FF420
:104E28003A40FDF7FFFB24214BF60120FDF7FAFB82
:104E380024214BF60220FDF7F5FB00214FF43C40FE
:104E4800FDF7F0FB78214BF60140FDF7EBFB002165
:104E58004BF60240FDF7E6FB00214FF43D40FDF71D
:104E6800E1FB78214BF60150FDF7DCFB00214BF606
:104E78000250FDF7D7FB00214FF43E40FDF7D2FB6F
:104E880064214BF60160FDF7CDFB00214FF4514042
:104E9800FDF7C8FB33214DF20110FDF7C3FB0021DC
:104EA8004DF20210FDF7BEFB34214DF20310FDF761
:104EB800B9FB00214DF20410FDF7B4FB3A214DF285
:104EC8000510FDF7AFFB00214DF20610FDF7AAFB18
:104ED8004A214DF20710FDF7A5FB00214DF20810FD
:104EE800FDF7A0FB5C214DF20910FDF79BFB0021AB
:104EF8004DF20A10FDF796FB81214DF20B10FDF7DC
:104F080091FB00214DF20C10FDF78CFBA6214DF210
:104F18000D10FDF787FB00214DF20E10FDF782FB07
:104F2800E5214DF20F10FDF77DFB01214DF2101028
:104F3800FDF778FB13214DF21110FDF773FB0121EA
:104F48004DF21210FDF76EFB54214DF21310FDF7D0
:104F580069FB01214DF21410FDF764FB82214DF22B
:104F68001510FDF75FFB01214DF21610FDF75AFBF6
:104F7800CA214DF21710FDF755FB02214DF218100A
:104F8800FDF750FB00214DF21910FDF74BFB0221F4
:104F98004DF21A10FDF746FB01214DF21B10FDF7EB
:104FA80041FB02214DF21C10FDF73CFB34214DF270
:104FB8001D10FDF737FB02214DF21E10FDF732FBE5
:104FC80067214DF21F10FDF72DFB02214DF2201035
:104FD800FDF728FB84214DF22110FDF723FB022168
:104FE8004DF22210FDF71EFBA4214DF22310FDF710
:104FF80019FB02214DF22410FDF714FBB7214DF2E5
:105008002510FDF70FFB02214DF22610FDF70AFBD4
:10501800CF214DF22710FDF705FB02214DF2281094
:10502800FDF700FBDE214DF22910FDF7FBFA022106
:105038004DF22A10FDF7F6FAF2214DF22B10FDF78A
:10504800F1FA02214DF22C10FDF7ECFAFE214DF297
:105058002D10FDF7E7FA03214DF22E10FDF7E2FAC5
:1050680010214DF22F10FDF7DDFA03214DF230101B
:10507800FDF7D8FA33214DF23110FDF7D3FA0321A9
:105088004DF23210FDF7CEFA6D214DF23310FDF7D7
:10509800C9FA00214FF45240FDF7C4FA33214DF20A
:1050A8000120FDF7BFFA00214DF20220FDF7BAFA00
:1050B80034214DF20320FDF7B5FA00214DF204200A
:1050C800FDF7B0FA3A214DF20520FDF7ABFA0021C1
:1050D8004DF20620FDF7A6FA4A214DF20720FDF70A
:1050E800A1FA00214DF20820FDF79CFA5C214DF24F
:1050F8000920FDF797FA00214DF20A20FDF792FAF0
:1051080081214DF20B20FDF78DFA00214DF20C2084
:10511800FDF788FAA6214DF20D20FDF783FA00214C
:105128004DF20E20FDF77EFAE5214DF20F20FDF736
:1051380079FA01214DF21020FDF774FA13214DF28E
:105148001120FDF76FFA01214DF21220FDF76AFADE
:1051580054214DF21320FDF765FA01214DF2142078
:10516800FDF760FA82214DF21520FDF75BFA012167
:105178004DF21620FDF756FACA214DF21720FDF719
:1051880051FA02214DF21820FDF74CFA00214DF298
:105198001920FDF747FA02214DF21A20FDF742FACD
:1051A80001214DF21B20FDF73DFA02214DF21C2092
:1051B800FDF738FA34214DF21D20FDF733FA0221AC
:1051C8004DF21E20FDF72EFA67214DF21F20FDF744
:1051D80029FA02214DF22020FDF724FA84214DF20C
:1051E8002120FDF71FFA02214DF22220FDF71AFABD
:1051F800A4214DF22320FDF715FA02214DF22420B7
:10520800FDF710FAB7214DF22520FDF70BFA022120
:105218004DF22620FDF706FACF214DF22720FDF7A3
:1052280001FA02214DF22820FDF7FCF9DE214DF2AA
:105238002920FDF7F7F902214DF22A20FDF7F2F9AE
:10524800F2214DF22B20FDF7EDF902214DF22C2031
:10525800FDF7E8F9FE214DF22D20FDF7E3F90321D2
:105268004DF22E20FDF7DEF910214DF22F20FDF72B
:10527800D9F903214DF23020FDF7D4F933214DF24D
:105288003120FDF7CFF903214DF23220FDF7CAF99D
:105298006D214DF23320FDF7C5F900214FF453403D
:1052A800FDF7C0F933214DF20130FDF7BBF90021BC
:1052B8004DF20230FDF7B6F934214DF20330FDF717
:1052C800B1F900214DF20430FDF7ACF93A214DF265
:1052D8000530FDF7A7F900214DF20630FDF7A2F9D8
:1052E8004A214DF20730FDF79DF900214DF20830B3
:1052F800FDF798F95C214DF20930FDF793F900218B
:105308004DF20A30FDF78EF981214DF20B30FDF791
:1053180089F900214DF20C30FDF784F9A6214DF2F0
:105328000D30FDF77FF900214DF20E30FDF77AF9C7
:10533800E5214DF20F30FDF775F901214DF21030DE
:10534800FDF770F913214DF21130FDF76BF90121CA
:105358004DF21230FDF766F954214DF21330FDF786
:1053680061F901214DF21430FDF75CF982214DF20B
:105378001530FDF757F901214DF21630FDF752F9B6
:10538800CA214DF21730FDF74DF902214DF21830C0
:10539800FDF748F900214DF21930FDF743F90221D4
:1053A8004DF21A30FDF73EF901214DF21B30FDF7A1
:1053B80039F902214DF21C30FDF734F934214DF250
:1053C8001D30FDF72FF902214DF21E30FDF72AF9A5
:1053D80067214DF21F30FDF725F902214DF22030EB
:1053E800FDF720F984214DF22130FDF71BF9022148
:1053F8004DF22230FDF716F9A4214DF22330FDF7C6
:1054080011F902214DF22430FDF70CF9B7214DF2C4
:105418002530FDF707F902214DF22630FDF702F994
:10542800CF214DF22730FDF7FDF802214DF228304B
:10543800FDF7F8F8DE214DF22930FDF7F3F80221E7
:105448004DF22A30FDF7EEF8F2214DF22B30FDF740
:10545800E9F802214DF22C30FDF7E4F8FE214DF277
:105468002D30FDF7DFF803214DF22E30FDF7DAF885
:1054780010214DF22F30FDF7D5F803214DF23030D1
:10548800FDF7D0F833214DF23130FDF7CBF8032189
:105498004DF23230FDF7C6F86D214DF23330FDF78D
:1054A800C1F800214FF45440FDF7BCF833214DF208
:1054B8000140FDF7B7F800214DF20240FDF7B2F8C0
:1054C80034214DF20340FDF7ADF800214DF20440C0
:1054D800FDF7A8F83A214DF20540FDF7A3F80021A1
:1054E8004DF20640FDF79EF84A214DF20740FDF7C0
:1054F80099F800214DF20840FDF794F85C214DF22F
:105508000940FDF78FF800214DF20A40FDF78AF8AF
:1055180081214DF20B40FDF785F800214DF20C403A
:10552800FDF780F8A6214DF20D40FDF77BF800212C
:105538004DF20E40FDF776F8E5214DF20F40FDF7EC
:1055480071F801214DF21040FDF76CF813214DF26E
:105558001140FDF767F801214DF21240FDF762F89E
:1055680054214DF21340FDF75DF801214DF214402E
:10557800FDF758F882214DF21540FDF753F8012147
:105588004DF21640FDF74EF8CA214DF21740FDF7CF
:1055980049F802214DF21840FDF744F800214DF278
:1055A8001940FDF73FF802214DF21A40FDF73AF88D
:1055B80001214DF21B40FDF735F802214DF21C4048
:1055C800FDF730F834214DF21D40FDF72BF802218C
:1055D8004DF21E40FDF726F867214DF21F40FDF7FA
:1055E80021F802214DF22040FDF71CF884214DF2EC
:1055F8002140FDF717F802214DF22240FDF712F87D
:10560800A4214DF22340FDF70DF802214DF224406C
:10561800FDF708F8B7214DF22540FDF703F8022100
:105628004DF22640FCF7FEFFCF214DF22740FCF754
:10563800F9FF02214DF22840FCF7F4FFDE214DF27C
:105648002940FCF7EFFF02214DF22A40FCF7EAFF60
:10565800F2214DF22B40FCF7E5FF02214DF22C40E0
:10566800FCF7E0FFFE214DF22D40FCF7DBFF0321A4
:105678004DF22E40FCF7D6FF10214DF22F40FCF7DB
:10568800D1FF03214DF23040FCF7CCFF33214DF21E
:105698003140FCF7C7FF03214DF23240FCF7C2FF4F
:1056A8006D214DF23340FCF7BDFF00214FF455400A
:1056B800FCF7B8FF33214DF20150FCF7B3FF00218E
:1056C8004DF20250FCF7AEFF34214DF20350FCF7C7
:1056D800A9FF00214DF20450FCF7A4FF3A214DF236
:1056E8000550FCF79FFF00214DF20650FCF79AFF8A
:1056F8004A214DF20750FCF795FF00214DF2085062
:10570800FCF790FF5C214DF20950FCF78BFF00215C
:105718004DF20A50FCF786FF81214DF20B50FCF741
:1057280081FF00214DF20C50FCF77CFFA6214DF2C1
:105738000D50FCF777FF00214DF20E50FCF772FF79
:10574800E5214DF20F50FCF76DFF01214DF210508D
:10575800FCF768FF13214DF21150FCF763FF01219C
:105768004DF21250FCF75EFF54214DF21350FCF736
:1057780059FF01214DF21450FCF754FF82214DF2DC
:105788001550FCF74FFF01214DF21650FCF74AFF68
:10579800CA214DF21750FCF745FF02214DF218506F
:1057A800FCF740FF00214DF21950FCF73BFF0221A6
:1057B8004DF21A50FCF736FF01214DF21B50FCF751
:1057C80031FF02214DF21C50FCF72CFF34214DF221
:1057D8001D50FCF727FF02214DF21E50FCF722FF57
:1057E80067214DF21F50FCF71DFF02214DF220509A
:1057F800FCF718FF84214DF22150FCF713FF02211A
:105808004DF22250FCF70EFFA4214DF22350FCF775
:1058180009FF02214DF22450FCF704FFB7214DF295
:105828002550FCF7FFFE02214DF22650FCF7FAFE48
:10583800CF214DF22750FCF7F5FE02214DF22850FA
:10584800FCF7F0FEDE214DF22950FCF7EBFE0221B9
:105858004DF22A50FCF7E6FEF2214DF22B50FCF7F0
:10586800E1FE02214DF22C50FCF7DCFEFE214DF248
:105878002D50FCF7D7FE03214DF22E50FCF7D2FE37
:1058880010214DF22F50FCF7CDFE03214DF2305080
:10589800FCF7C8FE33214DF23150FCF7C3FE03215B
:1058A8004DF23250FCF7BEFE6D214DF23350FCF73D
:1058B800B9FE00214FF45640FCF7B4FE33214DF2F7
:1058C8000160FCF7AFFE00214DF20260FCF7AAFE72
:1058D80034214DF20360FCF7A5FE00214DF204606F
:1058E800FCF7A0FE3A214DF20560FCF79BFE002173
:1058F8004DF20660FCF796FE4A214DF20760FCF770
:1059080091FE00214DF20860FCF78CFE5C214DF2FF
:105918000960FCF787FE00214DF20A60FCF782FE61
:1059280081214DF20B60FCF77DFE00214DF20C60E9
:10593800FCF778FEA6214DF20D60FCF773FE0021FE
:105948004DF20E60FCF76EFEE5214DF20F60FCF79C
:1059580069FE01214DF21060FCF764FE13214DF23F
:105968001160FCF75FFE01214DF21260FCF75AFE50
:1059780054214DF21360FCF755FE01214DF21460DD
:10598800FCF750FE82214DF21560FCF74BFE012119
:105998004DF21660FCF746FECA214DF21760FCF77F
:1059A80041FE02214DF21860FCF73CFE00214DF249
:1059B8001960FCF737FE02214DF21A60FCF732FE3F
:1059C80001214DF21B60FCF72DFE02214DF21C60F7
:1059D800FCF728FE34214DF21D60FCF723FE02215E
:1059E8004DF21E60FCF71EFE67214DF21F60FCF7AA
:1059F80019FE02214DF22060FCF714FE84214DF2BD
:105A08002160FCF70FFE02214DF22260FCF70AFE2E
:105A1800A4214DF22360FCF705FE02214DF224601B
:105A2800FCF700FEB7214DF22560FCF7FBFD0221D3
:105A38004DF22660FCF7F6FDCF214DF22760FCF70A
:105A4800F1FD02214DF22860FCF7ECFDDE214DF25C
:105A58002960FCF7E7FD02214DF22A60FCF7E2FD20
:105A6800F2214DF22B60FCF7DDFD02214DF22C6096
:105A7800FCF7D8FDFE214DF22D60FCF7D3FD032184
:105A88004DF22E60FCF7CEFD10214DF22F60FCF791
:105A9800C9FD03214DF23060FCF7C4FD33214DF2FE
:105AA8003160FCF7BFFD03214DF23260FCF7BAFD0F
:105AB8006D214DF23360FCF7B5FD55214FF4704070
:105AC800FCF7B0FDAA214FF20100FCF7ABFD522113
