:020000040800F2
:1000000000C00020590900087D0800088308000886
:10001000890800088F080008950800080000000003
:100020000000000000000000000000000137000890
:100030009B08000800000000E1380008293900088A
:10004000A1090008A1090008A1090008A1090008E8
:10005000A1090008A1090008A1090008A1090008D8
:10006000A1090008A1090008A1090008A1090008C8
:10007000A1090008A1090008A1090008A1090008B8
:10008000A1090008A1090008A1090008A1090008A8
:10009000A1090008A1090008A1090008A109000898
:1000A000A1090008A1090008A1090008A109000888
:1000B000A1090008A9080008A1090008A109000871
:1000C000A1090008A1090008A1090008A109000868
:1000D000A1090008BD080008A1090008A10900083D
:1000E000D1080008A1090008A1090008A109000819
:1000F000A1090008A1090008A1090008A109000838
:10010000A1090008A1090008A1090008A109000827
:10011000A1090008A1090008A1090008A109000817
:10012000A1090008A1090008A1090008A109000807
:1001300000000000000000000000000000000000BF
:1001400000000000000000000000000000000000AF
:10015000000000000000000000000000000000009F
:10016000000000000000000000000000000000008F
:10017000000000000000000000000000000000007F
:10018000000000000000000000000000000000006F
:10019000000000000000000000000000000000005F
:1001A000000000000000000000000000000000004F
:1001B000000000000000000000000000000000003F
:1001C000000000000000000000000000000000002F
:1001D000000000000000000000000000000000001F
:0401E0005FF8E0F1F3
:1001F00010B5054C237833B9044B13B10448AFF361
:1002000000800123237010BD60000020000000006A
:100210007047000808B5034B1BB103490348AFF30F
:10022000008008BD00000000640000207047000846
:10023000034613F8012B002AFBD1181A0138704726
:1002400080B485B000AFF860B9607A60FB68064A98
:100250001A60BB68054A1A607B6880221A6000BF7A
:100260001437BD4680BC70477C0000201C01002074
:10027000B0B596B000AF00F095FB00F04BF800F081
:10028000B9F800F08DF81D4B07F13C041D460FCD69
:100290000FC495E8070084E8070007F13C0300213C
:1002A000184602F077FB0346154A1360154B07F119
:1002B00020041D460FCD0FC495E8070084E8070011
:1002C00007F120030021184602F064FB03460E4AA2
:1002D00013600E4B3C1D1D460FCD0FC495E8070063
:1002E00084E807003B1D0021184602F053FB03463B
:1002F000074A136002F047FBFEE700BF944700087F
:1003000060030020BC47000864030020E0470008A9
:100310006803002080B590B000AF07F118032822D1
:100320000021184603F03CFD3B1D00221A605A6074
:100330009A60DA601A610123BB614FF48033FB617C
:1003400000233B620123BB6202237B634FF48033B3
:10035000BB634FF4E013FB6307F11803184600F08A
:1003600069FF0346002B01D000F078F90F237B6072
:100370000223BB600023FB604FF480633B610023DA
:100380007B613B1D0221184601F0D6F90346002B84
:1003900001D000F063F900BF4037BD4680BD0000CA
:1003A00080B500AF114B124A1A60104B4FF4E13286
:1003B0005A600E4B00229A600C4B0022DA600B4B05
:1003C00000221A61094B0C225A61084B00229A61E3
:1003D000064B0022DA61054801F0E6FD0346002BDA
:1003E00001D000F03BF900BF80BD00BF1C0300201E
:1003F0000038014080B586B000AF07F10803002245
:100400001A605A609A60DA602C4B9B692B4A43F061
:1004100020039361294B9B6903F020037B607B6879
:10042000264B9B69254A43F004039361234B9B6948
:1004300003F004033B603B6801224FF480712048C5
:1004400000F0AFFE012204211E4800F0AAFE4FF486
:100450008073BB600123FB6000233B6102237B614F
:1004600007F108031946164800F0F0FC4FF400436A
:10047000BB60154BFB6001233B6107F10803194684
:100480000F4800F0E3FC0423BB600123FB60002362
:100490003B6102237B6107F108031946094800F01C
:1004A000D5FC00220521282000F063FB282000F065
:1004B0007CFB00BF1837BD4680BD00BF0010024066
:1004C00000080140001401400000111080B582B006
:1004D00000AF0346FB80FB88B3F5004F12D14FF409
:1004E00000410A4800F046FE0346002B0AD10848A6
:1004F000FFF79EFE03469AB24FF0FF3304490548CA
:1005000001F09FFD00BF0837BD4680BD00080140D7
:100510006C0300201C03002080B582B000AF78601F
:100520004FF48071034800F054FE4FF4FA7002F06B
:100530007DFAF5E70008014080B582B000AF786031
:100540000421044800F045FE4FF4FA7002F06EFA00
:10055000F6E700BF0014014080B588B002AF7860B4
:1005600000237B617B692C4A82FB03121A44D2125E
:10057000DB17D31A3B613B69284A03FB02F27B6914
:100580001344274A82FB03121A445211DB17D31A71
:10059000FB607A69224B83FB021313445911D31772
:1005A000C91A0B461B015B1A9B00D31ABB603B693F
:1005B000002B0AD1FB68002B07D1BB68002B04D1AC
:1005C0001849194803F0CCFB1DE03B69002B08D10A
:1005D000FB68002B05D1BA681449134803F0C0FB2F
:1005E00011E03B69002B06D1BB68FA6810490E4840
:1005F00003F0B6FB07E0BB680093FB683A690D495E
:10060000094803F0ADFB4FF47A7002F00FFA7B69F2
:1006100001337B61A6E700BFC5B3A291F0F1FFFFF4
:1006200089888888FC4700086C0300202848000857
:10063000544800088048000880B582B000AF786058
:100640007B681B68044A934201D100F0C1F900BFE6
:100650000837BD4680BD00BF0004004080B400AF35
:1006600072B600BFFEE7000080B584B000AF184B43
:100670009B69174A43F001039361154B9B6903F093
:100680000103BB60BB68124BDB69114A43F0805326
:10069000D3610F4BDB6903F080537B607B680022E2
:1006A0000F216FF0010000F064FA0A4B5B68FB60F9
:1006B000FB6823F0E063FB60FB6843F00073FB60C2
:1006C000044AFB68536000BF1037BD4680BD00BFC1
:1006D000001002400000014080B588B000AF786093
:1006E00007F1100300221A605A609A60DA607B6892
:1006F0001B68204A934239D11F4B9B691E4A43F421
:10070000804393611C4B9B6903F48043FB60FB684F
:10071000194B9B69184A43F004039361164B9B697C
:1007200003F00403BB60BB684FF400733B6102231A
:100730007B610323FB6107F1100319460F4800F0AA
:1007400085FB4FF480633B6100237B610023BB6129
:1007500007F110031946094800F078FB0022052133
:10076000252000F006FA252000F01FFA00BF2037F0
:10077000BD4680BD00380140001002400008014025
:1007800080B58EB000AF78600023FB620023BB62AF
:10079000002387F83330344BDB69334A43F00203DC
:1007A000D361314BDB6903F00203FB60FB6807F1A7
:1007B000100207F114031146184601F037F93B6A9D
:1007C000FB62FB6A002B03D101F008F9786304E0B7
:1007D00001F004F903465B007B637B6B234AA2FBB9
:1007E00003239B0C013BBB62214B224A1A60204B26
:1007F00040F2E732DA601E4ABB6A53601C4B0022AB
:100800001A611B4B00229A60194B00229A6118480A
:1008100001F05AF9034687F8333097F83330002B4C
:100820001BD1134801F0A8F9034687F8333097F835
:100830003330002B11D11D2000F0B7F97B680F2B4E
:1008400008D8002279681D2000F093F90A4A7B68D5
:10085000136002E0012387F8333097F833301846ED
:100860003837BD4680BD00BF0010024083DE1B4309
:10087000D0030020000400400400002080B400AF3A
:10088000FEE780B400AFFEE780B400AFFEE780B4BF
:1008900000AFFEE780B400AFFEE780B400AF00BF5A
:1008A000BD4680BC7047000080B500AF024801F033
:1008B000C3F900BF80BD00BFD003002080B500AFEA
:1008C000024801F051FC00BF80BD00BF1C030020A6
:1008D00080B500AF4FF4004000F094FC00BF80BD35
:1008E00080B586B000AF7860144A154BD31A7B618F
:1008F0007B693B61134B1B68002B02D1114B124AE1
:100900001A60104B1A687B6813443A699A4207D2FE
:1009100003F0A4FA03460C221A604FF0FF3309E0FB
:10092000084B1B68FB60074B1A687B681344054A39
:100930001360FB6818461837BD4680BD00C0002014
:100940000004000018040020B812002080B400AF9A
:1009500000BFBD4680BC70470C480D490D4A0023BE
:1009600002E0D458C4500433C4188C42F9D30A4A64
:100970000A4C002301E013600432A242FBD3FFF7CC
:10098000E5FF03F071FAFFF773FC704700000020E9
:10099000600000201849000860000020B412002008
:1009A000FEE7000080B500AF084B1B68074A43F024
:1009B00010031360032000F0D1F80F20FFF7E0FED2
:1009C000FFF752FE0023184680BD00BF0020024002
:1009D00080B400AF054B1B781A46054B1B681344C7
:1009E000034A136000BFBD4680BC7047080000206A
:1009F0001C04002080B400AF024B1B681846BD46A3
:100A000080BC70471C04002080B485B000AF7860C3
:100A10007B6803F00703FB600C4BDB68BB60BA68C4
:100A20004FF6FF031340BB60FB681A02BB68134319
:100A300043F0BF6343F40033BB60044ABB68D36038
:100A400000BF1437BD4680BC704700BF00ED00E01A
:100A500080B400AF044BDB681B0A03F007031846A1
:100A6000BD4680BC704700BF00ED00E080B483B09D
:100A700000AF0346FB7197F90730002B0BDBFB79C6
:100A800003F01F02064997F907305B09012000FABD
:100A900002F241F8232000BF0C37BD4680BC7047EE
:100AA00000E100E080B483B000AF03463960FB7121
:100AB00097F90730002B0ADB3B68DAB20C4997F94B
:100AC00007301201D2B20B4483F800230AE03B68DE
:100AD000DAB20849FB7903F00F03043B1201D2B2EA
:100AE0000B441A7600BF0C37BD4680BC704700BF70
:100AF00000E100E000ED00E080B489B000AFF860F4
:100B0000B9607A60FB6803F00703FB61FB69C3F11E
:100B10000703042B28BF0423BB61FB690433062BA6
:100B200002D9FB69033B00E000237B614FF0FF32F9
:100B3000BB6902FA03F3DA43BB681A407B699A4047
:100B40004FF0FF317B6901FA03F3D9437B680B4017
:100B5000134318462437BD4680BC704780B582B029
:100B600000AF78607868FFF74FFF00BF0837BD46D9
:100B700080BD80B586B000AF0346B9607A60FB7374
:100B800000237B61FFF764FF78617A68B968786950
:100B9000FFF7B2FF024697F90F3011461846FFF7EC
:100BA00081FF00BF1837BD4680BD80B582B000AF61
:100BB0000346FB7197F907301846FFF757FF00BF50
:100BC0000837BD4680BD80B485B000AF7860002393
:100BD000FB737B6893F82130022B08D07B680422DA
:100BE0009A637B68002283F82020012320E07B6841
:100BF0001B681A687B681B6822F00E021A607B680B
:100C00001B681A687B681B6822F001021A607B6807
:100C10001A6C7B68DB6B012101FA02F25A607B6877
:100C2000012283F821207B68002283F82020FB7BAF
:100C300018461437BD4680BC7047000080B584B0AC
:100C400000AF78600023FB737B6893F82130022BA0
:100C500005D07B6804229A630123FB73D6E07B688E
:100C60001B681A687B681B6822F00E021A607B689A
:100C70001B681A687B681B6822F001021A607B6897
:100C80001B681A46644B9A4258D97B681B68634AB2
:100C900093424FD07B681B68614A934248D07B687F
:100CA0001B68604A934240D07B681B685E4A93424F
:100CB00038D07B681B685D4A934230D07B681B68E4
:100CC0005B4A934228D07B681B68534A934220D0EA
:100CD0007B681B68574A934219D07B681B68564A49
:100CE000934212D07B681B68544A93420AD07B68B7
:100CF0001B68534A934202D14FF480531BE04FF4D8
:100D0000803318E04FF4807315E0102313E00123C3
:100D100011E04FF080730EE04FF480130BE04FF4BE
:100D2000803308E04FF4805305E04FF4807302E015
:100D3000102300E00123434A536057E07B681B689F
:100D4000364A93424FD07B681B68354A934248D05D
:100D50007B681B68334A934240D07B681B68324AE9
:100D6000934238D07B681B68304A934230D07B680E
:100D70001B682F4A934228D07B681B68264A9342FF
:100D800020D07B681B682B4A934219D07B681B6874
:100D9000294A934212D07B681B68284A93420AD0A2
:100DA0007B681B68264A934202D14FF480531BE0B4
:100DB0004FF4803318E04FF4807315E0102313E0F4
:100DC000012311E04FF080730EE04FF480130BE02D
:100DD0004FF4803308E04FF4805305E04FF4807304
:100DE00002E0102300E00123174A53607B680122D0
:100DF00083F821207B68002283F820207B685B6BCE
:100E0000002B03D07B685B6B78689847FB7B1846A8
:100E10001037BD4680BD00BF800002400800024080
:100E20001C000240300002404400024058000240D2
:100E30006C000240080402401C04024030040240DE
:100E400044040240000402400000024080B48BB021
:100E500000AF7860396000237B6200233B6279E158
:100E600001227B6A02FA03F3FB613B681B68FA69A3
:100E70001340BB61BA69FB699A4240F068813B68E4
:100E80005B68964A93425ED0944A934275D8944ADE
:100E9000934258D0924A93426FD8924A934252D08A
:100EA000904A934269D8904A93424CD08E4A9342DA
:100EB00063D88E4A934246D08C4A93425DD8122B17
:100EC0002AD8122B59D801A252F823F0470F000854
:100ED000210F0008330F0008750F00087B0F000872
:100EE0007B0F00087B0F00087B0F00087B0F0008BA
:100EF0007B0F00087B0F00087B0F00087B0F0008AA
:100F00007B0F00087B0F00087B0F00087B0F000899
:100F1000290F00083D0F0008754A934213D02CE0BA
:100F20003B68DB683B6229E03B68DB6804333B627B
:100F300024E03B68DB6808333B621FE03B68DB680A
:100F40000C333B621AE03B689B68002B02D1042300
:100F50003B6213E03B689B68012B05D108233B6291
:100F60007B68FA691A6109E008233B627B68FA69C9
:100F70005A6103E000233B6200E000BFBB69FF2B26
:100F800001D87B6801E07B6804337B61BB69FF2B80
:100F900002D87B6A9B0002E07B6A083B9B003B61B6
:100FA0007B691A680F213B6901FA03F3DB431A409E
:100FB000396A3B6901FA03F31A437B691A603B689B
:100FC0005B6803F08053002B00F0C180494B9B69A4
:100FD000484A43F001039361464B9B6903F00103C8
:100FE000BB60BB68444A7B6A9B08023352F82330DB
:100FF000FB607B6A03F003039B000F2202FA03F3FA
:10100000DB43FA681340FB607B683C4A93421FD085
:101010007B683B4A934219D07B683A4A934213D08B
:101020007B68394A93420DD07B68384A934207D097
:101030007B68374A934201D105230AE0062308E082
:10104000042306E0032304E0022302E0012300E07E
:1010500000237A6A02F0030292009340FA68134375
:10106000FB6025497B6A9B080233FA6841F823201C
:101070003B685B6803F48033002B06D0254B1A686D
:101080002449BB6913430B6006E0224B1A68BB6915
:10109000DB43204913400B603B685B6803F400337B
:1010A000002B06D01B4B5A681A49BB6913434B608F
:1010B00006E0184B5A68BB69DB43164913404B6086
:1010C0003B685B6803F48013002B25D0114B9A68B2
:1010D0001049BB6913438B6025E000BF000032104C
:1010E000000031100000221000002110000012103A
:1010F00000001110001002400000014000080140F3
:10110000000C014000100140001401400018014093
:10111000001C014000040140154B9A68BB69DB4389
:10112000134913408B603B685B6803F40013002B8A
:1011300006D00F4BDA680E49BB691343CB6006E05B
:101140000B4BDA68BB69DB4309491340CB607B6A10
:1011500001337B623B681A687B6A22FA03F3002B37
:101160007FF47EAE00BF00BF2C37BD4680BC704709
:101170000004014080B485B000AF78600B467B80EE
:101180007B689A687B881340002B02D00123FB7395
:1011900001E00023FB73FB7B18461437BD4680BC7F
:1011A000704780B483B000AF78600B467B801346F5
:1011B0007B707B78002B03D07A887B681A6103E010
:1011C0007B881A047B681A6100BF0C37BD4680BC5F
:1011D000704780B485B000AF78600B467B807B6839
:1011E000DB68FB607A88FB6813401A04FB68D9430C
:1011F0007B880B401A437B681A6100BF1437BD46D9
:1012000080BC704780B582B000AF0346FB80084BBE
:101210005A69FB881340002B06D0054AFB885361AE
:10122000FB881846FFF752F900BF0837BD4680BD5E
:101230000004014080B586B000AF78607B68002B69
:1012400001D1012372E27B681B6803F00103002BCC
:1012500000F08780924B5B6803F00C03042B0CD0EA
:101260008F4B5B6803F00C03082B12D18C4B5B682F
:1012700003F48033B3F5803F0BD1894B1B6803F433
:101280000033002B6CD07B685B68002B68D1012396
:101290004CE27B685B68B3F5803F06D1804B1B68EE
:1012A0007F4A43F4803313602EE07B685B68002B39
:1012B0000CD17B4B1B687A4A23F480331360784B44
:1012C0001B68774A23F4802313601DE07B685B680A
:1012D000B3F5A02F0CD1724B1B68714A43F48023E5
:1012E00013606F4B1B686E4A43F4803313600BE04E
:1012F0006B4B1B686A4A23F480331360684B1B688E
:10130000674A23F4802313607B685B68002B13D04B
:10131000FFF770FB386108E0FFF76CFB02463B69A2
:10132000D31A642B01D9032300E25D4B1B6803F43D
:101330000033002BF0D014E0FFF75CFB386108E0CD
:10134000FFF758FB02463B69D31A642B01D90323EC
:10135000ECE1534B1B6803F40033002BF0D100E0A9
:1013600000BF7B681B6803F00203002B63D04C4B6B
:101370005B6803F00C03002B0BD0494B5B6803F058
:101380000C03082B1CD1464B5B6803F48033002B05
:1013900016D1434B1B6803F00203002B05D07B687A
:1013A0001B69012B01D00123C0E13D4B1B6823F0D9
:1013B000F8027B685B69DB00394913430B603AE054
:1013C0007B681B69002B20D0364B01221A60FFF787
:1013D00011FB386108E0FFF70DFB02463B69D31AA9
:1013E000022B01D90323A1E12D4B1B6803F002035B
:1013F000002BF0D02A4B1B6823F0F8027B685B6956
:10140000DB00274913430B6015E0264B00221A60CE
:10141000FFF7F0FA386108E0FFF7ECFA02463B69A3
:10142000D31A022B01D9032380E11D4B1B6803F063
:101430000203002BF0D17B681B6803F00803002B2C
:101440003AD07B689B69002B19D0174B01221A6098
:10145000FFF7D0FA386108E0FFF7CCFA02463B69A3
:10146000D31A022B01D9032360E10D4B5B6A03F011
:101470000203002BF0D0012000F008FB1CE00A4B17
:1014800000221A60FFF7B6FA38610FE0FFF7B2FAF0
:1014900002463B69D31A022B08D9032346E100BF59
:1014A000001002400000424280044242924B5B6ABC
:1014B00003F00203002BE9D17B681B6803F00403EF
:1014C000002B00F0A6800023FB758B4BDB6903F03B
:1014D0008053002B0DD1884BDB69874A43F0805342
:1014E000D361854BDB6903F08053BB60BB6801238C
:1014F000FB75824B1B6803F48073002B18D17F4B64
:101500001B687E4A43F480731360FFF773FA3861F7
:1015100008E0FFF76FFA02463B69D31A642B01D942
:10152000032303E1754B1B6803F48073002BF0D099
:101530007B68DB68012B06D16F4B1B6A6E4A43F058
:10154000010313622DE07B68DB68002B0CD16A4B32
:101550001B6A694A23F001031362674B1B6A664AE0
:1015600023F0040313621CE07B68DB68052B0CD1BD
:10157000614B1B6A604A43F0040313625E4B1B6AB3
:101580005D4A43F0010313620BE05B4B1B6A5A4A4E
:1015900023F001031362584B1B6A574A23F00403DC
:1015A00013627B68DB68002B15D0FFF723FA3861E4
:1015B0000AE0FFF71FFA02463B69D31A41F288326C
:1015C000934201D90323B1E04B4B1B6A03F00203A2
:1015D000002BEED014E0FFF70DFA38610AE0FFF7B8
:1015E00009FA02463B69D31A41F28832934201D983
:1015F00003239BE0404B1B6A03F00203002BEED158
:10160000FB7D012B05D13C4BDB693B4A23F080532A
:10161000D3617B68DB69002B00F08780364B5B6809
:1016200003F00C03082B61D07B68DB69022B46D1E9
:10163000334B00221A60FFF7DDF9386108E0FFF74D
:10164000D9F902463B69D31A022B01D903236DE075
:10165000294B1B6803F00073002BF0D17B681B6AD9
:10166000B3F5803F08D1244B5B6823F400327B68DC
:101670009B68214913434B601F4B5B6823F4741232
:101680007B68196A7B685B6A0B431B4913434B6099
:101690001B4B01221A60FFF7ADF9386108E0FFF734
:1016A000A9F902463B69D31A022B01D903233DE075
:1016B000114B1B6803F00073002BF0D035E0104B8A
:1016C00000221A60FFF796F9386108E0FFF792F9F7
:1016D00002463B69D31A022B01D9032326E0064BAD
:1016E0001B6803F00073002BF0D11EE07B68DB6900
:1016F000012B07D1012319E00010024000700040C7
:10170000600042420B4B5B68FB60FB6803F4803275
:101710007B681B6A9A4206D1FB6803F470127B68EF
:101720005B6A9A4201D0012300E000231846183773
:10173000BD4680BD0010024080B584B000AF786027
:1017400039607B68002B01D10123D0E06A4B1B6814
:1017500003F007033A689A4210D9674B1B6823F0DD
:10176000070265493B6813430B60634B1B6803F03A
:1017700007033A689A4201D00123B8E07B681B68EE
:1017800003F00203002B20D07B681B6803F00403E6
:10179000002B05D0594B5B68584A43F4E063536013
:1017A0007B681B6803F00803002B05D0534B5B6874
:1017B000524A43F460535360504B5B6823F0F0028D
:1017C0007B689B684D4913434B607B681B6803F043
:1017D0000103002B40D07B685B68012B07D1474B8E
:1017E0001B6803F40033002B15D101237FE07B68D5
:1017F0005B68022B07D1414B1B6803F00073002B81
:1018000009D1012373E03D4B1B6803F00203002B59
:1018100001D101236BE0394B5B6823F003027B6845
:101820005B68364913434B60FFF7E4F8F8600AE061
:10183000FFF7E0F80246FB68D31A41F28832934280
:1018400001D9032353E02D4B5B6803F00C027B6846
:101850005B689B009A42EBD1274B1B6803F00703A0
:101860003A689A4210D2244B1B6823F0070222499F
:101870003B6813430B60204B1B6803F007033A6877
:101880009A4201D0012332E07B681B6803F0040315
:10189000002B08D0194B5B6823F4E0627B68DB689F
:1018A000164913434B607B681B6803F00803002B49
:1018B00009D0124B5B6823F460527B681B69DB0024
:1018C0000E4913434B6000F021F802460B4B5B6856
:1018D0001B0903F00F030A49CB5C22FA03F3094A00
:1018E0001360094B1B681846FEF74AFF0023184691
:1018F0001037BD4680BD00BF0020024000100240EE
:10190000C4480008000000200400002090B48AB001
:1019100000AF294B3C1D0FCB84E80F0040F20123A0
:101920003B800023FB610023BB6100237B6200231B
:101930007B6100233B62214B5B68FB61FB6903F029
:101940000C03042B02D0082B03D02BE01C4B3B6272
:101950002BE0FB699B0C03F00F0328333B4413F887
:10196000243C7B61FB6903F48033002B12D0134BC2
:101970005B685B0C03F0010328333B4413F8283CFD
:10198000BB617B690E4A03FB02F2BB69B2FBF3F356
:101990007B6204E07B690B4A02FB03F37B627B6A98
:1019A0003B6202E0064B3B6200BF3B6A18462837A9
:1019B000BD4690BC704700BFAC4800080010024014
:1019C00000127A0000093D0080B400AF024B1B6892
:1019D0001846BD4680BC70470000002080B500AFAF
:1019E000FFF7F2FF0246054B5B681B0A03F0070393
:1019F0000349CB5C22FA03F3184680BD0010024075
:101A0000D448000880B500AFFFF7DEFF0246054B63
:101A10005B68DB0A03F007030349CB5C22FA03F39C
:101A2000184680BD00100240D448000880B483B03E
:101A300000AF786039607B680F221A60114B5B68D9
:101A400003F003027B685A600E4B5B6803F0F00200
:101A50007B689A600B4B5B6803F4E0627B68DA603A
:101A6000084B5B68DB0803F4E0627B681A61064B95
:101A70001B6803F007023B681A6000BF0C37BD46C5
:101A800080BC7047001002400020024080B485B046
:101A900000AF78600A4B1B680A4AA2FB03235B0A6B
:101AA0007A6802FB03F3FB6000BFFB685A1EFA6012
:101AB000002BF9D100BF00BF1437BD4680BC704772
:101AC00000000020D34D621080B582B000AF786076
:101AD0007B68002B01D1012341E07B6893F83D3006
:101AE000DBB2002B06D17B68002283F83C207868AB
:101AF00000F039F87B68022283F83D207B681A6881
:101B00007B6804331946104600F0C2F97B68012255
:101B100083F846207B68012283F83E207B680122FF
:101B200083F83F207B68012283F840207B680122F4
:101B300083F841207B68012283F842207B680122E0
:101B400083F843207B68012283F844207B680122CC
:101B500083F845207B68012283F83D200023184646
:101B60000837BD4680BD80B483B000AF786000BF49
:101B70000C37BD4680BC704780B485B000AF78603C
:101B80007B6893F83D30DBB2012B01D0012344E0A8
:101B90007B68022283F83D207B681B68DA687B68DB
:101BA0001B6842F00102DA607B681B681D4A9342A1
:101BB00018D07B681B681C4A934213D07B681B6853
:101BC000B3F1804F0ED07B681B68184A934209D04E
:101BD0007B681B68164A934204D07B681B68154AD1
:101BE000934211D17B681B689B6803F00703FB607D
:101BF000FB68062B10D07B681B681A687B681B6823
:101C000042F001021A6007E07B681B681A687B6873
:101C10001B6842F001021A60002318461437BD46C3
:101C200080BC7047002C014000340140000400409B
:101C300000080040000C004080B582B000AF786022
:101C40007B681B681B6903F00203022B22D17B68AF
:101C50001B68DB6803F00203022B1BD17B681B6847
:101C60006FF002021A617B6801221A777B681B6899
:101C70009B6903F00303002B03D0786800F0EDF8B4
:101C800005E0786800F0E0F8786800F0EFF87B682D
:101C900000221A777B681B681B6903F00403042B7E
:101CA00022D17B681B68DB6803F00403042B1BD183
:101CB0007B681B686FF004021A617B6802221A7746
:101CC0007B681B689B6903F44073002B03D0786822
:101CD00000F0C3F805E0786800F0B6F8786800F026
:101CE000C5F87B6800221A777B681B681B6903F0C4
:101CF0000803082B22D17B681B68DB6803F008030C
:101D0000082B1BD17B681B686FF008021A617B6887
:101D100004221A777B681B68DB6903F00303002B3E
:101D200003D0786800F099F805E0786800F08CF846
:101D3000786800F09BF87B6800221A777B681B6844
:101D40001B6903F01003102B22D17B681B68DB6832
:101D500003F01003102B1BD17B681B686FF010027F
:101D60001A617B6808221A777B681B68DB6903F4B9
:101D70004073002B03D0786800F06FF805E07868B6
:101D800000F062F8786800F071F87B6800221A773A
:101D90007B681B681B6903F00103012B0ED17B6874
:101DA0001B68DB6803F00103012B07D17B681B680C
:101DB0006FF001021A617868FEF73EFC7B681B68D1
:101DC0001B6903F08003802B0ED17B681B68DB68E6
:101DD00003F08003802B07D17B681B686FF08002C3
:101DE0001A61786800F0D7F87B681B681B6903F0FC
:101DF0004003402B0ED17B681B68DB6803F0400377
:101E0000402B07D17B681B686FF040021A6178682D
:101E100000F035F87B681B681B6903F02003202B5A
:101E20000ED17B681B68DB6803F02003202B07D1F1
:101E30007B681B686FF020021A61786800F0A2F8D6
:101E400000BF0837BD4680BD80B483B000AF786066
:101E500000BF0C37BD4680BC704780B483B000AF74
:101E6000786000BF0C37BD4680BC704780B483B03B
:101E700000AF786000BF0C37BD4680BC704780B4AF
:101E800083B000AF786000BF0C37BD4680BC7047A0
:101E900080B485B000AF786039607B681B68FB60F8
:101EA0007B68334A934213D07B68324A93420FD007
:101EB0007B68B3F1804F0BD07B682F4A934207D0E9
:101EC0007B682E4A934203D07B682D4A934208D107
:101ED000FB6823F07003FB603B685B68FA681343A0
:101EE000FB607B68224A934213D07B68214A93426D
:101EF0000FD07B68B3F1804F0BD07B681E4A9342B2
:101F000007D07B681D4A934203D07B681C4A9342EA
:101F100008D1FB6823F44073FB603B68DB68FA6818
:101F20001343FB60FB6823F080023B685B6913434B
:101F3000FB607B68FA681A603B689A687B68DA62C3
:101F40003B681A687B689A627B68094A934203D0AF
:101F50007B68084A934203D13B681A697B681A631D
:101F60007B6801225A6100BF1437BD4680BC7047B0
:101F7000002C0140003401400004004000080040F3
:101F8000000C004080B483B000AF786000BF0C3715
:101F9000BD4680BC704780B483B000AF786000BF9E
:101FA0000C37BD4680BC704780B582B000AF78600A
:101FB0007B68002B01D101233FE07B6893F83D3023
:101FC000DBB2002B06D17B68002283F83C207868C6
:101FD000FEF782FB7B68242283F83D207B681B6828
:101FE000DA687B681B6822F40052DA60786800F0D7
:101FF00025FC7B681B681A697B681B6822F4904289
:102000001A617B681B685A697B681B6822F02A0288
:102010005A617B681B68DA687B681B6842F400526F
:10202000DA607B6800221A647B68202283F83D20F6
:102030007B68202283F83E20002318460837BD46DF
:1020400080BD80B58AB002AFF860B9603B601346CE
:10205000FB8000237B61FB6893F83D30DBB2202BD3
:102060007CD1BB68002B02D0FB88002B01D101235F
:1020700075E0FB6893F83C30012B01D102236EE040
:10208000FB68012283F83C20FB6800221A64FB688D
:10209000212283F83D20FEF7ADFC7861FB68FA88C9
:1020A0009A84FB68FA88DA84FB689B68B3F5805FE2
:1020B00008D1FB681B69002B04D10023FB61BB68BE
:1020C000BB6103E0BB68FB610023BB61FB680022CE
:1020D00083F83C202AE03B6800937B690022802142
:1020E000F86800F011FA0346002B01D0032336E014
:1020F000FB69002B0BD1BB691B881A46FB681B6868
:10210000C2F308025A60BB690233BB6107E0FB6996
:102110001A78FB681B685A60FB690133FB61FB6836
:10212000DB8C9BB2013B9AB2FB68DA84FB68DB8CE8
:102130009BB2002BCFD13B6800937B6900224021EA
:10214000F86800F0E1F90346002B01D0032306E014
:10215000FB68202283F83D20002300E0022318467C
:102160002037BD4680BD000080B58AB000AF7860E2
:102170007B681B681B687B627B681B68DB683B6253
:102180007B681B685B69FB610023BB6100237B618B
:102190007B6A03F00F03BB61BB69002B0DD17B6A27
:1021A00003F02003002B08D03B6A03F02003002B30
:1021B00003D0786800F099FA7BE1BB69002B00F04E
:1021C000B180FB6903F00103002B05D13B6A03F4E6
:1021D0009073002B00F0A6807B6A03F00103002BB4
:1021E0000AD03B6A03F48073002B05D07B681B6C1C
:1021F00043F001027B681A647B6A03F00403002B3E
:102200000AD0FB6903F00103002B05D07B681B6C2F
:1022100043F002027B681A647B6A03F00203002B1E
:102220000AD0FB6903F00103002B05D07B681B6C0F
:1022300043F004027B681A647B6A03F00803002BF6
:102240000FD03B6A03F02003002B04D1FB6903F09D
:102250000103002B05D07B681B6C43F008027B68F0
:102260001A647B681B6C002B00F01E817B6A03F0F4
:102270002003002B07D03B6A03F02003002B02D081
:10228000786800F032FA7B681B685B6903F04003F2
:10229000002B14BF01230023DBB27B617B681B6C26
:1022A00003F00803002B02D17B69002B31D0786842
:1022B00000F074F97B681B685B6903F04003002B36
:1022C00023D07B681B685A697B681B6822F0400238
:1022D0005A617B689B6B002B13D07B689B6B764AA3
:1022E0005A637B689B6B1846FEF7A8FC0346002BDD
:1022F00016D07B689B6B5B6B7A68926B1046984735
:102300000EE0786800F0ECF80AE0786800F0E8F891
:1023100006E0786800F0E4F87B6800221A64C3E005
:1023200000BFC1E07B681B6B012B40F0A1807B6A82
:1023300003F01003002B00F09B803B6A03F01003B6
:10234000002B00F095800023FB607B681B681B68F6
:10235000FB607B681B685B68FB60FB687B681B68D5
:102360005B6903F04003002B4ED07B689B6B1B68BE
:102370005B683B823B8A002B00F098807B689B8DDA
:102380003A8A9A4280F092807B683A8ADA857B6842
:102390009B6B9B69202B2BD07B681B68DA687B6862
:1023A0001B6822F48072DA607B681B685A697B685C
:1023B0001B6822F001025A617B681B685A697B68BE
:1023C0001B6822F040025A617B68202283F83E207D
:1023D0007B6800221A637B681B68DA687B681B686D
:1023E00022F01002DA607B689B6B1846FEF7EBFB6D
:1023F0007B689A8D7B68DB8D9BB2D31A9BB21946A2
:10240000786800F076F851E07B689A8D7B68DB8D08
:102410009BB2D31A7B827B68DB8D9BB2002B47D0AB
:102420007B8A002B44D07B681B68DA687B681B685A
:1024300022F49072DA607B681B685A697B681B68BB
:1024400022F001025A617B68202283F83E207B68DB
:1024500000221A637B681B68DA687B681B6822F0BD
:102460001002DA607B8A1946786800F042F81FE0B3
:102470007B6A03F08003002B08D03B6A03F08003E3
:10248000002B03D0786800F0C9F812E07B6A03F0F3
:102490004003002B0DD03B6A03F04003002B08D013
:1024A000786800F00AF904E000BF02E000BF00E035
:1024B00000BF2837BD4680BDF525000880B483B035
:1024C00000AF786000BF0C37BD4680BC704780B459
:1024D00083B000AF786000BF0C37BD4680BC70474A
:1024E00080B483B000AF786000BF0C37BD4680BCBD
:1024F000704780B483B000AF78600B467B8000BF2C
:102500000C37BD4680BC704780B584B000AFF86022
:10251000B9603B601346FB712CE0BB69B3F1FF3F30
:1025200028D0BB69002B07D0FEF764FA02463B684F
:10253000D31ABA699A421DD2FB681B68DA68FB6835
:102540001B6822F4D072DA60FB681B685A69FB686A
:102550001B6822F001025A61FB68202283F83D20AB
:10256000FB68202283F83E20FB68002283F83C2091
:1025700003230FE0FB681B681A68BB681340BA6846
:102580009A420CBF01230023DBB21A46FB799A4220
:10259000C3D0002318461037BD4680BD80B483B039
:1025A00000AF78607B681B68DA687B681B6822F480
:1025B0009072DA607B681B685A697B681B6822F03E
:1025C00001025A617B681B6B012B07D17B681B687A
:1025D000DA687B681B6822F01002DA607B682022D0
:1025E00083F83E207B6800221A6300BF0C37BD468B
:1025F00080BC704780B584B000AF78607B685B6A50
:10260000FB60FB680022DA85FB680022DA84F86848
:10261000FFF766FF00BF1037BD4680BD80B485B0B0
:1026200000AF78607B6893F83D30DBB2212B3ED160
:102630007B689B68B3F5805F14D17B681B69002BB6
:1026400010D17B681B6AFB60FB681B881A467B689D
:102650001B68C2F308025A607B681B6A9A1C7B687D
:102660001A6208E07B681B6A591C7A6811621A7842
:102670007B681B685A607B68DB8C9BB2013B9BB21A
:102680007A681946D184002B0FD17B681B68DA6801
:102690007B681B6822F08002DA607B681B68DA685E
:1026A0007B681B6842F04002DA60002300E00223EE
:1026B00018461437BD4680BC704780B582B000AF65
:1026C00078607B681B68DA687B681B6822F04002D0
:1026D000DA607B68202283F83D207868FFF7EEFE01
:1026E000002318460837BD4680BD80B586B000AFD0
:1026F00078607B6893F83E30DBB2222B40F0998003
:102700007B689B68B3F5805F17D17B681B69002BE2
:1027100013D100237B617B689B6A3B617B681B68EC
:102720005B689BB2C3F308039AB23B691A807B686B
:102730009B6A9A1C7B689A6226E07B689B6A7B6135
:1027400000233B617B689B68B3F5805F07D07B68A3
:102750009B68002B0AD17B681B69002B06D17B6824
:102760001B685B68DAB27B691A7008E07B681B68DB
:102770005B68DBB203F07F03DAB27B691A707B68B7
:102780009B6A5A1C7B689A627B68DB8D9BB2013B1B
:102790009BB27A681946D185002B48D17B681B68AB
:1027A000DA687B681B6822F02002DA607B681B68AD
:1027B000DA687B681B6822F48072DA607B681B68C9
:1027C0005A697B681B6822F001025A617B682022EB
:1027D00083F83E207B681B6B012B23D17B68002292
:1027E0001A637B681B68DA687B681B6822F010023A
:1027F000DA607B681B681B6803F01003102B0AD19A
:102800000023FB607B681B681B68FB607B681B68A0
:102810005B68FB60FB687B689B8D19467868FFF7F7
:1028200068FE02E07868FFF752FE002302E0002312
:1028300000E0022318461837BD4680BD80B584B03D
:1028400000AF78607B681B681B6923F440517B688C
:10285000DA687B681B680A431A617B689A687B6840
:102860001B691A437B685B691343BB607B681B6809
:10287000DB6823F4B05323F00C037A681268B9685C
:102880000B43D3607B681B685B6923F440717B68F2
:102890009A697B681B680A435A617B681B682C4AEB
:1028A000934203D1FFF7AEF8F86002E0FFF796F825
:1028B000F860FA6813469B0013449A001A447B6838
:1028C0005B689B00B2FBF3F3224AA2FB03235B0984
:1028D0001901FA6813469B0013449A001A447B6856
:1028E0005B689B00B2FBF3F21A4BA3FB02035B098C
:1028F000642000FB03F3D31A1B013233154AA2FBF9
:1029000003235B0903F0F0031944FA6813469B00A4
:1029100013449A001A447B685B689B00B2FBF3F295
:102920000C4BA3FB02035B09642000FB03F3D31AE7
:102930001B013233074AA2FB03235B0903F00F029A
:102940007B681B680A449A6000BF1037BD4680BD93
:10295000003801401F85EB5180B485B000AF0346BD
:10296000FB800023FB60B7F90630842B05D0B7F954
:102970000620FB6813440333FB60FB6818461437DA
:10298000BD4680BC704780B500AF00F0E7FA002379
:10299000184680BDF0B589B004AF786039607B68B7
:1029A0005B69002B20D07B689B69002B1CD07B6867
:1029B0005C687B681D687B681E697B68B3F90830BA
:1029C0001846FFF7C9FF01467B685B697A68926920
:1029D0000292019300913B6832462946204600F05E
:1029E000E8F80346FB601CE07B685C687B681D6858
:1029F0007B681B699EB27B68B3F908301846FFF705
:102A0000ABFF024607F10C03019300923B6832468C
:102A10002946204600F029F90346012B01D0002366
:102A200000E0FB6818461437BD46F0BD80B584B0A1
:102A300000AF78607B68FB60FB68002B01D0FB680F
:102A400000E00123184600F055FA0023184610371D
:102A5000BD4680BD80B483B000AF78607B6803F171
:102A600008027B685A607B684FF0FF329A607B688F
:102A700003F108027B68DA607B6803F108027B6877
:102A80001A617B6800221A6000BF0C37BD4680BC0B
:102A9000704780B483B000AF78607B6800221A6111
:102AA00000BF0C37BD4680BC704780B485B000AF16
:102AB000786039607B685B68FB603B68FA685A60E5
:102AC000FB689A683B689A60FB689B683A685A6042
:102AD000FB683A689A603B687A681A617B681B6891
:102AE0005A1C7B681A6000BF1437BD4680BC704713
:102AF00080B485B000AF786039603B681B68BB600C
:102B0000BB68B3F1FF3F03D17B681B69FB600CE03E
:102B10007B680833FB6002E0FB685B68FB60FB6876
:102B20005B681B68BA689A42F6D2FB685A683B68D1
:102B30005A603B685B683A689A603B68FA689A60DA
:102B4000FB683A685A603B687A681A617B681B6860
:102B50005A1C7B681A6000BF1437BD4680BC7047A2
:102B600080B485B000AF78607B681B69FB607B68D0
:102B70005B687A6892689A607B689B687A6852683A
:102B80005A60FB685B687A689A4203D17B689A68EE
:102B9000FB685A607B6800221A61FB681B685A1E3A
:102BA000FB681A60FB681B6818461437BD4680BC7A
:102BB000704780B58EB004AFF860B9607A603B6052
:102BC0007B6B002B0AD14FF0500383F31188BFF3C6
:102BD0006F8FBFF34F8F3B6200BFFEE7BB6B002BD5
:102BE0000AD14FF0500383F31188BFF36F8FBFF307
:102BF0004F8FFB6100BFFEE7A0233B613B69A02B29
:102C00000AD04FF0500383F31188BFF36F8FBFF3E7
:102C10004F8FBB6100BFFEE7BB6B002B1ED07B6BF1
:102C2000002B1BD0BB6B7B627B6A7A6B1A637B6A5F
:102C3000022283F89D20002303937B6A029307F10D
:102C4000140301933B6B00933B687A68B968F8689A
:102C500000F050F8786A00F0E3F801E000237B61AF
:102C60007B6918462837BD4680BD80B58CB004AF5F
:102C7000F860B9603B601346FB80FB889B001846F8
:102C800000F096FE78617B69002B0ED0A02000F04A
:102C90008FFEF861FB69002B03D0FB697A691A6328
:102CA00005E0786900F048FF01E00023FB61FB6963
:102CB000002B17D0FB69002283F89D20FA8800239F
:102CC0000393FB690293FB6A0193BB6A00933B6821
:102CD000B968F86800F00EF8F86900F0A1F801236F
:102CE000BB6102E04FF0FF33BB61BB691846203780
:102CF000BD4680BD80B588B000AFF860B9607A602D
:102D00003B603B6B1A6B7B6803F18043013B9B008C
:102D10001344BB61BB6923F00703BB61BB6903F0CC
:102D20000703002B0AD04FF0500383F31188BFF341
:102D30006F8FBFF34F8F7B6100BFFEE70023FB6106
:102D400012E0BA68FB69134419783A6BFB691344C3
:102D500034330A461A70BA68FB6913441B78002B97
:102D600006D0FB690133FB61FB690F2BE9D900E059
:102D700000BF3B6B002283F84320BB6A062B01D9BE
:102D80000623BB623B6BBA6ADA623B6BBA6A5A646F
:102D90003B6B00229A643B6B04331846FFF779FEC5
:102DA0003B6B18331846FFF774FE3B6B3A6B1A61A6
:102DB000BB6AC3F107023B6B9A613B6B3A6B5A6289
:102DC0003B6B0022C3F898203B6B002283F89C20C9
:102DD0003B6B4C334C220021184600F0E1FF3B6B6B
:102DE0000C4A1A653B6B0C4A5A653B6B0B4A9A6559
:102DF0003A68F968B86900F029FC02463B6B1A6032
:102E0000FB6A002B02D0FB6A3A6B1A6000BF2037C6
:102E1000BD4680BD6C110020D41100203C12002062
:102E200080B582B000AF786000F000FD2A4B1B68CF
:102E30000133294A1360294B1B68002B09D1274A0B
:102E40007B681360244B1B68012B10D100F0D2FA71
:102E50000DE0234B1B68002B09D1204B1B68DA6A5D
:102E60007B68DB6A9A4202D81C4A7B6813601D4B60
:102E70001B6801331B4A13607B68DB6A01229A409E
:102E8000194B1B681343184A13607B68DA6A1346B0
:102E90009B0013449B00154A1A447B68043319466F
:102EA0001046FFF702FE00F0F1FC0D4B1B68002BF3
:102EB0000ED00A4B1B68DA6A7B68DB6A9A4207D23B
:102EC0000B4B4FF080521A60BFF34F8FBFF36F8FE1
:102ED00000BF0837BD4680BD20050020200400202B
:102EE0002C0500203C05002028050020240400209B
:102EF00004ED00E080B584B000AF78600023FB6093
:102F00007B68002B17D0134B1B68002B0AD04FF0A7
:102F1000500383F31188BFF36F8FBFF34F8FBB60F4
:102F200000BFFEE700F084F80021786800F028FB7D
:102F300000F08CF8F860FB68002B07D1064B4FF0CF
:102F400080521A60BFF34F8FBFF36F8F00BF1037EF
:102F5000BD4680BD4805002004ED00E080B58AB084
:102F600004AF0023BB6000237B603A46391D07F1A4
:102F700008031846FDF764F939687B68BA6802925D
:102F800001930023009300230A4621492148FFF7BB
:102F900010FE0346204A13601F4B1B68002B02D013
:102FA00001237B6101E000237B617B69012B1BD145
:102FB0004FF0500383F31188BFF36F8FBFF34F8F30
:102FC0003B6100BF154B1B684C33154A1360154B12
:102FD0004FF0FF321A60144B01221A60134B00228B
:102FE0001A6000F0B1FB0EE07B69B3F1FF3F0AD13C
:102FF0004FF0500383F31188BFF36F8FBFF34F8FF0
:10300000FB6000BFFEE700BF1837BD4680BD00BFB4
:10301000BC480008C53300084405002020040020F7
:103020005C000020400500202C0500202405002025
:1030300080B400AF044B1B680133034A136000BF28
:10304000BD4680BC704700BF4805002080B584B0F5
:1030500000AF0023FB600023BB60414B1B68002BCB
:103060000AD14FF0500383F31188BFF36F8FBFF382
:103070004F8F3B6000BFFEE700F0D8FB384B1B686A
:10308000013B374A1360364B1B68002B61D1354B2F
:103090001B68002B5DD02EE0334BDB68DB68FB60E8
:1030A000FB6818331846FFF75BFDFB6804331846CE
:1030B000FFF756FDFB68DB6A01229A402B4B1B6829
:1030C00013432A4A1360FB68DA6A13469B001344D1
:1030D0009B00274A1A44FB68043319461046FFF741
:1030E000E4FCFB68DA6A234B1B68DB6A9A4202D372
:1030F000214B01221A601C4B1B68002BCCD1FB68B2
:10310000002B01D000F018FA1C4B1B687B607B6819
:10311000002B10D000F036F80346002B02D0164BDF
:1031200001221A607B68013B7B607B68002BF1D138
:10313000124B00221A60104B1B68002B09D0012390
:10314000BB600F4B4FF080521A60BFF34F8FBFF33D
:103150006F8F00F09BFBBB6818461037BD4680BDE3
:103160004805002020050020E0040020280500205C
:103170002404002020040020340500203005002015
:1031800004ED00E080B586B000AF00237B61514BB9
:103190001B68002B40F08D804F4B1B6801333B6157
:1031A0004D4A3B6913603B69002B20D14B4B1B6898
:1031B0001B68002B0AD04FF0500383F31188BFF334
:1031C0006F8FBFF34F8F3B6000BFFEE7434B1B6821
:1031D000FB60434B1B68414A1360414AFB68136024
:1031E000404B1B6801333F4A136000F0A5F93E4B8A
:1031F0001B683A699A424DD3384B1B681B68002BF9
:1032000001D1012300E00023002B04D0364B4FF006
:10321000FF321A603EE0314B1B68DB68DB68BB6045
:10322000BB685B687B603A697B689A4203D22E4A2E
:103230007B6813602EE0BB6804331846FFF790FCF0
:10324000BB689B6A002B04D0BB6818331846FFF795
:1032500087FCBB68DB6A01229A40244B1B6813433E
:10326000224A1360BB68DA6A13469B0013449B0032
:103270001F4A1A44BB68043319461046FFF715FC71
:10328000BB68DA6A1B4B1B68DB6A9A42B4D3012322
:103290007B61B1E7174B1B68DA6A154913469B003F
:1032A00013449B000B441B68012B07D901237B614E
:1032B00004E0114B1B6801330F4A13600F4B1B686E
:1032C000002B01D001237B617B6918461837BD466E
:1032D00080BD00BF4805002024050020D804002040
:1032E000DC040020380500204005002028050020CF
:1032F0002404002020040020300500203405002094
:1033000080B487B000AF294B1B68002B03D0284B3B
:1033100001221A6044E0264B00221A60254B1B68EC
:10332000FB60FB68B3FA83F3FB72FB7AC3F11F0304
:103330007B6121497A6913469B0013449B000B442F
:103340001B68002B0AD14FF0500383F31188BFF3A1
:103350006F8FBFF34F8F7B6000BFFEE77A69134624
:103360009B0013449B00144A13443B613B695B6818
:103370005A683B695A603B695A683B6908339A420C
:1033800004D13B695B685A683B695A603B695B687A
:10339000DB680A4A1360094B1B684C33084A136008
:1033A00000BF1C37BD4680BC704700BF48050020E9
:1033B00034050020280500202404002020040020DB
:1033C0005C00002080B582B000AF786000F052F859
:1033D000064B1B68012BF9D9054B4FF080521A6040
:1033E000BFF34F8FBFF36F8FF0E700BF24040020BF
:1033F00004ED00E080B582B000AF00237B600CE0FC
:103400007A6813469B0013449B00124A13441846E3
:10341000FFF720FB7B6801337B607B68062BEFD9CD
:103420000D48FFF717FB0D48FFF714FB0C48FFF79B
:1034300011FB0C48FFF70EFB0B48FFF70BFB0B4B88
:10344000054A1A600A4B054A1A6000BF0837BD4694
:1034500080BD00BF24040020B0040020C40400206C
:10346000E0040020F40400200C050020D804002013
:10347000DC04002080B582B000AF19E000F0D6F97E
:10348000104BDB68DB687B607B6804331846FFF712
:1034900067FB0D4B1B68013B0B4A13600B4B1B6812
:1034A000013B0A4A136000F0F1F9786800F010F867
:1034B000064B1B68002BE1D100BF00BF0837BD469B
:1034C00080BD00BFF4040020200500200805002076
:1034D00080B584B000AF78607B684C33184600F04C
:1034E00067FC7B6893F89D30002B08D17B681B6BD1
:1034F000184600F021FB786800F01EFB18E07B689E
:1035000093F89D30012B03D1786800F015FB0FE094
:103510007B6893F89D30022B0AD04FF0500383F361
:103520001188BFF36F8FBFF34F8FFB6000BFFEE7C3
:1035300000BF1037BD4680BD80B483B000AF0E4BD6
:103540001B681B68002B01D1012300E00023002B26
:1035500004D00A4B4FF0FF321A6008E0064B1B689C
:10356000DB68DB687B607B685B68044A136000BFD4
:103570000C37BD4680BC7047D804002040050020B1
:1035800080B584B000AF78603960294B1B68FB6060
:10359000284B1B6804331846FFF7E2FA0346002B5A
:1035A0000BD1244B1B68DB6A012202FA03F3DA43D6
:1035B000214B1B681340204A13607B68B3F1FF3F27
:1035C0000AD13B68002B07D01A4B1B6804331946FD
:1035D0001A48FFF76AFA26E0FA687B681344BB6072
:1035E000144B1B68BA685A60BA68FB689A4209D2E1
:1035F000134B1A680F4B1B68043319461046FFF72C
:1036000077FA10E00F4B1A680A4B1B68043319460F
:103610001046FFF76DFA0C4B1B68BA689A4202D24B
:10362000094ABB68136000BF1037BD4680BD00BFAC
:103630002405002020040020280500200C0500207F
:10364000DC040020D80400204005002080B485B0B0
:1036500000AFF860B9607A60FB68043BFB60FB6810
:103660004FF080721A60FB68043BFB60BB6823F07C
:103670000102FB681A60FB68043BFB60084AFB68B8
:103680001A60FB68143BFB607A68FB681A60FB6891
:10369000203BFB60FB6818461437BD4680BC704772
:1036A000A536000880B485B000AF00237B60124BC4
:1036B0001B68B3F1FF3F0AD04FF0500383F311882A
:1036C000BFF36F8FBFF34F8FFB6000BFFEE74FF07C
:1036D000500383F31188BFF36F8FBFF34F8FBB602D
:1036E00000BF00BF7B68002BFCD000BF00BF1437B9
:1036F000BD4680BC704700BF0C00002000000000E9
:10370000074B19680868B0E8F00F80F30988BFF329
:103710006F8F4FF0000080F311884EF00D0E704750
:103720002004002000BF00BF06480068006880F346
:10373000088862B661B6BFF34F8FBFF36F8F00DFAB
:1037400000BF00BF08ED00E080B584B000AF324B91
:10375000FB60FB681B78DBB27B60FB68FF221A70A2
:10376000FB681B78DBB2FB70FB78DBB203F0500325
:10377000DAB22A4B1A702A4B07221A6009E0284B4A
:103780001B68013B264A1360FB78DBB25B00DBB2AF
:10379000FB70FB78DBB203F08003802BEFD0204B73
:1037A0001B68C3F10703042B0AD04FF0500383F3C7
:1037B0001188BFF36F8FBFF34F8FBB6000BFFEE771
:1037C000174B1B681B02164A1360154B1B6803F44A
:1037D000E063134A13607B68DAB2FB681A70114B1E
:1037E0001B68104A43F4700313600E4B1B680D4AAC
:1037F00043F07043136000F0B9F80B4B00221A60DD
:10380000FFF792FFFFF77CFDFFF74CFF0023184600
:103810001037BD4680BD00BF00E400E04C0500202D
:103820005005002020ED00E00C00002080B483B0A3
:1038300000AF4FF0500383F31188BFF36F8FBFF3D6
:103840004F8F7B6000BF0F4B1B6801330D4A136025
:103850000C4B1B68012B0FD10B4B1B68DBB2002BF1
:103860000AD04FF0500383F31188BFF36F8FBFF37B
:103870004F8F3B6000BFFEE700BF0C37BD4680BCEA
:10388000704700BF0C00002004ED00E080B483B05E
:1038900000AF114B1B68002B0AD14FF0500383F38C
:1038A0001188BFF36F8FBFF34F8F7B6000BFFEE7C0
:1038B000094B1B68013B084A1360074B1B68002B30
:1038C00005D100233B603B6883F3118800BF00BF34
:1038D0000C37BD4680BC70470C0000200000000083
:1038E000EFF30980BFF36F8F0D4B1A6820E9F00FDB
:1038F00010602DE908404FF0500080F31188FFF769
:10390000FFFC4FF0000080F31188BDE80840196803
:103910000868B0E8F00F80F30988BFF36F8F704735
:103920002004002000BF00BF80B582B000AF4FF080
:10393000500383F31188BFF36F8FBFF34F8F7B600A
:1039400000BFFFF71FFC0346002B03D0064B4FF0D0
:1039500080521A6000233B603B6883F3118800BFEC
:1039600000BF0837BD4680BD04ED00E080B400AF65
:103970000A4B00221A600A4B00221A60094B1B688E
:10398000094AA2FB03239B09084A013B1360034B2E
:1039900007221A6000BFBD4680BC704710E000E0FF
:1039A00018E000E000000020D34D621014E000E0B9
:1039B00080B58AB000AF78600023FB61FFF738FB69
:1039C000584B1B68002B01D100F010F9564B1A68B8
:1039D0007B681340002B40F08E807B68002B1DD04D
:1039E00008227B6813447B607B6803F00703002B8D
:1039F00014D07B6823F0070308337B607B6803F0F7
:103A00000703002B0AD04FF0500383F31188BFF354
:103A10006F8FBFF34F8F7B6100BFFEE77B68002B8A
:103A200069D0424B1B687A689A4264D8404B3B622B
:103A30003F4B1B687B6204E07B6A3B627B6A1B68CE
:103A40007B627B6A5B687A689A4203D97B6A1B68EF
:103A5000002BF1D1334B1B687A6A9A424BD03B6AF8
:103A60001B6808221344FB617B6A1A683B6A1A6070
:103A70007B6A5A687B68D21A08235B009A421FD976
:103A80007A6A7B681344BB61BB6903F00703002BB0
:103A90000AD04FF0500383F31188BFF36F8FBFF349
:103AA0004F8F3B6100BFFEE77B6A5A687B68D21A82
:103AB000BB695A607B6A7A685A60B86900F0F8F8A6
:103AC0001A4B1A687B6A5B68D31A184A1360174B43
:103AD0001A68184B1B689A4203D2144B1B68154A8C
:103AE00013607B6A5A68104B1B681A437B6A5A60E2
:103AF0007B6A00221A60FFF7A9FAFB6903F007034B
:103B0000002B0AD04FF0500383F31188BFF36F8F5F
:103B1000BFF34F8FFB6000BFFEE7FB6918462837F5
:103B2000BD4680BD5C11002068110020601100209E
:103B3000541100206411002080B586B000AF786079
:103B40007B687B617B68002B48D008235B427A69E5
:103B500013447B617B693B613B695A68214B1B685D
:103B60001340002B0AD14FF0500383F31188BFF3A9
:103B70006F8FBFF34F8FFB6000BFFEE73B691B6891
:103B8000002B0AD04FF0500383F31188BFF36F8FDF
:103B9000BFF34F8FBB6000BFFEE73B695A68114B14
:103BA0001B681340002B19D03B691B68002B15D1F3
:103BB0003B695A680B4B1B68DB431A403B695A60F0
:103BC000FFF736FA3B695A68074B1B681344064AED
:103BD0001360386900F06CF8FFF738FA00BF183747
:103BE000BD4680BD681100206011002080B485B002
:103BF00000AF4FF44063BB60274BFB60FB6803F0F2
:103C00000703002B0CD0FB680733FB60FB6823F035
:103C10000703FB60BA68FB68D31A1F4A1344BB60F2
:103C2000FB687B601D4A7B6813601C4B00225A6056
:103C30007B68BA681344FB600822FB689B1AFB6030
:103C4000FB6823F00703FB60FB68154A1360144B05
:103C50001B6800225A60124B1B6800221A607B68A6
:103C60003B603B68FA68D21A3B685A600C4B1A6892
:103C70003B681A603B685B680A4A13603B685B6894
:103C8000094A1360094B4FF000421A6000BF143715
:103C9000BD4680BC704700BF540500205411002071
:103CA0005C110020641100206011002068110020C8
:103CB00080B485B000AF7860274BFB6002E0FB6802
:103CC0001B68FB60FB681B687A689A42F7D8FB6840
:103CD000BB60FB685B68BA6813447A689A4208D193
:103CE000FB685A687B685B681A44FB685A60FB682B
:103CF0007B607B68BB607B685B68BA681A44FB6862
:103D00001B689A4218D1FB681A68144B1B689A42C8
:103D10000DD07B685A68FB681B685B681A447B6837
:103D20005A60FB681B681A687B681A6008E00B4BD6
:103D30001A687B681A6003E0FB681A687B681A607F
:103D4000FA687B689A4202D0FB687A681A6000BF02
:103D50001437BD4680BC7047541100205C11002010
:103D60000EB46FF0004100B59CB01DAB0290069000
:103D7000079104910848094953F8042B05910068FC
:103D800002A9019300F0F2F90022029B1A701CB004
:103D90005DF804EB03B070475C0000200802FFFFF1
:103DA00003460244934200D1704703F8011BF9E730
:103DB000294B70B51B68044683424BD0C36943B19D
:103DC000DB68002B44D1E369196811B1204600F08B
:103DD0007FF8616911B1204600F07AF8E16911B10C
:103DE000204600F075F8216B11B1204600F070F804
:103DF000616B11B1204600F06BF8A16B11B1204648
:103E000000F066F8A16C11B1204600F061F8616C19
:103E100011B1204600F05CF8E16A11B1204600F0D3
:103E200057F8236AB3B12046BDE870401847495996
:103E300041B90435E369802DD968F8D1204600F0F6
:103E400047F8C0E70E68204600F042F83146EFE739
:103E50000025EFE770BD00BF5C000020014B186833
:103E6000704700BF5C00002070B500260C4D0D4C63
:103E7000641BA410A64209D100F07AFC00260A4D6A
:103E80000A4C641BA410A64205D170BD55F8043B32
:103E900098470136EEE755F8043B98470136F2E7BC
:103EA000104900081049000810490008144900088A
:103EB000704770470A44914200F1FF3300D17047C8
:103EC00010B511F8014B914203F8014FF9D110BD23
:103ED00038B50546002940D051F8043C0C1F002B92
:103EE000B8BFE41800F0DCF81C4A136833B963600B
:103EF00014602846BDE8384000F0D8B8A34208D97D
:103F0000206821188B4201BF19685B68091821607D
:103F1000EDE71A465B680BB1A342FAD91168501855
:103F2000A0420BD120680144501883421160E0D1B7
:103F300018685B68084410605360DAE702D90C2304
:103F40002B60D6E7206821188B4201BF19685B6897
:103F50000918216063605460CBE738BDAC120020C3
:103F600070B50E4E0C463168054611B900F0AAFB3B
:103F700030602146284600F0A5FB431C0AD0C41C33
:103F800024F00304A04207D0211A284600F09AFB2F
:103F9000013001D14FF0FF34204670BDB012002037
:103FA0002DE9F843CD1C25F0030508350C2D38BF4D
:103FB0000C25002D074601DBA94205D90C2300265C
:103FC0003B603046BDE8F883DFF8D08000F068F849
:103FD000D8F800301C465CBB29463846FFF7C0FFC6
:103FE000431C044655D1D8F800402646002E45D142
:103FF000002C48D023683146384604EB030900F012
:1040000061FB81453FD1216838466D1A2946FFF78B
:10401000A7FF013037D023682B442360D8F8003045
:10402000002B38D05A68A2422BD100225A600FE0F0
:104030002268521B1FD40B2A17D96119A34225608D
:1040400018BF5960636808BFC8F8001062514B6020
:10405000384604F10B0600F029F826F00706231D68
:10406000F21AAED09B1BA350ABE7A3426268DDD12E
:10407000C8F80020ECE723466468ACE7344676686D
:10408000B4E71346CCE70C2338463B6000F00EF84B
:1040900097E72560DCE75B60FFDE00BFAC12002025
:1040A0000148FFF705BF00BFA81200200148FFF735
:1040B00000BF00BFA81200202DE9F0471F468E6800
:1040C0008246BE420C4690460B682CD88A8912F470
:1040D000906F26D06569096905EB4505A3EB0109D9
:1040E00005EBD5757B1C4B446D109D4238BF1D46BA
:1040F000530527D52946FFF753FF064660B34A46C6
:104100002169FFF7D7FEA38923F4906343F080036E
:10411000A38126614E4426603E466561A5EB0905F4
:10412000A560BE4200D93E4632464146206800F0B6
:10413000AFFA0020A3689B1BA3602368334423606D
:10414000BDE8F0872A4600F0DBFA06460028E0D1F9
:1041500050462169FFF7BCFE0C23CAF80030A38942
:104160004FF0FF3043F04003A381E9E72DE9F04F22
:1041700098468B8907461B060D4614469DB00ED502
:104180000B6963B94021FFF70BFF2860286120B954
:104190000C233B604FF0FF30D0E040236B610023E5
:1041A000099320238DF8293030234FF00109CDF8F1
:1041B0000C80DFF8A0818DF82A3023469A4613F848
:1041C000012B0AB1252AF9D1BAEB040B0BD05B46BF
:1041D000224629463846FFF76FFF013000F0A980DC
:1041E000099A5A4409929AF80030002B00F0A180F5
:1041F00000234FF0FF32CDE905230AF1010A0493B1
:1042000007938DF853301A935446052214F8011B76
:10421000504800F067FA049AD8B9D00644BF20236A
:104220008DF85330110744BF2B238DF853309AF883
:1042300000302A2B15D0544600204FF00A0C079A64
:10424000214611F8013B303B092B4DD9B0B1079203
:1042500014E0A0EB080309FA03F31343A246049306
:10426000D2E7039B191D1B680391002BBBBF5B4268
:1042700042F0020207930793B8BF049223782E2BD3
:104280000CD163782A2B34D1039B02341A1D1B688E
:104290000392002BB8BF4FF0FF330593DFF8B8A0AF
:1042A00003225046217800F01DFA38B14022049BC9
:1042B000A0EB0A00824013430134049314F8011B5D
:1042C000062226488DF8281000F00CFA002838D075
:1042D000234B1BBB039B073323F0070308330393D4
:1042E000099B3344099368E70C4601200CFB02321A
:1042F000A6E700234FF00A0C194601340593204627
:1043000010F8012B303A092A03D9002BC6D00591A9
:10431000C4E7044601230CFB0121F0E703AB009343
:104320002A4638460F4B04A9AFF30080421C0646CC
:10433000D6D1AB895B063FF52DAF09981DB0BDE81E
:10434000F08F03AB00932A463846064B04A900F0D1
:104350007DF8EBE7DC480008E2480008E648000882
:1043600000000000B94000082DE9F04716469946C4
:104370008A680B6907469342B8BF1346336091F8C9
:1043800043200C46DDF820800AB1013333602368F6
:10439000990642BF336802333360256815F006057D
:1043A00006D104F1190AE36832689B1AAB422BDC90
:1043B00094F84320131E226818BF0123920630D4BC
:1043C0004946384604F14302C047013023D02368F0
:1043D000226903F00603042B14BF002533684FF055
:1043E000000608BFE56804F11A0408BFED1A54F886
:1043F000123C08BF25EAE5759342C4BF9B1AED182D
:10440000B5421AD1002008E00123524649463846F9
:10441000C047013003D14FF0FF30BDE8F0870135D0
:10442000C1E73020E11881F843005A1C94F8451088
:104430002244023382F84310C2E701232246494650
:104440003846C0470130E6D00136D9E72DE9FF47AD
:104450000F7E9146782F80460C469A460C9D01F1BE
:10446000430207D8622F0AD8002F00F0D580582FBA
:1044700000F0C18004F1420584F842703AE0A7F1EF
:104480006303152BF6D801A151F823F0E544000889
:10449000F944000875440008754400087544000894
:1044A00075440008F9440008754400087544000884
:1044B0007544000875440008FF45000825450008BC
:1044C000B9450008754400087544000821460008F5
:1044D0007544000825450008754400087544000827
:1044E000C14500082B681A1D1B682A6004F14205AB
:1044F00084F842300123A0E020682B68070603F10E
:104500000401296001D51E6803E04606FBD5B3F916
:104510000060002E03DA2D23764284F843300A230C
:10452000594812E02B682068191D2960050601D53D
:104530001E6802E04106FBD51E886F2F0CBF0823C2
:104540000A235148002184F843106568002DA8BF54
:104550002168A560A4BF21F0040121600EB9002DDF
:104560004BD01546B6FBF3F103FB1167C75D05F8A9
:10457000017D3746BB420E46F4D9082B0BD1236888
:10458000DE0708D5236961689942DEBF302305F84C
:10459000013C05F1FF35521B22614B462146404646
:1045A000CDF800A003AAFFF7DFFE01304AD14FF09B
:1045B000FF3004B0BDE8F087236843F02003236098
:1045C0007827324884F84570236829681F0651F817
:1045D000046B02D45F0648BFB6B2DF0748BF43F0A2
:1045E0002003296048BF23601EB9236823F02003FD
:1045F00023601023A6E72448E4E71546BDE72B68AF
:104600002668181D6169286035061B6801D5196088
:1046100002E07006FBD51980002315462361BCE734
:104620002B6800211A1D2A601D686268284600F068
:1046300059F808B1401B606063682361002384F867
:104640004330AAE72A46494640462369D04701300D
:10465000ADD023689B0713D4E068039B9842B8BF92
:104660001846A6E70123324649464046D047013066
:104670009DD00135E36803995B1AAB42F2DCEBE7AE
:10468000002504F11906F5E7ED480008FE4800088A
:10469000884210B501EB020402D98442234607D8B0
:1046A000431EA14208D011F8012B03F8012FF8E7AF
:1046B000014602448A4200D110BD13F8014D02F8B0
:1046C000014DF7E738B50023054D044608462B6039
:1046D000FCF706F9431C02D12B6803B1236038BDF7
:1046E000A4120020034610B5C9B2024493421846F2
:1046F00001D1002003E0047801338C42F6D110BDD3
:104700002DE9F041804614460E4621B91146BDE818
:10471000F041FFF745BC2AB9FFF7DAFB25462846EA
:10472000BDE8F08100F01BF88442074602D8B4EBE4
:10473000500F12D821464046FFF732FC05460028AC
:10474000EDD0BC422246314628BF3A46FFF7B2FBC5
:1047500031464046FFF7BCFBE1E73546DFE751F85D
:10476000043C181F002BBCBF0B58C018704700003A
:10477000F8B500BFF8BC08BC9E467047F8B500BF4E
:08478000F8BC08BC9E4670471E
:104788005461736B5F4C4544300000008847000853
:10479800190500080000000000000000800000006B
:1047A80000000000000000005461736B5F4C45443A
:1047B80031000000B047000839050008000000007B
:1047C8000000000080000000000000000000000061
:1047D8005461736B30330000D8470008590500084E
:1047E8000000000000000000800000000000000041
:1047F800000000004D696E6953544D3332206861E2
:1048080073206265656E2072756E6E696E67203002
:1048180030682030306D203030730D0A0000000001
:104828004D696E6953544D33322068617320626557
:10483800656E2072756E6E696E6720303068203044
:10484800306D202564730D0A000000004D696E6903
:1048580053544D333220686173206265656E20724F
:10486800756E6E696E67203030682025646D20256E
:1048780064730D0A000000004D696E6953544D338E
:104888003220686173206265656E2072756E6E698C
:104898006E67202564682025646D202564730D0AE1
:1048A8000000000002030405060708090A0B0C0DA6
:1048B8000E0F101049444C45000000000000000095
:1048C80000000000010203040607080900000000B8
:1048D80001020304232D302B2000686C4C00656610
:1048E8006745464700303132333435363738394139
:1048F800424344454600303132333435363738394F
:08490800616263646566000052
:044910001502000884
:04491400F1010008A5
:104918000024F4001000000001000000AAAAAAAABE
:10492800000000006C110020D41100203C1200206F
:10493800000000000000000000000000000000006F
:10494800000000000000000000000000000000005F
:10495800000000000000000000000000000000004F
:10496800000000000000000000000000100000200F
:04000005080009598D
:00000001FF
